:100000000C948F020C94B0020C94B0020C94B002C9
:100010000C94B0020C94B0020C94B0020C94B00298
:100020000C94B0020C94B0020C94B0020C94B00288
:100030000C94B0020C94B0020C94B0020C94B00278
:100040000C94B0020C94B0020C94B0020C94B00268
:100050000C94B0020C94B0020C94B0020C94B00258
:100060000C94B0020C94E71D0C94B0020C94B002F6
:100070000C94B0020C94B0020C94B0020C94B20236
:100080000C94B0020C94B0020C94B0020C94B00228
:100090000C94351E0C94B0020C94B0020C94B00277
:1000A0000C94B0020C94B0020C94B0020C94B00208
:1000B0000C94B0020C94B0020C94B0020C94B620D4
:1000C0000C94B0020C94B0020C94B0024D45343044
:1000D00035204C61622031205374617274696E67FF
:1000E0002050726F6772616D002C204F4352354172
:1000F0003A20002C20486561703A200053797374CF
:10010000656D2074696D653A200044656320203474
:100110002032303138004D45353037205465726D0E
:100120002050726F6A656374205374656572696EDE
:10013000672056302E3031002020683A20202020C1
:100140002048414C502100202043746C2D433A201C
:1001500052657365742074686520415652002020F2
:100160006E3A2020202020456E7465722061206E3A
:10017000756D626572202864656D6F2900202064AA
:100180003A2020202020537461636B2064756D70C9
:1001900020666F72207461736B73002020763A20A2
:1001A0002020202056657273696F6E20616E642076
:1001B000736574757020696E666F726D6174696FB6
:1001C0006E002020743A202020202053686F772072
:1001D0007468652074696D65207269676874206E43
:1001E0006F77002020703A202020202053656E6415
:1001F00020612070696E6720766961205246002078
:1002000020733A202020202053746F70207468657A
:10021000206361722066726F6D2072756E6E696EFA
:1002200067002020723A20202020205374617274CD
:1002300020746865206361722064726976696E67F4
:10024000002068656C70004D45353037205465726C
:100250006D2050726F6A65637420537465657269AE
:100260006E672056302E303100496C6C6567616CCA
:100270002073746174652120526573657474696EAE
:10028000672041565200223E003C696E76616C69DF
:100290006420636861722022004E756D6265722071
:1002A000656E74657265643A2000223A20575446A0
:1002B0003F00526573657474696E67204156520041
:1002C00073656E64696E672070696E6700456E7451
:1002D000657220646563696D616C206E756D657211
:1002E0006963206469676974732C207468656E2083
:1002F00052455455524E206F72204553430073743B
:100300006F7070696E67206361720072756E206332
:10031000617200507265737320276827206F722006
:10032000273F2720666F722068656C7000546865EF
:1003300020412F4420636F6E766572746572203C95
:100340003C206F70657261746F72206E6F742077DD
:100350006F726B696E672E2041206E756D626572DB
:100360002069733A2000496C6C6567616C20737476
:100370006174652120526573657474696E672041EC
:10038000565200496C6C6567616C207374617465CA
:100390002120526573657474696E6720415652005E
:1003A000496C6C6567616C207374617465212052BF
:1003B0006573657474696E672041565200496C6CB0
:1003C0006567616C20737461746521205265736583
:1003D0007474696E672041565200496C6C656761A0
:1003E0006C2073746174652120526573657474693F
:1003F0006E6720415652004E6F20736861726564CB
:100400002064617461206974656D7320746F20705D
:1004100072696E74002D2D2D2D202020202020208B
:1004200020202020202D2D2D2D202020202D2D2D71
:100430002D2D2D2D2D2D2D0053686172652F517599
:1004400065756520202020205479706520202020AB
:10045000467265652F546F74616C004552524F525D
:10046000206372656174696E67207461736B20220A
:10047000002220637265617465642C20737461636B
:100480006B206174203078005461736B202200541B
:1004900061736B3A20005461736B3A2049444C45B8
:1004A0000009092D002F0049444C45090930092D48
:1004B0000900092D2D2D2D00092D2D2D2D2D2D2D32
:1004C0002D2D2D002D2D2D2D09092D2D2D2D092DF5
:1004D0002D2D2D2D000952756E730009467265652C
:1004E0002F546F74616C004E616D6509095072691B
:1004F0002E0953746174650009537461636B005471
:1005000061736B09092020092000090009002F00F0
:1005100009000900202000000E94331608951124CC
:100520001FBECFEFD1E2DEBFCDBF00E00CBF14E0B5
:10053000A0E0B2E0E2E7FCE500E00BBF02C00790FC
:100540000D92AA35B107D9F71CE1AAE5B4E001C0C4
:100550001D92AE33B107E1F70E94F5020C94372EDD
:100560000C9400001F920F920FB60F920BB60F92D1
:1005700011242F933F938F93AF93BF93EF93FF93E8
:100580002091940030919500A0916604B091670489
:1005900018968C9118978823E1F4809191008064DB
:1005A00080939100E0916804F0916904318720877D
:1005B00081E018968C93FF91EF91BF91AF918F914D
:1005C0003F912F910F900BBE0F900FBE0F901F9079
:1005D0001895809191008F7B8093910010929500E7
:1005E0001092940018961C92E6CFAF92BF92CF92D1
:1005F000DF92EF92FF920F931F9314BE88E10FB624
:10060000F89480936000109260000FBE80E190E04B
:100610000E94721BB82EA92E60E875E241E00E948C
:10062000831E8B2D9A2D67E00E94E11B6BE00E94D8
:10063000E11B8C016CEC70E00E949D1BC80166E020
:100640000E94E11B88E190E00E94721BD82EC92E07
:1006500060E270E040E052E02B2D3A2DEAE0EE2E11
:10066000F12C012D112D0E94C819D0925A04C0926C
:100670005B0489E090E00E94721B8C0166E072E0EE
:100680000E94D31595E8E92E92E0F92EF801F18247
:10069000E08210935D0400935C0489E090E00E9486
:1006A000721B8C0160E172E00E94D315F801F182A7
:1006B000E08210935F0400935E0489E090E00E9462
:1006C000721B8C016AE172E00E94D315F801F1827D
:1006D000E082109361040093600489E090E00E943E
:1006E000721B8C0167E272E00E94D3158FE7E82E3F
:1006F00082E0F82EF801F182E08210936304009307
:10070000620489E090E00E94721B8C0161E372E058
:100710000E94D315F801F182E082109365040093E2
:1007200064040FB6F8940F92F80110860F900FBE74
:1007300089E090E00E94721B8C016DE372E00E94E0
:10074000D31585E892E0F8019183808310936704C4
:10075000009366048AE090E00E94721B8C0163E4BF
:1007600072E00E94D3158BE892E0F80191838083B8
:10077000109369040093680482E190E00E94721B68
:100780006AE472E041E024E031E00B2D1A2D0E9472
:100790003F0882E190E00E94721B62E572E044E053
:1007A00028EC30E00E94630983E190E00E94721B14
:1007B0006BE572E044E028EC30E00E94220A84E11C
:1007C00090E00E94721B61E672E044E028EC30E0A9
:1007D0000E94780C82E190E00E94721B64E672E055
:1007E00042E028EC30E00E94DD0A83E190E00E94C4
:1007F000721B6FE672E044E028EC30E00E94420D8C
:1008000078940E941A1581E090E01F910F91FF905B
:10081000EF90DF90CF90BF90AF900895EF92FF924E
:100820001F93CF93DF937C01EB01FC016481758101
:10083000CE010E949D1BF701A481B581FD010190AD
:100840000020E9F731971E2F1A1B103158F4E88168
:10085000F9810280F381E02DCE0160E219951F5FDE
:100860001031A8F3CE0164E772E00E949D1BCE0117
:1008700066E00E94E11BF701A681B781109749F05D
:10088000ED91FC9111970190F081E02DCD01BE0119
:100890001995DF91CF911F91FF90EF900895EF92FE
:1008A000FF921F93CF93DF937C01EB01FC016481E6
:1008B0007581CE010E949D1BF701A481B581FD01C8
:1008C00001900020E9F731971E2F1A1B103158F4C0
:1008D000E881F9810280F381E02DCE0160E2199573
:1008E0001F5F1031A8F3CE0164E772E00E949D1BE8
:1008F000CE0166E00E94E11BF701A681B781109747
:1009000049F0ED91FC9111970190F081E02DCD011E
:10091000BE011995DF91CF911F91FF90EF9008953F
:10092000EF92FF921F93CF93DF937C01EB01FC01C9
:1009300064817581CE010E949D1BF701A481B58160
:10094000FD0101900020E9F731971E2F1A1B10318D
:1009500058F4E881F9810280F381E02DCE0160E254
:1009600019951F5F1031A8F3CE0164E772E00E9471
:100970009D1BCE0166E00E94E11BF701A681B781B5
:10098000109749F0ED91FC9111970190F081E02DC5
:10099000CD01BE011995DF91CF911F91FF90EF908E
:1009A0000895EF92FF920F931F93DF93CF9300D0A0
:1009B00000D0CDB7DEB77C0119821A821B821C825F
:1009C0001E821D82FC018681978166E00E94E11BE8
:1009D0006BE00E94E11B8C0166E171E00E949D1BAF
:1009E000C8016BE00E94E11B8C016AE071E00E948B
:1009F0009D1BC80166E00E94E11B6BE00E94E11BA9
:100A00008C016CEF70E00E949D1BCE0101960E944C
:100A1000BC1ABC01C8010E94421A6BE00E94E11B93
:100A20008C0163EF70E00E949D1B0E94640DBC016D
:100A3000C8010E94341C8C016DE872E00E949D1B6D
:100A4000C80148E357E160E070E00E946F1C6BE072
:100A50000E94E11B8C0169EE70E00E949D1B609179
:100A6000280170912901C8010E94341C66E00E948F
:100A7000E11B66E00E94E11BF701868197810E94DD
:100A80000718F7018681978166E00E94E11BF70154
:100A9000868197810E94531526960FB6F894DEBF83
:100AA0000FBECDBFCF91DF911F910F91FF90EF90BF
:100AB0000895EF92FF920F931F937C01FC018681B2
:100AC00097816BE00E94E11B8C0167E472E00E9459
:100AD0009D1BC8016BE00E94E11B8C0161E472E088
:100AE0000E949D1BC80166E00E94E11BF701868100
:100AF00097816BE00E94E11B8C0162E272E00E9430
:100B00009D1BC80166E00E94E11BF7018681978169
:100B10006BE00E94E11B8C016FEF71E00E949D1B56
:100B2000C80166E00E94E11BF701868197816BE0B6
:100B30000E94E11B8C0163EE71E00E949D1BC801C5
:100B400066E00E94E11BF701868197816BE00E94BD
:100B5000E11B8C0162EC71E00E949D1BC80166E004
:100B60000E94E11BF701868197816BE00E94E11BE7
:100B70008C016BE971E00E949D1BC80166E00E9438
:100B8000E11BF701868197816BE00E94E11B8C01DC
:100B90006DE771E00E949D1BC80166E00E94E11BA9
:100BA000F701868197816BE00E94E11B8C016EE565
:100BB00071E00E949D1BC80166E00E94E11BF701E5
:100BC000868197816BE00E94E11B8C0167E471E0F4
:100BD0000E949D1BC80166E00E94E11BF70186810F
:100BE00097816BE00E94E11B8C0168E371E00E9439
:100BF0009D1BC80166E00E94E11B1F910F91FF90B1
:100C0000EF9008954F925F926F927F928F929F9292
:100C1000AF92BF92CF92DF92EF92FF920F931F930A
:100C2000DF93CF9300D000D0CDB7DEB76C0119822F
:100C30001A821B821C821E821D82DC0116968D91F7
:100C40009C9117976BE00E94E11B8C0163E173E0BC
:100C50000E949D1BC80166E00E94E11B7C2C6D2C4C
:100C60008824992454012E010894411C511CF6013A
:100C70008485882321F5D6011696ED91FC9117976E
:100C8000A081B18114962D913C911597CF01F90166
:100C90001995882309F0CFC0F60186859785A0892C
:100CA000B1890196A11DB11D86879787A08BB18B55
:100CB00061E070E080E090E00E947213D8CF813054
:100CC000D9F0F601868197816BE00E94E11B8C01CF
:100CD00069E672E00E949D1BC80166E00E94E11B6C
:100CE0002BE088E190E00FB6F894A895809360001F
:100CF0000FBE20936000FFCFD6011696ED91FC91B8
:100D00001797A081B18114962D913C911597CF0131
:100D1000F9011995882309F465C0F601A681B78108
:100D2000ED91FC9111970680F781E02DCD01199589
:100D3000E82E80538A3090F1FAE0EF1629F1BDE0F9
:100D4000EB1621F0EBE1EE1609F0BBC0D6011696CA
:100D50008D919C91179766E00E94E11B6BE00E94C9
:100D6000E11B8C0169E972E00E949D1BC801B5017D
:100D7000A4010E946F1C66E00E94E11B872D962D46
:100D800060E00E940A1688CFD60116968D919C913C
:100D900017976FE872E00E949D1B7ECFF601A68137
:100DA000B781ED91FC9111970280F381E02DCD0187
:100DB0006E2D1995C501B4012AE030E040E050E005
:100DC0000E94262D2E2D332727FD309520533040AD
:100DD0004901AA2497FCA094BA2C860E971EA81E3F
:100DE000B91E5ACFE0915A04F0915B04A081B18101
:100DF00014962D913C911597CF01F90119958823EF
:100E000009F44ACFF60106811781D801ED91FC91D2
:100E1000E280F380A0915A04B0915B04ED91FC91C3
:100E200011970680F781E02DCD011995682FC80133
:100E3000F701199531CFD6011696ED91FC911797D0
:100E4000A081B18116962D913C911797CF01F901A0
:100E50001995E82EBEE68B1709F4A7C0B8170CF455
:100E60007BC0EFE38E1709F46BC0E8170CF461C088
:100E7000F3E08F1709F442C0D60116960D911C912C
:100E80001797D801ED91FC910280F381E02DC80104
:100E900062E21995D801ED91FC910280F381E02D79
:100EA000C8016E2D1995C8016BE00E94E11B8C01F1
:100EB0006AEA72E00E949D1BC80166E00E94E11B85
:100EC000EBCEF601868197816BE00E94E11B8C01DD
:100ED00069E872E00E949D1BD801ED91FC910280AF
:100EE000F381E02DC8016E2D1995C8016BE00E94B9
:100EF000E11B66E872E00E949D1BCECEF601868162
:100F000097816BE00E94E11B8C0162EB72E00E9412
:100F10009D1BC80166E00E94E11B2BE088E190E088
:100F20000FB6F894A895809360000FBE20936000E0
:100F3000FFCF84E6E81641F0A8E6EA1609F09CCF58
:100F4000C6010E945905A8CED60116968D919C9196
:100F500017970E94B117A0CEB3E78B1709F465C0AD
:100F6000B8170CF457C0E0E78E17B9F1F2E78F1706
:100F700009F082CFF601868197816BE00E94E11B28
:100F80008C016BE073E00E949D1BC80166E00E942B
:100F9000E11B0FB6F8940F92E0916404F0916504A0
:100FA00081E080870F900FBE77CEF6018681978112
:100FB0006BE00E94E11B8C016DEC72E00E949D1BB6
:100FC000C80166E00E94E11B872D962D61E00E941A
:100FD0000A168824992454015FCED60116968D9165
:100FE0009C9117976BE00E94E11B8C0160EC72E012
:100FF0000E949D1BC80166E00E94E11B0FB6F89499
:101000000F92E0916204F091630481E080870F9079
:101010000FBE42CE84E7E81621F1A6E7EA1609F0F2
:101020002BCFC6010E94D10437CED60116968D91E2
:101030009C9117976BE00E94E11B8C016EEF72E0B0
:101040000E949D1BC80166E00E94E11B0FB6F89448
:101050000F92E0916404F091650410860F900FBE2A
:101060001BCEF60106811781C2010E94BC1ABC0189
:10107000C8010E94421A66E00E94E11B0DCEEF9269
:10108000FF920F931F937C010E94E21685E992E084
:10109000F701918380831F910F91FF90EF90089546
:1010A000EF92FF920F931F937C010E94E21685E955
:1010B00092E0F701918380831F910F91FF90EF9051
:1010C000089580917C00887F80937C0080917C00D3
:1010D0006770862B80937C0080917A008064809377
:1010E0007A0080917A0086FDFCCF80917800909103
:1010F00079000895CF93DF93FC01C081D1812097BF
:1011000049F0CE0169E972E00E949D1BCE0166E0C4
:101110000E94E11B8FEF9FEFDF91CF910895CF9257
:10112000DF92EF92FF920F931F93D82EC92E7B016F
:101130006BE00E94E11B8C016DE273E00E949D1B3D
:10114000C70160E044E00E947A08BC01C8010E9427
:10115000341C66E00E94E11B8D2D9C2D1F910F9188
:10116000FF90EF90DF90CF900895CF93DF93FC0135
:10117000EB017183608380E880937A0080917C002A
:10118000806480937C006115710549F0CB016CEBA4
:1011900072E00E949D1BCE0166E00E94E11BDF9180
:1011A000CF910895CF93DF93FC01EB0171836083AE
:1011B00080E880937A0080917C00806480937C003A
:1011C0006115710549F0CB016CEB72E00E949D1B2B
:1011D000CE0166E00E94E11BDF91CF9108956B354F
:1011E0000CF06AE5663A0CF466EA772767FD7095BD
:1011F000872F972F0E94062A2DE232EB4DE95DE3FF
:101200000E94302820E030E040EC51E40E940328A6
:101210000E945A26DC01CB0108950F931F93CF93B0
:10122000DF93EC0108E111E08C85882301F5249A15
:101230008091B00083688093B0008091B100876096
:101240008093B1000093B3001C878E859F85A88989
:10125000B9890196A11DB11D8E879F87A88BB98B77
:1012600061E070E080E090E00E947213DDCF813099
:10127000D1F08E819F816BE00E94E11B8C0166E6BC
:1012800073E00E949D1BC80166E00E94E11B2BE0F9
:1012900088E190E00FB6F894A895809360000FBEA7
:1012A00020936000FFCF0FB6F8940F920F900FBEFF
:1012B000E0915C04F0915D04CE0160850E94EF082E
:1012C0008093B300C2CFEF92FF920F931F937C01E4
:1012D0000E94E21683ED92E0F701918380831F91D3
:1012E0000F91FF90EF900895EF92FF920F931F934D
:1012F0007C010E94E21683ED92E0F70191838083E6
:101300001F910F91FF90EF900895CF92DF92EF928F
:10131000FF921F93FC01162F6B350CF01AE56289C2
:10132000772767FD7095625A7F4F882777FD8095F4
:10133000982F0E94062A6B017C01612F163A0CF44B
:1013400066EA772767FD7095872F972F0E94062AF8
:101350002AE939E949E95EE30E9430289B01AC01A2
:10136000C701B6010E9403280E945A26DC01CB0166
:101370001F91FF90EF90DF90CF900895EF92FF9232
:101380000F931F93CF93DF93EC018EEF8A8B04E0D2
:1013900011EE8EE5F82EEE24E3948C85882331F54A
:1013A000259A8091800082688093800080918100DE
:1013B0008C618093810000938700109386001092C7
:1013C0008900F0928800EC868E859F85A889B9896E
:1013D0000196A11DB11D8E879F87A88BB98B61E0F7
:1013E00070E080E090E00E947213D7CF8130D1F09E
:1013F0008E819F816BE00E94E11B8C0163E873E0AA
:101400000E949D1BC80166E00E94E11B2BE088E161
:1014100090E00FB6F894A895809360000FBE2093DB
:101420006000FFCF0FB6F8940F920F900FBEE091BF
:101430005E04F0915F04CE0160850E94850980936F
:101440008800C2CFEF92FF920F931F937C010E94FE
:10145000E2168BED92E0F701918380831F910F914B
:10146000FF90EF900895EF92FF920F931F937C01EE
:101470000E94E2168BED92E0F701918380831F9129
:101480000F91FF90EF900895EF92FF920F931F93AB
:10149000CF93DF93EC0104E112E08AE5F82EEE240D
:1014A000E3948C85813009F466C0813038F50FB63D
:1014B000F8940F92E0915E04F0915F0410860F9013
:1014C0000FBE0FB6F8940F92E0915C04F0915D04AA
:1014D00010860F900FBE1C878E859F85A889B989BD
:1014E0000196A11DB11D8E879F87A88BB98B61E0E6
:1014F00070E080E090E00E947213D3CF8230D1F090
:101500008E819F816BE00E94E11B8C0160EA73E099
:101510000E949D1BC80166E00E94E11B2BE088E150
:1015200090E00FB6F894A895809360000FBE2093CA
:101530006000FFCF0FB6F8940F920F900FBEE091AE
:101540006404F091650480858111EC860FB6F894EF
:101550000F92E0915E04F0915F0410860F900FBE31
:101560000FB6F8940F92E0915C04F0915D04F08660
:101570000F900FBEB1CF0FB6F8940F920F900FBE21
:10158000E0916404F09165048085882309F41C8748
:101590000FB6F8940F92E0915E04F0915F0400871B
:1015A0000F900FBE0FB6F8940F92E0915C04F0918B
:1015B0005D0410860F900FBE8FCFEF92FF920F93B6
:1015C0001F937C010E94E21683EE92E0F701918363
:1015D00080831F910F91FF90EF900895EF92FF92FB
:1015E0000F931F937C010E94E21683EE92E0F701B5
:1015F000918380831F910F91FF90EF90089584B1A4
:10160000876084B923986B9A8CB582658CBD289AC3
:10161000739808956EBD0DB407FEFDCF8EB5089585
:1016200085E3982F9A95F1F728988A95F1F76EBD82
:101630000DB407FEFDCF8EB585E38A95F1F78FEFE8
:101640008EBD0DB407FEFDCF8EB595E39A95F1F7EB
:10165000289A089585E3982F9A95F1F728988A9506
:10166000F1F7605E6EBD0DB407FEFDCF8EB585E36C
:101670008A95F1F74EBD0DB407FEFDCF8EB585E31B
:101680008A95F1F7289A08950F931F93662309F41A
:10169000405E85E3982F9A95F1F728988A95F1F79F
:1016A0004EBD0DB407FEFDCF8EB585E38A95F1F7EB
:1016B00010E001151105B1F0A0E0B0E095E35FEF97
:1016C0006130B1F0F901EA0FFB1F80818EBD0DB4CE
:1016D00007FEFDCF8EB5892F8A95F1F71196A017D9
:1016E000B10774F3289A8AE694E01F910F91089548
:1016F000403A41F35EBD0DB407FEFDCF8EB5FD014E
:10170000E659FB4F8083892F8A95F1F7E7CFCF9277
:10171000DF92EF92FF920F937C016B0161E041EE4B
:10172000960100E00E94440BC70161E040EA960187
:1017300002E00E94440B80E49CE9FC013197F1F740
:10174000739A0197F1F773980F91FF90EF90DF90E4
:10175000CF9008952F923F924F925F926F927F9217
:101760008F929F92AF92BF92CF92DF92EF92FF92B1
:101770000F931F93DF93CF93CDB7DEB729970FB6A3
:10178000F894DEBF0FBECDBF7C0155E0652E712CF5
:101790006C0E7D1E5E010894A11CB11C43E0842EDA
:1017A000912C8C0E9D1E32E0C32E5524539425E3BC
:1017B000422E9EE6392E8FE6282EF701D484F1E0E2
:1017C000DF1609F47FC0DF1660F5F701128A538A2D
:1017D000C7010E94FF0A842D8A95F1F7F70106815F
:1017E0001781C70167E00E94100B682FC8010E9493
:1017F000B71C66E00E94E11BF7015486F70186855D
:101800009785A089B1890196A11DB11D868797870B
:10181000A08BB18B61E070E080E090E00E947213D9
:10182000CCCF82E0D816D9F0F701868197816BE0A2
:101830000E94E11B8C016DEB73E00E949D1BC801AF
:1018400066E00E94E11B2BE088E190E00FB6F8947F
:10185000A895809360000FBE20936000FFCFF70132
:1018600006811781C70167E00E94100B682FC8012D
:101870000E94B71C66E00E94E11B3D822E82F4E6C6
:10188000FF8385E68887E1E3E987C70160E040E1FF
:10189000930105E00E94440BD982C70160E040E05B
:1018A000950101E00E94440B80E49FE10197F1F76C
:1018B0001B82F1E6FC83C701B4010E94870BF7018C
:1018C00054869CCFE0916204F09163040FB6F894C3
:1018D0000F920F900FBE8085882309F48FCF0FB62B
:1018E000F8940F9210860F900FBEF701C48686CF32
:1018F000EF92FF920F931F937C010E94E2168BEEF2
:1019000092E0F701918380831F910F91FF90EF90F8
:101910000895EF92FF920F931F937C010E94E216AD
:101920008BEE92E0F701918380831F910F91FF90DE
:10193000EF900895EF92FF920F931F93CF93DF9351
:10194000EC018C0180E2F82EEE24E3948C85882350
:1019500009F03EC01A8A8DB180788DB91DB81092F9
:101960009100809191008464809391008091710036
:10197000806280937100F8BA0FB6F8940F92E091EC
:101980006604F0916704E0860F900FBE0FB6F894DE
:101990000F92E0916804F0916904118610860F900F
:1019A0000FBE399AC80161E00E940A168E859F8594
:1019B000A889B9890196A11DB11D8E879F87A88B23
:1019C000B98B62E370E080E090E00E947213BECFBA
:1019D0008130D1F08E819F816BE00E94E11B8C01F0
:1019E0006AED73E00E949D1BC80166E00E94E11B46
:1019F0002BE088E190E00FB6F894A8958093600002
:101A00000FBE20936000FFCF0FB6F8940F92E091C5
:101A10006804F0916904608571850F900FBE6115AF
:101A2000710531F48A898823E1F041981A8ABECF82
:101A30000FB6F8940F920F900FBE8E819F810E9477
:101A4000341C66E00E94E11B41980FB6F8940F9297
:101A5000E0916804F0916904118610860F900FBE22
:101A6000A5CF0FB6F8940F920F900FBE8E819F8175
:101A700060E070E00E94341C66E00E94E11B419A25
:101A8000EA8A94CFEF92FF920F931F937C010E94FA
:101A9000E21683EF92E0F701918380831F910F910B
:101AA000FF90EF900895EF92FF920F931F937C01A8
:101AB0000E94E21683EF92E0F701918380831F91E9
:101AC0000F91FF90EF9008958091F7029091F802A6
:101AD00008950895CF93DF93009739F1EC0124978F
:101AE0000E943F0E4A815B81A3ECBBE12C911196D1
:101AF0003C911197BD01C901DC0112968D919C9119
:101B000013978417950790F3FB01B983A883D183BA
:101B1000C0838091F7029091F802840F951F9093F3
:101B2000F8028093F7020E947412DF91CF9108951A
:101B3000EF92FF920F931F93CF93DF93EC010E94DC
:101B40003F0E80918A04882309F58CE894E09093F5
:101B5000C41B8093C31B1092C61B1092C51B87E346
:101B600097E19093CA1B8093C91B1092C81B1092D7
:101B7000C71B90938F0480938E0487EC9BE1909316
:101B80008D0480938C0481E080938A04209739F03F
:101B9000AE014C5F5F4F2396C653D74160F0C0E063
:101BA000D0E00E947412CE01DF91CF911F910F916E
:101BB000FF90EF900895C091C31BD091C41BE3EC3C
:101BC000FBE107C088819981BE01009739F0EC01E3
:101BD000FB012A813B8124173507A0F38BE1C73C29
:101BE000D807E9F2E080F180888199819183808330
:101BF000C901841B950B8930910510F18E01040FEA
:101C0000151FF801938382835B834A83428153814A
:101C1000A3ECBBE12C9111963C911197BD01C90138
:101C2000DC0112968D919C9113978417950790F380
:101C3000F801B183A083FB01118300832A813B81DA
:101C4000E70124968091F7029091F802821B930B92
:101C50009093F8028093F702A4CF0FB6F8940F92F6
:101C6000009729F0FC010F900FBE828D0895E0913E
:101C7000CB1BF091CC1B0F900FBE828D08958091ED
:101C8000D41B8F5F8093D41B08950FB6F8940F92E6
:101C90002091CF1B3091D01B4091D11B5091D21B72
:101CA0000F900FBEB901CA0108952091CF1B30914A
:101CB000D01B4091D11B5091D21BB901CA0108958C
:101CC0008091D81B0895009729F09C01235E3F4F17
:101CD000C90108958091CB1B9091CC1B9C01235E80
:101CE0003F4FC90108958091D61B9091D71B08954D
:101CF0008091D41B8823E9F51092CE1B05C08091FA
:101D0000CD1B81508093CD1B8091CD1B90E0FC01B9
:101D1000EE0FFF1F9C01220F331F220F331F220FD4
:101D2000331FE20FF31FE80FF91FE552F44E8081D5
:101D3000882329F39091CD1B8BE0989FD00111242B
:101D4000A552B44E1196ED91FC9112970480F58145
:101D5000E02D1296FC93EE931197CD010396E817B0
:101D6000F90759F0808591859093CC1B8093CB1B0C
:101D7000089581E08093CE1B08958481958111960A
:101D80008C93119712969C939C01F901EBCFFC0167
:101D90008091D31B80838091CF1B9091D01BA09109
:101DA000D11BB091D21B81839283A383B483089506
:101DB000AF92BF92CF92DF92EF92FF920F931F9359
:101DC000CF93DF93FC01EB010FB6F8940F92A09034
:101DD000CF1BB090D01BC090D11BD090D21B909144
:101DE000D31B8081891709F443C0E180F28003810D
:101DF0001481AE14BF04C006D10660F52881398174
:101E00004A815B81D601C5018E199F09A00BB10BD8
:101E100082179307A407B507E8F42A193B094C0970
:101E20005D092E0D3F1D401F511F288339834A83B2
:101E30005B838091D31B80838091CF1B9091D01BBB
:101E4000A091D11BB091D21B81839283A383B483D1
:101E500080E001C081E00F900FBEDF91CF911F9114
:101E60000F91FF90EF90DF90CF90BF90AF900895CB
:101E7000E180F28003811481C1CF81E08093CE1B89
:101E800008950097B1F0FC01A38DB48D8C91853A33
:101E9000A9F420E030E040E050E02F5F3F4F4F4F8B
:101EA0005F4FFD01E20FF31F8081853AB1F3822F6E
:101EB0000895E091CB1BF091CC1BE6CF80E0089514
:101EC0002091CB1B3091CC1BC9010895E091CB1B15
:101ED000F091CC1B6685778580899189A091CB1B79
:101EE000B091CC1BE091CB1BF091CC1BE28D24E098
:101EF00030E040E050E02E1B3109410951091E96A7
:101F00002D933D934D935C93519708958091CB1BF6
:101F10009091CC1B892B39F0E091CB1BF091CC1B1D
:101F200080A58F5F80A72091CB1B3091CC1BC9016E
:101F300008950F931F93CF93DF93EC01009749F01F
:101F400028A5215028A79A8D8FA1981711F0222338
:101F500031F080E0DF91CF911F910F9108958E01B4
:101F60000E5F1F4FC8010E94971F2FA12A8F84E088
:101F700090E0A0E0B0E0821B9109A109B1098E8731
:101F80009F87A88BB98B8091CD1B821710F420936B
:101F9000CD1B8BE0289FC00111248552944EB801BF
:101FA0000E94371F81E0DF91CF911F910F9108951B
:101FB0000F931F93CF93DF93EC01009781F13A8D3C
:101FC000E091CB1BF091CC1B828D381740F58E85AC
:101FD0009F85A889B989B7FD11C0E091CB1BF0910D
:101FE000CC1B228D84E090E0A0E0B0E0821B910940
:101FF000A109B1098E879F87A88BB98B8BE0389F89
:10200000C00111248552944E2C853D85281739072F
:1020100059F0E091CB1BF091CC1B828D8A8FDF9120
:10202000CF911F910F9108958E010E5F1F4FC80130
:102030000E94971FE091CB1BF091CC1B928D9A8F41
:102040008091CD1B891710F49093CD1B8BE0989F46
:10205000C00111248552944EB8010E94371FDFCF72
:102060000F931F93CF93DF93FC01706840835183DC
:1020700062837383C085D1850E94971F8E010E5F96
:102080001F4FC8010E94971F9A8D8091CD1B891701
:1020900010F49093CD1B8BE0989FC00111248552C2
:1020A000944EB8010E94371FE091CB1BF091CC1BDE
:1020B0009A8D828D891740F481E08093CE1BDF9149
:1020C000CF911F910F91089580E0DF91CF911F91E3
:1020D0000F9108950F931F93CF93DF93DC01179611
:1020E000ED91FC91189700851185E8012E96CE019F
:1020F0000E94971F8091D41B882331F5E801229616
:10210000CE010E94971FF801928D8091CD1B8917F7
:1021100008F18BE0989FC00111248552944EBE01B6
:102120000E94371FE091CB1BF091CC1BD8015A962F
:102130009C91828D891788F481E08093CE1BDF917A
:10214000CF911F910F91089581E29CE1BE010E9401
:10215000371FE8CF9093CD1BDCCF80E0DF91CF918C
:102160001F910F910895AF92BF92CF92DF92EF929D
:10217000FF920F931F93CF93DF938091D41B8823FB
:1021800009F0B2C08091CF1B9091D01BA091D11BC0
:10219000B091D21B0196A11DB11D8093CF1B9093CE
:1021A000D01BA093D11BB093D21BC090CF1BD0905B
:1021B000D01BE090D11BF090D21BC114D104E104DC
:1021C000F10449F520911D1C30911E1C80911F1CAB
:1021D0009091201C90931E1C80931D1C3093201CFA
:1021E00020931F1C8091D31B8F5F8093D31BE091A2
:1021F0001D1CF0911E1C8081882309F0AAC08FEF5E
:102200009FEFAFEFBFEF8093FE029093FF02A0938A
:102210000003B09301038091FE029091FF02A09110
:102220000003B0910103C816D906EA06FB0608F4BC
:1022300073C0BB24EBE0AE2EE0911D1CF0911E1C80
:102240008081882309F443C0E0911D1CF0911E1C7D
:102250000780F085E02DC085D1858A819B81AC8186
:10226000BD81C816D906EA06FB0608F489C08E01AE
:102270000E5F1F4FC8010E94971F888D998D892B73
:1022800021F0CE010E960E94971F9A8D8091CD1B52
:10229000891710F49093CD1B9A9DC001112485528B
:1022A000944EB8010E94371FE091CB1BF091CC1BDC
:1022B0009A8D828D981708F4BFCFBB24B394E09118
:1022C0001D1CF0911E1C8081882309F0BDCF8FEF6B
:1022D0009FEFAFEFBFEF8093FE029093FF02A093BA
:1022E0000003B093010319C08091D51B8F5F8093C9
:1022F000D51BBB248091CE1B882311F0BB24B39443
:102300008B2DDF91CF911F910F91FF90EF90DF9078
:10231000CF90BF90AF900895BB24E091CB1BF0917C
:10232000CC1B828D90E0FC01EE0FFF1F9C01220F61
:10233000331F220F331F220F331FE20FF31FE80F4B
:10234000F91FE552F44E80818230A0F2BB24B39491
:10235000D1CFE0911D1CF0911E1C0780F085E02D6F
:102360000084F185E02D82819381A481B5818093E1
:10237000FE029093FF02A0930003B09301034BCFA2
:102380008093FE029093FF02A0930003B093010399
:10239000C4CFEF92FF920F931F937B018C01E091CA
:1023A000CB1BF091CC1B62837383848395838091D4
:1023B000CF1B9091D01BA091D11BB091D21BE816DE
:1023C000F9060A071B0730F180911D1C90911E1C15
:1023D0006091CB1B7091CC1B6E5F7F4F0E94561F8C
:1023E0008091FE029091FF02A0910003B091010341
:1023F000E816F9060A071B0740F4E092FE02F09285
:10240000FF0200930003109301031F910F91FF90AF
:10241000EF90089580911F1C9091201C6091CB1B20
:102420007091CC1B6E5F7F4F0E94561F1F910F91C2
:10243000FF90EF900895EF92FF920F931F93780112
:102440008901E091CB1BF091CC1B706846875787C0
:10245000608B718B6091CB1B7091CC1B625F7F4F47
:102460000E94371F8091CB1B9091CC1B02960E943B
:10247000971F6091CF1B7091D01B8091D11B9091C1
:10248000D21B6E0D7F1D801F911F0E94C9111F91CD
:102490000F91FF90EF900895EF92FF920F931F938B
:1024A0007A018B016091CB1B7091CC1B625F7F4FD7
:1024B0000E94561F8091CB1B9091CC1B02960E94CC
:1024C000971F6091CF1B7091D01B8091D11B909171
:1024D000D21B6E0D7F1D801F911F0E94C9111F917D
:1024E0000F91FF90EF900895EF92FF920F931F933B
:1024F000CF93DF930FB6F8940F928091D41B815045
:102500008093D41B8091D41B882309F056C08091FE
:10251000D81B882309F451C0FBE0FF2EEE24E3947E
:102520008091211C882369F1E091281CF091291CDD
:10253000C085D185CE010E960E94971F8E010E5F39
:102540001F4FC8010E94971F9A8D8091CD1B89173C
:1025500010F49093CD1B9F9DC00111248552944E81
:10256000B8010E94371FE091CB1BF091CC1B9A8DD4
:10257000828D9817A8F2E092CE1B8091211C8823AF
:1025800099F68091D51B8823A1F08091D51B8823D3
:1025900081F011E00E94B310882311F01093CE1B3C
:1025A0008091D51B81508093D51B8091D51B8823AA
:1025B00089F78091CE1B813051F080E00F900FBEE3
:1025C000DF91CF911F910F91FF90EF9008950E949E
:1025D000B92081E0F3CF8091DB1B823018F00E949C
:1025E000B920F9CFFFCFEF92FF921F93CF93DF93E4
:1025F000643008F063E00FB6F8940F92009709F486
:1026000051C0EC012FA1261769F1261798F180918E
:10261000CB1B9091CC1B10E0C817D907D1F13A8D94
:102620002317D9F16FA38E859F85A889B989B7FD36
:102630000CC084E090E0A0E0B0E0861B9109A10905
:10264000B1098E879F87A88BB98B8BE0389FC0011B
:1026500011248552944E2C853D852817390749F160
:102660001130E9F00F900FBEDF91CF911F91FF90D5
:10267000EF9008958091CB1B9091CC1BC817D90780
:10268000B1F0E091CB1BF091CC1B10E0828D68176C
:1026900030F211E03A8D231729F66A8FC3CF0E94DA
:1026A000B920E0CFC091CB1BD091CC1BABCF10E0B9
:1026B000B6CFA2E0EA2EF12CEC0EFD1EC7010E945F
:1026C000971F9A8D8091CD1B891710F49093CD1B85
:1026D0008BE0989FC00111248552944EB7010E944F
:1026E000371FBECFAF92BF92CF92DF92EF92FF9291
:1026F0000F931F935B016C016115710581059105B5
:1027000059F40E94B9201F910F91FF90EF90DF9034
:10271000CF90BF90AF9008958091D41B8F5F80932E
:10272000D41BE090CF1BF090D01B0091D11B1091D7
:10273000D21B8091CB1B9091CC1B02960E94971FBD
:10274000EA0CFB1C0C1D1D1DC801B7010E94C9111C
:102750000E9474128823B9F6D4CFEF92FF920F93A0
:102760001F93FC017A018B018091D41B8F5F8093B2
:10277000D41B2091CF1B3091D01B4091D11B509185
:10278000D21B80819181A281B381E80EF91E0A1FBC
:102790001B1F281739074A075B0720F5E816F906BB
:1027A0000A071B0748F52E153F054007510720F57E
:1027B000E082F182028313838091CB1B9091CC1B2A
:1027C00002960E94971FC801B7010E94C9110E947A
:1027D0007412882311F40E94B9201F910F91FF9069
:1027E000EF900895E816F9060A071B0708F32E155F
:1027F0003F0540075107E0F2E082F1820283138334
:10280000E6CFF8941092D91B0E94502008952F9281
:102810003F924F925F926F927F928F929F92AF9270
:10282000BF92CF92DF92EF92FF920F931F93CF93BD
:10283000DF932C01362E272E5A013901102F470124
:1028400089E290E00E94980DEC01009709F4BCC069
:10285000C114D10409F4ACC0DC8ECB8EC60165EA8C
:1028600070E0A5010E94C22DEB8CFC8C832D922D73
:102870009C01F901DE0190E080815D968C935D976B
:102880008081882329F09F5F319611969A30A1F7B5
:102890001EA2012F143008F089C00A8F0FA318A6BA
:1028A00082E0C82ED12CCC0EDD1EC6010E94331F43
:1028B000CE010E960E94331FDB87CA8784E090E02A
:1028C000A0E0B0E0801B9109A109B1098E879F8724
:1028D000A88BB98BDF8BCE8B0894A108B108C701F8
:1028E0008A0D9B1DB201A3010E94C21F9983888398
:1028F0008114910419F0F401D183C0830FB6F894C8
:102900000F928091D81B8F5F8093D81B8091CB1B37
:102910009091CC1B892B09F459C08091D91B882335
:1029200059F4E091CB1BF091CC1B828D181720F04D
:10293000D093CC1BC093CB1B8091DA1B8F5F80930D
:10294000DA1B9A8D8091CD1B891710F49093CD1BC3
:102950008BE0989FC00111248552944EB6010E94CD
:10296000371F0F900FBE8091D91B882359F0E0913B
:10297000CB1BF091CC1B828D811720F40E94B920D3
:1029800081E001C081E0DF91CF911F910F91FF9015
:10299000EF90DF90CF90BF90AF909F908F907F90FF
:1029A0006F905F904F903F902F90089503E075CF08
:1029B000C5010E94980D6C019C8F8B8F009709F0C8
:1029C0004DCFCE010E946A0D8FEFDDCFD093CC1B8F
:1029D000C093CB1B8091D81B813009F0ADCF8BED1C
:1029E0009BE10E941F1F86EE9BE10E941F1F81EF4B
:1029F0009BE10E941F1F8CEF9BE10E941F1F07E0BD
:102A0000E02E0CE1F02EC7010E941F1FB2E1AB2E99
:102A1000BCE1BB2EC5010E941F1F81E29CE10E9408
:102A20001F1FF0921E1CE0921D1CB092201CA09251
:102A30001F1C82CFAF92BF92CF92DF92EF92FF9294
:102A40000F938BEE92E169EF72E044E650E020E0F4
:102A500030E000E0E6EDEE2EEBE1FE2ECC24DD24AE
:102A6000AA24BB240E940714813041F00F91FF90EB
:102A7000EF90DF90CF90BF90AF900895F89480933F
:102A8000D91B1092CF1B1092D01B1092D11B109209
:102A9000D21B0E9411200F91FF90EF90DF90CF90FA
:102AA000BF90AF9008950F931F93CF93DF93EC01E6
:102AB00080912C1C90912D1C892B61F1CE016BE033
:102AC0000E94E11B8C0168E374E00E949D1BC80119
:102AD00066E00E94E11BCE016BE00E94E11B8C01CD
:102AE00065E174E00E949D1BC80166E00E94E11B45
:102AF000A0912C1CB0912D1CED91FC91119701908F
:102B0000F081E02DCD01BE011995DF91CF911F918C
:102B10000F910895CE016BE00E94E11B8C0167EFDD
:102B200073E00E949D1BC80166E00E94E11BDF91DB
:102B3000CF911F910F910895FF920F931F93CF9301
:102B4000DF93EC018B0186E093E099838883611524
:102B50007105B1F0FB0101900020E9F73197FE2EDD
:102B6000F61A8CE08F15E0F08F2D90E001960E9410
:102B70006F1B8C839D83B8014F2D50E00E94C92D9F
:102B800080912C1C90912D1C9F838E83D0932D1CA3
:102B9000C0932C1CDF91CF911F910F91FF9008954E
:102BA0008CE0F82EE1CFFF920F931F93CF93DF932A
:102BB000EC018B0186E093E09983888361157105B0
:102BC000B1F0FB0101900020E9F73197FE2EF61AD3
:102BD0008CE08F15E0F08F2D90E001960E946F1B26
:102BE0008C839D83B8014F2D50E00E94C92D8091A8
:102BF0002C1C90912D1C9F838E83D0932D1CC093F1
:102C00002C1CDF91CF911F910F91FF9008959CE0B4
:102C1000F92EE1CFFC016487658708950E94450E77
:102C20000E94B82A20E030E04AE754E40E942A29B2
:102C30000895CF93DF93FC01C681D781209739F0A7
:102C4000CE010E949D1BCE0166E00E94E11B2BE09D
:102C500088E190E00FB6F894A895809360000FBECD
:102C600020936000FFCF0F931F938C01DC01ED9147
:102C7000FC910190F081E02D1995F80113821282E8
:102C80006FEF7FEF8FEF9FEF0E947213F9CF4F929C
:102C90005F926F927F928F929F92AF92BF92CF92EC
:102CA000DF92EF92FF920F931F93CF93DF93EC018C
:102CB0002B01A42F49013801FC018CE093E08193A2
:102CC00091938CE892E0A9019E010A2F7F01CC2408
:102CD000DD24AA24BB240E940714282F7F826E8241
:102CE0009986888680912E1C90912F1C9D838C83C1
:102CF000D0932F1CC0932E1C1C861D8680913C1CDB
:102D000090913D1C019690933D1C80933C1C9B87A9
:102D10008A871E861F86188A198A61147104E1F059
:102D2000213059F1C3016BE00E94E11B8C016BE57E
:102D300074E00E949D1BC801B2010E949D1BD80136
:102D4000ED91FC910280F381E02DC80162E21995BA
:102D5000C80166E00E94E11BDF91CF911F910F91A6
:102D6000FF90EF90DF90CF90BF90AF909F908F90AB
:102D70007F906F905F904F900895C3016BE00E9429
:102D8000E11B8C0168E874E00E949D1BC801B20140
:102D90000E949D1BC8016BE00E94E11B8C0161E752
:102DA00074E00E949D1BC80163E00E94E11B6A85DC
:102DB0007B850E94341C62E00E94E11B66E00E9459
:102DC000E11BCACF4F925F926F927F928F929F9238
:102DD000AF92BF92CF92DF92EF92FF920F931F9329
:102DE000CF93DF93EC012B01A42F49013801FC01A3
:102DF0008CE093E0819391938CE892E0A9019E018D
:102E00000A2F7F01CC24DD24AA24BB240E940714AE
:102E1000282F7F826E829986888680912E1C9091C1
:102E20002F1C9D838C83D0932F1CC0932E1C1C863B
:102E30001D8680913C1C90913D1C019690933D1CF9
:102E400080933C1C9B878A871E861F86188A198A56
:102E500061147104E1F0213059F1C3016BE00E946B
:102E6000E11B8C016BE574E00E949D1BC801B2015F
:102E70000E949D1BD801ED91FC910280F381E02D11
:102E8000C80162E21995C80166E00E94E11BDF916A
:102E9000CF911F910F91FF90EF90DF90CF90BF9057
:102EA000AF909F908F907F906F905F904F9008951C
:102EB000C3016BE00E94E11B8C0168E874E00E9492
:102EC0009D1BC801B2010E949D1BC8016BE00E94BE
:102ED000E11B8C0161E774E00E949D1BC80163E067
:102EE0000E94E11B6A857B850E94341C62E00E947F
:102EF000E11B66E00E94E11BCACFEF92FF920F93A5
:102F00001F93CF93DF93EC017B01C7016BE00E941D
:102F1000E11B8C016FE874E00E949D1B8A819B81FC
:102F20000E94630EBC01C8010E949D1BC80166E09F
:102F30000E94E11B6A857B85888599859B01281BFA
:102F4000390BC901A7010E94D61A0C80DD81C02D62
:102F50002097D9F6DF91CF911F910F91FF90EF90BD
:102F600008950F931F93CF93DF93EC0180912E1C54
:102F700090912F1C009719F0BE010E947D17CE0181
:102F80006BE00E94E11B8C0166E974E00E949D1BCE
:102F9000C80166E00E94E11B60913C1C70913D1CE1
:102FA000CB01835690406F5F7F4FAE010E94D61ACF
:102FB000DF91CF911F910F9108950F931F93182FB9
:102FC000092FDB01ED91FC910280F381E02DCB0113
:102FD000612F702F1995812F902F1F910F910895B8
:102FE0000F931F93CF93DF93EC018B01C801BE01B8
:102FF0000E94DD1766E00E94E11B0C80DD81C02D80
:103000002097A1F7DF91CF911F910F9108950F9312
:103010001F93CF93DF93EC016BE00E94E11B8C01C7
:103020006FEF74E00E949D1BC8016BE00E94E11BE2
:103030008C0168EF74E00E949D1BC80166E00E944D
:10304000E11BCE016BE00E94E11B8C0167EE74E096
:103050000E949D1BC8016BE00E94E11B8C016BED7F
:1030600074E00E949D1BC8016BE00E94E11B8C0173
:1030700065ED74E00E949D1BC80166E00E94E11BA3
:10308000CE016BE00E94E11B8C0164EC74E00E94B5
:103090009D1BC8016BE00E94E11B8C0168EB74E092
:1030A0000E949D1BC8016BE00E94E11B8C0162EB3A
:1030B00074E00E949D1BC80166E00E94E11B8091A4
:1030C0002E1C90912F1C009719F0BE010E94F01742
:1030D000CE016BE00E94E11B8C0167EA74E00E9464
:1030E0009D1B0E94730E0E94410F682FC8010E9411
:1030F000B71C6BE00E94E11B8C0165EA74E00E9442
:103100009D1BC80164E670E00E94341C6BE00E94C5
:10311000E11B8C0161EA74E00E949D1BC80166E01E
:103120000E94E11BDF91CF911F910F910895EF92C3
:10313000FF920F931F93CF93DF937C01EB01FC0170
:10314000828193810E94630EBC01CE010E949D1B6F
:10315000E881F9810280F381E02DCE0169E01995C3
:10316000F701828193810E94630EFC01019000208F
:10317000E9F73197E81BF90B389740F4E881F981BA
:103180000280F381E02DCE0169E01995F70182817B
:1031900093810E942D0E682FCE010E94B71C6BE018
:1031A0000E94E11B8C0162E175E00E949D1BC80139
:1031B000F70164850E94B71C6BE00E94E11B8C0143
:1031C00060E175E00E949D1BF701828193810E945E
:1031D000410F682FC8010E94B71C6BE00E94E11BE1
:1031E0008C016EE075E00E949D1BF7016085718582
:1031F000C8010E94341C6BE00E94E11B8C016CE052
:1032000075E00E949D1BC8016BE00E94E11B8C01D0
:103210006AE075E00E949D1BF7014685578560892D
:103220007189C8010E946F1CDF91CF911F910F918E
:10323000FF90EF9008950F93DF93CF930F92CDB748
:10324000DEB7FC0186859785BE016F5F7F4F2FEF4C
:103250003FEF4FEF5FEF00E00E940D22813031F031
:103260008FEF0F90CF91DF910F91089589810F908B
:10327000CF91DF910F910895FC01868597850E947B
:103280001A21811181E008950F93DF93CF930F925C
:10329000CDB7DEB7FC016983208931894289538922
:1032A00086859785BE016F5F7F4F00E00E9498235F
:1032B0000F90CF91DF910F91089506970E946119A9
:1032C0000895EF92FF920F931F93CF93DF937C01AA
:1032D000EB01DC011A966D917C911B97CE010E9447
:1032E0009D1BF701A285B385FD0101900020E9F740
:1032F00031970E2F0A1B003158F4E881F9810280C2
:10330000F381E02DCE0160E219950F5F0031A8F343
:10331000CE0160E173E00E949D1BD7011E968D9146
:103320009C911F970E942221682FCE010E94B71CFA
:103330008C01DC01ED91FC910280F381E02D6FE2C4
:103340001995F70166897789C8010E94341CDC0150
:10335000ED91FC910280F381E02D69E01995CE0199
:1033600066E00E94E11BF701A485B585109749F03E
:10337000ED91FC9111970190F081E02DCD01BE01FE
:103380001995DF91CF911F910F91FF90EF900895C4
:103390006F927F928F929F92AF92BF92CF92DF9265
:1033A000EF92FF920F931F936C01762E672E5A01B6
:1033B00049010E94751BC6010696B5010E94D315EE
:1033C0008BE193E0F6019183808342969783868315
:1033D000958A848A872D61E040E00E94D124F6011D
:1033E00097878687E08AF18A028B138B768A678AB1
:1033F0001F910F91FF90EF90DF90CF90BF90AF9013
:103400009F908F907F906F9008956F927F928F9290
:103410009F92AF92BF92CF92DF92EF92FF920F9363
:103420001F936C01762E672E5A0149010E94751B6D
:10343000C6010696B5010E94D3158BE193E0F60113
:1034400091838083429697838683958A848A872D89
:1034500061E040E00E94D124F60197878687E08AE8
:10346000F18A028B138B768A678A1F910F91FF90E6
:10347000EF90DF90CF90BF90AF909F908F907F9014
:103480006F900895AF92BF92CF92DF92EF92FF922A
:103490000F931F93DF93CF93CDB7DEB767970FB628
:1034A000F894DEBF0FBECDBF7C018B01DB016D91B7
:1034B0007D918D919C9128EE33E040E050E00E9498
:1034C000452DC701BA01A9010E946F1CD701ED91DA
:1034D000FC910280F381E02DC7016EE21995C801CD
:1034E0000E940025282F8E010A5F1F4F38E0A32E6F
:1034F000B12CAC0EBD1E80E1C82ED12CCC0EDD1E31
:10350000822F2AE030E040E050E00E94672D288BB7
:10351000398B4A8B5B8B6C8B7D8B8E8B9F8BD50114
:10352000F60188E001900D928150E1F76885798578
:103530002A859B858C85805DF80180830150104031
:103540000C171D07E9F61F82C701BE016F5F7F4F91
:103550000E949D1BC70167960FB6F894DEBF0FBE91
:10356000CDBFCF91DF911F910F91FF90EF90DF9032
:10357000CF90BF90AF9008950F931F938C010FB61B
:10358000F8940F928091240190912501F801958380
:1035900084830E94450EF801608371838283938344
:1035A0000F900FBEC8011F910F910895AF92BF9267
:1035B000CF92DF92EF92FF920F931F93CF93DF93FF
:1035C0006C015B01EA01CA0163E00E94E11BCA14BD
:1035D000DB0408F052C0CE01B6010E94341C6BE03F
:1035E0000E94E11B64E175E00E949D1B760110E0E2
:1035F000F70161917F01CE010E94B71CE881F9813A
:103600000280F381E02DCE0160E219951F5F143135
:1036100079F7E881F9810280F381E02DCE0160E243
:103620001995760186010C5E1F4F0AC0E881F98169
:103630000280F381E02DCE011995E016F106A1F08C
:10364000F70161917F01653A39F1862F80528F35FC
:1036500068F3E881F9810280F381E02DCE016EE20A
:103660001995E016F10661F76701CE0166E00E9448
:10367000E11BEA14FB0408F4AECFCE0162E00E9425
:10368000E11BDF91CF911F910F91FF90EF90DF90A1
:10369000CF90BF90AF900895E881F9810280F381C7
:1036A000E02DCE0160E21995C8CFFC0120E030E0AA
:1036B0008081882311F421E030E0C9010895FC01E4
:1036C00081E08083089508950895009711F00E9485
:1036D0006A0D0895009711F00E946A0D08950E94E6
:1036E000980D08950E94980D0895FC0185E393E0DC
:1036F000918380838AE0828383E0858314820895A6
:10370000FC0185E393E0918380838AE0828383E0F8
:1037100085831482089581E0089580E0089580E013
:1037200008950895FC01A081B18112962D913C91DC
:1037300013976CE0F901199508950F931F93CF9398
:10374000DF938C01EB01DC0114968C91882311F13D
:10375000F8011482FB016491662371F02196D8016F
:10376000ED91FC910280F381E02DC8011995FE01D5
:1037700021966491662399F7DF91CF911F910F9164
:1037800008952196D801ED91FC910280F381E02DFE
:10379000C801199568816623A1F7DF91CF911F9128
:1037A0000F910895883008F087E080932F0389E017
:1037B0000895982F82508F3010F4909330038AE050
:1037C0000895CF93DF93EC016630F1F1673090F00C
:1037D000693061F16A30C8F4673009F1683031F45A
:1037E000E881F9810084F185E02D1995CE01DF9102
:1037F000CF910895613029F1613070F06230D1F0DD
:103800006330A1F780E18A83F1CF6A30B1F06B3089
:1038100069F781E08C83EACF82E08A83E7CFE88191
:10382000F9810284F385E02D1995E0CF80912F0373
:103830008D83DCCF8AE08A83D9CF809130038A835D
:10384000D5CF88E08A83D2CFE881F9810280F381E5
:10385000E02D6DE01995E881F9810280F381E02D7A
:10386000CE016AE01995C2CFEF92FF920F931F939A
:10387000DF93CF93CDB7DEB761970FB6F894DEBF75
:103880000FBECDBF7C01062F672FFC014281403166
:1038900091F0483081F0423071F0802F972F8E01E7
:1038A0000F5F1F4FB80150E00E94FD2DC701B80106
:1038B0000E949D1B06C0C7010E94B71C602F0E947A
:1038C000B71CC70161960FB6F894DEBF0FBECDBF1F
:1038D000CF91DF911F910F91FF90EF900895DF92AC
:1038E000EF92FF920F931F93DF93CF93CDB7DEB785
:1038F000A1970FB6F894DEBF0FBECDBF7C01D42ECA
:10390000152F062F372FFC0122812031A1F02830FE
:1039100091F0223081F0642F752F802F932F8E012C
:103920000F5F1F4FA80130E00E94D82DC701B801DA
:103930000E949D1B0DC0C701632F0E94B71C602F02
:103940000E94B71C612F0E94B71C6D2D0E94B71CEE
:10395000C701A1960FB6F894DEBF0FBECDBFCF91C1
:10396000DF911F910F91FF90EF90DF900895AF923C
:10397000BF92CF92DF92EF92FF920F931F93DF934C
:10398000CF93CDB7DEB729970FB6F894DEBF0FBE41
:10399000CDBF6C01162FDC0113968C9113978823F1
:1039A00009F05FC0F6014281423089F1403109F0EF
:1039B00060C062956F70D601ED91FC910280F38139
:1039C000E02D6A3008F063C0605DC6011995612F73
:1039D0006F70D601ED91FC910280F381E02D6A3089
:1039E00008F457C0695CC6011995C60129960FB63F
:1039F000F894DEBF0FBECDBFCF91DF911F910F9125
:103A0000FF90EF90DF90CF90BF90AF900895A62EDB
:103A1000BB2480E8EE24FF2413C0D601ED91FC9175
:103A20000280F381E02DC60161E319951595079594
:103A3000802F0894E11CF11CB8E0EB16F104A9F208
:103A4000082F10E0C8018A219B21892B31F7D6016C
:103A5000ED91FC910280F381E02DC60160E31995A0
:103A6000E5CFED91FC910280F381E02DC60119951F
:103A7000BCCF862F90E08E010F5F1F4FB80150E042
:103A80000E94FD2DC601B8010E949D1BAECF695C4E
:103A90009CCF605DA8CFDC011896ED91FC91199741
:103AA00080811C962C911C9730E090E08223932318
:103AB000892B79F440E050E006C04F5F5F4F8EE401
:103AC0004132580789F0808190E082239323892B2B
:103AD000A1F380811E969C911E97892B8083169658
:103AE000ED91FC91179760830895FC0187858823E9
:103AF00001F52091321C3091331C8091341C90913F
:103B0000351C28173907B1F1E091301CF091311CB8
:103B1000E20FF31FE081C90101969093331C80935B
:103B2000321C809720F01092331C1092321C8E2F82
:103B300008952091381C3091391C80913A1C909145
:103B40003B1C28173907A9F0E091361CF091371C6F
:103B5000E20FF31FE081C90101969093391C809315
:103B6000381C809720F31092391C1092381C8E2F2D
:103B70000895FFCFFFCFFC018785882379F040E0CF
:103B80002091381C3091391C80913A1C90913B1C3B
:103B90002817390709F041E0842F089540E020916B
:103BA000321C3091331C8091341C9091351C2817A5
:103BB000390789F7842F0895FC01A081B1811296FD
:103BC0002D913C9113976CE0F901199508951F927E
:103BD0000F920FB60F920BB60F9211242F933F93B3
:103BE0008F939F93EF93FF938091C600E091301CD9
:103BF000F091311C2091341C3091351CE20FF31FE1
:103C000080832091341C3091351C2F5F3F4F3093BF
:103C1000351C2093341C2032310530F01092351CB5
:103C20001092341C20E030E08091321C9091331CC3
:103C30002817390769F0FF91EF919F918F913F917C
:103C40002F910F900BBE0F900FBE0F901F901895E5
:103C5000C90101969093331C8093321C809758F3CE
:103C60001092331C1092321CE6CF1F920F920FB6A7
:103C70000F920BB60F9211242F933F938F939F9324
:103C8000EF93FF938091CE00E091361CF091371CAA
:103C900020913A1C30913B1CE20FF31F808320914E
:103CA0003A1C30913B1C2F5F3F4F30933B1C2093BD
:103CB0003A1C2032310530F010923B1C10923A1C15
:103CC00020E030E08091381C9091391C281739078A
:103CD00069F0FF91EF919F918F913F912F910F90FC
:103CE0000BBE0F900FBE0F901F901895C901019643
:103CF0009093391C8093381C809758F31092391C8C
:103D00001092381CE6CFDF92EF92FF920F931F9331
:103D10008C017B01D42E0E94751BC8010696B70149
:103D20004D2D0E943E2585E493E0F8019183808328
:103D3000D786DD20D9F08091C90080688093C900C2
:103D400080E290E00E946F1B9093371C8093361C9A
:103D50001092391C1092381C10923B1C10923A1C85
:103D60001F910F91FF90EF90DF9008958091C10017
:103D700080688093C10080E290E00E946F1B909366
:103D8000311C8093301C1092331C1092321C109204
:103D9000351C1092341C1F910F91FF90EF90DF9013
:103DA0000895DF92EF92FF920F931F938C017B0196
:103DB000D42E0E94751BC8010696B7014D2D0E9496
:103DC0003E2585E493E0F80191838083D786DD204A
:103DD000D9F08091C90080688093C90080E290E0AA
:103DE0000E946F1B9093371C8093361C1092391CD5
:103DF0001092381C10923B1C10923A1C1F910F918C
:103E0000FF90EF90DF9008958091C10080688093CB
:103E1000C10080E290E00E946F1B9093311C809360
:103E2000301C1092331C1092321C1092351C1092D0
:103E3000341C1F910F91FF90EF90DF900895FC01CB
:103E40009C012D5F3F4F328321838FEF9FEFAFEFB8
:103E5000BFEF83839483A583B6833087278332871C
:103E6000218710820895FC01138612860895AC0103
:103E7000FC01A181B281FB01B583A48316968D91CB
:103E80009C911797978386831696ED91FC911797CF
:103E90007583648317967C936E931697FB01538703
:103EA0004287FA0180818F5F808308950F931F936B
:103EB000CF93DF938C01DB012D913D914D915C916E
:103EC0002F3FBFEF3B07BFEF4B07BFEF5B0749F14A
:103ED000EC01239601C0EF01EC81FD81808191818D
:103EE000A281B381281739074A075B07A0F7DB01D6
:103EF0001596FC93EE931497778366831796DC935D
:103F0000CE9316977D836C831B961C930E931A9702
:103F1000F80180818F5F8083DF91CF911F910F9196
:103F20000895FC01C185D285EC81FD81E0CFCF935E
:103F3000DF93DC011A96CD91DC911B9714964D917D
:103F40005C91159716968D919C911797FA0197831E
:103F5000868316962D913C911797F90155834483DA
:103F600089819A818A179B0751F01B961C921E9299
:103F70001A97888181508883DF91CF9108953A8381
:103F80002983F3CFFC0190933D1C80933C1C91E16D
:103F9000908322E2229383E382936293729312923C
:103FA000129280E8829312921292129282E082938D
:103FB00083E0829384E0829385E0829386E082931B
:103FC00087E0829388E0829389E0829380E1829304
:103FD000929382E1829383E1829384E1829385E1EB
:103FE000829386E1829387E1829388E1829389E1DB
:103FF000829380E2829381E28293229383E282938E
:104000004293529386E2829387E2829388E282937C
:1040100089E2829380E3829381E382933197CF0197
:10402000089587E0809329018FEC809328018AE02E
:1040300080932101E3E7F0E0808182608083A0919A
:10404000CB1BB091CC1BCD91CDBFDD91DEBFFF91DD
:10405000EF91DF91CF91BF91AF919F918F917F9120
:104060006F915F914F913F912F911F910F91FF9011
:10407000EF90DF90CF90BF90AF909F908F907F9008
:104080006F905F904F903F902F901F900F900CBEBD
:104090000F900BBE0F900FBE0F90089581E0089512
:1040A00008950F920FB6F8940F920BB60F920CB6BC
:1040B0000F921F9211242F923F924F925F926F9214
:1040C0007F928F929F92AF92BF92CF92DF92EF92A8
:1040D000FF920F931F932F933F934F935F936F9391
:1040E0007F938F939F93AF93BF93CF93DF93EF9380
:1040F000FF93A091CB1BB091CC1B0DB60D920EB6C9
:104100000D920E94B310882311F00E94780EA091A6
:10411000CB1BB091CC1BCD91CDBFDD91DEBFFF910C
:10412000EF91DF91CF91BF91AF919F918F917F914F
:104130006F915F914F913F912F911F910F91FF9040
:10414000EF90DF90CF90BF90AF909F908F907F9037
:104150006F905F904F903F902F901F900F900CBEEC
:104160000F900BBE0F900FBE0F9008950E9451202C
:1041700018950F920FB6F8940F920BB60F920CB6DB
:104180000F921F9211242F923F924F925F926F9243
:104190007F928F929F92AF92BF92CF92DF92EF92D7
:1041A000FF920F931F932F933F934F935F936F93C0
:1041B0007F938F939F93AF93BF93CF93DF93EF93AF
:1041C000FF93A091CB1BB091CC1B0DB60D920EB6F8
:1041D0000D920E94780EA091CB1BB091CC1BCD917B
:1041E000CDBFDD91DEBFFF91EF91DF91CF91BF9108
:1041F000AF919F918F917F916F915F914F913F917F
:104200002F911F910F91FF90EF90DF90CF90BF9073
:10421000AF909F908F907F906F905F904F903F9066
:104220002F901F900F900CBE0F900BBE0F900FBEE3
:104230000F9008950FB6F8940F92FC01868D0F90A1
:104240000FBE0895FC010FB6F8940F92968D0F9053
:104250000FBE878D891B0895FC01868D0895FC0192
:10426000868D90E0882309F491E0892F0895FC0160
:10427000968D20E0878D981711F0822F089521E008
:10428000822F0895CF93DF93EC0188819981009765
:1042900011F00E946A0DCE010E946A0DDF91CF914C
:1042A0000895FC01562FA72F40A14423B1F0868129
:1042B0009781840F911D9783868322813381821792
:1042C000930720F08081918197838683668177812F
:1042D000852F9A2F50E00E94B92D08950F931F93B8
:1042E000CF93DF93EC018E8D882341F00E811F81E7
:1042F000CE010E9451211F830E8381E0DF91CF9177
:104300001F910F9108950F931F93CF93DF938A010D
:10431000EC018E8D882329F4DF91CF911F910F91AD
:104320000895CE010E9451218E8D81508E8F89A1DA
:104330008F3F49F089A18F5F89A381E0DF91CF9101
:104340001F910F9108958885882311F481E0E4CFAF
:10435000CE0108960E946A108823C1F30115110549
:10436000A9F381E0F8018083D7CF0F931F93CF93F8
:10437000DF93EC010FB6F8940F928AA11816ECF4B3
:104380008B898823D1F08E010D5E1F4F09C08AA151
:1043900081508AA38AA1181684F48B89882369F036
:1043A000C8010E946A10882391F30E943D0F8AA1E0
:1043B00081508AA38AA1181684F38FEF8AA30F90E5
:1043C0000FBE0FB6F8940F9289A11816ECF48885E9
:1043D0008823D1F08E01085F1F4F09C089A1815049
:1043E00089A389A1181684F48885882369F0C801F7
:1043F0000E946A10882391F30E943D0F89A1815089
:1044000089A389A1181684F38FEF89A30F900FBE9B
:10441000DF91CF911F910F9108957F928F929F927C
:10442000AF92BF92CF92DF92EF92FF920F931F93C2
:10443000DF93CF93CDB7DEB729970FB6F894DEBFE1
:104440000FBECDBF4B012E833F8348875987702E07
:104450008C0193E1C92ED12CC00ED11E20E07E012B
:104460000894E11CF11C86E0A82EB12CAC0EBD1EF8
:104470000FB6F8940F92F801868D882309F060C07A
:104480008E819F81A885B9850097A105B10509F4A2
:1044900075C0222309F43EC00F900FBE0E943F0E4C
:1044A0000FB6F8940F92F80181A18F3F89F1F801BE
:1044B00082A18F3F59F10F900FBEC701B5010E9435
:1044C000D80E882309F071C00FB6F8940F92F80146
:1044D000868D0F900FBE882309F5F80180819181A8
:1044E000892B19F14E815F8168857985C6010E940B
:1044F0004C12C8010E94B5210E947412882311F049
:1045000021E0B6CF0E94B92021E0B2CF12A2D3CFD2
:1045100011A2CDCFC7010E94C70EBECFC8010E9415
:10452000B5210E94741221E0A3CF0FB6F8940F9228
:10453000F801828193810E94D80F0F900FBED2CFD5
:10454000E680F780C801B4010E9451217720A1F5CF
:10455000F801868D8150868F80819181892B09F4A5
:104560003BC0F8018085882369F1C80108960E9444
:104570006A10813039F50E94B92024C00F900FBE17
:1045800080E029960FB6F894DEBF0FBECDBFCF9165
:10459000DF911F910F91FF90EF90DF90CF90BF9030
:1045A000AF909F908F907F900895C8010E94B52191
:1045B0000E94741280E0E5CFF801F782E6828389D9
:1045C000882321F40F900FBE81E0DBCFC6010E944B
:1045D0006A108823B9F3CFCF0E94860FF801938326
:1045E0008283BFCF1F93CF93DF93EC01142F48A199
:1045F000442371F488819981892B09F451C090E09A
:104600008E8D8F5F8E8F892FDF91CF911F910895AF
:104610001123F1F48C819D8150E00E94B92D88A175
:104620002C813D81280F311D3D832C838A819B8104
:104630002817390720F3888199819D838C8390E026
:104640008E8D8F5F8E8F892FDF91CF911F9108956F
:104650008E819F8150E00E94B92D88A190E044276F
:104660005527481B590B8E819F81840F951F9F836F
:104670008E83288139818217930730F48A819B8148
:10468000840F951F9F838E83123009F0B8CF8E8DD3
:10469000882309F4B4CF8E8D81508E8F90E0B0CFF7
:1046A0008A819B810E94990F982F1B821A82A8CF22
:1046B0000F931F93CF93DF938A01EC019E8D8F8D13
:1046C000981740F0223031F080E0DF91CF911F91B8
:1046D0000F910895CE01422F0E94F222882331F0DB
:1046E0000115110519F081E0F80180838AA18F3F3F
:1046F00049F08AA18F5F8AA381E0DF91CF911F915A
:104700000F9108958B89882331F481E0DF91CF9157
:104710001F910F910895CE0143960E946A1088233D
:10472000A1F30115110589F381E0F8018083CDCF54
:104730006F927F929F92AF92BF92CF92DF92EF9251
:10474000FF920F931F93DF93CF93CDB7DEB72997D7
:104750000FB6F894DEBF0FBECDBF3B012E833F8363
:1047600048875987902E8C0148E0C42ED12CC80E62
:10477000D91E20E07E010894E11CF11C36E0A32E36
:10478000B12CAC0EBD1E0FB6F8940F92F801968DA9
:10479000878D981708F456C0F2E09F1609F452C0AE
:1047A0008E819F81A885B9850097A105B10509F47F
:1047B0006CC0222309F442C00F900FBE0E943F0E2E
:1047C0000FB6F8940F92F80181A18F3FA9F1F8017B
:1047D00082A18F3F79F10F900FBEC701B5010E94F2
:1047E000D80E882309F055C00FB6F8940F92F8013F
:1047F000968D0F900FBEF801878D9817A1F44E810A
:104800005F8168857985C6010E944C12C8010E94AB
:10481000B5210E947412882311F021E0B4CF0E94C8
:10482000B92021E0B0CFC8010E94B5210E947412C6
:1048300021E0A9CF12A2CFCF11A2C9CFC7010E94F8
:10484000C70EBACFC801B301492D0E94F222982F9A
:10485000F8018389882321F5992341F50F900FBE34
:1048600081E029960FB6F894DEBF0FBECDBFCF9181
:10487000DF911F910F91FF90EF90DF90CF90BF904D
:10488000AF909F907F906F9008950F900FBE80E043
:10489000E8CFC8010E94B5210E94741280E0E1CFE8
:1048A000C80143960E946A108130C1F60E94B92067
:1048B000D5CF0F93CF93DF9383E290E00E94980DC2
:1048C000EC01009709F11B821A82198218821D825D
:1048D0001C821F821E821E8E81E08F8F18A28FEF96
:1048E00089A38AA3CE0108960E941F1FCE0143967A
:1048F0000E941F1FCE0160E070E020E030E040E049
:1049000050E000E00E949823CE01DF91CF910F91FB
:104910000895CF93DF93EC010FB6F8940F92E8A1BE
:104920002F8DE29FC001112448815981840F951F6A
:104930009B838A831E8E5D834C8330E02150304000
:10494000F0E02E9FC0012F9F900D3E9F900D1124EF
:10495000480F591F5F834E838FEF89A38AA3662375
:1049600091F48885882331F40F900FBE81E0DF91A8
:10497000CF910895CE0108960E946A108130A1F768
:104980000E94B920F1CFCE0108960E941F1FCE01D0
:1049900043960E941F1F0F900FBE81E0DF91CF91C1
:1049A00008950F931F93CF93DF93182F062F88231B
:1049B00041F420E030E0C901DF91CF911F910F91C8
:1049C000089583E290E00E94980DEC01009789F32E
:1049D000019FC001112401960E94980D998388833C
:1049E000009741F01F8F08A3CE0161E00E94892447
:1049F0009E01E1CFCE010E946A0D20E030E0DBCFC6
:104A0000CF92DF92EF92FF920F931F936C01FC0104
:104A1000608171818281938128EE33E040E050E033
:104A20000E94452D20E432E44FE050E00E94262D04
:104A300028EE33E040E050E00E94452D79018A01E4
:104A4000F6016481758180E090E020E432E44FE07B
:104A500050E00E94262D20E834E84EE150E00E940C
:104A6000452DE20EF31E041F151FB701C8011F914B
:104A70000F91FF90EF90DF90CF900895CF93DF9349
:104A8000EC01442309F441C08EEC90E099838883C3
:104A900088EC90E09B838A8389EC90E09D838C83F3
:104AA00088E18093C90086E08093CA001092CD000F
:104AB0009B0140E050E0220F331F441F551F220F7F
:104AC000331F441F551F220F331F441F551F220F32
:104AD000331F441F551F60E074E284EF90E00E9492
:104AE000452D2093CC008091C80081608093C80040
:104AF00080E28E8380E88F8380E48887E881F98173
:104B000080818081DF91CF91089586EC90E0998338
:104B1000888380EC90E09B838A8381EC90E09D8386
:104B20008C8388E18093C10086E08093C20010925C
:104B3000C5009B0140E050E0220F331F441F551F6A
:104B4000220F331F441F551F220F331F441F551FB1
:104B5000220F331F441F551F60E074E284EF90E082
:104B60000E94452D2093C4008091C00081608093F5
:104B7000C000BECFCF93DF93EC01442309F441C0C2
:104B80008EEC90E09983888388EC90E09B838A8305
:104B900089EC90E09D838C8388E18093C90086E056
:104BA0008093CA001092CD009B0140E050E0220F9C
:104BB000331F441F551F220F331F441F551F220F41
:104BC000331F441F551F220F331F441F551F60E022
:104BD00074E284EF90E00E94452D2093CC008091F8
:104BE000C80081608093C80080E28E8380E88F8354
:104BF00080E48887E881F98180818081DF91CF918D
:104C0000089586EC90E09983888380EC90E09B8304
:104C10008A8381EC90E09D838C8388E18093C1003E
:104C200086E08093C2001092C5009B0140E050E0F6
:104C3000220F331F441F551F220F331F441F551FC0
:104C4000220F331F441F551F220F331F441F551FB0
:104C500060E074E284EF90E00E94452D2093C40050
:104C60008091C00081608093C000BECFDC011296AD
:104C7000ED91FC911397208140E030E016968C91E5
:104C800090E028233923232B09F041E0842F089555
:104C9000DC011296ED91FC911397208140E030E009
:104CA00018968C9190E028233923232B09F441E0B6
:104CB000842F0895EF92FF920F931F937B018C0135
:104CC00020E030E040E05FE40E94D62988238CF0A9
:104CD000C801B70120E030E040E05FE40E94D22745
:104CE0000E94642A9B01AC01205030404040504853
:104CF00006C0C801B7010E94642A9B01AC01B9013A
:104D0000CA011F910F91FF90EF900895A0E0B0E0CD
:104D1000ECE8F6E20C94822DDC012B01FA019C9167
:104D2000923008F439C1EB018881823008F433C134
:104D3000943069F4843009F02FC111969C91119739
:104D40008981981709F428C1A1E5B3E025C1843011
:104D500009F421C18230A9F4923009F01DC19A01F1
:104D6000AD0188E0EA010990AE01E90109929E01D6
:104D70008150C1F7E201898111969C918923818339
:104D800008C1923009F407C112962D903C901397F8
:104D9000EB018A819B811496AD90BD90CD90DC9003
:104DA0001797EC80FD800E811F819101281B390B24
:104DB000B90137FF04C066277727621B730B603287
:104DC00071050CF061C0121613066CF5370148012D
:104DD000062E04C096948794779467940A94D2F729
:104DE00021E030E040E050E004C0220F331F441FB8
:104DF000551F6A95D2F721503040404050402E2137
:104E00003F2140235123211531054105510521F052
:104E100021E030E040E050E079018A01E628F728FF
:104E2000082919293CC0232BD1F1260E371E350144
:104E30004601062E04C096948794779467940A944A
:104E4000D2F721E030E040E050E004C0220F331FF1
:104E5000441F551F6A95D2F72150304040405040C2
:104E60002A213B214C215D212115310541055105A8
:104E700021F021E030E040E050E059016A01A6282D
:104E8000B728C828D9280BC0821593052CF01C011F
:104E9000AA24BB24650103C0EE24FF2487011196D8
:104EA0009C91D20111968C91981709F445C09923D1
:104EB00039F0A80197012A193B094C095D0906C080
:104EC000A60195012E193F09400B510B57FD08C053
:104ED00011823382228224833583468357831DC007
:104EE00081E081833382228288279927DC01821B1B
:104EF000930BA40BB50B84839583A683B7830DC056
:104F0000220F331F441F551F248335834683578345
:104F100082819381019793838283248135814681A5
:104F20005781DA01C9010197A109B1098F5F9F4F2C
:104F3000AF4FBF4328F30BC0918333822282EA0C28
:104F4000FB1C0C1D1D1DE482F5820683178383E084
:104F50008083248135814681578157FF1AC0C9015A
:104F6000AA2797FDA095BA2F81709070A070B0709D
:104F70005695479537952795822B932BA42BB52BC8
:104F800084839583A683B7838281938101969383DB
:104F90008283DF0101C0D201CD01CDB7DEB7E2E1EE
:104FA0000C949E2DA0E2B0E0E8EDF7E20C948E2D7B
:104FB00069837A838B839C832D833E834F835887B9
:104FC000E9E0EE2EF12CEC0EFD1ECE010196B701AC
:104FD0000E94552C8E010F5E1F4FCE010596B80121
:104FE0000E94552C8A8991E089278A8BC701B801D4
:104FF000AE01475E5F4F0E9486260E94802BA096DE
:10500000E6E00C94AA2DA0E2B0E0E9E0F8E20C940E
:105010008E2D69837A838B839C832D833E834F837C
:105020005887F9E0EF2EF12CEC0EFD1ECE01019613
:10503000B7010E94552C8E010F5E1F4FCE010596C1
:10504000B8010E94552CC701B801AE01475E5F4F01
:105050000E9486260E94802BA096E6E00C94AA2D42
:10506000A0E2B0E0E6E3F8E20C94822D69837A8353
:105070008B839C832D833E834F835887CE0101967B
:10508000BE01675F7F4F0E94552CCE010596BE0181
:105090006F5E7F4F0E94552C9985923088F08989E8
:1050A0008230C8F0943019F4823051F404C0843056
:1050B00029F4923081F481E593E0C6C0923049F43E
:1050C00020E09A858A89981321E02A87CE010996E3
:1050D000BBC0823049F420E09A858A89981321E088
:1050E0002A8BCE014196B0C02D843E844F845888CF
:1050F0006D887E888F88988CEE24FF248701AA24EF
:10510000BB24650140E050E060E070E0E0E0F0E0EA
:10511000C10181709070892BE9F0E60CF71C081D25
:10512000191D9A01AB012A0D3B1D4C1D5D1D80E030
:1051300090E0A0E0B0E0E614F7040805190520F4BB
:1051400081E090E0A0E0B0E0BA01A901480F591F4A
:105150006A1F7B1FAA0CBB1CCC1CDD1C97FE08C061
:1051600081E090E0A0E0B0E0A82AB92ACA2ADB2AB0
:105170003196E032F10549F0660C771C881C991CC9
:105180005694479437942794C3CFFA85EA892B899C
:105190003C898B859C85280F391F2E5F3F4F17C098
:1051A000CA0181709070892B61F016950795F7946C
:1051B000E79480E090E0A0E0B0E8E82AF92A0A2B22
:1051C0001B2B76956795579547952F5F3F4F77FD3A
:1051D000E7CF0CC0440F551F661F771F17FD4160B6
:1051E000EE0CFF1C001F111F21503040403090E09A
:1051F000590790E0690790E4790760F32B8F3C8FA3
:10520000DB01CA018F779070A070B0708034910577
:10521000A105B10561F447FD0AC0E114F1040105DF
:10522000110529F0405C5F4F6F4F7F4F40781A8E19
:10523000FE1711F081E08A8F4D8F5E8F6F8F78A3FC
:1052400083E0898FCE0149960E94802BA096E2E1EF
:105250000C949E2DA8E1B0E0E0E3F9E20C948A2DD5
:1052600069837A838B839C832D833E834F83588706
:10527000B9E0EB2EF12CEC0EFD1ECE010196B7012C
:105280000E94552C8E010F5E1F4FCE010596B8016E
:105290000E94552C2985223008F47EC0398932308D
:1052A00010F4B8017CC08A859A8989278A872430BE
:1052B00011F0223031F4231709F06EC061E573E07C
:1052C0006EC0343039F41D861E861F86188A1C86EF
:1052D0001B8604C0323021F484E08987B7015FC0A7
:1052E0002B853C858B899C89281B390B3C872B8718
:1052F000ED84FE840F851889AD88BE88CF88D88C50
:10530000EA14FB040C051D0540F4EE0CFF1C001F05
:10531000111F215030403C872B8720E030E040E0D7
:1053200050E080E090E0A0E0B0E460E070E0EA14DB
:10533000FB040C051D0540F0282B392B4A2B5B2B59
:10534000EA18FB080C091D09B695A795979587954E
:10535000EE0CFF1C001F111F6F5F7F4F6F31710537
:1053600031F7DA01C9018F779070A070B070803486
:105370009105A105B10561F427FD0AC0E114F1040E
:105380000105110529F0205C3F4F4F4F5F4F2078FA
:105390002D873E874F87588BBE01675F7F4FCB01BC
:1053A0000E94802B6896EAE00C94A62DA8E1B0E05C
:1053B000ECEDF9E20C948E2D69837A838B839C83C8
:1053C0002D833E834F83588789E0E82EF12CEC0E25
:1053D000FD1ECE010196B7010E94552C8E010F5E75
:1053E0001F4FCE010596B8010E94552C8985823049
:1053F00040F08989823028F0C701B8010E94CD2C85
:1054000001C08FEF6896E6E00C94AA2DA8E0B0E00A
:10541000ECE0FAE20C948B2D9B01AC0183E08983D4
:10542000DA01C9018827B7FD83959927AA27BB27E9
:10543000B82E211531054105510519F482E0898303
:105440003AC08823A9F0203080E0380780E0480780
:1054500080E8580729F460E070E080E09FEC30C0FD
:10546000EE24FF248701E21AF30A040B150B02C095
:1054700079018A018EE1C82ED12CDC82CB82ED82AB
:10548000FE820F831887C801B7010E94312B019754
:105490001816190684F4082E04C0EE0CFF1C001F19
:1054A000111F0A94D2F7ED82FE820F831887C81A63
:1054B000D90ADC82CB82BA82CE0101960E94802B6F
:1054C0002896E9E00C94A72DACE0B0E0EAE6FAE219
:1054D0000C94922D69837A838B839C83CE010196F1
:1054E000BE016B5F7F4F0E94552C8D81823061F130
:1054F000823050F1843021F48E81882351F12EC006
:105500002F81388537FD20C06E812F3131051CF089
:105510006623F9F023C08EE190E0821B930B29856E
:105520003A854B855C8504C05695479537952795F8
:105530008A95D2F76623B1F0509540953095219524
:105540003F4F4F4F5F4F0EC020E030E040E050E053
:1055500009C02FEF3FEF4FEF5FE704C020E030E0DE
:1055600040E050E8B901CA012C96E2E00C94AE2D5F
:10557000A8E0B0E0EEEBFAE20C948A2D7B018C01FE
:10558000611571058105910519F482E0898360C078
:1055900083E089838EE1C82ED12CDC82CB82ED8220
:1055A000FE820F831887C801B7010E94312BFC01CE
:1055B0003197F7FF3BC0222733272E1B3F0B5701A4
:1055C0006801022E04C0D694C794B794A7940A9495
:1055D000D2F740E050E060E070E081E090E0A0E0D1
:1055E000B0E004C0880F991FAA1FBB1F2A95D2F7ED
:1055F0000197A109B1098E219F21A023B123009712
:10560000A105B10521F041E050E060E070E04A29D9
:105610005B296C297D294D835E836F8378878EE1BA
:1056200090E08E1B9F0B9C838B8312C0309781F080
:105630000E2E04C0EE0CFF1C001F111F0A94D2F79F
:10564000ED82FE820F831887CE1ADF0ADC82CB82BE
:105650001A82CE0101960E94802B2896EAE00C94D3
:10566000A62DEF92FF920F931F937B018C0180E098
:10567000E81680E0F80681E0080780E0180788F463
:105680008FEFE816F1040105110531F028F088E0EC
:1056900090E0A0E0B0E017C080E090E0A0E0B0E0D3
:1056A00012C080E0E81680E0F80680E0080781E09C
:1056B000180728F088E190E0A0E0B0E004C080E1A5
:1056C00090E0A0E0B0E020E230E040E050E0281BB5
:1056D000390B4A0B5B0B04C016950795F794E794BA
:1056E0008A95D2F7F701E75AFC4F8081281B3109D0
:1056F00041095109C9011F910F91FF90EF90089541
:10570000DF92EF92FF920F931F93FC01E480F580EC
:1057100006811781D1808081823048F480E090E05A
:10572000A0E1B0E0E82AF92A0A2B1B2BA5C084309F
:1057300009F49FC0823021F4EE24FF24870105C0C4
:10574000E114F1040105110519F4E0E0F0E096C060
:10575000628173819FEF623879070CF05BC022E8A9
:105760003FEF261B370B2A3131052CF020E030E0CB
:1057700040E050E02AC0B801A701022E04C076958F
:105780006795579547950A94D2F781E090E0A0E09D
:10579000B0E004C0880F991FAA1FBB1F2A95D2F73B
:1057A0000197A109B1098E219F21A023B123009760
:1057B000A105B10521F081E090E0A0E0B0E09A0100
:1057C000AB01282B392B4A2B5B2BDA01C9018F77D0
:1057D0009070A070B07080349105A105B10539F4C6
:1057E00027FF09C0205C3F4F4F4F5F4F04C0215C33
:1057F0003F4F4F4F5F4FE0E0F0E02030A0E03A072E
:10580000A0E04A07A0E45A0710F0E1E0F0E07901D7
:105810008A0127C06038710564F5FB01E158FF4F2C
:10582000D801C7018F779070A070B0708034910557
:10583000A105B10539F4E7FE0DC080E490E0A0E0D9
:10584000B0E004C08FE390E0A0E0B0E0E80EF91E05
:105850000A1F1B1F17FF05C016950795F794E794BD
:10586000319687E016950795F794E7948A95D1F7D6
:1058700005C0EE24FF248701EFEFF0E06E2F67955F
:1058800066276795902F9F77D794DD24D7948E2F26
:105890008695492F462B582F5D29B701CA011F91C4
:1058A0000F91FF90EF90DF900895FC01DB014081A4
:1058B00051812281622F6F7770E0221F2227221FE1
:1058C0009381892F880F822B282F30E0991F9927E9
:1058D000991F11969C93119721153105A9F5411532
:1058E00051056105710511F482E037C082E89FEF30
:1058F00013969C938E9312979A01AB0167E0220F47
:10590000331F441F551F6A95D1F783E08C930DC058
:10591000220F331F441F551F12968D919C91139790
:10592000019713969C938E931297203080E038074E
:1059300080E0480780E4580758F314962D933D9370
:105940004D935C93179708952F3F310579F44115D6
:1059500051056105710519F484E08C93089564FF85
:1059600003C081E08C9312C01C9210C02F573040AE
:1059700013963C932E93129783E08C9387E0440F09
:10598000551F661F771F8A95D1F7706414964D9343
:105990005D936D937C93179708951F93DC01FB0132
:1059A0009C91923008F447C08081823008F443C053
:1059B000943051F411961C91843099F58181682FAF
:1059C00070E0611B71093FC0843021F0923031F4E6
:1059D0008230B9F18181882389F12DC011961C9103
:1059E00011978230F1F081811817D9F412962D9118
:1059F0003C911397828193818217930794F0281723
:105A00003907BCF014968D919D910D90BC91A02DFD
:105A10002481358146815781281739074A075B075A
:105A200018F4112341F00AC082179307A407B507A1
:105A300040F4112319F061E070E005C06FEF7FEFD3
:105A400002C060E070E0CB011F910895629FD00119
:105A5000739FF001829FE00DF11D649FE00DF11D29
:105A6000929FF00D839FF00D749FF00D659FF00DD8
:105A70009927729FB00DE11DF91F639FB00DE11DC5
:105A8000F91FBD01CF0111240895A1E21A2EAA1B0E
:105A9000BB1BFD010DC0AA1FBB1FEE1FFF1FA217DE
:105AA000B307E407F50720F0A21BB30BE40BF50BDB
:105AB000661F771F881F991F1A9469F76095709564
:105AC000809590959B01AC01BD01CF01089597FB96
:105AD000092E05260ED057FD04D0D7DF0AD0001CB2
