:100000000C9480020C94A1020C94A1020C94A10205
:100010000C94A1020C94A1020C94A1020C94A102D4
:100020000C94A1020C94A1020C94A1020C94A102C4
:100030000C94A1020C94A1020C94A1020C94A102B4
:100040000C94A1020C94A1020C94A1020C94A102A4
:100050000C94A1020C94A1020C94A1020C94A10294
:100060000C94A1020C94A31B0C94A1020C94A10269
:100070000C94A1020C94A1020C94A1020C94A10274
:100080000C94A1020C94A1020C94A1020C94A10264
:100090000C94F11B0C94A1020C94A1020C94A102EB
:1000A0000C94A1020C94A1020C94A1020C94A10244
:1000B0000C94A1020C94A1020C94A1020C940F21A7
:1000C0000C94A1020C94A1020C94A1024D45343071
:1000D00035204C61622031205374617274696E67FF
:1000E0002050726F6772616D002C204F4352354172
:1000F0003A20002C20486561703A200053797374CF
:10010000656D2074696D653A200044656320203375
:100110002032303138004D45353037205465726D0E
:100120002050726F6A656374205374656572696EDE
:10013000672056302E3031002020683A20202020C1
:100140002048414C502100202043746C2D433A201C
:1001500052657365742074686520415652002020F2
:100160006E3A2020202020456E7465722061206E3A
:10017000756D626572202864656D6F2900202064AA
:100180003A2020202020537461636B2064756D70C9
:1001900020666F72207461736B73002020763A20A2
:1001A0002020202056657273696F6E20616E642076
:1001B000736574757020696E666F726D6174696FB6
:1001C0006E002020743A202020202053686F772072
:1001D0007468652074696D65207269676874206E43
:1001E0006F77002020703A202020202053656E6415
:1001F00020612070696E6720766961205246002078
:1002000020733A202020202053746F70207468657A
:10021000206361722066726F6D2072756E6E696EFA
:1002200067002020723A20202020205374617274CD
:1002300020746865206361722064726976696E67F4
:10024000002068656C70004D45353037205465726C
:100250006D2050726F6A65637420537465657269AE
:100260006E672056302E303100496C6C6567616CCA
:100270002073746174652120526573657474696EAE
:10028000672041565200223E003C696E76616C69DF
:100290006420636861722022004E756D6265722071
:1002A000656E74657265643A2000223A20575446A0
:1002B0003F00526573657474696E67204156520041
:1002C00073656E64696E672070696E6700456E7451
:1002D000657220646563696D616C206E756D657211
:1002E0006963206469676974732C207468656E2083
:1002F00052455455524E206F72204553430073743B
:100300006F7070696E67206361720072756E206332
:10031000617200507265737320276827206F722006
:10032000273F2720666F722068656C7000546865EF
:1003300020412F4420636F6E766572746572203C95
:100340003C206F70657261746F72206E6F742077DD
:100350006F726B696E672E2041206E756D626572DB
:100360002069733A2000496C6C6567616C20737476
:100370006174652120526573657474696E672041EC
:10038000565200496C6C6567616C207374617465CA
:100390002120526573657474696E6720415652005E
:1003A000496C6C6567616C207374617465212052BF
:1003B0006573657474696E672041565200496C6CB0
:1003C0006567616C20737461746521205265736583
:1003D0007474696E6720415652004E6F20736861D5
:1003E0007265642064617461206974656D73207442
:1003F0006F207072696E74002D2D2D2D202020200D
:1004000020202020202020202D2D2D2D20202020B8
:100410002D2D2D2D2D2D2D2D2D2D00536861726527
:100420002F51756575652020202020547970652036
:10043000202020467265652F546F74616C00455210
:10044000524F52206372656174696E6720746173E4
:100450006B2022002220637265617465642C207316
:100460007461636B206174203078005461736B2079
:1004700022005461736B3A20005461736B3A204937
:10048000444C450009092D002F0049444C450909F9
:1004900030092D0900092D2D2D2D00092D2D2D2D73
:1004A0002D2D2D2D2D2D002D2D2D2D09092D2D2DF1
:1004B0002D092D2D2D2D2D000952756E7300094625
:1004C0007265652F546F74616C004E616D6509092A
:1004D0005072692E09537461746500095374616325
:1004E0006B005461736B0909202009200009000981
:1004F000002F00090009002020000E94EF1308953A
:1005000011241FBECFEFD1E2DEBFCDBF00E00CBF94
:1005100014E0A0E0B2E0EEE2FFE500E00BBF02C0B5
:1005200007900D92A834B107D9F71CE1A8E4B4E014
:1005300001C01D92AC30B107E1F70E94A3020C94F8
:10054000952F0C9400008F929F92AF92BF92CF9202
:10055000DF92EF92FF920F931F9314BE88E10FB6C4
:10056000F89480936000109260000FBE80E190E0EC
:100570000E942E19B82EA92E60E875E241E00E9473
:100580003F1C8B2D9A2D67E00E949D196BE00E9405
:100590009D198C016CEC70E00E945919C80166E04D
:1005A0000E949D190E946E1F4C0188E190E00E94FC
:1005B0002E19D82EC92E60E270E040E052E02B2DBB
:1005C0003A2DEAE0EE2EF12C012D112D0E94841718
:1005D000D0924804C092490489E090E00E942E190C
:1005E0008C0166E072E00E948F139DE6E92E92E096
:1005F000F92EF801F182E08210934B0400934A0433
:1006000089E090E00E942E198C0160E172E00E9466
:100610008F13F801F182E08210934D0400934C0493
:1006200089E090E00E942E198C016AE172E00E943C
:100630008F13F801F182E08210934F0400934E046F
:1006400089E090E00E942E198C0167E272E00E941E
:100650008F1383E7E82E82E0F82EF801F182E08222
:10066000109351040093500489E090E00E942E19E9
:100670008C0161E372E00E948F13F801F182E08245
:1006800010935304009352040FB6F8940F92F8019C
:1006900010860F900FBE82E190E00E942E196DE34C
:1006A00072E041E024E031E00B2D1A2D0E94840716
:1006B00082E190E00E942E1965E472E044E028ECAB
:1006C00030E00E94A80883E190E00E942E196EE4B9
:1006D00072E044E028EC30E00E94670989E390E092
:1006E0000E942E1964E572E044E028EC30E07401C9
:1006F0000E94CA0A82E190E00E942E1967E572E02A
:1007000042E028EC30E00E94220A0E94D61281E0EA
:1007100090E01F910F91FF90EF90DF90CF90BF90EE
:10072000AF909F908F900895EF92FF921F93CF9379
:10073000DF937C01EB01FC0164817581CE010E9495
:100740005919F701A481B581FD0101900020E9F755
:1007500031971E2F1A1B103158F4E881F98102805D
:10076000F381E02DCE0160E219951F5F1031A8F3EF
:10077000CE0162E672E00E945919CE0166E00E9445
:100780009D19F701A681B781109749F0ED91FC9171
:1007900011970190F081E02DCD01BE011995DF91F7
:1007A000CF911F91FF90EF900895EF92FF921F93CA
:1007B000CF93DF937C01EB01FC0164817581CE0155
:1007C0000E945919F701A481B581FD010190002013
:1007D000E9F731971E2F1A1B103158F4E881F9817F
:1007E0000280F381E02DCE0160E219951F5F103188
:1007F000A8F3CE0162E672E00E945919CE0166E0CC
:100800000E949D19F701A681B781109749F0ED91DB
:10081000FC9111970190F081E02DCD01BE01199559
:10082000DF91CF911F91FF90EF900895EF92FF928B
:100830000F931F93DF93CF9300D000D0CDB7DEB7D7
:100840007C0119821A821B821C821E821D82FC017D
:100850008681978166E00E949D196BE00E949D1938
:100860008C0166E171E00E945919C8016BE00E9499
:100870009D198C016AE071E00E945919C80166E077
:100880000E949D196BE00E949D198C016CEF70E035
:100890000E945919CE0101960E947818BC01C80126
:1008A0000E94FE176BE00E949D198C0163EF70E0BF
:1008B0000E9459190E94200BBC01C8010E94F01926
:1008C0008C0165E772E00E945919C80148E357E1BD
:1008D00060E070E00E942B1A6BE00E949D198C0171
:1008E00069EE70E00E945919609128017091290108
:1008F000C8010E94F01966E00E949D1966E00E94FE
:100900009D19F701868197810E94C315F7018681A1
:10091000978166E00E949D19F701868197810E9468
:100920000F1326960FB6F894DEBF0FBECDBFCF9142
:10093000DF911F910F91FF90EF900895EF92FF923A
:100940000F931F937C01FC01868197816BE00E94CD
:100950009D198C0167E472E00E945919C8016BE08F
:100960000E949D198C0161E472E00E945919C8012E
:1009700066E00E949D19F701868197816BE00E94D5
:100980009D198C0162E272E00E945919C80166E06B
:100990000E949D19F701868197816BE00E949D1945
:1009A0008C016FEF71E00E945919C80166E00E9446
:1009B0009D19F701868197816BE00E949D198C013A
:1009C00063EE71E00E945919C80166E00E949D190A
:1009D000F701868197816BE00E949D198C0162EC82
:1009E00071E00E945919C80166E00E949D19F70143
:1009F000868197816BE00E949D198C016BE971E003
:100A00000E945919C80166E00E949D19F70186816C
:100A100097816BE00E949D198C016DE771E00E9447
:100A20005919C80166E00E949D19F70186819781D6
:100A30006BE00E949D198C016EE571E00E945919CE
:100A4000C80166E00E949D19F701868197816BE0DD
:100A50000E949D198C0167E471E00E945919C80138
:100A600066E00E949D19F701868197816BE00E94E4
:100A70009D198C0168E371E00E945919C80166E074
:100A80000E949D191F910F91FF90EF9008954F9232
:100A90005F926F927F928F929F92AF92BF92CF920E
:100AA000DF92EF92FF920F931F93DF93CF9300D0CB
:100AB00000D0CDB7DEB76C0119821A821B821C826E
:100AC0001E821D82DC0116968D919C9117976BE01A
:100AD0000E949D198C0163E173E00E945919C801BD
:100AE00066E00E949D197C2C6D2C88249924540169
:100AF0002E010894411C511CF6018485882321F5A0
:100B0000D6011696ED91FC911797A081B1811496AC
:100B10002D913C911597CF01F9011995882309F082
:100B2000CFC0F60186859785A089B1890196A11D60
:100B3000B11D86879787A08BB18B61E070E080E064
:100B400090E00E942E11D8CF8130D9F0F601868135
:100B500097816BE00E949D198C0169E672E00E940A
:100B60005919C80166E00E949D192BE088E190E0C8
:100B70000FB6F894A895809360000FBE2093600094
:100B8000FFCFD6011696ED91FC911797A081B18108
:100B900014962D913C911597CF01F9011995882351
:100BA00009F465C0F601A681B781ED91FC9111971A
:100BB0000680F781E02DCD011995E82E80538A300B
:100BC00090F1FAE0EF1629F1BDE0EB1621F0EBE130
:100BD000EE1609F0BBC0D60116968D919C91179721
:100BE00066E00E949D196BE00E949D198C0169E9E5
:100BF00072E00E945919C801B501A4010E942B1A84
:100C000066E00E949D19872D962D60E00E94C61314
:100C100088CFD60116968D919C91179767E772E061
:100C20000E9459197ECFF601A681B781ED91FC9102
:100C300011970280F381E02DCD016E2D1995C5012C
:100C4000B4012AE030E040E050E00E947F2D2E2DDC
:100C5000332727FD3095205330404901AA2497FCC3
:100C6000A094BA2C860E971EA81EB91E5ACFE091EA
:100C70004804F0914904A081B18114962D913C91D2
:100C80001597CF01F9011995882309F44ACFF60188
:100C900006811781D801ED91FC91E280F380A0914B
:100CA0004804B0914904ED91FC9111970680F781B9
:100CB000E02DCD011995682FC801F701199531CFA5
:100CC000D6011696ED91FC911797A081B1811696E9
:100CD0002D913C911797CF01F9011995E82EBEE6A9
:100CE0008B1709F4A7C0B8170CF47BC0EFE38E177D
:100CF00009F46BC0E8170CF461C0F3E08F1709F436
:100D000042C0D60116960D911C911797D801ED910E
:100D1000FC910280F381E02DC80162E21995D801AF
:100D2000ED91FC910280F381E02DC8016E2D1995A3
:100D3000C8016BE00E949D198C016AEA72E00E9472
:100D40005919C80166E00E949D19EBCEF601868113
:100D500097816BE00E949D198C0169E872E00E9406
:100D60005919D801ED91FC910280F381E02DC80161
:100D70006E2D1995C8016BE00E949D1966E872E01E
:100D80000E945919CECEF601868197816BE00E94B0
:100D90009D198C0162EB72E00E945919C80166E04E
:100DA0000E949D192BE088E190E00FB6F894A89579
:100DB000809360000FBE20936000FFCF84E6E816AA
:100DC00041F0A8E6EA1609F09CCFC6010E949E04F5
:100DD000A8CED60116968D919C9117970E946D15FD
:100DE000A0CEB3E78B1709F465C0B8170CF457C051
:100DF000E0E78E17B9F1F2E78F1709F082CFF6011D
:100E0000868197816BE00E949D198C016BE073E0F5
:100E10000E945919C80166E00E949D190FB6F89406
:100E20000F92E0915204F091530481E080870F907B
:100E30000FBE77CEF601868197816BE00E949D19E7
:100E40008C016DEC72E00E945919C80166E00E94A5
:100E50009D19872D962D61E00E94C6138824992440
:100E600054015FCED60116968D919C9117976BE039
:100E70000E949D198C0160EC72E00E945919C80112
:100E800066E00E949D190FB6F8940F92E09150040D
:100E9000F091510481E080870F900FBE42CE84E72D
:100EA000E81621F1A6E7EA1609F02BCFC6010E9449
:100EB000160437CED60116968D919C9117976BE04C
:100EC0000E949D198C016EEF72E00E945919C801B1
:100ED00066E00E949D190FB6F8940F92E0915204BB
:100EE000F091530410860F900FBE1BCEF6010681C1
:100EF0001781C2010E947818BC01C8010E94FE1728
:100F000066E00E949D190DCEEF92FF920F931F9302
:100F10007C010E949E148DE792E0F701918380830B
:100F20001F910F91FF90EF900895EF92FF920F9312
:100F30001F937C010E949E148DE792E0F70191833C
:100F400080831F910F91FF90EF90089580917C0016
:100F5000887F80937C0080917C006770862B8093D3
:100F60007C0080917A00806480937A0080917A007E
:100F700086FDFCCF80917800909179000895CF9301
:100F8000DF93FC01C081D181209749F0CE0161E857
:100F900072E00E945919CE0166E00E949D198FEF00
:100FA0009FEFDF91CF910895CF92DF92EF92FF9262
:100FB0000F931F93D82EC92E7B016BE00E949D19C1
:100FC0008C016DE273E00E945919C70160E044E0B2
:100FD0000E94BF07BC01C8010E94F01966E00E9490
:100FE0009D198D2D9C2D1F910F91FF90EF90DF90FB
:100FF000CF900895CF93DF93FC01EB017183608361
:1010000080E880937A0080917C00806480937C00EB
:101010006115710549F0CB0164EA72E00E9459192B
:10102000CE0166E00E949D19DF91CF910895CF9384
:10103000DF93FC01EB017183608380E880937A0089
:1010400080917C00806480937C006115710549F07B
:10105000CB0164EA72E00E945919CE0166E00E9459
:101060009D19DF91CF9108956B350CF06AE5663AD2
:101070000CF466EA772767FD7095872F972F0E94FB
:101080005F2A2DE232EB4DE95DE30E94892820E0E2
:1010900030E040EC51E40E945C280E94B326DC0161
:1010A000CB0108950F931F93CF93DF93EC0108E1D9
:1010B00011E08C85882301F5249A8091B000836823
:1010C0008093B0008091B10087608093B10000935D
:1010D000B3001C878E859F85A889B9890196A11DBB
:1010E000B11D8E879F87A88BB98B61E070E080E08F
:1010F00090E00E942E11DDCF8130D1F08E819F8152
:101100006BE00E949D198C0166E673E00E945919FC
:10111000C80166E00E949D192BE088E190E00FB6BF
:10112000F894A895809360000FBE20936000FFCFD5
:101130000FB6F8940F920F900FBEE0914A04F09111
:101140004B04CE0160850E9434088093B300C2CF67
:10115000EF92FF920F931F937C010E949E148BEBE2
:1011600092E0F701918380831F910F91FF90EF90A0
:101170000895EF92FF920F931F937C010E949E149B
:101180008BEB92E0F701918380831F910F91FF9089
:10119000EF900895CF92DF92EF92FF921F93FC01A0
:1011A000162F6B350CF01AE56289772767FD70956D
:1011B000625A7F4F882777FD8095982F0E945F2A7B
:1011C0006B017C01612F163A0CF466EA772767FD04
:1011D0007095872F972F0E945F2A2AE939E949E9FC
:1011E0005EE30E9489289B01AC01C701B6010E9401
:1011F0005C280E94B326DC01CB011F91FF90EF9089
:10120000DF90CF900895EF92FF920F931F93CF93AB
:10121000DF93EC018EEF8A8B04E011EE8EE5F82E61
:10122000EE24E3948C85882331F5259A8091800003
:10123000826880938000809181008C61809381001E
:10124000009387001093860010928900F092880026
:10125000EC868E859F85A889B9890196A11DB11D4F
:101260008E879F87A88BB98B61E070E080E090E06B
:101270000E942E11D7CF8130D1F08E819F816BE0FB
:101280000E949D198C0163E873E00E945919C801FE
:1012900066E00E949D192BE088E190E00FB6F8947B
:1012A000A895809360000FBE20936000FFCF0FB61B
:1012B000F8940F920F900FBEE0914C04F0914D0402
:1012C000CE0160850E94CA0880938800C2CFEF9249
:1012D000FF920F931F937C010E949E1483EC92E077
:1012E000F701918380831F910F91FF90EF900895F4
:1012F000EF92FF920F931F937C010E949E1483EC48
:1013000092E0F701918380831F910F91FF90EF90FE
:101310000895EF92FF920F931F93CF93DF93EC0109
:1013200004E112E08AE5F82EEE24E3948C85813006
:1013300009F466C0813038F50FB6F8940F92E09149
:101340004C04F0914D0410860F900FBE0FB6F89428
:101350000F92E0914A04F0914B0410860F900FBE5B
:101360001C878E859F85A889B9890196A11DB11D0D
:101370008E879F87A88BB98B61E070E080E090E05A
:101380000E942E11D3CF8230D1F08E819F816BE0ED
:101390000E949D198C0160EA73E00E945919C801EE
:1013A00066E00E949D192BE088E190E00FB6F8946A
:1013B000A895809360000FBE20936000FFCF0FB60A
:1013C000F8940F920F900FBEE0915204F0915304E5
:1013D00080858111EC860FB6F8940F92E0914C0451
:1013E000F0914D0410860F900FBE0FB6F8940F9237
:1013F000E0914A04F0914B04F0860F900FBEB1CFFC
:101400000FB6F8940F920F900FBEE0915204F09136
:1014100053048085882309F41C870FB6F8940F9233
:10142000E0914C04F0914D0400870F900FBE0FB671
:10143000F8940F92E0914A04F0914B0410860F90BB
:101440000FBE8FCFEF92FF920F931F937C010E94EC
:101450009E148BEC92E0F701918380831F910F9192
:10146000FF90EF900895EF92FF920F931F937C01EE
:101470000E949E148BEC92E0F701918380831F9170
:101480000F91FF90EF900895DC01D796ED91FC91BC
:10149000D8978EE290E09183808342E04283D79692
:1014A000ED91FC91D8979483838333E03583D7966D
:1014B000ED91FC91D89785E290E09783868321E0B7
:1014C0002087D796ED91FC91D897928781874387A3
:1014D000D796ED91FC91D897958784873687D796D4
:1014E0008D919C91D8970E94181D08950F931F937A
:1014F000CF93DF93EC0112E001E08C858130A9F1FC
:101500008130A8F41A8A0B8B0C878E859F85A88959
:10151000B9890196A11DB11D8E879F87A88BB98BB4
:1015200061E070E080E090E00E942E11E6CF823012
:10153000D1F08E819F816BE00E949D198C016DEB33
:1015400073E00E945919C80166E00E949D192BE0C2
:1015500088E190E00FB6F894A895809360000FBEE4
:1015600020936000FFCF0C87D0CFE0915004F09122
:1015700051040FB6F8940F920F900FBE8085882308
:1015800009F4C3CF0FB6F8940F9210860F900FBED8
:101590001C87BBCFCF92DF92EF92FF920F931F93E6
:1015A0006C010E949E1483ED92E0F601918380838A
:1015B000F0AEE7AA1F910F91FF90EF90DF90CF90D0
:1015C0000895CF92DF92EF92FF920F931F936C01D9
:1015D0000E949E1483ED92E0F60191838083F0AE29
:1015E000E7AA1F910F91FF90EF90DF90CF900895A1
:1015F000399A92E088B1892788B9FCCFEF92FF929F
:101600000F931F937C010E949E148BED92E0F701D3
:10161000918380831F910F91FF90EF900895EF9237
:10162000FF920F931F937C010E949E148BED92E01A
:10163000F701918380831F910F91FF90EF900895A0
:101640008091DF029091E00208950895CF93DF9397
:10165000009739F1EC0124970E94FB0B4A815B81D2
:10166000ADE8BBE12C9111963C911197BD01C901E8
:10167000DC0112968D919C9113978417950790F336
:10168000FB01B983A883D183C0838091DF0290914D
:10169000E002840F951F9093E0028093DF020E9486
:1016A0003010DF91CF910895EF92FF920F931F9327
:1016B000CF93DF93EC010E94FB0B809154048823AD
:1016C00009F586E594E090938E1B80938D1B109214
:1016D000901B10928F1B87E397E19093941B80934C
:1016E000931B1092921B1092911B9093590480931C
:1016F000580481E99BE1909357048093560481E05C
:1017000080935404209739F0AE014C5F5F4F2396CD
:10171000C653D74160F0C0E0D0E00E943010CE0147
:10172000DF91CF911F910F91FF90EF900895C0919D
:101730008D1BD0918E1BEDE8FBE107C0888199815C
:10174000BE01009739F0EC01FB012A813B8124178F
:101750003507A0F38BE1C139D807E9F2E080F180C9
:101760008881998191838083C901841B950B89307D
:10177000910510F18E01040F151FF80193838283E8
:101780005B834A8342815381ADE8BBE12C91119682
:101790003C911197BD01C901DC0112968D919C917C
:1017A00013978417950790F3F801B183A083FB0189
:1017B000118300832A813B81E70124968091DF0217
:1017C0009091E002821B930B9093E0028093DF02E2
:1017D000A4CF0FB6F8940F92009729F0FC010F9058
:1017E0000FBE828D0895E091951BF091961B0F908E
:1017F0000FBE828D089580919E1B8F5F80939E1BEC
:1018000008950FB6F8940F922091991B30919A1B6E
:1018100040919B1B50919C1B0F900FBEB901CA01B8
:1018200008952091991B30919A1B40919B1B5091D8
:101830009C1BB901CA0108958091A21B08950097CD
:1018400029F09C01235E3F4FC90108958091951BAB
:101850009091961B9C01235E3F4FC9010895809192
:10186000A01B9091A11B089580919E1B8823E9F5F0
:101870001092981B05C08091971B81508093971BF5
:101880008091971B90E0FC01EE0FFF1F9C01220F3F
:10189000331F220F331F220F331FE20FF31FE80FF6
:1018A000F91FEB55F44E8081882329F39091971B03
:1018B0008BE0989FD0011124AB55B44E1196ED9159
:1018C000FC9112970480F581E02D1296FC93EE9323
:1018D0001197CD010396E817F90759F08085918596
:1018E0009093961B8093951B089581E08093981B9D
:1018F00008958481958111968C93119712969C93EB
:101900009C01F901EBCFFC0180919D1B80838091AC
:10191000991B90919A1BA0919B1BB0919C1B81835A
:101920009283A383B4830895AF92BF92CF92DF9244
:10193000EF92FF920F931F93CF93DF93FC01EB0184
:101940000FB6F8940F92A090991BB0909A1BC0907C
:101950009B1BD0909C1B90919D1B8081891709F443
:1019600043C0E180F28003811481AE14BF04C0063D
:10197000D10660F5288139814A815B81D601C50194
:101980008E199F09A00BB10B82179307A407B50707
:10199000E8F42A193B094C095D092E0D3F1D401F33
:1019A000511F288339834A835B8380919D1B8083E9
:1019B0008091991B90919A1BA0919B1BB0919C1BAD
:1019C00081839283A383B48380E001C081E00F9080
:1019D0000FBEDF91CF911F910F91FF90EF90DF909D
:1019E000CF90BF90AF900895E180F2800381148181
:1019F000C1CF81E08093981B08950097B1F0FC015E
:101A0000A38DB48D8C91853AA9F420E030E040E0BC
:101A100050E02F5F3F4F4F4F5F4FFD01E20FF31F2D
:101A20008081853AB1F3822F0895E091951BF09162
:101A3000961BE6CF80E008952091951B3091961B70
:101A4000C9010895E091951BF091961B66857785F5
:101A500080899189A091951BB091961BE091951B6F
:101A6000F091961BE28D24E030E040E050E02E1B28
:101A70003109410951091E962D933D934D935C9375
:101A8000519708958091951B9091961B892B39F061
:101A9000E091951BF091961B80A58F5F80A7209108
:101AA000951B3091961BC90108950F931F93CF93F7
:101AB000DF93EC01009749F028A5215028A79A8DC3
:101AC0008FA1981711F0222331F080E0DF91CF91A0
:101AD0001F910F9108958E010E5F1F4FC8010E9444
:101AE000F01F2FA12A8F84E090E0A0E0B0E0821BDD
:101AF0009109A109B1098E879F87A88BB98B809125
:101B0000971B821710F42093971B8BE0289FC0012E
:101B100011248B55944EB8010E94901F81E0DF91F3
:101B2000CF911F910F9108950F931F93CF93DF9340
:101B3000EC01009781F13A8DE091951BF091961B95
:101B4000828D381740F58E859F85A889B989B7FDA4
:101B500011C0E091951BF091961B228D84E090E0DE
:101B6000A0E0B0E0821B9109A109B1098E879F878F
:101B7000A88BB98B8BE0389FC00111248B55944EF4
:101B80002C853D852817390759F0E091951BF09178
:101B9000961B828D8A8FDF91CF911F910F910895AF
:101BA0008E010E5F1F4FC8010E94F01FE091951B30
:101BB000F091961B928D9A8F8091971B891710F444
:101BC0009093971B8BE0989FC00111248B55944EE6
:101BD000B8010E94901FDFCF0F931F93CF93DF9325
:101BE000FC0170684083518362837383C085D18513
:101BF0000E94F01F8E010E5F1F4FC8010E94F01F50
:101C00009A8D8091971B891710F49093971B8BE006
:101C1000989FC00111248B55944EB8010E94901FCB
:101C2000E091951BF091961B9A8D828D891740F457
:101C300081E08093981BDF91CF911F910F910895C0
:101C400080E0DF91CF911F910F9108950F931F9323
:101C5000CF93DF93DC011796ED91FC9118970085E7
:101C60001185E8012E96CE010E94F01F80919E1BE7
:101C7000882331F5E8012296CE010E94F01FF80179
:101C8000928D8091971B891708F18BE0989FC00176
:101C900011248B55944EBE010E94901FE091951B1C
:101CA000F091961BD8015A969C91828D891788F4E1
:101CB00081E08093981BDF91CF911F910F91089540
:101CC0008BEE9BE1BE010E94901FE8CF9093971B83
:101CD000DCCF80E0DF91CF911F910F910895AF92FB
:101CE000BF92CF92DF92EF92FF920F931F93CF9309
:101CF000DF9380919E1B882309F0B2C08091991BCD
:101D000090919A1BA0919B1BB0919C1B0196A11DC9
:101D1000B11D8093991B90939A1BA0939B1BB0932A
:101D20009C1BC090991BD0909A1BE0909B1BF0903D
:101D30009C1BC114D104E104F10449F52091E71B77
:101D40003091E81B8091E91B9091EA1B9093E81B6E
:101D50008093E71B3093EA1B2093E91B80919D1B26
:101D60008F5F80939D1BE091E71BF091E81B8081C2
:101D7000882309F0AAC08FEF9FEFAFEFBFEF8093EA
:101D8000E6029093E702A093E802B093E902809103
:101D9000E6029091E702A091E802B091E902C8162C
:101DA000D906EA06FB0608F473C0BB24EBE0AE2EAE
:101DB000E091E71BF091E81B8081882309F443C080
:101DC000E091E71BF091E81B0780F085E02DC085CE
:101DD000D1858A819B81AC81BD81C816D906EA066E
:101DE000FB0608F489C08E010E5F1F4FC8010E94D8
:101DF000F01F888D998D892B21F0CE010E960E94BF
:101E0000F01F9A8D8091971B891710F49093971B60
:101E10009A9DC00111248B55944EB8010E94901FC9
:101E2000E091951BF091961B9A8D828D981708F47E
:101E3000BFCFBB24B394E091E71BF091E81B8081F6
:101E4000882309F0BDCF8FEF9FEFAFEFBFEF8093F7
:101E5000E6029093E702A093E802B093E90219C06A
:101E600080919F1B8F5F80939F1BBB248091981B49
:101E7000882311F0BB24B3948B2DDF91CF911F9158
:101E80000F91FF90EF90DF90CF90BF90AF900895AB
:101E9000BB24E091951BF091961B828D90E0FC0194
:101EA000EE0FFF1F9C01220F331F220F331F220F43
:101EB000331FE20FF31FE80FF91FEB55F44E80813B
:101EC0008230A0F2BB24B394D1CFE091E71BF09114
:101ED000E81B0780F085E02D0084F185E02D8281EC
:101EE0009381A481B5818093E6029093E702A09349
:101EF000E802B093E9024BCF8093E6029093E702A9
:101F0000A093E802B093E902C4CFEF92FF920F933F
:101F10001F937B018C01E091951BF091961B6283CE
:101F20007383848395838091991B90919A1BA091D0
:101F30009B1BB0919C1BE816F9060A071B0730F1A2
:101F40008091E71B9091E81B6091951B7091961B07
:101F50006E5F7F4F0E94AF1F8091E6029091E70273
:101F6000A091E802B091E902E816F9060A071B07FA
:101F700040F4E092E602F092E7020093E802109348
:101F8000E9021F910F91FF90EF9008958091E91B56
:101F90009091EA1B6091951B7091961B6E5F7F4F2D
:101FA0000E94AF1F1F910F91FF90EF900895EF9245
:101FB000FF920F931F9378018901E091951BF09197
:101FC000961B706846875787608B718B6091951B55
:101FD0007091961B625F7F4F0E94901F8091951BAE
:101FE0009091961B02960E94F01F6091991B709130
:101FF0009A1B80919B1B90919C1B6E0D7F1D801FD7
:10200000911F0E94850F1F910F91FF90EF900895EF
:10201000EF92FF920F931F937A018B016091951BB2
:102020007091961B625F7F4F0E94AF1F8091951B3E
:102030009091961B02960E94F01F6091991B7091DF
:102040009A1B80919B1B90919C1B6E0D7F1D801F86
:10205000911F0E94850F1F910F91FF90EF9008959F
:10206000EF92FF920F931F93CF93DF930FB6F894E5
:102070000F9280919E1B815080939E1B80919E1B8E
:10208000882309F056C08091A21B882309F451C00F
:10209000FBE0FF2EEE24E3948091EB1B882369F193
:1020A000E091F21BF091F31BC085D185CE010E9615
:1020B0000E94F01F8E010E5F1F4FC8010E94F01F8B
:1020C0009A8D8091971B891710F49093971B9F9D71
:1020D000C00111248B55944EB8010E94901FE091CD
:1020E000951BF091961B9A8D828D9817A8F2E0921D
:1020F000981B8091EB1B882399F680919F1B882366
:10210000A1F080919F1B882381F011E00E946F0E47
:10211000882311F01093981B80919F1B815080930E
:102120009F1B80919F1B882389F78091981B81308A
:1021300051F080E00F900FBEDF91CF911F910F9172
:10214000FF90EF9008950E94122181E0F3CF8091DB
:10215000A51B823018F00E941221F9CFFFCFEF9219
:10216000FF921F93CF93DF93643008F063E00FB6C4
:10217000F8940F92009709F451C0EC012FA1261793
:1021800069F1261798F18091951B9091961B10E0AC
:10219000C817D907D1F13A8D2317D9F16FA38E85CE
:1021A0009F85A889B989B7FD0CC084E090E0A0E0C4
:1021B000B0E0861B9109A109B1098E879F87A88B82
:1021C000B98B8BE0389FC00111248B55944E2C8520
:1021D0003D852817390749F11130E9F00F900FBEFE
:1021E000DF91CF911F91FF90EF9008958091951B03
:1021F0009091961BC817D907B1F0E091951BF0910B
:10220000961B10E0828D681730F211E03A8D23178B
:1022100029F66A8FC3CF0E941221E0CFC091951B8F
:10222000D091961BABCF10E0B6CFA2E0EA2EF12CF6
:10223000EC0EFD1EC7010E94F01F9A8D8091971B26
:10224000891710F49093971B8BE0989FC00111247D
:102250008B55944EB7010E94901FBECFAF92BF9294
:10226000CF92DF92EF92FF920F931F935B016C016D
:10227000611571058105910559F40E9412211F9184
:102280000F91FF90EF90DF90CF90BF90AF900895A7
:1022900080919E1B8F5F80939E1BE090991BF09016
:1022A0009A1B00919B1B10919C1B8091951B9091F8
:1022B000961B02960E94F01FEA0CFB1C0C1D1D1DB4
:1022C000C801B7010E94850F0E9430108823B9F61B
:1022D000D4CFEF92FF920F931F93FC017A018B01F1
:1022E00080919E1B8F5F80939E1B2091991B309144
:1022F0009A1B40919B1B50919C1B80819181A281D4
:10230000B381E80EF91E0A1F1B1F281739074A0759
:102310005B0720F5E816F9060A071B0748F52E1596
:102320003F054007510720F5E082F18202831383C5
:102330008091951B9091961B02960E94F01FC801F8
:10234000B7010E94850F0E943010882311F40E946B
:1023500012211F910F91FF90EF900895E816F90652
:102360000A071B0708F32E153F0540075107E0F247
:10237000E082F18202831383E6CFF8941092A31BCC
:102380000E94A92008952F923F924F925F926F92E0
:102390007F928F929F92AF92BF92CF92DF92EF92F5
:1023A000FF920F931F93CF93DF932C01362E272E8E
:1023B0005A013901102F470189E290E00E94540B25
:1023C000EC01009709F4BCC0C114D10409F4ACC0FD
:1023D000DC8ECB8EC60165EA70E0A5010E94202F3D
:1023E000EB8CFC8C832D922D9C01F901DE0190E099
:1023F00080815D968C935D978081882329F09F5F13
:10240000319611969A30A1F71EA2012F143008F0D0
:1024100089C00A8F0FA318A682E0C82ED12CCC0E3B
:10242000DD1EC6010E948C1FCE010E960E948C1FDD
:10243000DB87CA8784E090E0A0E0B0E0801B9109D0
:10244000A109B1098E879F87A88BB98BDF8BCE8BB3
:102450000894A108B108C7018A0D9B1DB201A30110
:102460000E941B20998388838114910419F0F40140
:10247000D183C0830FB6F8940F928091A21B8F5F17
:102480008093A21B8091951B9091961B892B09F438
:1024900059C08091A31B882359F4E091951BF091BA
:1024A000961B828D181720F0D093961BC093951B16
:1024B0008091A41B8F5F8093A41B9A8D8091971BA2
:1024C000891710F49093971B8BE0989FC0011124FB
:1024D0008B55944EB6010E94901F0F900FBE8091B5
:1024E000A31B882359F0E091951BF091961B828DD8
:1024F000811720F40E94122181E001C081E0DF9168
:10250000CF911F910F91FF90EF90DF90CF90BF90F0
:10251000AF909F908F907F906F905F904F903F9083
:102520002F90089503E075CFC5010E94540B6C01F4
:102530009C8F8B8F009709F04DCFCE010E94260B08
:102540008FEFDDCFD093961BC093951B8091A21B7C
:10255000813009F0ADCF85EA9BE10E94781F80EBC6
:102560009BE10E94781F8BEB9BE10E94781F86EC19
:102570009BE10E94781F01EDE02E0BE1F02EC701D8
:102580000E94781FBCEDAB2EBBE1BB2EC5010E94A3
:10259000781F8BEE9BE10E94781FF092E81BE0927F
:1025A000E71BB092EA1BA092E91B82CFAF92BF92C9
:1025B000CF92DF92EF92FF920F9387EA90E161EE64
:1025C00072E044E650E020E030E000E0E0EAEE2E89
:1025D000EBE1FE2ECC24DD24AA24BB240E94C311EF
:1025E000813041F00F91FF90EF90DF90CF90BF903E
:1025F000AF900895F8948093A31B1092991B1092AA
:102600009A1B10929B1B10929C1B0E946A200F9198
:10261000FF90EF90DF90CF90BF90AF9008950F9311
:102620001F93CF93DF93EC018091F61B9091F71BE2
:10263000892B61F1CE016BE00E949D198C016BE149
:1026400074E00E945919C80166E00E949D19CE01EC
:102650006BE00E949D198C0168EF73E00E9459198C
:10266000C80166E00E949D19A091F61BB091F71B6E
:10267000ED91FC9111970190F081E02DCD01BE010B
:102680001995DF91CF911F910F910895CE016BE0C5
:102690000E949D198C016AED73E00E945919C801CE
:1026A00066E00E949D19DF91CF911F910F910895CF
:1026B000FF920F931F93CF93DF93EC018B018EEE6C
:1026C00092E09983888361157105B1F0FB01019057
:1026D0000020E9F73197FE2EF61A8CE08F15E0F016
:1026E0008F2D90E001960E942B198C839D83B80159
:1026F0004F2D50E00E94272F8091F61B9091F71BE1
:102700009F838E83D093F71BC093F61BDF91CF91ED
:102710001F910F91FF9008958CE0F82EE1CFFF926A
:102720000F931F93CF93DF93EC018B018EEE92E01A
:102730009983888361157105B1F0FB010190002038
:10274000E9F73197FE2EF61A8CE08F15E0F08F2D09
:1027500090E001960E942B198C839D83B8014F2D28
:1027600050E00E94272F8091F61B9091F71B9F83CA
:102770008E83D093F71BC093F61BDF91CF911F91EF
:102780000F91FF9008959CE0F92EE1CFFC01648742
:10279000658708950E94010C0E94112B20E030E013
:1027A0004AE754E40E9483290895CF93DF93FC0104
:1027B000C681D781209739F0CE010E945919CE01E8
:1027C00066E00E949D192BE088E190E00FB6F89436
:1027D000A895809360000FBE20936000FFCF0F93F9
:1027E0001F938C01DC01ED91FC910190F081E02DB3
:1027F0001995F801138212826FEF7FEF8FEF9FEF31
:102800000E942E11F9CF4F925F926F927F928F921A
:102810009F92AF92BF92CF92DF92EF92FF920F936F
:102820001F93CF93DF93EC012B01A42F49013801B3
:10283000FC0184EF92E0819391938DE792E0A901EE
:102840009E010A2F7F01CC24DD24AA24BB240E94F0
:10285000C311282F7F826E82998688868091F81B0B
:102860009091F91B9D838C83D093F91BC093F81B27
:102870001C861D868091061C9091071C01969093E2
:10288000071C8093061C9B878A871E861F86188AD2
:10289000198A61147104E1F0213059F1C3016BE030
:1028A0000E949D198C016EE374E00E945919C801C1
:1028B000B2010E945919D801ED91FC910280F38177
:1028C000E02DC80162E21995C80166E00E949D19D9
:1028D000DF91CF911F910F91FF90EF90DF90CF90FC
:1028E000BF90AF909F908F907F906F905F904F9030
:1028F0000895C3016BE00E949D198C016BE674E0A2
:102900000E945919C801B2010E945919C8016BE00F
:102910000E949D198C0164E574E00E945919C80158
:1029200063E00E949D196A857B850E94F01962E030
:102930000E949D1966E00E949D19CACF4F925F9236
:102940006F927F928F929F92AF92BF92CF92DF92BF
:10295000EF92FF920F931F93CF93DF93EC012B0124
:10296000A42F49013801FC0184EF92E081939193F7
:102970008DE792E0A9019E010A2F7F01CC24DD247E
:10298000AA24BB240E94C311282F7F826E829986BD
:1029900088868091F81B9091F91B9D838C83D0933E
:1029A000F91BC093F81B1C861D868091061C909114
:1029B000071C01969093071C8093061C9B878A87AF
:1029C0001E861F86188A198A61147104E1F021306D
:1029D00059F1C3016BE00E949D198C016EE374E014
:1029E0000E945919C801B2010E945919D801ED91EC
:1029F000FC910280F381E02DC80162E21995C801C3
:102A000066E00E949D19DF91CF911F910F91FF9079
:102A1000EF90DF90CF90BF90AF909F908F907F907E
:102A20006F905F904F900895C3016BE00E949D19D5
:102A30008C016BE674E00E945919C801B2010E9432
:102A40005919C8016BE00E949D198C0164E574E07E
:102A50000E945919C80163E00E949D196A857B850F
:102A60000E94F01962E00E949D1966E00E949D1983
:102A7000CACFEF92FF920F931F93CF93DF93EC0196
:102A80007B01C7016BE00E949D198C0162E774E035
:102A90000E9459198A819B810E941F0CBC01C801A8
:102AA0000E945919C80166E00E949D196A857B85BC
:102AB000888599859B01281B390BC901A7010E94B4
:102AC00092180C80DD81C02D2097D9F6DF91CF912F
:102AD0001F910F91FF90EF9008950F931F93CF9345
:102AE000DF93EC018091F81B9091F91B009719F08E
:102AF000BE010E943915CE016BE00E949D198C0128
:102B000069E774E00E945919C80166E00E949D19A6
:102B10006091061C7091071CCB01835690406F5F3B
:102B20007F4FAE010E949218DF91CF911F910F91BC
:102B300008950F931F93182F092FDB01ED91FC913E
:102B40000280F381E02DCB01612F702F1995812F29
:102B5000902F1F910F9108950F931F93CF93DF93A1
:102B6000EC018B01C801BE010E94991566E00E942C
:102B70009D190C80DD81C02D2097A1F7DF91CF91A9
:102B80001F910F9108950F931F93CF93DF93EC0143
:102B90006BE00E949D198C0162EE74E00E9459194D
:102BA000C8016BE00E949D198C016BED74E00E94DE
:102BB0005919C80166E00E949D19CE016BE00E9480
:102BC0009D198C016AEC74E00E945919C8016BE0F0
:102BD0000E949D198C016EEB74E00E945919C80186
:102BE0006BE00E949D198C0168EB74E00E945919FA
:102BF000C80166E00E949D19CE016BE00E949D19FC
:102C00008C0167EA74E00E945919C8016BE00E94C8
:102C10009D198C016BE974E00E945919C8016BE0A1
:102C20000E949D198C0165E974E00E945919C80140
:102C300066E00E949D198091F81B9091F91B009706
:102C400019F0BE010E94AC15CE016BE00E949D19E7
:102C50008C016AE874E00E9459190E942F0C0E94AE
:102C6000FD0C682FC8010E94731A6BE00E949D1929
:102C70008C0168E874E00E945919C80164E670E0AC
:102C80000E94F0196BE00E949D198C0164E874E0C9
:102C90000E945919C80166E00E949D19DF91CF91E9
:102CA0001F910F910895EF92FF920F931F93CF936F
:102CB000DF937C01EB01FC01828193810E941F0C58
:102CC000BC01CE010E945919E881F9810280F3818B
:102CD000E02DCE0169E01995F701828193810E9470
:102CE0001F0CFC0101900020E9F73197E81BF90B5C
:102CF000389740F4E881F9810280F381E02DCE011C
:102D000069E01995F701828193810E94E90B682F90
:102D1000CE010E94731A6BE00E949D198C0165EF31
:102D200074E00E945919C801F70164850E94731A62
:102D30006BE00E949D198C0163EF74E00E945919A9
:102D4000F701828193810E94FD0C682FC8010E94C7
:102D5000731A6BE00E949D198C0161EF74E00E9470
:102D60005919F70160857185C8010E94F0196BE05F
:102D70000E949D198C016FEE74E00E945919C801E0
:102D80006BE00E949D198C016DEE74E00E94591950
:102D9000F7014685578560897189C8010E942B1A01
:102DA000DF91CF911F910F91FF90EF9008950F93B6
:102DB000DF93CF930F92CDB7DEB7FC018685978561
:102DC000BE016F5F7F4F2FEF3FEF4FEF5FEF00E0F0
:102DD0000E946622813031F08FEF0F90CF91DF910A
:102DE0000F91089589810F90CF91DF910F910895F0
:102DF000FC01868597850E947321811181E00895E9
:102E00000F93DF93CF930F92CDB7DEB7FC016983A9
:102E1000208931894289538986859785BE016F5FF4
:102E20007F4F00E00E94F1230F90CF91DF910F912F
:102E3000089506970E941D170895EF92FF920F9331
:102E40001F93CF93DF937C01EB01DC011A966D9108
:102E50007C911B97CE010E945919F701A285B38579
:102E6000FD0101900020E9F731970E2F0A1B003178
:102E700058F4E881F9810280F381E02DCE0160E20F
:102E800019950F5F0031A8F3CE0168EF72E00E9440
:102E90005919D7011E968D919C911F970E947B21F5
:102EA000682FCE010E94731A8C01DC01ED91FC9118
:102EB0000280F381E02D6FE21995F7016689778929
:102EC000C8010E94F019DC01ED91FC910280F381B0
:102ED000E02D69E01995CE0166E00E949D19F70189
:102EE000A485B585109749F0ED91FC91119701905B
:102EF000F081E02DCD01BE011995DF91CF911F9199
:102F00000F91FF90EF9008956F927F928F929F9212
:102F1000AF92BF92CF92DF92EF92FF920F931F93E7
:102F20006C01762E672E5A0149010E943119C601A3
:102F30000696B5010E948F1383E093E0F60191831A
:102F40008083429697838683958A848A872D61E061
:102F500040E00E942A25F60197878687E08AF18A59
:102F6000028B138B768A678A1F910F91FF90EF90E7
:102F7000DF90CF90BF90AF909F908F907F906F9099
:102F800008956F927F928F929F92AF92BF92CF924D
:102F9000DF92EF92FF920F931F936C01762E672EB4
:102FA0005A0149010E943119C6010696B5010E94D5
:102FB0008F1383E093E0F601918380834296978399
:102FC0008683958A848A872D61E040E00E942A25C5
:102FD000F60197878687E08AF18A028B138B768ABF
:102FE000678A1F910F91FF90EF90DF90CF90BF9075
:102FF000AF909F908F907F906F900895AF92BF9207
:10300000CF92DF92EF92FF920F931F93DF93CF93B4
:10301000CDB7DEB767970FB6F894DEBF0FBECDBF52
:103020007C018B01DB016D917D918D919C9128EE4E
:1030300033E040E050E00E949E2DC701BA01A90193
:103040000E942B1AD701ED91FC910280F381E02DB3
:10305000C7016EE21995C8010E945925282F8E01DB
:103060000A5F1F4F38E0A32EB12CAC0EBD1E80E1CD
:10307000C82ED12CCC0EDD1E822F2AE030E040E09D
:1030800050E00E94C02D288B398B4A8B5B8B6C8B58
:103090007D8B8E8B9F8BD501F60188E001900D9280
:1030A0008150E1F7688579852A859B858C85805DCF
:1030B000F8018083015010400C171D07E9F61F82AC
:1030C000C701BE016F5F7F4F0E945919C701679604
:1030D0000FB6F894DEBF0FBECDBFCF91DF911F9129
:1030E0000F91FF90EF90DF90CF90BF90AF90089539
:1030F0000F931F938C010FB6F8940F9280912401C7
:1031000090912501F801958384830E94010CF801B8
:1031100060837183828393830F900FBEC8011F91D8
:103120000F910895AF92BF92CF92DF92EF92FF92EC
:103130000F931F93CF93DF936C015B01EA01CA01E8
:1031400063E00E949D19CA14DB0408F052C0CE014E
:10315000B6010E94F0196BE00E949D1967EF74E0C0
:103160000E945919760110E0F70161917F01CE01AB
:103170000E94731AE881F9810280F381E02DCE016B
:1031800060E219951F5F143179F7E881F9810280B7
:10319000F381E02DCE0160E21995760186010C5E87
:1031A0001F4F0AC0E881F9810280F381E02DCE0132
:1031B0001995E016F106A1F0F70161917F01653ADA
:1031C00039F1862F80528F3568F3E881F9810280CA
:1031D000F381E02DCE016EE21995E016F10661F75C
:1031E0006701CE0166E00E949D19EA14FB0408F411
:1031F000AECFCE0162E00E949D19DF91CF911F9169
:103200000F91FF90EF90DF90CF90BF90AF90089517
:10321000E881F9810280F381E02DCE0160E2199509
:10322000C8CFFC0120E030E08081882311F421E048
:1032300030E0C9010895FC0181E08083089508957C
:103240000895009711F00E94260B0895009711F041
:103250000E94260B08950E94540B08950E94540B5F
:103260000895FC018DE193E0918380838AE082835D
:1032700083E0858314820895FC018DE193E09183BE
:1032800080838AE0828383E085831482089581E0CD
:10329000089580E0089580E008950895FC01A081DC
:1032A000B18112962D913C9113976CE0F90119951B
:1032B00008950F931F93CF93DF938C01EB01DC01F3
:1032C00014968C91882311F1F8011482FB0164910A
:1032D000662371F02196D801ED91FC910280F38173
:1032E000E02DC8011995FE0121966491662399F796
:1032F000DF91CF911F910F9108952196D801ED9103
:10330000FC910280F381E02DC80119956881662344
:10331000A1F7DF91CF911F910F910895883008F0A8
:1033200087E08093170389E00895982F82508F30AB
:1033300010F4909318038AE00895CF93DF93EC0183
:103340006630F1F1673090F0693061F16A30C8F4AD
:10335000673009F1683031F4E881F9810084F18542
:10336000E02D1995CE01DF91CF910895613029F1BB
:10337000613070F06230D1F06330A1F780E18A8370
:10338000F1CF6A30B1F06B3069F781E08C83EACF1E
:1033900082E08A83E7CFE881F9810284F385E02D1A
:1033A0001995E0CF809117038D83DCCF8AE08A8363
:1033B000D9CF809118038A83D5CF88E08A83D2CF72
:1033C000E881F9810280F381E02D6DE01995E881B3
:1033D000F9810280F381E02DCE016AE01995C2CF18
:1033E000EF92FF920F931F93DF93CF93CDB7DEB78A
:1033F00061970FB6F894DEBF0FBECDBF7C01062FDC
:10340000672FFC014281403191F0483081F0423019
:1034100071F0802F972F8E010F5F1F4FB80150E082
:103420000E945B2FC701B8010E94591906C0C7014D
:103430000E94731A602F0E94731AC70161960FB61B
:10344000F894DEBF0FBECDBFCF91DF911F910F91DA
:10345000FF90EF900895DF92EF92FF920F931F93EA
:10346000DF93CF93CDB7DEB7A1970FB6F894DEBF49
:103470000FBECDBF7C01D42E152F062F372FFC0198
:1034800022812031A1F0283091F0223081F0642F88
:10349000752F802F932F8E010F5F1F4FA80130E0F3
:1034A0000E94362FC701B8010E9459190DC0C701EB
:1034B000632F0E94731A602F0E94731A612F0E945B
:1034C000731A6D2D0E94731AC701A1960FB6F89456
:1034D000DEBF0FBECDBFCF91DF911F910F91FF9047
:1034E000EF90DF900895AF92BF92CF92DF92EF926C
:1034F000FF920F931F93DF93CF93CDB7DEB729973A
:103500000FB6F894DEBF0FBECDBF6C01162FDC01E5
:1035100013968C911397882309F05FC0F6014281BE
:10352000423089F1403109F060C062956F70D60178
:10353000ED91FC910280F381E02D6A3008F063C0C8
:10354000605DC6011995612F6F70D601ED91FC91F8
:103550000280F381E02D6A3008F457C0695CC6012F
:103560001995C60129960FB6F894DEBF0FBECDBFE0
:10357000CF91DF911F910F91FF90EF90DF90CF904F
:10358000BF90AF900895A62EBB2480E8EE24FF24C0
:1035900013C0D601ED91FC910280F381E02DC601AC
:1035A00061E3199515950795802F0894E11CF11C8E
:1035B000B8E0EB16F104A9F2082F10E0C8018A2147
:1035C0009B21892B31F7D601ED91FC910280F3818B
:1035D000E02DC60160E31995E5CFED91FC910280E5
:1035E000F381E02DC6011995BCCF862F90E08E01A6
:1035F0000F5F1F4FB80150E00E945B2FC601B8015A
:103600000E945919AECF695C9CCF605DA8CFDC01E8
:103610001896ED91FC91199780811C962C911C971E
:1036200030E090E082239323892B79F440E050E04E
:1036300006C04F5F5F4F8EE44132580789F08081AA
:1036400090E082239323892BA1F380811E969C9185
:103650001E97892B80831696ED91FC9117976083B6
:103660000895FC018785882301F52091FC1B30918A
:10367000FD1B8091FE1B9091FF1B28173907B1F1AC
:10368000E091FA1BF091FB1BE20FF31FE081C901EF
:1036900001969093FD1B8093FC1B809720F0109265
:1036A000FD1B1092FC1B8E2F08952091021C30915F
:1036B000031C8091041C9091051C28173907A9F060
:1036C000E091001CF091011CE20FF31FE081C901A1
:1036D00001969093031C8093021C809720F3109214
:1036E000031C1092021C8E2F0895FFCFFFCFFC0108
:1036F0008785882379F040E02091021C3091031CDB
:103700008091041C9091051C2817390709F041E0AD
:10371000842F089540E02091FC1B3091FD1B809187
:10372000FE1B9091FF1B2817390789F7842F0895F6
:10373000FC01A081B18112962D913C9113976CE010
:10374000F901199508951F920F920FB60F920BB6BB
:103750000F9211242F933F938F939F93EF93FF9397
:103760008091C600E091FA1BF091FB1B2091FE1B9B
:103770003091FF1BE20FF31F80832091FE1B3091DD
:10378000FF1B2F5F3F4F3093FF1B2093FE1B203208
:10379000310530F01092FF1B1092FE1B20E030E04C
:1037A0008091FC1B9091FD1B2817390769F0FF9150
:1037B000EF919F918F913F912F910F900BBE0F90A2
:1037C0000FBE0F901F901895C90101969093FD1B95
:1037D0008093FC1B809758F31092FD1B1092FC1BEA
:1037E000E6CF1F920F920FB60F920BB60F921124D5
:1037F0002F933F938F939F93EF93FF938091CE00EE
:10380000E091001CF091011C2091041C3091051CDA
:10381000E20FF31F80832091041C3091051C2F5F61
:103820003F4F3093051C2093041C2032310530F0AB
:103830001092051C1092041C20E030E08091021CC4
:103840009091031C2817390769F0FF91EF919F9120
:103850008F913F912F910F900BBE0F900FBE0F9045
:103860001F901895C90101969093031C8093021C28
:10387000809758F31092031C1092021CE6CFDF923F
:10388000EF92FF920F931F938C017B01D42E0E9425
:103890003119C8010696B7014D2D0E9497258DE27A
:1038A00093E0F80191838083D786DD20D9F0809161
:1038B000C90080688093C90080E290E00E942B19C3
:1038C0009093011C8093001C1092031C1092021C08
:1038D0001092051C1092041C1F910F91FF90EF9005
:1038E000DF9008958091C10080688093C10080E2DC
:1038F00090E00E942B199093FB1B8093FA1B10926F
:10390000FD1B1092FC1B1092FF1B1092FE1B1F91BF
:103910000F91FF90EF90DF900895DF92EF92FF926A
:103920000F931F938C017B01D42E0E943119C80183
:103930000696B7014D2D0E9497258DE293E0F80180
:1039400091838083D786DD20D9F08091C90080687B
:103950008093C90080E290E00E942B199093011C93
:103960008093001C1092031C1092021C1092051CE4
:103970001092041C1F910F91FF90EF90DF9008951B
:103980008091C10080688093C10080E290E00E9435
:103990002B199093FB1B8093FA1B1092FD1B109226
:1039A000FC1B1092FF1B1092FE1B1F910F91FF90AA
:1039B000EF90DF900895CF93DF93EC01D901E88178
:1039C000F981208181E090E00A8002C0880F991F70
:1039D0000A94E2F78095822380836EBD0DB407FEC2
:1039E0008EB58F87109779F0CA01FA0120E030E098
:1039F00080818EBD0DB407FE9EB591932F5F3F4F22
:103A00002A173B07A8F3E881F981208181E090E043
:103A10000A8002C0880F991F0A94E2F7282B20839E
:103A20008F85DF91CF91089560620E94DB1C08951D
:103A3000DF92EF92FF920F931F93DF93CF930F923A
:103A4000CDB7DEB78C01DC01ED91FC91119742916D
:103A500021E030E0C90112960C90129702C0880F45
:103A6000991F0A94E2F7482B40831396ED91FC913D
:103A700014974291C90115960C90159702C0880FB2
:103A8000991F0A94E2F7482B4083ED91FC9111971E
:103A90004081C90112960C90129702C0880F991F9D
:103AA0000A94E2F7482B40831396ED91FC9114970A
:103AB000808115960C9002C0220F331F0A94E2F702
:103AC00020952823208384B1866084B9239883E5D8
:103AD0008CBDC80162EE40E050E020E030E00E9482
:103AE000DB1CC80161EE40E050E020E030E00E94C5
:103AF000DB1C8FE08983C80160E07E010894E11C33
:103B0000F11CA70121E030E00E94141D8FE3D82EA4
:103B1000D982C80161E0A70121E030E00E94141DB4
:103B2000D982C8016CE1A70121E030E00E94141D98
:103B300084E08983C8016DE1A70121E030E00E94A3
:103B4000141D1982C80162E0A70121E030E00E9443
:103B5000141D0F90CF91DF911F910F91FF90EF9067
:103B6000DF9008950E94DB1C08956FEF40E050E065
:103B700020E030E00E94DB1C08950E94B51D0895EE
:103B8000FC01878508950F931F938C01DC01139628
:103B9000ED91FC911497208181E090E015960C90B6
:103BA00002C0880F991F0A94E2F7809582238083D0
:103BB000C8010E94B51D90E0F80187858E708B309A
:103BC00008F491E0892F1F910F910895BF92CF9231
:103BD000DF92EF92FF920F931F93DF93CF9300D06A
:103BE00000D0CDB7DEB76C01B62E20E030E08E01FC
:103BF0000E5F1F4FF801E20FF31FDA01A20FB31F90
:103C00008C9180832F5F3F4F2530310599F76B2DC5
:103C1000665FC601A80125E030E00E94141DC601C0
:103C200062E07E010894E11CF11CA70121E030E074
:103C30000E94DB1C01E010E0980102C0220F331F3C
:103C4000BA94E2F78981822B8983C60162E0A701D9
:103C500021E030E00E94141DD6011396ED91FC91F5
:103C60001497808115960C9002C0000F111F0A94C2
:103C7000E2F7802B808326960FB6F894DEBF0FBE46
:103C8000CDBFCF91DF911F910F91FF90EF90DF900B
:103C9000CF90BF9008950F931F93CF93DF938C0124
:103CA000EB01FC01878590E08E709070959587956B
:103CB00086309105A4F499838883AB014E5D5F4FF4
:103CC000C80160E621E030E00E94DB1C2AA122232B
:103CD00089F481E0DF91CF911F910F9108958FEFCB
:103CE0009FEF998388831AA280E0DF91CF911F9183
:103CF0000F9108952296C80161E6AE0130E00E945E
:103D0000DB1CE7CFFC018785282F30E02E70307058
:103D1000359527952630310514F4C90108952FEF04
:103D20003FEFFBCFAF92BF92CF92DF92EF92FF9225
:103D30000F931F93DF93CF9300D000D0CDB7DEB7A2
:103D40006C017B015A0120E030E08E010E5F1F4FB5
:103D5000F801E20FF31FD701A20FB31F8C918083EC
:103D60002F5F3F4F2530310599F7C60160E1A8016B
:103D700025E030E00E94141D20E030E0F801E20F61
:103D8000F31FD701A20FB31F8C9180832F5F3F4F8A
:103D90002530310599F7C6016AE0A80125E030E039
:103DA0000E94141DD50192962C91C60160EAE2E0B2
:103DB000F0E0AE0EBF1EA50130E00E94DB1CC60184
:103DC00060E08E010F5F1F4FA80121E030E00E94EC
:103DD000DB1C89818E7F8983C60160E0A80121E018
:103DE00030E00E94141DD6011396ED91FC911497BA
:103DF000208181E090E015960C9002C0880F991FF9
:103E00000A94E2F7282B208326960FB6F894DEBF9B
:103E10000FBECDBFCF91DF911F910F91FF90EF901B
:103E2000DF90CF90BF90AF900895CF92DF92EF9246
:103E3000FF920F931F93DF93CF930F92CDB7DEB70F
:103E40007C01DC011396ED91FC911497208181E0B7
:103E500090E015960C9002C0880F991F0A94E2F723
:103E6000809582238083C7010E94B51DF701878555
:103E700085FF21C0CC24DD24C70160E08E010F5FE7
:103E80001F4FA80121E030E00E94DB1C8981816086
:103E90008983C70160E0A80121E030E00E94141D81
:103EA000C6010F90CF91DF911F910F91FF90EF907E
:103EB000DF90CF90089584FF04C0CC24CA94DC2CFA
:103EC000DBCF5EEFC52E5FEFD52ED6CF61EE40E0A3
:103ED00050E020E030E00E94DB1C089580E190E09B
:103EE0000E94122E20E1DC011D922A95E9F7089527
:103EF000FC019C012D5F3F4F328321838FEF9FEFA9
:103F0000AFEFBFEF83839483A583B6833087278386
:103F10003287218710820895FC0113861286089546
:103F2000AC01FC01A181B281FB01B583A48316968B
:103F30008D919C911797978386831696ED91FC91AE
:103F400017977583648317967C936E931697FB017E
:103F500053874287FA0180818F5F808308950F9392
:103F60001F93CF93DF938C01DB012D913D914D91F8
:103F70005C912F3FBFEF3B07BFEF4B07BFEF5B07E6
:103F800049F1EC01239601C0EF01EC81FD818081B4
:103F90009181A281B381281739074A075B07A0F7EF
:103FA000DB011596FC93EE9314977783668317963F
:103FB000DC93CE9316977D836C831B961C930E9394
:103FC0001A97F80180818F5F8083DF91CF911F91D5
:103FD0000F910895FC01C185D285EC81FD81E0CF70
:103FE000CF93DF93DC011A96CD91DC911B97149649
:103FF0004D915C91159716968D919C911797FA01AA
:104000009783868316962D913C911797F9015583D6
:10401000448389819A818A179B0751F01B961C92D1
:104020001E921A97888181508883DF91CF910895DD
:104030003A832983F3CFFC019093071C8093061CDD
:1040400091E1908322E2229383E3829362937293BD
:104050001292129280E8829312921292129282E04D
:10406000829383E0829384E0829385E0829386E06A
:10407000829387E0829388E0829389E0829380E153
:104080008293929382E1829383E1829384E182938B
:1040900085E1829386E1829387E1829388E182932E
:1040A00089E1829380E2829381E28293229383E288
:1040B00082934293529386E2829387E2829388E2CC
:1040C000829389E2829380E3829381E382933197A2
:1040D000CF01089587E0809329018FEC8093280118
:1040E0008AE080932101E3E7F0E0808182608083B1
:1040F000A091951BB091961BCD91CDBFDD91DEBFF8
:10410000FF91EF91DF91CF91BF91AF919F918F91EF
:104110007F916F915F914F913F912F911F910F91DF
:10412000FF90EF90DF90CF90BF90AF909F908F90D7
:104130007F906F905F904F903F902F901F900F90C7
:104140000CBE0F900BBE0F900FBE0F90089581E034
:10415000089508950F920FB6F8940F920BB60F9230
:104160000CB60F921F9211242F923F924F925F92A2
:104170006F927F928F929F92AF92BF92CF92DF9277
:10418000EF92FF920F931F932F933F934F935F9361
:104190006F937F938F939F93AF93BF93CF93DF934F
:1041A000EF93FF93A091951BB091961B0DB60D92C6
:1041B0000EB60D920E946F0E882311F00E94340CEF
:1041C000A091951BB091961BCD91CDBFDD91DEBF27
:1041D000FF91EF91DF91CF91BF91AF919F918F911F
:1041E0007F916F915F914F913F912F911F910F910F
:1041F000FF90EF90DF90CF90BF90AF909F908F9007
:104200007F906F905F904F903F902F901F900F90F6
:104210000CBE0F900BBE0F900FBE0F9008950E9422
:10422000AA2018950F920FB6F8940F920BB60F9222
:104230000CB60F921F9211242F923F924F925F92D1
:104240006F927F928F929F92AF92BF92CF92DF92A6
:10425000EF92FF920F931F932F933F934F935F9390
:104260006F937F938F939F93AF93BF93CF93DF937E
:10427000EF93FF93A091951BB091961B0DB60D92F5
:104280000EB60D920E94340CA091951BB091961B16
:10429000CD91CDBFDD91DEBFFF91EF91DF91CF9149
:1042A000BF91AF919F918F917F916F915F914F914E
:1042B0003F912F911F910F91FF90EF90DF90CF9042
:1042C000BF90AF909F908F907F906F905F904F9036
:1042D0003F902F901F900F900CBE0F900BBE0F9031
:1042E0000FBE0F9008950FB6F8940F92FC01868DC3
:1042F0000F900FBE0895FC010FB6F8940F92968DA3
:104300000F900FBE878D891B0895FC01868D08953F
:10431000FC01868D90E0882309F491E0892F0895AF
:10432000FC01968D20E0878D981711F0822F08955B
:1043300021E0822F0895CF93DF93EC01888199814A
:10434000009711F00E94260BCE010E94260BDF91F0
:10435000CF910895FC01562FA72F40A14423B1F01F
:1043600086819781840F911D978386832281338173
:104370008217930720F080819181978386836681DD
:104380007781852F9A2F50E00E94172F08950F9361
:104390001F93CF93DF93EC018E8D882341F00E8124
:1043A0001F81CE010E94AA211F830E8381E0DF912D
:1043B000CF911F910F9108950F931F93CF93DF9388
:1043C0008A01EC018E8D882329F4DF91CF911F9112
:1043D0000F910895CE010E94AA218E8D81508E8F5B
:1043E00089A18F3F49F089A18F5F89A381E0DF9187
:1043F000CF911F910F9108958885882311F481E052
:10440000E4CFCE0108960E94260E8823C1F3011541
:104410001105A9F381E0F8018083D7CF0F931F9393
:10442000CF93DF93EC010FB6F8940F928AA1181680
:10443000ECF48B898823D1F08E010D5E1F4F09C0EB
:104440008AA181508AA38AA1181684F48B898823B3
:1044500069F0C8010E94260E882391F30E94F90C8E
:104460008AA181508AA38AA1181684F38FEF8AA3A8
:104470000F900FBE0FB6F8940F9289A11816ECF4A6
:1044800088858823D1F08E01085F1F4F09C089A15C
:10449000815089A389A1181684F48885882369F03E
:1044A000C8010E94260E882391F30E94F90C89A16D
:1044B000815089A389A1181684F38FEF89A30F90E7
:1044C0000FBEDF91CF911F910F9108957F928F9230
:1044D0009F92AF92BF92CF92DF92EF92FF920F9393
:1044E0001F93DF93CF93CDB7DEB729970FB6F8941C
:1044F000DEBF0FBECDBF4B012E833F834887598758
:10450000702E8C0193E1C92ED12CC00ED11E20E05B
:104510007E010894E11CF11C86E0A82EB12CAC0EA3
:10452000BD1E0FB6F8940F92F801868D882309F00E
:1045300060C08E819F81A885B9850097A105B105CE
:1045400009F475C0222309F43EC00F900FBE0E94EB
:10455000FB0B0FB6F8940F92F80181A18F3F89F100
:10456000F80182A18F3F59F10F900FBEC701B5012D
:104570000E94940C882309F071C00FB6F8940F9232
:10458000F801868D0F900FBE882309F5F801808110
:104590009181892B19F14E815F8168857985C601EA
:1045A0000E940810C8010E940E220E943010882329
:1045B00011F021E0B6CF0E94122121E0B2CF12A269
:1045C000D3CF11A2CDCFC7010E94830CBECFC801AB
:1045D0000E940E220E94301021E0A3CF0FB6F89463
:1045E0000F92F801828193810E94940D0F900FBE6B
:1045F000D2CFE680F780C801B4010E94AA217720BB
:10460000A1F5F801868D8150868F80819181892B5B
:1046100009F43BC0F8018085882369F1C801089638
:104620000E94260E813039F50E94122124C00F907D
:104630000FBE80E029960FB6F894DEBF0FBECDBF47
:10464000CF91DF911F910F91FF90EF90DF90CF906E
:10465000BF90AF909F908F907F900895C8010E9467
:104660000E220E94301080E0E5CFF801F782E6824A
:104670008389882321F40F900FBE81E0DBCFC60130
:104680000E94260E8823B9F3CFCF0E94420DF80175
:1046900093838283BFCF1F93CF93DF93EC01142FBB
:1046A00048A1442371F488819981892B09F451C070
:1046B00090E08E8D8F5F8E8F892FDF91CF911F912C
:1046C00008951123F1F48C819D8150E00E94172FF1
:1046D00088A12C813D81280F311D3D832C838A8147
:1046E0009B812817390720F3888199819D838C83CA
:1046F00090E08E8D8F5F8E8F892FDF91CF911F91EC
:1047000008958E819F8150E00E94172F88A190E02C
:1047100044275527481B590B8E819F81840F951F75
:104720009F838E83288139818217930730F48A8191
:104730009B81840F951F9F838E83123009F0B8CF21
:104740008E8D882309F4B4CF8E8D81508E8F90E0AA
:10475000B0CF8A819B810E94550D982F1B821A82AF
:10476000A8CF0F931F93CF93DF938A01EC019E8D07
:104770008F8D981740F0223031F080E0DF91CF919B
:104780001F910F910895CE01422F0E944B23882341
:1047900031F00115110519F081E0F80180838AA13B
:1047A0008F3F49F08AA18F5F8AA381E0DF91CF918B
:1047B0001F910F9108958B89882331F481E0DF9157
:1047C000CF911F910F910895CE0143960E94260E1E
:1047D0008823A1F30115110589F381E0F801808395
:1047E000CDCF6F927F929F92AF92BF92CF92DF9286
:1047F000EF92FF920F931F93DF93CF93CDB7DEB766
:1048000029970FB6F894DEBF0FBECDBF3B012E83B4
:104810003F8348875987902E8C0148E0C42ED12CC5
:10482000C80ED91E20E07E010894E11CF11C36E080
:10483000A32EB12CAC0EBD1E0FB6F8940F92F8014A
:10484000968D878D981708F456C0F2E09F1609F4EC
:1048500052C08E819F81A885B9850097A105B105B9
:1048600009F46CC0222309F442C00F900FBE0E94CD
:10487000FB0B0FB6F8940F92F80181A18F3FA9F1BD
:10488000F80182A18F3F79F10F900FBEC701B501EA
:104890000E94940C882309F055C00FB6F8940F922B
:1048A000F801968D0F900FBEF801878D9817A1F42F
:1048B0004E815F8168857985C6010E940810C80114
:1048C0000E940E220E943010882311F021E0B4CF04
:1048D0000E94122121E0B0CFC8010E940E220E9446
:1048E000301021E0A9CF12A2CFCF11A2C9CFC701AA
:1048F0000E94830CBACFC801B301492D0E944B23FB
:10490000982FF8018389882321F5992341F50F9089
:104910000FBE81E029960FB6F894DEBF0FBECDBF63
:10492000CF91DF911F910F91FF90EF90DF90CF908B
:10493000BF90AF909F907F906F9008950F900FBEA3
:1049400080E0E8CFC8010E940E220E94301080E073
:10495000E1CFC80143960E94260E8130C1F60E9425
:104960001221D5CF0F93CF93DF9383E290E00E9483
:10497000540BEC01009709F11B821A8219821882EC
:104980001D821C821F821E821E8E81E08F8F18A2C4
:104990008FEF89A38AA3CE0108960E94781FCE01CB
:1049A00043960E94781FCE0160E070E020E030E086
:1049B00040E050E000E00E94F123CE01DF91CF9172
:1049C0000F910895CF93DF93EC010FB6F8940F92F7
:1049D000E8A12F8DE29FC001112448815981840FE5
:1049E000951F9B838A831E8E5D834C8330E021500C
:1049F0003040F0E02E9FC0012F9F900D3E9F900D04
:104A00001124480F591F5F834E838FEF89A38AA318
:104A1000662391F48885882331F40F900FBE81E0DE
:104A2000DF91CF910895CE0108960E94260E813025
:104A3000A1F70E941221F1CFCE0108960E94781FA3
:104A4000CE0143960E94781F0F900FBE81E0DF9148
:104A5000CF9108950F931F93CF93DF93182F062FB5
:104A6000882341F420E030E0C901DF91CF911F910C
:104A70000F91089583E290E00E94540BEC0100979F
:104A800089F3019FC001112401960E94540B998360
:104A90008883009741F01F8F08A3CE0161E00E9438
:104AA000E2249E01E1CFCE010E94260B20E030E0FF
:104AB000DBCFCF92DF92EF92FF920F931F936C01A7
:104AC000FC01608171818281938128EE33E040E0B6
:104AD00050E00E949E2D20E432E44FE050E00E941E
:104AE0007F2D28EE33E040E050E00E949E2D7901BA
:104AF0008A01F6016481758180E090E020E432E46F
:104B00004FE050E00E947F2D20E834E84EE150E075
:104B10000E949E2DE20EF31E041F151FB701C8014F
:104B20001F910F91FF90EF90DF90CF900895CF935A
:104B3000DF93EC01442309F441C08EEC90E09983AB
:104B4000888388EC90E09B838A8389EC90E09D8346
:104B50008C8388E18093C90086E08093CA0010921C
:104B6000CD009B0140E050E0220F331F441F551F32
:104B7000220F331F441F551F220F331F441F551F81
:104B8000220F331F441F551F60E074E284EF90E052
:104B90000E949E2D2093CC008091C800816080935C
:104BA000C80080E28E8380E88F8380E48887E88174
:104BB000F98180818081DF91CF91089586EC90E02A
:104BC0009983888380EC90E09B838A8381EC90E0DA
:104BD0009D838C8388E18093C10086E08093C2002E
:104BE0001092C5009B0140E050E0220F331F441F8C
:104BF000551F220F331F441F551F220F331F441F01
:104C0000551F220F331F441F551F60E074E284EFCD
:104C100090E00E949E2D2093C4008091C00081608E
:104C20008093C000BECFCF93DF93EC01442309F4FF
:104C300041C08EEC90E09983888388EC90E09B8360
:104C40008A8389EC90E09D838C8388E18093C900FE
:104C500086E08093CA001092CD009B0140E050E0B6
:104C6000220F331F441F551F220F331F441F551F90
:104C7000220F331F441F551F220F331F441F551F80
:104C800060E074E284EF90E00E949E2D2093CC00BF
:104C90008091C80081608093C80080E28E8380E8A4
:104CA0008F8380E48887E881F98180818081DF912A
:104CB000CF91089586EC90E09983888380EC90E012
:104CC0009B838A8381EC90E09D838C8388E1809331
:104CD000C10086E08093C2001092C5009B0140E0B5
:104CE00050E0220F331F441F551F220F331F441F54
:104CF000551F220F331F441F551F220F331F441F00
:104D0000551F60E074E284EF90E00E949E2D209396
:104D1000C4008091C00081608093C000BECFDC01E0
:104D20001296ED91FC911397208140E030E01696A9
:104D30008C9190E028233923232B09F041E0842F24
:104D40000895DC011296ED91FC911397208140E0CB
:104D500030E018968C9190E028233923232B09F416
:104D600041E0842F0895EF92FF920F931F937B01F0
:104D70008C0120E030E040E05FE40E942F2A88238D
:104D80008CF0C801B70120E030E040E05FE40E9411
:104D90002B280E94BD2A9B01AC012050304040408E
:104DA000504806C0C801B7010E94BD2A9B01AC0152
:104DB000B901CA011F910F91FF90EF900895A0E0F3
:104DC000B0E0E5EEF6E20C94DB2DDC012B01FA01FC
:104DD0009C91923008F439C1EB018881823008F44B
:104DE00033C1943069F4843009F02FC111969C913D
:104DF00011978981981709F428C1A9E3B3E025C167
:104E0000843009F421C18230A9F4923009F01DC127
:104E10009A01AD0188E0EA010990AE01E901099229
:104E20009E018150C1F7E201898111969C918923ED
:104E3000818308C1923009F407C112962D903C90ED
:104E40001397EB018A819B811496AD90BD90CD9014
:104E5000DC901797EC80FD800E811F819101281B4B
:104E6000390BB90137FF04C066277727621B730B24
:104E7000603271050CF061C0121613066CF5370133
:104E80004801062E04C096948794779467940A94F8
:104E9000D2F721E030E040E050E004C0220F331FA1
:104EA000441F551F6A95D2F7215030404040504072
:104EB0002E213F2140235123211531054105510564
:104EC00021F021E030E040E050E079018A01E6285D
:104ED000F728082919293CC0232BD1F1260E371EAB
:104EE00035014601062E04C0969487947794679402
:104EF0000A94D2F721E030E040E050E004C0220FF5
:104F0000331F441F551F6A95D2F72150304040404F
:104F100050402A213B214C215D21211531054105BD
:104F2000510521F021E030E040E050E059016A01F4
:104F3000A628B728C828D9280BC0821593052CF0BD
:104F40001C01AA24BB24650103C0EE24FF248701B1
:104F500011969C91D20111968C91981709F445C035
:104F6000992339F0A80197012A193B094C095D09D9
:104F700006C0A60195012E193F09400B510B57FDA4
:104F800008C011823382228224833583468357836B
:104F90001DC081E081833382228288279927DC012A
:104FA000821B930BA40BB50B84839583A683B783D5
:104FB0000DC0220F331F441F551F248335834683A2
:104FC00057838281938101979383828324813581E2
:104FD00046815781DA01C9010197A109B1098F5FA3
:104FE0009F4FAF4FBF4328F30BC091833382228280
:104FF000EA0CFB1C0C1D1D1DE482F5820683178341
:1050000083E08083248135814681578157FF1AC010
:10501000C901AA2797FDA095BA2F81709070A07042
:10502000B0705695479537952795822B932BA42BD7
:10503000B52B84839583A683B78382819381019660
:1050400093838283DF0101C0D201CD01CDB7DEB7EA
:10505000E2E10C94F72DA0E2B0E0E1E3F8E20C9479
:10506000E72D69837A838B839C832D833E834F83D3
:105070005887E9E0EE2EF12CEC0EFD1ECE010196D4
:10508000B7010E94AE2C8E010F5E1F4FCE01059618
:10509000B8010E94AE2C8A8991E089278A8BC701CA
:1050A000B801AE01475E5F4F0E94DF260E94D92BF8
:1050B000A096E6E00C94032EA0E2B0E0E2E6F8E26F
:1050C0000C94E72D69837A838B839C832D833E83A5
:1050D0004F835887F9E0EF2EF12CEC0EFD1ECE0128
:1050E0000196B7010E94AE2C8E010F5E1F4FCE01BC
:1050F0000596B8010E94AE2CC701B801AE01475E0B
:105100005F4F0E94DF260E94D92BA096E6E00C9408
:10511000032EA0E2B0E0EFE8F8E20C94DB2D698307
:105120007A838B839C832D833E834F835887CE0164
:105130000196BE01675F7F4F0E94AE2CCE0105969F
:10514000BE016F5E7F4F0E94AE2C9985923088F031
:1051500089898230C8F0943019F4823051F404C047
:10516000843029F4923081F489E393E0C6C0923010
:1051700049F420E09A858A89981321E02A87CE0194
:105180000996BBC0823049F420E09A858A89981339
:1051900021E02A8BCE014196B0C02D843E844F84FD
:1051A00058886D887E888F88988CEE24FF2487012C
:1051B000AA24BB24650140E050E060E070E0E0E03C
:1051C000F0E0C10181709070892BE9F0E60CF71CCA
:1051D000081D191D9A01AB012A0D3B1D4C1D5D1DBB
:1051E00080E090E0A0E0B0E0E614F70408051905BF
:1051F00020F481E090E0A0E0B0E0BA01A901480FFE
:10520000591F6A1F7B1FAA0CBB1CCC1CDD1C97FE00
:1052100008C081E090E0A0E0B0E0A82AB92ACA2A3C
:10522000DB2A3196E032F10549F0660C771C881CC8
:10523000991C5694479437942794C3CFFA85EA89EA
:105240002B893C898B859C85280F391F2E5F3F4F0A
:1052500017C0CA0181709070892B61F0169507956F
:10526000F794E79480E090E0A0E0B0E8E82AF92A1B
:105270000A2B1B2B76956795579547952F5F3F4FC8
:1052800077FDE7CF0CC0440F551F661F771F17FD32
:105290004160EE0CFF1C001F111F215030404030B8
:1052A00090E0590790E0690790E4790760F32B8F4D
:1052B0003C8FDB01CA018F779070A070B070803492
:1052C0009105A105B10561F447FD0AC0E114F1049F
:1052D0000105110529F0405C5F4F6F4F7F4F40780B
:1052E0001A8EFE1711F081E08A8F4D8F5E8F6F8FBF
:1052F00078A383E0898FCE0149960E94D92BA0968E
:10530000E2E10C94F72DA8E1B0E0E9E8F9E20C94B1
:10531000E32D69837A838B839C832D833E834F8324
:105320005887B9E0EB2EF12CEC0EFD1ECE01019654
:10533000B7010E94AE2C8E010F5E1F4FCE01059665
:10534000B8010E94AE2C2985223008F47EC039892C
:10535000323010F4B8017CC08A859A8989278A87FF
:10536000243011F0223031F4231709F06EC069E3C4
:1053700073E06EC0343039F41D861E861F86188A8D
:105380001C861B8604C0323021F484E08987B70173
:105390005FC02B853C858B899C89281B390B3C87FA
:1053A0002B87ED84FE840F851889AD88BE88CF8851
:1053B000D88CEA14FB040C051D0540F4EE0CFF1C10
:1053C000001F111F215030403C872B8720E030E028
:1053D00040E050E080E090E0A0E0B0E460E070E009
:1053E000EA14FB040C051D0540F0282B392B4A2B31
:1053F0005B2BEA18FB080C091D09B695A795979534
:105400008795EE0CFF1C001F111F6F5F7F4F6F31E0
:10541000710531F7DA01C9018F779070A070B07013
:1054200080349105A105B10561F427FD0AC0E1149E
:10543000F1040105110529F0205C3F4F4F4F5F4FEC
:1054400020782D873E874F87588BBE01675F7F4F3F
:10545000CB010E94D92B6896EAE00C94FF2DA8E1BD
:10546000B0E0E5E3FAE20C94E72D69837A838B835D
:105470009C832D833E834F83588789E0E82EF12C4F
:10548000EC0EFD1ECE010196B7010E94AE2C8E01DE
:105490000F5E1F4FCE010596B8010E94AE2C898584
:1054A000823040F08989823028F0C701B8010E941B
:1054B000262D01C08FEF6896E6E00C94032EA8E03D
:1054C000B0E0E5E6FAE20C94E42D9B01AC0183E048
:1054D0008983DA01C9018827B7FD83959927AA270F
:1054E000BB27B82E211531054105510519F482E07D
:1054F00089833AC08823A9F0203080E0380780E013
:10550000480780E8580729F460E070E080E09FECED
:1055100030C0EE24FF248701E21AF30A040B150BB6
:1055200002C079018A018EE1C82ED12CDC82CB82A7
:10553000ED82FE820F831887C801B7010E948A2B73
:1055400001971816190684F4082E04C0EE0CFF1CEF
:10555000001F111F0A94D2F7ED82FE820F83188775
:10556000C81AD90ADC82CB82BA82CE0101960E9487
:10557000D92B2896E9E00C94002EACE0B0E0E3ECE7
:10558000FAE20C94EB2D69837A838B839C83CE01A2
:105590000196BE016B5F7F4F0E94AE2C8D818230E1
:1055A00061F1823050F1843021F48E81882351F1F1
:1055B0002EC02F81388537FD20C06E812F313105F7
:1055C0001CF06623F9F023C08EE190E0821B930B60
:1055D00029853A854B855C8504C056954795379556
:1055E00027958A95D2F76623B1F05095409530956E
:1055F00021953F4F4F4F5F4F0EC020E030E040E01D
:1056000050E009C02FEF3FEF4FEF5FE704C020E00D
:1056100030E040E050E8B901CA012C96E2E00C9479
:10562000072EA8E0B0E0E7E1FBE20C94E32D7B015C
:105630008C01611571058105910519F482E089835A
:1056400060C083E089838EE1C82ED12CDC82CB82BE
:10565000ED82FE820F831887C801B7010E948A2B52
:10566000FC013197F7FF3BC0222733272E1B3F0B4E
:1056700057016801022E04C0D694C794B794A7942A
:105680000A94D2F740E050E060E070E081E090E002
:10569000A0E0B0E004C0880F991FAA1FBB1F2A9585
:1056A000D2F70197A109B1098E219F21A023B1232F
:1056B0000097A105B10521F041E050E060E070E005
:1056C0004A295B296C297D294D835E836F83788706
:1056D0008EE190E08E1B9F0B9C838B8312C03097D2
:1056E00081F00E2E04C0EE0CFF1C001F111F0A9447
:1056F000D2F7ED82FE820F831887CE1ADF0ADC8292
:10570000CB821A82CE0101960E94D92B2896EAE01C
:105710000C94FF2DEF92FF920F931F937B018C014E
:1057200080E0E81680E0F80681E0080780E01807CE
:1057300088F48FEFE816F1040105110531F028F027
:1057400088E090E0A0E0B0E017C080E090E0A0E04A
:10575000B0E012C080E0E81680E0F80680E00807BC
:1057600081E0180728F088E190E0A0E0B0E004C0F4
:1057700080E190E0A0E0B0E020E230E040E050E0E6
:10578000281B390B4A0B5B0B04C016950795F79441
:10579000E7948A95D2F7F701EF5BFC4F8081281BD5
:1057A000310941095109C9011F910F91FF90EF90F3
:1057B0000895DF92EF92FF920F931F93FC01E48014
:1057C000F58006811781D1808081823048F480E0A5
:1057D00090E0A0E1B0E0E82AF92A0A2B1B2BA5C033
:1057E000843009F49FC0823021F4EE24FF24870125
:1057F00005C0E114F1040105110519F4E0E0F0E041
:1058000096C0628173819FEF623879070CF05BC0AC
:1058100022E83FEF261B370B2A3131052CF020E020
:1058200030E040E050E02AC0B801A701022E04C0D9
:1058300076956795579547950A94D2F781E090E061
:10584000A0E0B0E004C0880F991FAA1FBB1F2A95D3
:10585000D2F70197A109B1098E219F21A023B1237D
:105860000097A105B10521F081E090E0A0E0B0E053
:105870009A01AB01282B392B4A2B5B2BDA01C9018A
:105880008F779070A070B07080349105A105B1053C
:1058900039F427FF09C0205C3F4F4F4F5F4F04C0D2
:1058A000215C3F4F4F4F5F4FE0E0F0E02030A0E041
:1058B0003A07A0E04A07A0E45A0710F0E1E0F0E060
:1058C00079018A0127C06038710564F5FB01E15850
:1058D000FF4FD801C7018F779070A070B0708034EF
:1058E0009105A105B10539F4E7FE0DC080E490E013
:1058F000A0E0B0E004C08FE390E0A0E0B0E0E80EEC
:10590000F91E0A1F1B1F17FF05C016950795F79470
:10591000E794319687E016950795F794E7948A9572
:10592000D1F705C0EE24FF248701EFEFF0E06E2FE2
:10593000679566276795902F9F77D794DD24D79436
:105940008E2F8695492F462B582F5D29B701CA0106
:105950001F910F91FF90EF90DF900895FC01DB0104
:10596000408151812281622F6F7770E0221F2227B0
:10597000221F9381892F880F822B282F30E0991FB7
:105980009927991F11969C93119721153105A9F517
:10599000411551056105710511F482E037C082E8B7
:1059A0009FEF13969C938E9312979A01AB0167E039
:1059B000220F331F441F551F6A95D1F783E08C9344
:1059C0000DC0220F331F441F551F12968D919C91BD
:1059D0001397019713969C938E931297203080E033
:1059E000380780E0480780E4580758F314962D9351
:1059F0003D934D935C93179708952F3F310579F4AC
:105A0000411551056105710519F484E08C930895E1
:105A100064FF03C081E08C9312C01C9210C02F570A
:105A2000304013963C932E93129783E08C9387E03B
:105A3000440F551F661F771F8A95D1F7706414961F
:105A40004D935D936D937C93179708951F93DC019D
:105A5000FB019C91923008F447C08081823008F4A9
:105A600043C0943051F411961C91843099F5818192
:105A7000682F70E0611B71093FC0843021F09230C3
:105A800031F48230B9F18181882389F12DC01196DA
:105A90001C9111978230F1F081811817D9F4129678
:105AA0002D913C911397828193818217930794F0F3
:105AB00028173907BCF014968D919D910D90BC91DB
:105AC000A02D2481358146815781281739074A073F
:105AD0005B0718F4112341F00AC082179307A4074B
