:100000000C9480020C94A1020C94A1020C94A10205
:100010000C94A1020C94A1020C94A1020C94A102D4
:100020000C94A1020C94A1020C94A1020C94A102C4
:100030000C94A1020C94A1020C94A1020C94A102B4
:100040000C94A1020C94A1020C94A1020C94A102A4
:100050000C94A1020C94A1020C94A1020C94A10294
:100060000C94A1020C946B1C0C94A1020C94A102A0
:100070000C94A1020C94A1020C94A1020C94A10274
:100080000C94A1020C94A1020C94A1020C94A10264
:100090000C94B91C0C94A1020C94A1020C94A10222
:1000A0000C94A1020C94A1020C94A1020C94A10244
:1000B0000C94A1020C94A1020C94A1020C943A1F7E
:1000C0000C94A1020C94A1020C94A1024D45343071
:1000D00035204C61622031205374617274696E67FF
:1000E0002050726F6772616D002C204F4352354172
:1000F0003A20002C20486561703A200053797374CF
:10010000656D2074696D653A200044656320203375
:100110002032303138004D45353037205465726D0E
:100120002050726F6A656374205374656572696EDE
:10013000672056302E3031002020683A20202020C1
:100140002048414C502100202043746C2D433A201C
:1001500052657365742074686520415652002020F2
:100160006E3A2020202020456E7465722061206E3A
:10017000756D626572202864656D6F2900202064AA
:100180003A2020202020537461636B2064756D70C9
:1001900020666F72207461736B73002020763A20A2
:1001A0002020202056657273696F6E20616E642076
:1001B000736574757020696E666F726D6174696FB6
:1001C0006E002020743A202020202053686F772072
:1001D0007468652074696D65207269676874206E43
:1001E0006F77002020703A202020202053656E6415
:1001F00020612070696E6720766961205246002078
:1002000020733A202020202053746F70207468657A
:10021000206361722066726F6D2072756E6E696EFA
:1002200067002020723A20202020205374617274CD
:1002300020746865206361722064726976696E67F4
:10024000002068656C70004D45353037205465726C
:100250006D2050726F6A65637420537465657269AE
:100260006E672056302E303100496C6C6567616CCA
:100270002073746174652120526573657474696EAE
:10028000672041565200223E003C696E76616C69DF
:100290006420636861722022004E756D6265722071
:1002A000656E74657265643A2000223A20575446A0
:1002B0003F00526573657474696E67204156520041
:1002C00073656E64696E672070696E6700456E7451
:1002D000657220646563696D616C206E756D657211
:1002E0006963206469676974732C207468656E2083
:1002F00052455455524E206F72204553430073743B
:100300006F7070696E67206361720072756E206332
:10031000617200507265737320276827206F722006
:10032000273F2720666F722068656C7000546865EF
:1003300020412F4420636F6E766572746572203C95
:100340003C206F70657261746F72206E6F742077DD
:100350006F726B696E672E2041206E756D626572DB
:100360002069733A2000496C6C6567616C20737476
:100370006174652120526573657474696E672041EC
:10038000565200496C6C6567616C207374617465CA
:100390002120526573657474696E6720415652005E
:1003A000496C6C6567616C207374617465212052BF
:1003B0006573657474696E672041565200496C6CB0
:1003C0006567616C20737461746521205265736583
:1003D0007474696E6720415652004E6F20736861D5
:1003E0007265642064617461206974656D73207442
:1003F0006F207072696E74002D2D2D2D202020200D
:1004000020202020202020202D2D2D2D20202020B8
:100410002D2D2D2D2D2D2D2D2D2D00536861726527
:100420002F51756575652020202020547970652036
:10043000202020467265652F546F74616C00455210
:10044000524F52206372656174696E6720746173E4
:100450006B2022002220637265617465642C207316
:100460007461636B206174203078005461736B2079
:1004700022005461736B3A20005461736B3A204937
:10048000444C450009092D002F0049444C450909F9
:1004900030092D0900092D2D2D2D00092D2D2D2D73
:1004A0002D2D2D2D2D2D002D2D2D2D09092D2D2DF1
:1004B0002D092D2D2D2D2D000952756E7300094625
:1004C0007265652F546F74616C004E616D6509092A
:1004D0005072692E09537461746500095374616325
:1004E0006B005461736B0909202009200009000981
:1004F000002F00090009002020000E94B714089571
:1005000011241FBECFEFD1E2DEBFCDBF00E00CBF94
:1005100014E0A0E0B2E0EAE7F9E500E00BBF02C0BA
:1005200007900D92A234B107D9F71CE1A2E4B4E020
:1005300001C01D92A232B107E1F70E94A3020C9400
:10054000BB2C0C940000AF92BF92CF92DF92EF923F
:10055000FF920F931F9314BE88E10FB6F894809317
:100560006000109260000FBE80E190E00E94F619DA
:10057000B82EA92E60E875E241E00E94071D8B2D80
:100580009A2D67E00E94651A6BE00E94651A8C0143
:100590006CEC70E00E94211AC80166E00E94651AA6
:1005A00088E190E00E94F619D82EC92E60E270E032
:1005B00040E052E02B2D3A2DEAE0EE2EF12C012DF9
:1005C000112D0E944C18D0924204C092430489E03D
:1005D00090E00E94F6198C0166E072E00E945714C8
:1005E0009DE6E92E92E0F92EF801F182E082109367
:1005F00045040093440489E090E00E94F6198C01C0
:1006000060E172E00E945714F801F182E0821093D9
:1006100047040093460489E090E00E94F6198C019B
:100620006AE172E00E945714F801F182E0821093AF
:1006300049040093480489E090E00E94F6198C0177
:1006400067E272E00E94571483E7E82E82E0F82EFA
:10065000F801F182E08210934B0400934A0489E090
:1006600090E00E94F6198C0161E372E00E94571439
:10067000F801F182E08210934D0400934C0482E172
:1006800090E00E94F6196DE372E041E024E031E071
:100690000B2D1A2D0E94750782E190E00E94F61939
:1006A00065E472E044E028EC30E00E94990883E1C0
:1006B00090E00E94F6196EE472E044E028EC30E02D
:1006C0000E94580984E190E00E94F61964E572E006
:1006D00044E028EC30E00E949E0B82E190E00E9412
:1006E000F61967E572E042E028EC30E00E94130A58
:1006F0000E949E1381E090E01F910F91FF90EF9078
:10070000DF90CF90BF90AF900895EF92FF921F932C
:10071000CF93DF937C01EB01FC0164817581CE01F5
:100720000E94211AF701A481B581FD0101900020EA
:10073000E9F731971E2F1A1B103158F4E881F9811F
:100740000280F381E02DCE0160E219951F5F103128
:10075000A8F3CE0162E672E00E94211ACE0166E0A3
:100760000E94651AF701A681B781109749F0ED91B3
:10077000FC9111970190F081E02DCD01BE011995FA
:10078000DF91CF911F91FF90EF900895EF92FF922C
:100790001F93CF93DF937C01EB01FC016481758192
:1007A000CE010E94211AF701A481B581FD010190BB
:1007B0000020E9F731971E2F1A1B103158F4E881F9
:1007C000F9810280F381E02DCE0160E219951F5F6F
:1007D0001031A8F3CE0162E672E00E94211ACE0128
:1007E00066E00E94651AF701A681B781109749F06B
:1007F000ED91FC9111970190F081E02DCD01BE01AA
:100800001995DF91CF911F91FF90EF900895EF928E
:10081000FF920F931F93DF93CF9300D000D0CDB7FB
:10082000DEB77C0119821A821B821C821E821D8205
:10083000FC018681978166E00E94651A6BE00E9448
:10084000651A8C0166E171E00E94211AC8016BE013
:100850000E94651A8C016AE071E00E94211AC801A9
:1008600066E00E94651A6BE00E94651A8C016CEFCD
:1008700070E00E94211ACE0101960E944019BC012D
:10088000C8010E94C6186BE00E94651A8C0163EFD4
:1008900070E00E94211A0E94E80BBC01C8010E946E
:1008A000B81A8C0165E772E00E94211AC80148E37A
:1008B00057E160E070E00E94F31A6BE00E94651A55
:1008C0008C0169EE70E00E94211A609128017091FC
:1008D0002901C8010E94B81A66E00E94651A66E004
:1008E0000E94651AF701868197810E948B16F70195
:1008F0008681978166E00E94651AF701868197815B
:100900000E94D71326960FB6F894DEBF0FBECDBF58
:10091000CF91DF911F910F91FF90EF900895EF928B
:10092000FF920F931F937C01FC01868197816BE0FE
:100930000E94651A8C0167E472E00E94211AC801C6
:100940006BE00E94651A8C0161E472E00E94211A3A
:10095000C80166E00E94651AF701868197816BE005
:100960000E94651A8C0162E272E00E94211AC8019D
:1009700066E00E94651AF701868197816BE00E940C
:10098000651A8C016FEF71E00E94211AC80166E0C0
:100990000E94651AF701868197816BE00E94651AB3
:1009A0008C0163EE71E00E94211AC80166E00E948A
:1009B000651AF701868197816BE00E94651A8C01A8
:1009C00062EC71E00E94211AC80166E00E94651A7B
:1009D000F701868197816BE00E94651A8C016BE9B3
:1009E00071E00E94211AC80166E00E94651AF701B1
:1009F000868197816BE00E94651A8C016DE771E03A
:100A00000E94211AC80166E00E94651AF7018681DA
:100A100097816BE00E94651A8C016EE571E00E947F
:100A2000211AC80166E00E94651AF7018681978144
:100A30006BE00E94651A8C0167E471E00E94211A44
:100A4000C80166E00E94651AF701868197816BE014
:100A50000E94651A8C0168E371E00E94211AC801A6
:100A600066E00E94651A1F910F91FF90EF90089524
:100A70004F925F926F927F928F929F92AF92BF92AE
:100A8000CF92DF92EF92FF920F931F93DF93CF935A
:100A900000D000D0CDB7DEB76C0119821A821B825C
:100AA0001C821E821D82DC0116968D919C911797E7
:100AB0006BE00E94651A8C0163E173E00E94211AC9
:100AC000C80166E00E94651A7C2C6D2C882499244C
:100AD00054012E010894411C511CF6018485882381
:100AE00021F5D6011696ED91FC911797A081B18161
:100AF00014962D913C911597CF01F90119958823F2
:100B000009F0CFC0F60186859785A089B189019645
:100B1000A11DB11D86879787A08BB18B61E070E026
:100B200080E090E00E94F611D8CF8130D9F0F60134
:100B3000868197816BE00E94651A8C0169E672E0FC
:100B40000E94211AC80166E00E94651A2BE088E124
:100B500090E00FB6F894A895809360000FBE2093A4
:100B60006000FFCFD6011696ED91FC911797A081FA
:100B7000B18114962D913C911597CF01F9011995EA
:100B8000882309F465C0F601A681B781ED91FC9137
:100B900011970680F781E02DCD011995E82E80533D
:100BA0008A3090F1FAE0EF1629F1BDE0EB1621F062
:100BB000EBE1EE1609F0BBC0D60116968D919C9123
:100BC000179766E00E94651A6BE00E94651A8C0117
:100BD00069E972E00E94211AC801B501A4010E94CE
:100BE000F31A66E00E94651A872D962D60E00E9438
:100BF0008E1488CFD60116968D919C91179767E732
:100C000072E00E94211A7ECFF601A681B781ED9194
:100C1000FC9111970280F381E02DCD016E2D199585
:100C2000C501B4012AE030E040E050E00E94AA2B68
:100C30002E2D332727FD3095205330404901AA241B
:100C400097FCA094BA2C860E971EA81EB91E5ACFE8
:100C5000E0914204F0914304A081B18114962D915A
:100C60003C911597CF01F9011995882309F44ACFD2
:100C7000F60106811781D801ED91FC91E280F380A5
:100C8000A0914204B0914304ED91FC91119706802C
:100C9000F781E02DCD011995682FC801F70119954D
:100CA00031CFD6011696ED91FC911797A081B181B5
:100CB00016962D913C911797CF01F9011995E82EC1
:100CC000BEE68B1709F4A7C0B8170CF47BC0EFE39E
:100CD0008E1709F46BC0E8170CF461C0F3E08F17AE
:100CE00009F442C0D60116960D911C911797D801B0
:100CF000ED91FC910280F381E02DC80162E219952B
:100D0000D801ED91FC910280F381E02DC8016E2D98
:100D10001995C8016BE00E94651A8C016AEA72E0BD
:100D20000E94211AC80166E00E94651AEBCEF60106
:100D3000868197816BE00E94651A8C0169E872E0F8
:100D40000E94211AD801ED91FC910280F381E02DDF
:100D5000C8016E2D1995C8016BE00E94651A66E8FE
:100D600072E00E94211ACECEF601868197816BE057
:100D70000E94651A8C0162EB72E00E94211AC80180
:100D800066E00E94651A2BE088E190E00FB6F894C7
:100D9000A895809360000FBE20936000FFCF84E68B
:100DA000E81641F0A8E6EA1609F09CCFC6010E94B9
:100DB0008F04A8CED60116968D919C9117970E940C
:100DC0003516A0CEB3E78B1709F465C0B8170CF43D
:100DD00057C0E0E78E17B9F1F2E78F1709F082CF1D
:100DE000F601868197816BE00E94651A8C016BE0A9
:100DF00073E00E94211AC80166E00E94651A0FB6CE
:100E0000F8940F92E0914C04F0914D0481E08087BA
:100E10000F900FBE77CEF601868197816BE00E941E
:100E2000651A8C016DEC72E00E94211AC80166E01F
:100E30000E94651A872D962D61E00E948E148824E9
:100E4000992454015FCED60116968D919C911797E7
:100E50006BE00E94651A8C0160EC72E00E94211A1E
:100E6000C80166E00E94651A0FB6F8940F92E091EF
:100E70004A04F0914B0481E080870F900FBE42CE70
:100E800084E7E81621F1A6E7EA1609F02BCFC601A0
:100E90000E94070437CED60116968D919C91179724
:100EA0006BE00E94651A8C016EEF72E00E94211ABD
:100EB000C80166E00E94651A0FB6F8940F92E0919F
:100EC0004C04F0914D0410860F900FBE1BCEF6011E
:100ED00006811781C2010E944019BC01C8010E940D
:100EE000C61866E00E94651A0DCEEF92FF920F932E
:100EF0001F937C010E9466158DE792E0F7019183B4
:100F000080831F910F91FF90EF900895EF92FF92D1
:100F10000F931F937C010E9466158DE792E0F70105
:100F2000918380831F910F91FF90EF90089580919E
:100F30007C00887F80937C0080917C006770862B8A
:100F400080937C0080917A00806480937A00809105
:100F50007A0086FDFCCF8091780090917900089509
:100F6000CF93DF93FC01C081D181209749F0CE015E
:100F700061E872E00E94211ACE0166E00E94651AC3
:100F80008FEF9FEFDF91CF910895CF92DF92EF9295
:100F9000FF920F931F93D82EC92E7B016BE00E9406
:100FA000651A8C016DE273E00E94211AC70160E0AE
:100FB00044E00E94B007BC01C8010E94B81A66E074
:100FC0000E94651A8D2D9C2D1F910F91FF90EF901F
:100FD000DF90CF900895CF93DF93FC01EB017183F5
:100FE000608380E880937A0080917C0080648093A5
:100FF0007C006115710549F0CB0164EA72E00E9442
:10100000211ACE0166E00E94651ADF91CF91089502
:10101000CF93DF93FC01EB017183608380E88093C1
:101020007A0080917C00806480937C00611571055A
:1010300049F0CB0164EA72E00E94211ACE0166E019
:101040000E94651ADF91CF9108956B350CF06AE527
:10105000663A0CF466EA772767FD7095872F972F1D
:101060000E948A282DE232EB4DE95DE30E94B4260E
:1010700020E030E040EC51E40E9487260E94DE240C
:10108000DC01CB0108950F931F93CF93DF93EC0105
:1010900008E111E08C85882301F5249A8091B00045
:1010A00083688093B0008091B10087608093B10025
:1010B0000093B3001C878E859F85A889B989019606
:1010C000A11DB11D8E879F87A88BB98B61E070E051
:1010D00080E090E00E94F611DDCF8130D1F08E816A
:1010E0009F816BE00E94651A8C0166E673E00E94A6
:1010F000211AC80166E00E94651A2BE088E190E0A1
:101100000FB6F894A895809360000FBE20936000FE
:10111000FFCF0FB6F8940F920F900FBEE0914404EA
:10112000F0914504CE0160850E9425088093B300AC
:10113000C2CFEF92FF920F931F937C010E9466151E
:101140008BEB92E0F701918380831F910F91FF90C9
:10115000EF900895EF92FF920F931F937C010E94EE
:1011600066158BEB92E0F701918380831F910F91BD
:10117000FF90EF900895CF92DF92EF92FF921F932E
:10118000FC01162F6B350CF01AE56289772767FD95
:101190007095625A7F4F882777FD8095982F0E941F
:1011A0008A286B017C01612F163A0CF466EA7727D6
:1011B00067FD7095872F972F0E948A282AE939E9C1
:1011C00049E95EE30E94B4269B01AC01C701B60168
:1011D0000E9487260E94DE24DC01CB011F91FF9034
:1011E000EF90DF90CF900895EF92FF920F931F93AF
:1011F000CF93DF93EC018EEF8A8B04E011EE8EE546
:10120000F82EEE24E3948C85882331F5259A80917D
:101210008000826880938000809181008C6180933F
:101220008100009387001093860010928900F0924D
:101230008800EC868E859F85A889B9890196A11DB5
:10124000B11D8E879F87A88BB98B61E070E080E02D
:1012500090E00E94F611D7CF8130D1F08E819F812E
:101260006BE00E94651A8C0163E873E00E94211A0A
:10127000C80166E00E94651A2BE088E190E00FB695
:10128000F894A895809360000FBE20936000FFCF74
:101290000FB6F8940F920F900FBEE0914604F091B4
:1012A0004704CE0160850E94BB0880938800C2CFAE
:1012B000EF92FF920F931F937C010E94661583ECBF
:1012C00092E0F701918380831F910F91FF90EF903F
:1012D0000895EF92FF920F931F937C010E94661571
:1012E00083EC92E0F701918380831F910F91FF902F
:1012F000EF900895EF92FF920F931F93CF93DF9398
:10130000EC0104E112E08AE5F82EEE24E3948C85EA
:10131000813009F466C0813038F50FB6F8940F9229
:10132000E0914604F091470410860F900FBE0FB66F
:10133000F8940F92E0914404F091450410860F90C8
:101340000FBE1C878E859F85A889B9890196A11D2E
:10135000B11D8E879F87A88BB98B61E070E080E01C
:1013600090E00E94F611D3CF8230D1F08E819F8120
:101370006BE00E94651A8C0160EA73E00E94211AFA
:10138000C80166E00E94651A2BE088E190E00FB684
:10139000F894A895809360000FBE20936000FFCF63
:1013A0000FB6F8940F920F900FBEE0914C04F0919D
:1013B0004D0480858111EC860FB6F8940F92E09170
:1013C0004604F091470410860F900FBE0FB6F894B4
:1013D0000F92E0914404F0914504F0860F900FBE07
:1013E000B1CF0FB6F8940F920F900FBEE0914C045E
:1013F000F0914D048085882309F41C870FB6F8947A
:101400000F92E0914604F091470400870F900FBEC1
:101410000FB6F8940F92E0914404F09145041086C1
:101420000F900FBE8FCFEF92FF920F931F937C010F
:101430000E9466158BEC92E0F701918380831F91E7
:101440000F91FF90EF900895EF92FF920F931F93EB
:101450007C010E9466158BEC92E0F70191838083FA
:101460001F910F91FF90EF90089584B1876084B928
:1014700023986B9A8CB582658CBD289A73980895D1
:101480006EBD0DB407FEFDCF8EB5089585E3982F90
:101490009A95F1F728988A95F1F76EBD0DB407FE7D
:1014A000FDCF8EB585E38A95F1F78FEF8EBD0DB434
:1014B00007FEFDCF8EB595E39A95F1F7289A08952A
:1014C00085E3982F9A95F1F728988A95F1F7605E51
:1014D0006EBD0DB407FEFDCF8EB585E38A95F1F79D
:1014E0004EBD0DB407FEFDCF8EB585E38A95F1F7AD
:1014F000289A08950F931F93662309F4405E85E3AD
:10150000982F9A95F1F728988A95F1F74EBD0DB46A
:1015100007FEFDCF8EB585E38A95F1F710E0011542
:101520001105B1F0A0E0B0E095E35FEF6130B1F0FC
:10153000F901EA0FFB1F80818EBD0DB407FEFDCFC0
:101540008EB5892F8A95F1F71196A017B10774F31C
:10155000289A8EE494E01F910F910895403A41F348
:101560005EBD0DB407FEFDCF8EB5FD01E25BFB4F06
:101570008083892F8A95F1F7E7CFCF92DF92EF92A0
:10158000FF920F937C016B0161E041EE960100E058
:101590000E947A0AC70161E040EA960102E00E94D7
:1015A0007A0A80E49CE9FC013197F1F7739A01977C
:1015B000F1F773980F91FF90EF90DF90CF9008951F
:1015C0003F924F925F926F927F928F929F92AF92D3
:1015D000BF92CF92DF92EF92FF920F931F93DF9310
:1015E000CF9300D00F92CDB7DEB77C014E010894A7
:1015F000811C911C43E0A42EB12CAC0EBD1E32E028
:10160000C32E7724739425E3622E90E4492E9FE144
:10161000592E8AE0382EF701D484F1E0DF1609F460
:1016200077C0DF1660F5F701128A738AC7010E943E
:10163000350A862D8A95F1F7F70106811781C701D2
:1016400067E00E94460A682FC8010E943B1B66E0C3
:101650000E94651AF7017486F70186859785A0892F
:10166000B1890196A11DB11D86879787A08BB18B8B
:1016700061E070E080E090E00E94F611CCCF82E063
:10168000D816D9F0F701868197816BE00E94651A20
:101690008C016DEB73E00E94211AC80166E00E9484
:1016A000651A2BE088E190E00FB6F894A895809336
:1016B00060000FBE20936000FFCFF7010681178105
:1016C000C70167E00E94460A682FC8010E943B1BC1
:1016D00066E00E94651A79821A82C70160E040E1E3
:1016E000940102E00E947A0AD982C70160E040E0DA
:1016F000940101E00E947A0AC2010197F1F73B824E
:101700001C82C701B5010E94BD0AF7017486A4CFEF
:10171000E0914A04F0914B040FB6F8940F920F90A9
:101720000FBE8085882309F497CF0FB6F8940F92E7
:1017300010860F900FBEF701C4868ECFEF92FF92F6
:101740000F931F937C010E94661583ED92E0F701D1
:10175000918380831F910F91FF90EF900895EF92F6
:10176000FF920F931F937C010E94661583ED92E018
:10177000F701918380831F910F91FF90EF9008955F
:10178000399A92E088B1892788B9FCCFEF92FF920D
:101790000F931F937C010E9466158BED92E0F70179
:1017A000918380831F910F91FF90EF900895EF92A6
:1017B000FF920F931F937C010E9466158BED92E0C0
:1017C000F701918380831F910F91FF90EF9008950F
:1017D0008091DF029091E00208950895CF93DF9306
:1017E000009739F1EC0124970E94C30C4A815B8178
:1017F000A7EABBE12C9111963C911197BD01C9015B
:10180000DC0112968D919C9113978417950790F3A4
:10181000FB01B983A883D183C0838091DF029091BB
:10182000E002840F951F9093E0028093DF020E94F4
:10183000F810DF91CF910895EF92FF920F931F93CD
:10184000CF93DF93EC010E94C30C80916E04882338
:1018500009F580E794E09093A81B8093A71B109252
:10186000AA1B1092A91B87E397E19093AE1B80936C
:10187000AD1B1092AC1B1092AB1B90937304809322
:1018800072048BEA9BE1909371048093700481E071
:1018900080936E04209739F0AE014C5F5F4F239622
:1018A000C653D74160F0C0E0D0E00E94F810CE01EE
:1018B000DF91CF911F910F91FF90EF900895C0910C
:1018C000A71BD091A81BE7EAFBE107C0888199819B
:1018D000BE01009739F0EC01FB012A813B812417FE
:1018E0003507A0F38BE1CB3AD807E9F2E080F1802D
:1018F0008881998191838083C901841B950B8930EC
:10190000910510F18E01040F151FF8019383828356
:101910005B834A8342815381A7EABBE12C911196F4
:101920003C911197BD01C901DC0112968D919C91EA
:1019300013978417950790F3F801B183A083FB01F7
:10194000118300832A813B81E70124968091DF0285
:101950009091E002821B930B9093E0028093DF0250
:10196000A4CF0FB6F8940F92009729F0FC010F90C6
:101970000FBE828D0895E091AF1BF091B01B0F90C8
:101980000FBE828D08958091B81B8F5F8093B81B26
:1019900008950FB6F8940F922091B31B3091B41BA9
:1019A0004091B51B5091B61B0F900FBEB901CA01F3
:1019B00008952091B31B3091B41B4091B51B5091F9
:1019C000B61BB901CA0108958091BC1B0895009708
:1019D00029F09C01235E3F4FC90108958091AF1B00
:1019E0009091B01B9C01235E3F4FC90108958091E7
:1019F000BA1B9091BB1B08958091B81B8823E9F511
:101A00001092B21B05C08091B11B81508093B11B15
:101A10008091B11B90E0FC01EE0FFF1F9C01220F93
:101A2000331F220F331F220F331FE20FF31FE80F64
:101A3000F91FE154F44E8081882329F39091B11B62
:101A40008BE0989FD0011124A154B44E1196ED91D2
:101A5000FC9112970480F581E02D1296FC93EE9391
:101A60001197CD010396E817F90759F08085918504
:101A70009093B01B8093AF1B089581E08093B21BBD
:101A800008958481958111968C93119712969C9359
:101A90009C01F901EBCFFC018091B71B8083809101
:101AA000B31B9091B41BA091B51BB091B61B818361
:101AB0009283A383B4830895AF92BF92CF92DF92B3
:101AC000EF92FF920F931F93CF93DF93FC01EB01F3
:101AD0000FB6F8940F92A090B31BB090B41BC090B7
:101AE000B51BD090B61B9091B71B8081891709F464
:101AF00043C0E180F28003811481AE14BF04C006AC
:101B0000D10660F5288139814A815B81D601C50102
:101B10008E199F09A00BB10B82179307A407B50775
:101B2000E8F42A193B094C095D092E0D3F1D401FA1
:101B3000511F288339834A835B838091B71B80833D
:101B40008091B31B9091B41BA091B51BB091B61BB3
:101B500081839283A383B48380E001C081E00F90EE
:101B60000FBEDF91CF911F910F91FF90EF90DF900B
:101B7000CF90BF90AF900895E180F28003811481EF
:101B8000C1CF81E08093B21B08950097B1F0FC01B2
:101B9000A38DB48D8C91853AA9F420E030E040E02B
:101BA00050E02F5F3F4F4F4F5F4FFD01E20FF31F9C
:101BB0008081853AB1F3822F0895E091AF1BF091B7
:101BC000B01BE6CF80E008952091AF1B3091B01B91
:101BD000C9010895E091AF1BF091B01B6685778530
:101BE00080899189A091AF1BB091B01BE091AF1B90
:101BF000F091B01BE28D24E030E040E050E02E1B7D
:101C00003109410951091E962D933D934D935C93E3
:101C1000519708958091AF1B9091B01B892B39F09B
:101C2000E091AF1BF091B01B80A58F5F80A7209142
:101C3000AF1B3091B01BC90108950F931F93CF9331
:101C4000DF93EC01009749F028A5215028A79A8D31
:101C50008FA1981711F0222331F080E0DF91CF910E
:101C60001F910F9108958E010E5F1F4FC8010E94B2
:101C70001B1E2FA12A8F84E090E0A0E0B0E0821B21
:101C80009109A109B1098E879F87A88BB98B809193
:101C9000B11B821710F42093B11B8BE0289FC00169
:101CA00011248154944EB8010E94BB1D81E0DF9144
:101CB000CF911F910F9108950F931F93CF93DF93AF
:101CC000EC01009781F13A8DE091AF1BF091B01BD0
:101CD000828D381740F58E859F85A889B989B7FD13
:101CE00011C0E091AF1BF091B01B228D84E090E019
:101CF000A0E0B0E0821B9109A109B1098E879F87FE
:101D0000A88BB98B8BE0389FC00111248154944E6D
:101D10002C853D852817390759F0E091AF1BF091CC
:101D2000B01B828D8A8FDF91CF911F910F91089503
:101D30008E010E5F1F4FC8010E941B1EE091AF1B5A
:101D4000F091B01B928D9A8F8091B11B891710F47E
:101D50009093B11B8BE0989FC00111248154944E45
:101D6000B8010E94BB1DDFCF0F931F93CF93DF936A
:101D7000FC0170684083518362837383C085D18581
:101D80000E941B1E8E010E5F1F4FC8010E941B1E6A
:101D90009A8D8091B11B891710F49093B11B8BE041
:101DA000989FC00111248154944EB8010E94BB1D1C
:101DB000E091AF1BF091B01B9A8D828D891740F492
:101DC00081E08093B21BDF91CF911F910F91089515
:101DD00080E0DF91CF911F910F9108950F931F9392
:101DE000CF93DF93DC011796ED91FC911897008556
:101DF0001185E8012E96CE010E941B1E8091B81B12
:101E0000882331F5E8012296CE010E941B1EF801BD
:101E1000928D8091B11B891708F18BE0989FC001CA
:101E200011248154944EBE010E94BB1DE091AF1B52
:101E3000F091B01BD8015A969C91828D891788F435
:101E400081E08093B21BDF91CF911F910F91089594
:101E500085E09CE1BE010E94BB1DE8CF9093B11BC1
:101E6000DCCF80E0DF91CF911F910F910895AF9269
:101E7000BF92CF92DF92EF92FF920F931F93CF9377
:101E8000DF938091B81B882309F0B2C08091B31B07
:101E90009091B41BA091B51BB091B61B0196A11DEA
:101EA000B11D8093B31B9093B41BA093B51BB0934B
:101EB000B61BC090B31BD090B41BE090B51BF09044
:101EC000B61BC114D104E104F10449F52091011CB1
:101ED0003091021C8091031C9091041C9093021C71
:101EE0008093011C3093041C2093031C8091B71B2A
:101EF0008F5F8093B71BE091011CF091021C8081E1
:101F0000882309F0AAC08FEF9FEFAFEFBFEF809358
:101F1000E6029093E702A093E802B093E902809171
:101F2000E6029091E702A091E802B091E902C8169A
:101F3000D906EA06FB0608F473C0BB24EBE0AE2E1C
:101F4000E091011CF091021C8081882309F443C0B8
:101F5000E091011CF091021C0780F085E02DC08506
:101F6000D1858A819B81AC81BD81C816D906EA06DC
:101F7000FB0608F489C08E010E5F1F4FC8010E9446
:101F80001B1E888D998D892B21F0CE010E960E9403
:101F90001B1E9A8D8091B11B891710F49093B11B71
:101FA0009A9DC00111248154944EB8010E94BB1D1A
:101FB000E091AF1BF091B01B9A8D828D981708F4B9
:101FC000BFCFBB24B394E091011CF091021C80812F
:101FD000882309F0BDCF8FEF9FEFAFEFBFEF809366
:101FE000E6029093E702A093E802B093E90219C0D9
:101FF0008091B91B8F5F8093B91BBB248091B21B6A
:10200000882311F0BB24B3948B2DDF91CF911F91C6
:102010000F91FF90EF90DF90CF90BF90AF90089519
:10202000BB24E091AF1BF091B01B828D90E0FC01CE
:10203000EE0FFF1F9C01220F331F220F331F220FB1
:10204000331FE20FF31FE80FF91FE154F44E8081B4
:102050008230A0F2BB24B394D1CFE091011CF09167
:10206000021C0780F085E02D0084F185E02D82813F
:102070009381A481B5818093E6029093E702A093B7
:10208000E802B093E9024BCF8093E6029093E70217
:10209000A093E802B093E902C4CFEF92FF920F93AE
:1020A0001F937B018C01E091AF1BF091B01B628309
:1020B0007383848395838091B31B9091B41BA0910B
:1020C000B51BB091B61BE816F9060A071B0730F1DD
:1020D0008091011C9091021C6091AF1B7091B01B0C
:1020E0006E5F7F4F0E94DA1D8091E6029091E702B9
:1020F000A091E802B091E902E816F9060A071B0769
:1021000040F4E092E602F092E7020093E8021093B6
:10211000E9021F910F91FF90EF9008958091031CA9
:102120009091041C6091AF1B7091B01B6E5F7F4F4C
:102130000E94DA1D1F910F91FF90EF900895EF928A
:10214000FF920F931F9378018901E091AF1BF091EB
:10215000B01B706846875787608B718B6091AF1B8F
:102160007091B01B625F7F4F0E94BB1D8091AF1BBF
:102170009091B01B02960E941B1E6091B31B709140
:10218000B41B8091B51B9091B61B6E0D7F1D801FF7
:10219000911F0E944D101F910F91FF90EF90089595
:1021A000EF92FF920F931F937A018B016091AF1B07
:1021B0007091B01B625F7F4F0E94DA1D8091AF1B50
:1021C0009091B01B02960E941B1E6091B31B7091F0
:1021D000B41B8091B51B9091B61B6E0D7F1D801FA7
:1021E000911F0E944D101F910F91FF90EF90089545
:1021F000EF92FF920F931F93CF93DF930FB6F89454
:102200000F928091B81B81508093B81B8091B81BAE
:10221000882309F056C08091BC1B882309F451C063
:10222000FBE0FF2EEE24E3948091051C882369F1E6
:10223000E0910C1CF0910D1CC085D185CE010E964D
:102240000E941B1E8E010E5F1F4FC8010E941B1EA5
:102250009A8D8091B11B891710F49093B11B9F9DAB
:10226000C00111248154944EB8010E94BB1DE0911D
:10227000AF1BF091B01B9A8D828D9817A8F2E09257
:10228000B21B8091051C882399F68091B91B882385
:10229000A1F08091B91B882381F011E00E94370FD3
:1022A000882311F01093B21B8091B91B8150809349
:1022B000B91B8091B91B882389F78091B21B8130AB
:1022C00051F080E00F900FBEDF91CF911F910F91E1
:1022D000FF90EF9008950E943D1F81E0F3CF809121
:1022E000BF1B823018F00E943D1FF9CFFFCFEF9245
:1022F000FF921F93CF93DF93643008F063E00FB633
:10230000F8940F92009709F451C0EC012FA1261701
:1023100069F1261798F18091AF1B9091B01B10E0E6
:10232000C817D907D1F13A8D2317D9F16FA38E853C
:102330009F85A889B989B7FD0CC084E090E0A0E032
:10234000B0E0861B9109A109B1098E879F87A88BF0
:10235000B98B8BE0389FC00111248154944E2C8599
:102360003D852817390749F11130E9F00F900FBE6C
:10237000DF91CF911F91FF90EF9008958091AF1B57
:102380009091B01BC817D907B1F0E091AF1BF09145
:10239000B01B10E0828D681730F211E03A8D2317E0
:1023A00029F66A8FC3CF0E943D1FE0CFC091AF1BBB
:1023B000D091B01BABCF10E0B6CFA2E0EA2EF12C4B
:1023C000EC0EFD1EC7010E941B1E9A8D8091B11B51
:1023D000891710F49093B11B8BE0989FC0011124D2
:1023E0008154944EB7010E94BB1DBECFAF92BF92E5
:1023F000CF92DF92EF92FF920F931F935B016C01DC
:10240000611571058105910559F40E943D1F1F91C9
:102410000F91FF90EF90DF90CF90BF90AF90089515
:102420008091B81B8F5F8093B81BE090B31BF09036
:10243000B41B0091B51B1091B61B8091AF1B9091FE
:10244000B01B02960E941B1EEA0CFB1C0C1D1D1DDE
:10245000C801B7010E944D100E94F8108823B9F6F8
:10246000D4CFEF92FF920F931F93FC017A018B015F
:102470008091B81B8F5F8093B81B2091B31B309164
:10248000B41B4091B51B5091B61B80819181A281F4
:10249000B381E80EF91E0A1F1B1F281739074A07C8
:1024A0005B0720F5E816F9060A071B0748F52E1505
:1024B0003F054007510720F5E082F1820283138334
:1024C0008091AF1B9091B01B02960E941B1EC80109
:1024D000B7010E944D100E94F810882311F40E9449
:1024E0003D1F1F910F91FF90EF900895E816F90698
:1024F0000A071B0708F32E153F0540075107E0F2B6
:10250000E082F18202831383E6CFF8941092BD1B20
:102510000E94D41E08952F923F924F925F926F9225
:102520007F928F929F92AF92BF92CF92DF92EF9263
:10253000FF920F931F93CF93DF932C01362E272EFC
:102540005A013901102F470189E290E00E941C0CCA
:10255000EC01009709F4BCC0C114D10409F4ACC06B
:10256000DC8ECB8EC60165EA70E0A5010E94462C88
:10257000EB8CFC8C832D922D9C01F901DE0190E007
:1025800080815D968C935D978081882329F09F5F81
:10259000319611969A30A1F71EA2012F143008F03F
:1025A00089C00A8F0FA318A682E0C82ED12CCC0EAA
:1025B000DD1EC6010E94B71DCE010E960E94B71DFA
:1025C000DB87CA8784E090E0A0E0B0E0801B91093F
:1025D000A109B1098E879F87A88BB98BDF8BCE8B22
:1025E0000894A108B108C7018A0D9B1DB201A3017F
:1025F0000E94461E998388838114910419F0F40186
:10260000D183C0830FB6F8940F928091BC1B8F5F6B
:102610008093BC1B8091AF1B9091B01B892B09F458
:1026200059C08091BD1B882359F4E091AF1BF091F4
:10263000B01B828D181720F0D093B01BC093AF1B36
:102640008091BE1B8F5F8093BE1B9A8D8091B11BC2
:10265000891710F49093B11B8BE0989FC00111244F
:102660008154944EB6010E94BB1D0F900FBE809105
:10267000BD1B882359F0E091AF1BF091B01B828DF8
:10268000811720F40E943D1F81E001C081E0DF91AD
:10269000CF911F910F91FF90EF90DF90CF90BF905F
:1026A000AF909F908F907F906F905F904F903F90F2
:1026B0002F90089503E075CFC5010E941C0C6C019A
:1026C0009C8F8B8F009709F04DCFCE010E94EE0BAF
:1026D0008FEFDDCFD093B01BC093AF1B8091BC1B9D
:1026E000813009F0ADCF8FEB9BE10E94A31D8AECF6
:1026F0009BE10E94A31D85ED9BE10E94A31D80EE3E
:102700009BE10E94A31D0BEEE02E0BE1F02EC70112
:102710000E94A31DB6EFAB2EBBE1BB2EC5010E94EC
:10272000A31D85E09CE10E94A31DF092021CE09293
:10273000011CB092041CA092031C82CFAF92BF92E6
:10274000CF92DF92EF92FF920F938FE691E161EECD
:1027500072E044E650E020E030E000E0EAEBEE2EEC
:10276000EBE1FE2ECC24DD24AA24BB240E948B1294
:10277000813041F00F91FF90EF90DF90CF90BF90AC
:10278000AF900895F8948093BD1B1092B31B1092E4
:10279000B41B1092B51B1092B61B0E94951E0F9190
:1027A000FF90EF90DF90CF90BF90AF9008950F9380
:1027B0001F93CF93DF93EC018091101C9091111C1B
:1027C000892B61F1CE016BE00E94651A8C016BE1EF
:1027D00074E00E94211AC80166E00E94651ACE01C9
:1027E0006BE00E94651A8C0168EF73E00E94211A69
:1027F000C80166E00E94651AA091101CB091111CDE
:10280000ED91FC9111970190F081E02DCD01BE0179
:102810001995DF91CF911F910F910895CE016BE033
:102820000E94651A8C016AED73E00E94211AC801AA
:1028300066E00E94651ADF91CF911F910F91089574
:10284000FF920F931F93CF93DF93EC018B018EEEDA
:1028500092E09983888361157105B1F0FB010190C5
:102860000020E9F73197FE2EF61A8CE08F15E0F084
:102870008F2D90E001960E94F3198C839D83B801FF
:102880004F2D50E00E944D2C8091101C9091111CF6
:102890009F838E83D093111CC093101CDF91CF9126
:1028A0001F910F91FF9008958CE0F82EE1CFFF92D9
:1028B0000F931F93CF93DF93EC018B018EEE92E089
:1028C0009983888361157105B1F0FB0101900020A7
:1028D000E9F73197FE2EF61A8CE08F15E0F08F2D78
:1028E00090E001960E94F3198C839D83B8014F2DCF
:1028F00050E00E944D2C8091101C9091111C9F83E0
:102900008E83D093111CC093101CDF91CF911F9127
:102910000F91FF9008959CE0F92EE1CFFC016487B0
:10292000658708950E94C90C0E943C2920E030E090
:102930004AE754E40E94AE270895CF93DF93FC0149
:10294000C681D781209739F0CE010E94211ACE018D
:1029500066E00E94651A2BE088E190E00FB6F894DB
:10296000A895809360000FBE20936000FFCF0F9367
:102970001F938C01DC01ED91FC910190F081E02D21
:102980001995F801138212826FEF7FEF8FEF9FEF9F
:102990000E94F611F9CF4F925F926F927F928F92C1
:1029A0009F92AF92BF92CF92DF92EF92FF920F93DE
:1029B0001F93CF93DF93EC012B01A42F4901380122
:1029C000FC0184EF92E0819391938DE792E0A9015D
:1029D0009E010A2F7F01CC24DD24AA24BB240E945F
:1029E0008B12282F7F826E82998688868091121C96
:1029F0009091131C9D838C83D093131CC093121C45
:102A00001C861D868091201C9091211C019690931C
:102A1000211C8093201C9B878A871E861F86188A0C
:102A2000198A61147104E1F0213059F1C3016BE09E
:102A30000E94651A8C016EE374E00E94211AC8019D
:102A4000B2010E94211AD801ED91FC910280F3811C
:102A5000E02DC80162E21995C80166E00E94651A7E
:102A6000DF91CF911F910F91FF90EF90DF90CF906A
:102A7000BF90AF909F908F907F906F905F904F909E
:102A80000895C3016BE00E94651A8C016BE674E047
:102A90000E94211AC801B2010E94211AC8016BE0EC
:102AA0000E94651A8C0164E574E00E94211AC80135
:102AB00063E00E94651A6A857B850E94B81A62E00D
:102AC0000E94651A66E00E94651ACACF4F925F9213
:102AD0006F927F928F929F92AF92BF92CF92DF922E
:102AE000EF92FF920F931F93CF93DF93EC012B0193
:102AF000A42F49013801FC0184EF92E08193919366
:102B00008DE792E0A9019E010A2F7F01CC24DD24EC
:102B1000AA24BB240E948B12282F7F826E82998662
:102B200088868091121C9091131C9D838C83D09376
:102B3000131CC093121C1C861D868091201C909132
:102B4000211C01969093211C8093201C9B878A87CF
:102B50001E861F86188A198A61147104E1F02130DB
:102B600059F1C3016BE00E94651A8C016EE374E0B9
:102B70000E94211AC801B2010E94211AD801ED91C8
:102B8000FC910280F381E02DC80162E21995C80131
:102B900066E00E94651ADF91CF911F910F91FF901F
:102BA000EF90DF90CF90BF90AF909F908F907F90ED
:102BB0006F905F904F900895C3016BE00E94651A7B
:102BC0008C016BE674E00E94211AC801B2010E94D8
:102BD000211AC8016BE00E94651A8C0164E574E05B
:102BE0000E94211AC80163E00E94651A6A857B85EC
:102BF0000E94B81A62E00E94651A66E00E94651A97
:102C0000CACFEF92FF920F931F93CF93DF93EC0104
:102C10007B01C7016BE00E94651A8C0162E774E0DA
:102C20000E94211A8A819B810E94E70CBC01C80185
:102C30000E94211AC80166E00E94651A6A857B8598
:102C4000888599859B01281B390BC901A7010E9422
:102C50005A190C80DD81C02D2097D9F6DF91CF91D4
:102C60001F910F91FF90EF9008950F931F93CF93B3
:102C7000DF93EC018091121C9091131C009719F0C6
:102C8000BE010E940116CE016BE00E94651A8C0104
:102C900069E774E00E94211AC80166E00E94651A83
:102CA0006091201C7091211CCB01835690406F5F76
:102CB0007F4FAE010E945A19DF91CF911F910F9162
:102CC00008950F931F93182F092FDB01ED91FC91AD
:102CD0000280F381E02DCB01612F702F1995812F98
:102CE000902F1F910F9108950F931F93CF93DF9310
:102CF000EC018B01C801BE010E94611666E00E94D2
:102D0000651A0C80DD81C02D2097A1F7DF91CF914E
:102D10001F910F9108950F931F93CF93DF93EC01B1
:102D20006BE00E94651A8C0162EE74E00E94211A29
:102D3000C8016BE00E94651A8C016BED74E00E9483
:102D4000211AC80166E00E94651ACE016BE00E945C
:102D5000651A8C016AEC74E00E94211AC8016BE0CC
:102D60000E94651A8C016EEB74E00E94211AC80162
:102D70006BE00E94651A8C0168EB74E00E94211AD6
:102D8000C80166E00E94651ACE016BE00E94651AD8
:102D90008C0167EA74E00E94211AC8016BE00E946E
:102DA000651A8C016BE974E00E94211AC8016BE07E
:102DB0000E94651A8C0165E974E00E94211AC8011D
:102DC00066E00E94651A8091121C9091131C009776
:102DD00019F0BE010E947416CE016BE00E94651AC4
:102DE0008C016AE874E00E94211A0E94F70C0E948C
:102DF000C50D682FC8010E943B1B6BE00E94651A3D
:102E00008C0168E874E00E94211AC80164E670E051
:102E10000E94B81A6BE00E94651A8C0164E874E0A5
:102E20000E94211AC80166E00E94651ADF91CF91C5
:102E30001F910F910895EF92FF920F931F93CF93DD
:102E4000DF937C01EB01FC01828193810E94E70CFE
:102E5000BC01CE010E94211AE881F9810280F38130
:102E6000E02DCE0169E01995F701828193810E94DE
:102E7000E70CFC0101900020E9F73197E81BF90B02
:102E8000389740F4E881F9810280F381E02DCE018A
:102E900069E01995F701828193810E94B10C682F36
:102EA000CE010E943B1B6BE00E94651A8C0165EF0E
:102EB00074E00E94211AC801F70164850E943B1B3F
:102EC0006BE00E94651A8C0163EF74E00E94211A86
:102ED000F701828193810E94C50D682FC8010E946D
:102EE0003B1B6BE00E94651A8C0161EF74E00E944D
:102EF000211AF70160857185C8010E94B81A6BE03C
:102F00000E94651A8C016FEE74E00E94211AC801BC
:102F10006BE00E94651A8C016DEE74E00E94211A2C
:102F2000F7014685578560897189C8010E94F31AA7
:102F3000DF91CF911F910F91FF90EF9008950F9324
:102F4000DF93CF930F92CDB7DEB7FC0186859785CF
:102F5000BE016F5F7F4F2FEF3FEF4FEF5FEF00E05E
:102F60000E949120813031F08FEF0F90CF91DF914F
:102F70000F91089589810F90CF91DF910F9108955E
:102F8000FC01868597850E949E1F811181E008952E
:102F90000F93DF93CF930F92CDB7DEB7FC01698318
:102FA000208931894289538986859785BE016F5F63
:102FB0007F4F00E00E941C220F90CF91DF910F9174
:102FC000089506970E94E5170895EF92FF920F93D8
:102FD0001F93CF93DF937C01EB01DC011A966D9177
:102FE0007C911B97CE010E94211AF701A285B3851F
:102FF000FD0101900020E9F731970E2F0A1B0031E7
:1030000058F4E881F9810280F381E02DCE0160E27D
:1030100019950F5F0031A8F3CE0168EF72E00E94AE
:10302000211AD7011E968D919C911F970E94A61F71
:10303000682FCE010E943B1B8C01DC01ED91FC91BD
:103040000280F381E02D6FE21995F7016689778997
:10305000C8010E94B81ADC01ED91FC910280F38155
:10306000E02D69E01995CE0166E00E94651AF7012E
:10307000A485B585109749F0ED91FC9111970190C9
:10308000F081E02DCD01BE011995DF91CF911F9107
:103090000F91FF90EF9008956F927F928F929F9281
:1030A000AF92BF92CF92DF92EF92FF920F931F9356
:1030B0006C01762E672E5A0149010E94F919C6014A
:1030C0000696B5010E94571483E093E0F6019183C0
:1030D0008083429697838683958A848A872D61E0D0
:1030E00040E00E945523F60197878687E08AF18A9F
:1030F000028B138B768A678A1F910F91FF90EF9056
:10310000DF90CF90BF90AF909F908F907F906F9007
:1031100008956F927F928F929F92AF92BF92CF92BB
:10312000DF92EF92FF920F931F936C01762E672E22
:103130005A0149010E94F919C6010696B5010E947B
:10314000571483E093E0F60191838083429697833E
:103150008683958A848A872D61E040E00E9455230A
:10316000F60197878687E08AF18A028B138B768A2D
:10317000678A1F910F91FF90EF90DF90CF90BF90E3
:10318000AF909F908F907F906F900895AF92BF9275
:10319000CF92DF92EF92FF920F931F93DF93CF9323
:1031A000CDB7DEB767970FB6F894DEBF0FBECDBFC1
:1031B0007C018B01DB016D917D918D919C9128EEBD
:1031C00033E040E050E00E94C92BC701BA01A901D9
:1031D0000E94F31AD701ED91FC910280F381E02D5A
:1031E000C7016EE21995C8010E948423282F8E0121
:1031F0000A5F1F4F38E0A32EB12CAC0EBD1E80E13C
:10320000C82ED12CCC0EDD1E822F2AE030E040E00B
:1032100050E00E94EB2B288B398B4A8B5B8B6C8B9D
:103220007D8B8E8B9F8BD501F60188E001900D92EE
:103230008150E1F7688579852A859B858C85805D3D
:10324000F8018083015010400C171D07E9F61F821A
:10325000C701BE016F5F7F4F0E94211AC7016796A9
:103260000FB6F894DEBF0FBECDBFCF91DF911F9197
:103270000F91FF90EF90DF90CF90BF90AF900895A7
:103280000F931F938C010FB6F8940F928091240135
:1032900090912501F801958384830E94C90CF8015F
:1032A00060837183828393830F900FBEC8011F9147
:1032B0000F910895AF92BF92CF92DF92EF92FF925B
:1032C0000F931F93CF93DF936C015B01EA01CA0157
:1032D00063E00E94651ACA14DB0408F052C0CE01F4
:1032E000B6010E94B81A6BE00E94651A67EF74E09D
:1032F0000E94211A760110E0F70161917F01CE0151
:103300000E943B1BE881F9810280F381E02DCE0110
:1033100060E219951F5F143179F7E881F981028025
:10332000F381E02DCE0160E21995760186010C5EF5
:103330001F4F0AC0E881F9810280F381E02DCE01A0
:103340001995E016F106A1F0F70161917F01653A48
:1033500039F1862F80528F3568F3E881F981028038
:10336000F381E02DCE016EE21995E016F10661F7CA
:103370006701CE0166E00E94651AEA14FB0408F4B6
:10338000AECFCE0162E00E94651ADF91CF911F910E
:103390000F91FF90EF90DF90CF90BF90AF90089586
:1033A000E881F9810280F381E02DCE0160E2199578
:1033B000C8CFFC0120E030E08081882311F421E0B7
:1033C00030E0C9010895FC0181E0808308950895EB
:1033D0000895009711F00E94EE0B0895009711F0E8
:1033E0000E94EE0B08950E941C0C08950E941C0C74
:1033F0000895FC018DE193E0918380838AE08283CC
:1034000083E0858314820895FC018DE193E091832C
:1034100080838AE0828383E085831482089581E03B
:10342000089580E0089580E008950895FC01A0814A
:10343000B18112962D913C9113976CE0F901199589
:1034400008950F931F93CF93DF938C01EB01DC0161
:1034500014968C91882311F1F8011482FB01649178
:10346000662371F02196D801ED91FC910280F381E1
:10347000E02DC8011995FE0121966491662399F704
:10348000DF91CF911F910F9108952196D801ED9171
:10349000FC910280F381E02DC801199568816623B3
:1034A000A1F7DF91CF911F910F910895883008F017
:1034B00087E08093170389E00895982F82508F301A
:1034C00010F4909318038AE00895CF93DF93EC01F2
:1034D0006630F1F1673090F0693061F16A30C8F41C
:1034E000673009F1683031F4E881F9810084F185B1
:1034F000E02D1995CE01DF91CF910895613029F12A
:10350000613070F06230D1F06330A1F780E18A83DE
:10351000F1CF6A30B1F06B3069F781E08C83EACF8C
:1035200082E08A83E7CFE881F9810284F385E02D88
:103530001995E0CF809117038D83DCCF8AE08A83D1
:10354000D9CF809118038A83D5CF88E08A83D2CFE0
:10355000E881F9810280F381E02D6DE01995E88121
:10356000F9810280F381E02DCE016AE01995C2CF86
:10357000EF92FF920F931F93DF93CF93CDB7DEB7F8
:1035800061970FB6F894DEBF0FBECDBF7C01062F4A
:10359000672FFC014281403191F0483081F0423088
:1035A00071F0802F972F8E010F5F1F4FB80150E0F1
:1035B0000E94812CC701B8010E94211A06C0C701D0
:1035C0000E943B1B602F0E943B1BC70161960FB6F8
:1035D000F894DEBF0FBECDBFCF91DF911F910F9149
:1035E000FF90EF900895DF92EF92FF920F931F9359
:1035F000DF93CF93CDB7DEB7A1970FB6F894DEBFB8
:103600000FBECDBF7C01D42E152F062F372FFC0106
:1036100022812031A1F0283091F0223081F0642FF6
:10362000752F802F932F8E010F5F1F4FA80130E061
:103630000E945C2CC701B8010E94211A0DC0C7016D
:10364000632F0E943B1B602F0E943B1B612F0E9437
:103650003B1B6D2D0E943B1BC701A1960FB6F89432
:10366000DEBF0FBECDBFCF91DF911F910F91FF90B5
:10367000EF90DF900895AF92BF92CF92DF92EF92DA
:10368000FF920F931F93DF93CF93CDB7DEB72997A8
:103690000FB6F894DEBF0FBECDBF6C01162FDC0154
:1036A00013968C911397882309F05FC0F60142812D
:1036B000423089F1403109F060C062956F70D601E7
:1036C000ED91FC910280F381E02D6A3008F063C037
:1036D000605DC6011995612F6F70D601ED91FC9167
:1036E0000280F381E02D6A3008F457C0695CC6019E
:1036F0001995C60129960FB6F894DEBF0FBECDBF4F
:10370000CF91DF911F910F91FF90EF90DF90CF90BD
:10371000BF90AF900895A62EBB2480E8EE24FF242E
:1037200013C0D601ED91FC910280F381E02DC6011A
:1037300061E3199515950795802F0894E11CF11CFC
:10374000B8E0EB16F104A9F2082F10E0C8018A21B5
:103750009B21892B31F7D601ED91FC910280F381F9
:10376000E02DC60160E31995E5CFED91FC91028053
:10377000F381E02DC6011995BCCF862F90E08E0114
:103780000F5F1F4FB80150E00E94812CC601B801A5
:103790000E94211AAECF695C9CCF605DA8CFDC018E
:1037A0001896ED91FC91199780811C962C911C978D
:1037B00030E090E082239323892B79F440E050E0BD
:1037C00006C04F5F5F4F8EE44132580789F0808119
:1037D00090E082239323892BA1F380811E969C91F4
:1037E0001E97892B80831696ED91FC911797608325
:1037F0000895FC018785882301F52091161C3091DE
:10380000171C8091181C9091191C28173907B1F1C9
:10381000E091141CF091151CE20FF31FE081C90127
:1038200001969093171C8093161C809720F010929D
:10383000171C1092161C8E2F089520911C1C30917D
:103840001D1C80911E1C90911F1C28173907A9F080
:10385000E0911A1CF0911B1CE20FF31FE081C901DB
:10386000019690931D1C80931C1C809720F310924E
:103870001D1C10921C1C8E2F0895FFCFFFCFFC0142
:103880008785882379F040E020911C1C30911D1C15
:1038900080911E1C90911F1C2817390709F041E0E8
:1038A000842F089540E02091161C3091171C8091C0
:1038B000181C9091191C2817390789F7842F08952F
:1038C000FC01A081B18112962D913C9113976CE07F
:1038D000F901199508951F920F920FB60F920BB62A
:1038E0000F9211242F933F938F939F93EF93FF9306
:1038F0008091C600E091141CF091151C2091181CB9
:103900003091191CE20FF31F80832091181C309115
:10391000191C2F5F3F4F3093191C2093181C203225
:10392000310530F01092191C1092181C20E030E084
:103930008091161C9091171C2817390769F0FF9188
:10394000EF919F918F913F912F910F900BBE0F9010
:103950000FBE0F901F901895C90101969093171CE8
:103960008093161C809758F31092171C1092161C07
:10397000E6CF1F920F920FB60F920BB60F92112443
:103980002F933F938F939F93EF93FF938091CE005C
:10399000E0911A1CF0911B1C20911E1C30911F1CE1
:1039A000E20FF31F808320911E1C30911F1C2F5F9C
:1039B0003F4F30931F1C20931E1C2032310530F0E6
:1039C00010921F1C10921E1C20E030E080911C1CE5
:1039D00090911D1C2817390769F0FF91EF919F9175
:1039E0008F913F912F910F900BBE0F900FBE0F90B4
:1039F0001F901895C901019690931D1C80931C1C63
:103A0000809758F310921D1C10921C1CE6CFDF9279
:103A1000EF92FF920F931F938C017B01D42E0E9493
:103A2000F919C8010696B7014D2D0E94C2238DE2F7
:103A300093E0F80191838083D786DD20D9F08091CF
:103A4000C90080688093C90080E290E00E94F31969
:103A500090931B1C80931A1C10921D1C10921C1C0E
:103A600010921F1C10921E1C1F910F91FF90EF903F
:103A7000DF9008958091C10080688093C10080E24A
:103A800090E00E94F3199093151C8093141C1092DF
:103A9000171C1092161C1092191C1092181C1F91C2
:103AA0000F91FF90EF90DF900895DF92EF92FF92D9
:103AB0000F931F938C017B01D42E0E94F919C8012A
:103AC0000696B7014D2D0E94C2238DE293E0F801C6
:103AD00091838083D786DD20D9F08091C9008068EA
:103AE0008093C90080E290E00E94F31990931B1C20
:103AF00080931A1C10921D1C10921C1C10921F1CEB
:103B000010921E1C1F910F91FF90EF90DF9008956F
:103B10008091C10080688093C10080E290E00E94A3
:103B2000F3199093151C8093141C1092171C10927B
:103B3000161C1092191C1092181C1F910F91FF90C7
:103B4000EF90DF900895FC019C012D5F3F4F328381
:103B500021838FEF9FEFAFEFBFEF83839483A58324
:103B6000B683308727833287218710820895FC012E
:103B7000138612860895AC01FC01A181B281FB017C
:103B8000B583A48316968D919C911797978386830E
:103B90001696ED91FC9117977583648317967C9325
:103BA0006E931697FB0153874287FA0180818F5FDE
:103BB000808308950F931F93CF93DF938C01DB01D4
:103BC0002D913D914D915C912F3FBFEF3B07BFEF92
:103BD0004B07BFEF5B0749F1EC01239601C0EF01F2
:103BE000EC81FD8180819181A281B3812817390701
:103BF0004A075B07A0F7DB011596FC93EE93149739
:103C0000778366831796DC93CE9316977D836C83B8
:103C10001B961C930E931A97F80180818F5F808307
:103C2000DF91CF911F910F910895FC01C185D2853D
:103C3000EC81FD81E0CFCF93DF93DC011A96CD912B
:103C4000DC911B9714964D915C91159716968D916A
:103C50009C911797FA019783868316962D913C9134
:103C60001797F9015583448389819A818A179B07A5
:103C700051F01B961C921E921A978881815088835E
:103C8000DF91CF9108953A832983F3CFFC0190937C
:103C9000211C8093201C91E1908322E2229383E3F4
:103CA0008293629372931292129280E8829312929C
:103CB0001292129282E0829383E0829384E0829354
:103CC00085E0829386E0829387E0829388E0829306
:103CD00089E0829380E18293929382E1829383E1EF
:103CE000829384E1829385E1829386E1829387E1E6
:103CF000829388E1829389E1829380E2829381E2D8
:103D00008293229383E282934293529386E2829338
:103D100087E2829388E2829389E2829380E38293AE
:103D200081E382933197CF01089587E08093290141
:103D30008FEC809328018AE080932101E3E7F0E093
:103D4000808182608083A091AF1BB091B01BCD9128
:103D5000CDBFDD91DEBFFF91EF91DF91CF91BF919C
:103D6000AF919F918F917F916F915F914F913F9113
:103D70002F911F910F91FF90EF90DF90CF90BF9008
:103D8000AF909F908F907F906F905F904F903F90FB
:103D90002F901F900F900CBE0F900BBE0F900FBE78
:103DA0000F90089581E0089508950F920FB6F8944A
:103DB0000F920BB60F920CB60F921F9211242F92F6
:103DC0003F924F925F926F927F928F929F92AF92AB
:103DD000BF92CF92DF92EF92FF920F931F932F9398
:103DE0003F934F935F936F937F938F939F93AF9383
:103DF000BF93CF93DF93EF93FF93A091AF1BB0914D
:103E0000B01B0DB60D920EB60D920E94370F88238F
:103E100011F00E94FC0CA091AF1BB091B01BCD9192
:103E2000CDBFDD91DEBFFF91EF91DF91CF91BF91CB
:103E3000AF919F918F917F916F915F914F913F9142
:103E40002F911F910F91FF90EF90DF90CF90BF9037
:103E5000AF909F908F907F906F905F904F903F902A
:103E60002F901F900F900CBE0F900BBE0F900FBEA7
:103E70000F9008950E94D51E18950F920FB6F894D2
:103E80000F920BB60F920CB60F921F9211242F9225
:103E90003F924F925F926F927F928F929F92AF92DA
:103EA000BF92CF92DF92EF92FF920F931F932F93C7
:103EB0003F934F935F936F937F938F939F93AF93B2
:103EC000BF93CF93DF93EF93FF93A091AF1BB0917C
:103ED000B01B0DB60D920EB60D920E94FC0CA09177
:103EE000AF1BB091B01BCD91CDBFDD91DEBFFF9177
:103EF000EF91DF91CF91BF91AF919F918F917F9182
:103F00006F915F914F913F912F911F910F91FF9072
:103F1000EF90DF90CF90BF90AF909F908F907F9069
:103F20006F905F904F903F902F901F900F900CBE1E
:103F30000F900BBE0F900FBE0F9008950FB6F89420
:103F40000F92FC01868D0F900FBE0895FC010FB6F5
:103F5000F8940F92968D0F900FBE878D891B089550
:103F6000FC01868D0895FC01868D90E0882309F47C
:103F700091E0892F0895FC01968D20E0878D981798
:103F800011F0822F089521E0822F0895CF93DF93BF
:103F9000EC0188819981009711F00E94EE0BCE010F
:103FA0000E94EE0BDF91CF910895FC01562FA72FB1
:103FB00040A14423B1F086819781840F911D97839E
:103FC0008683228133818217930720F0808191813B
:103FD0009783868366817781852F9A2F50E00E9490
:103FE0003D2C08950F931F93CF93DF93EC018E8D9B
:103FF000882341F00E811F81CE010E94D51F1F83AF
:104000000E8381E0DF91CF911F910F9108950F935F
:104010001F93CF93DF938A01EC018E8D882329F4BF
:10402000DF91CF911F910F910895CE010E94D51F6E
:104030008E8D81508E8F89A18F3F49F089A18F5F2E
:1040400089A381E0DF91CF911F910F910895888519
:10405000882311F481E0E4CFCE0108960E94EE0E91
:104060008823C1F301151105A9F381E0F8018083CC
:10407000D7CF0F931F93CF93DF93EC010FB6F89434
:104080000F928AA11816ECF48B898823D1F08E0147
:104090000D5E1F4F09C08AA181508AA38AA11816FC
:1040A00084F48B89882369F0C8010E94EE0E88236E
:1040B00091F30E94C10D8AA181508AA38AA118168A
:1040C00084F38FEF8AA30F900FBE0FB6F8940F9270
:1040D00089A11816ECF488858823D1F08E01085F39
:1040E0001F4F09C089A1815089A389A1181684F4A2
:1040F0008885882369F0C8010E94EE0E882391F319
:104100000E94C10D89A1815089A389A1181684F349
:104110008FEF89A30F900FBEDF91CF911F910F9169
:1041200008957F928F929F92AF92BF92CF92DF922B
:10413000EF92FF920F931F93DF93CF93CDB7DEB72C
:1041400029970FB6F894DEBF0FBECDBF4B012E836B
:104150003F8348875987702E8C0193E1C92ED12C5B
:10416000C00ED11E20E07E010894E11CF11C86E007
:10417000A82EB12CAC0EBD1E0FB6F8940F92F8010C
:10418000868D882309F060C08E819F81A885B985BE
:104190000097A105B10509F475C0222309F43EC0BA
:1041A0000F900FBE0E94C30C0FB6F8940F92F80147
:1041B00081A18F3F89F1F80182A18F3F59F10F90C2
:1041C0000FBEC701B5010E945C0D882309F071C0C4
:1041D0000FB6F8940F92F801868D0F900FBE8823CA
:1041E00009F5F80180819181892B19F14E815F8158
:1041F00068857985C6010E94D010C8010E943920C7
:104200000E94F810882311F021E0B6CF0E943D1FD4
:1042100021E0B2CF12A2D3CF11A2CDCFC7010E940D
:104220004B0DBECFC8010E9439200E94F81021E03A
:10423000A3CF0FB6F8940F92F801828193810E9468
:104240005C0E0F900FBED2CFE680F780C801B4019C
:104250000E94D51F7720A1F5F801868D8150868FA9
:1042600080819181892B09F43BC0F80180858823E6
:1042700069F1C80108960E94EE0E813039F50E945E
:104280003D1F24C00F900FBE80E029960FB6F89412
:10429000DEBF0FBECDBFCF91DF911F910F91FF9079
:1042A000EF90DF90CF90BF90AF909F908F907F90D6
:1042B0000895C8010E9439200E94F81080E0E5CFDF
:1042C000F801F782E6828389882321F40F900FBEDC
:1042D00081E0DBCFC6010E94EE0E8823B9F3CFCF79
:1042E0000E940A0EF80193838283BFCF1F93CF935E
:1042F000DF93EC01142F48A1442371F48881998144
:10430000892B09F451C090E08E8D8F5F8E8F892F9D
:10431000DF91CF911F9108951123F1F48C819D813C
:1043200050E00E943D2C88A12C813D81280F311D39
:104330003D832C838A819B812817390720F388814C
:1043400099819D838C8390E08E8D8F5F8E8F892FD6
:10435000DF91CF911F9108958E819F8150E00E943F
:104360003D2C88A190E044275527481B590B8E818E
:104370009F81840F951F9F838E83288139818217A7
:10438000930730F48A819B81840F951F9F838E83CE
:10439000123009F0B8CF8E8D882309F4B4CF8E8DFA
:1043A00081508E8F90E0B0CF8A819B810E941D0E3C
:1043B000982F1B821A82A8CF0F931F93CF93DF935E
:1043C0008A01EC019E8D8F8D981740F0223031F0DC
:1043D00080E0DF91CF911F910F910895CE01422F80
:1043E0000E947621882331F00115110519F081E032
:1043F000F80180838AA18F3F49F08AA18F5F8AA349
:1044000081E0DF91CF911F910F9108958B898823CF
:1044100031F481E0DF91CF911F910F910895CE018A
:1044200043960E94EE0E8823A1F30115110589F32E
:1044300081E0F8018083CDCF6F927F929F92AF92FF
:10444000BF92CF92DF92EF92FF920F931F93DF9371
:10445000CF93CDB7DEB729970FB6F894DEBF0FBE66
:10446000CDBF3B012E833F8348875987902E8C0117
:1044700048E0C42ED12CC80ED91E20E07E0108943D
:10448000E11CF11C36E0A32EB12CAC0EBD1E0FB604
:10449000F8940F92F801968D878D981708F456C0FE
:1044A000F2E09F1609F452C08E819F81A885B985DC
:1044B0000097A105B10509F46CC0222309F442C09C
:1044C0000F900FBE0E94C30C0FB6F8940F92F80124
:1044D00081A18F3FA9F1F80182A18F3F79F10F905F
:1044E0000FBEC701B5010E945C0D882309F055C0BD
:1044F0000FB6F8940F92F801968D0F900FBEF80149
:10450000878D9817A1F44E815F8168857985C601F2
:104510000E94D010C8010E9439200E94F810882300
:1045200011F021E0B4CF0E943D1F21E0B0CFC801BF
:104530000E9439200E94F81021E0A9CF12A2CFCF0B
:1045400011A2C9CFC7010E944B0DBACFC801B30158
:10455000492D0E947621982FF8018389882321F51F
:10456000992341F50F900FBE81E029960FB6F8947C
:10457000DEBF0FBECDBFCF91DF911F910F91FF9096
:10458000EF90DF90CF90BF90AF909F907F906F9013
:1045900008950F900FBE80E0E8CFC8010E94392037
:1045A0000E94F81080E0E1CFC80143960E94EE0E11
:1045B0008130C1F60E943D1FD5CF0F93CF93DF937B
:1045C00083E290E00E941C0CEC01009709F11B8231
:1045D0001A82198218821D821C821F821E821E8EE0
:1045E00081E08F8F18A28FEF89A38AA3CE0108964E
:1045F0000E94A31DCE0143960E94A31DCE0160E040
:1046000070E020E030E040E050E000E00E941C223A
:10461000CE01DF91CF910F910895CF93DF93EC01FD
:104620000FB6F8940F92E8A12F8DE29FC0011124DC
:1046300048815981840F951F9B838A831E8E5D83D9
:104640004C8330E021503040F0E02E9FC0012F9F7E
:10465000900D3E9F900D1124480F591F5F834E838C
:104660008FEF89A38AA3662391F48885882331F488
:104670000F900FBE81E0DF91CF910895CE01089693
:104680000E94EE0E8130A1F70E943D1FF1CFCE01B6
:1046900008960E94A31DCE0143960E94A31D0F9071
:1046A0000FBE81E0DF91CF9108950F931F93CF93B9
:1046B000DF93182F062F882341F420E030E0C90152
:1046C000DF91CF911F910F91089583E290E00E94B6
:1046D0001C0CEC01009789F3019FC0011124019685
:1046E0000E941C0C99838883009741F01F8F08A3B8
:1046F000CE0161E00E940D239E01E1CFCE010E9418
:10470000EE0B20E030E0DBCFCF92DF92EF92FF9212
:104710000F931F936C01FC016081718182819381F1
:1047200028EE33E040E050E00E94C92B20E432E460
:104730004FE050E00E94AA2B28EE33E040E050E02A
:104740000E94C92B79018A01F6016481758180E09C
:1047500090E020E432E44FE050E00E94AA2B20E8F1
:1047600034E84EE150E00E94C92BE20EF31E041F14
:10477000151FB701C8011F910F91FF90EF90DF90B7
:10478000CF900895CF93DF93EC01442309F441C007
:104790008EEC90E09983888388EC90E09B838A83F9
:1047A00089EC90E09D838C8388E18093C90086E04A
:1047B0008093CA001092CD009B0140E050E0220F90
:1047C000331F441F551F220F331F441F551F220F35
:1047D000331F441F551F220F331F441F551F60E016
:1047E00074E284EF90E00E94C92B2093CC0080916A
:1047F000C80081608093C80080E28E8380E88F8348
:1048000080E48887E881F98180818081DF91CF9180
:10481000089586EC90E09983888380EC90E09B83F8
:104820008A8381EC90E09D838C8388E18093C10032
:1048300086E08093C2001092C5009B0140E050E0EA
:10484000220F331F441F551F220F331F441F551FB4
:10485000220F331F441F551F220F331F441F551FA4
:1048600060E074E284EF90E00E94C92B2093C400C2
:104870008091C00081608093C000BECFCF93DF9352
:10488000EC01442309F441C08EEC90E099838883C5
:1048900088EC90E09B838A8389EC90E09D838C83F5
:1048A00088E18093C90086E08093CA001092CD0011
:1048B0009B0140E050E0220F331F441F551F220F81
:1048C000331F441F551F220F331F441F551F220F34
:1048D000331F441F551F60E074E284EF90E00E9494
:1048E000C92B2093CC008091C80081608093C800C0
:1048F00080E28E8380E88F8380E48887E881F98175
:1049000080818081DF91CF91089586EC90E099833A
:10491000888380EC90E09B838A8381EC90E09D8388
:104920008C8388E18093C10086E08093C20010925E
:10493000C5009B0140E050E0220F331F441F551F6C
:10494000220F331F441F551F220F331F441F551FB3
:10495000220F331F441F551F60E074E284EF90E084
:104960000E94C92B2093C4008091C0008160809375
:10497000C000BECFDC011296ED91FC91139720810F
:1049800040E030E016968C9190E028233923232BC9
:1049900009F041E0842F0895DC011296ED91FC911D
:1049A0001397208140E030E018968C9190E0282306
:1049B0003923232B09F441E0842F0895EF92FF92CD
:1049C0000F931F937B018C0120E030E040E05FE417
:1049D0000E945A2888238CF0C801B70120E030E0FB
:1049E00040E05FE40E9456260E94E8289B01AC014B
:1049F000205030404040504806C0C801B7010E94D6
:104A0000E8289B01AC01B901CA011F910F91FF90E9
:104A1000EF900895A0E0B0E0E0E1F5E20C94062C00
:104A2000DC012B01FA019C91923008F439C1EB01B1
:104A30008881823008F433C1943069F4843009F0FD
:104A40002FC111969C9111978981981709F428C15B
:104A5000A9E3B3E025C1843009F421C18230A9F46F
:104A6000923009F01DC19A01AD0188E0EA01099078
:104A7000AE01E90109929E018150C1F7E2018981ED
:104A800011969C918923818308C1923009F407C152
:104A900012962D903C901397EB018A819B8114967E
:104AA000AD90BD90CD90DC901797EC80FD800E818D
:104AB0001F819101281B390BB90137FF04C06627FC
:104AC0007727621B730B603271050CF061C0121600
:104AD00013066CF537014801062E04C0969487949E
:104AE000779467940A94D2F721E030E040E050E0F8
:104AF00004C0220F331F441F551F6A95D2F721505F
:104B00003040404050402E213F2140235123211569
:104B100031054105510521F021E030E040E050E051
:104B200079018A01E628F728082919293CC0232B96
:104B3000D1F1260E371E35014601062E04C096948B
:104B40008794779467940A94D2F721E030E040E0AC
:104B500050E004C0220F331F441F551F6A95D2F73F
:104B600021503040404050402A213B214C215D21C2
:104B7000211531054105510521F021E030E040E0EB
:104B800050E059016A01A628B728C828D9280BC0C7
:104B9000821593052CF01C01AA24BB24650103C0D7
:104BA000EE24FF24870111969C91D20111968C91DD
:104BB000981709F445C0992339F0A80197012A19DB
:104BC0003B094C095D0906C0A60195012E193F0954
:104BD000400B510B57FD08C011823382228224837F
:104BE0003583468357831DC081E0818333822282CF
:104BF00088279927DC01821B930BA40BB50B8483B8
:104C00009583A683B7830DC0220F331F441F551F02
:104C100024833583468357838281938101979383CD
:104C200082832481358146815781DA01C901019748
:104C3000A109B1098F5F9F4FAF4FBF4328F30BC04E
:104C4000918333822282EA0CFB1C0C1D1D1DE48221
:104C5000F5820683178383E0808324813581468132
:104C6000578157FF1AC0C901AA2797FDA095BA2FEF
:104C700081709070A070B0705695479537952795C4
:104C8000822B932BA42BB52B84839583A683B78388
:104C900082819381019693838283DF0101C0D201D7
:104CA000CD01CDB7DEB7E2E10C94222CA0E2B0E05A
:104CB000ECE5F6E20C94122C69837A838B839C8357
:104CC0002D833E834F835887E9E0EE2EF12CEC0EC6
:104CD000FD1ECE010196B7010E94D92A8E010F5EFA
:104CE0001F4FCE010596B8010E94D92A8A8991E00A
:104CF00089278A8BC701B801AE01475E5F4F0E94CA
:104D00000A250E94042AA096E6E00C942E2CA0E22C
:104D1000B0E0EDE8F6E20C94122C69837A838B8381
:104D20009C832D833E834F835887F9E0EF2EF12C2F
:104D3000EC0EFD1ECE010196B7010E94D92A8E010C
:104D40000F5E1F4FCE010596B8010E94D92AC701F8
:104D5000B801AE01475E5F4F0E940A250E94042AF7
:104D6000A096E6E00C942E2CA0E2B0E0EAEBF6E28E
:104D70000C94062C69837A838B839C832D833E83DA
:104D80004F835887CE010196BE01675F7F4F0E9417
:104D9000D92ACE010596BE016F5E7F4F0E94D92AA7
:104DA0009985923088F089898230C8F0943019F45E
:104DB000823051F404C0843029F4923081F489E3C4
:104DC00093E0C6C0923049F420E09A858A8998130E
:104DD00021E02A87CE010996BBC0823049F420E049
:104DE0009A858A89981321E02A8BCE014196B0C01A
:104DF0002D843E844F8458886D887E888F88988C57
:104E0000EE24FF248701AA24BB24650140E050E082
:104E100060E070E0E0E0F0E0C10181709070892B0B
:104E2000E9F0E60CF71C081D191D9A01AB012A0DCB
:104E30003B1D4C1D5D1D80E090E0A0E0B0E0E6145D
:104E4000F7040805190520F481E090E0A0E0B0E047
:104E5000BA01A901480F591F6A1F7B1FAA0CBB1C6E
:104E6000CC1CDD1C97FE08C081E090E0A0E0B0E023
:104E7000A82AB92ACA2ADB2A3196E032F10549F07C
:104E8000660C771C881C991C569447943794279479
:104E9000C3CFFA85EA892B893C898B859C85280FAD
:104EA000391F2E5F3F4F17C0CA0181709070892B48
:104EB00061F016950795F794E79480E090E0A0E004
:104EC000B0E8E82AF92A0A2B1B2B769567955795A7
:104ED00047952F5F3F4F77FDE7CF0CC0440F551F1D
:104EE000661F771F17FD4160EE0CFF1C001F111F8E
:104EF00021503040403090E0590790E0690790E43D
:104F0000790760F32B8F3C8FDB01CA018F7790709C
:104F1000A070B07080349105A105B10561F447FD22
:104F20000AC0E114F1040105110529F0405C5F4F4E
:104F30006F4F7F4F40781A8EFE1711F081E08A8FF5
:104F40004D8F5E8F6F8F78A383E0898FCE01499656
:104F50000E94042AA096E2E10C94222CA8E1B0E081
:104F6000E4EBF7E20C940E2C69837A838B839C83A9
:104F70002D833E834F835887B9E0EB2EF12CEC0E46
:104F8000FD1ECE010196B7010E94D92A8E010F5E47
:104F90001F4FCE010596B8010E94D92A29852230DB
:104FA00008F47EC03989323010F4B8017CC08A859B
:104FB0009A8989278A87243011F0223031F4231707
:104FC00009F06EC069E373E06EC0343039F41D86B9
:104FD0001E861F86188A1C861B8604C0323021F468
:104FE00084E08987B7015FC02B853C858B899C89CC
:104FF000281B390B3C872B87ED84FE840F8518898D
:10500000AD88BE88CF88D88CEA14FB040C051D053A
:1050100040F4EE0CFF1C001F111F215030403C8754
:105020002B8720E030E040E050E080E090E0A0E01E
:10503000B0E460E070E0EA14FB040C051D0540F0EC
:10504000282B392B4A2B5B2BEA18FB080C091D096E
:10505000B695A79597958795EE0CFF1C001F111F1D
:105060006F5F7F4F6F31710531F7DA01C9018F77BB
:105070009070A070B07080349105A105B10561F405
:1050800027FD0AC0E114F1040105110529F0205C97
:105090003F4F4F4F5F4F20782D873E874F87588B6C
:1050A000BE01675F7F4FCB010E94042A6896EAE049
:1050B0000C942A2CA8E1B0E0E0E6F8E20C94122C63
:1050C00069837A838B839C832D833E834F835887A8
:1050D00089E0E82EF12CEC0EFD1ECE010196B70101
:1050E0000E94D92A8E010F5E1F4FCE010596B8018E
:1050F0000E94D92A8985823040F08989823028F03F
:10510000C701B8010E94512B01C08FEF6896E6E0FD
:105110000C942E2CA8E0B0E0E0E9F8E20C940F2CFF
:105120009B01AC0183E08983DA01C9018827B7FDBF
:1051300083959927AA27BB27B82E2115310541054C
:10514000510519F482E089833AC08823A9F0203000
:1051500080E0380780E0480780E8580729F460E0DD
:1051600070E080E09FEC30C0EE24FF248701E21A5B
:10517000F30A040B150B02C079018A018EE1C82ED7
:10518000D12CDC82CB82ED82FE820F831887C8018E
:10519000B7010E94B52901971816190684F4082E44
:1051A00004C0EE0CFF1C001F111F0A94D2F7ED8201
:1051B000FE820F831887C81AD90ADC82CB82BA8292
:1051C000CE0101960E94042A2896E9E00C942B2C2B
:1051D000ACE0B0E0EEEEF8E20C94162C69837A8332
:1051E0008B839C83CE010196BE016B5F7F4F0E9433
:1051F000D92A8D81823061F1823050F1843021F4DE
:105200008E81882351F12EC02F81388537FD20C033
:105210006E812F3131051CF06623F9F023C08EE139
:1052200090E0821B930B29853A854B855C8504C0F1
:1052300056954795379527958A95D2F76623B1F00D
:1052400050954095309521953F4F4F4F5F4F0EC081
:1052500020E030E040E050E009C02FEF3FEF4FEF9B
:105260005FE704C020E030E040E050E8B901CA0147
:105270002C96E2E00C94322CA8E0B0E0E2E4F9E2F3
:105280000C940E2C7B018C01611571058105910533
:1052900019F482E0898360C083E089838EE1C82E9F
:1052A000D12CDC82CB82ED82FE820F831887C8016D
:1052B000B7010E94B529FC013197F7FF3BC02227B7
:1052C00033272E1B3F0B57016801022E04C0D694D2
:1052D000C794B794A7940A94D2F740E050E060E0F6
:1052E00070E081E090E0A0E0B0E004C0880F991F7A
:1052F000AA1FBB1F2A95D2F70197A109B1098E21D8
:105300009F21A023B1230097A105B10521F041E021
:1053100050E060E070E04A295B296C297D294D83CB
:105320005E836F8378878EE190E08E1B9F0B9C835A
:105330008B8312C0309781F00E2E04C0EE0CFF1C40
:10534000001F111F0A94D2F7ED82FE820F83188787
:10535000CE1ADF0ADC82CB821A82CE0101960E942D
:10536000042A2896EAE00C942A2CEF92FF920F93DD
:105370001F937B018C0180E0E81680E0F80681E055
:10538000080780E0180788F48FEFE816F10401059C
:10539000110531F028F088E090E0A0E0B0E017C0FF
:1053A00080E090E0A0E0B0E012C080E0E81680E08D
:1053B000F80680E0080781E0180728F088E190E00F
:1053C000A0E0B0E004C080E190E0A0E0B0E020E226
:1053D00030E040E050E0281B390B4A0B5B0B04C067
:1053E00016950795F794E7948A95D2F7F701EF5B46
:1053F000FC4F8081281B310941095109C9011F91C6
:105400000F91FF90EF900895DF92EF92FF920F932C
:105410001F93FC01E480F58006811781D180808193
:10542000823048F480E090E0A0E1B0E0E82AF92A78
:105430000A2B1B2BA5C0843009F49FC0823021F4B5
:10544000EE24FF24870105C0E114F10401051105D4
:1054500019F4E0E0F0E096C0628173819FEF62385A
:1054600079070CF05BC022E83FEF261B370B2A318F
:1054700031052CF020E030E040E050E02AC0B801D7
:10548000A701022E04C076956795579547950A9413
:10549000D2F781E090E0A0E0B0E004C0880F991F4F
:1054A000AA1FBB1F2A95D2F70197A109B1098E2126
:1054B0009F21A023B1230097A105B10521F081E030
:1054C00090E0A0E0B0E09A01AB01282B392B4A2BE9
:1054D0005B2BDA01C9018F779070A070B0708034B7
:1054E0009105A105B10539F427FF09C0205C3F4FA4
:1054F0004F4F5F4F04C0215C3F4F4F4F5F4FE0E085
:10550000F0E02030A0E03A07A0E04A07A0E45A0704
:1055100010F0E1E0F0E079018A0127C06038710500
:1055200064F5FB01E158FF4FD801C7018F779070F8
:10553000A070B07080349105A105B10539F4E7FE83
:105540000DC080E490E0A0E0B0E004C08FE390E004
:10555000A0E0B0E0E80EF91E0A1F1B1F17FF05C0F0
:1055600016950795F794E794319687E01695079579
:10557000F794E7948A95D1F705C0EE24FF248701BC
:10558000EFEFF0E06E2F679566276795902F9F7776
:10559000D794DD24D7948E2F8695492F462B582FEC
:1055A0005D29B701CA011F910F91FF90EF90DF9025
:1055B0000895FC01DB01408151812281622F6F77C8
:1055C00070E0221F2227221F9381892F880F822BB0
:1055D000282F30E0991F9927991F11969C931197B6
:1055E00021153105A9F5411551056105710511F424
:1055F00082E037C082E89FEF13969C938E931297B8
:105600009A01AB0167E0220F331F441F551F6A95B3
:10561000D1F783E08C930DC0220F331F441F551F19
:1056200012968D919C911397019713969C938E934C
:105630001297203080E0380780E0480780E4580760
:1056400058F314962D933D934D935C9317970895BB
:105650002F3F310579F4411551056105710519F4A4
:1056600084E08C93089564FF03C081E08C9312C0A2
:105670001C9210C02F57304013963C932E931297D4
:1056800083E08C9387E0440F551F661F771F8A9530
:10569000D1F7706414964D935D936D937C93179737
:1056A00008951F93DC01FB019C91923008F447C0E0
:1056B0008081823008F443C0943051F411961C91DB
:1056C000843099F58181682F70E0611B71093FC0BA
:1056D000843021F0923031F48230B9F18181882315
:1056E00089F12DC011961C9111978230F1F08181C2
:1056F0001817D9F412962D913C91139782819381BA
:105700008217930794F028173907BCF014968D91EF
:105710009D910D90BC91A02D2481358146815781AA
:10572000281739074A075B0718F4112341F00AC00C
:1057300082179307A407B50740F4112319F061E01D
:1057400070E005C06FEF7FEF02C060E070E0CB015A
:105750001F910895629FD001739FF001829FE00D19
:10576000F11D649FE00DF11D929FF00D839FF00DE0
:10577000749FF00D659FF00D9927729FB00DE11D8C
:10578000F91F639FB00DE11DF91FBD01CF01112469
:105790000895A1E21A2EAA1BBB1BFD010DC0AA1F72
:1057A000BB1FEE1FFF1FA217B307E407F50720F08A
:1057B000A21BB30BE40BF50B661F771F881F991F05
:1057C0001A9469F760957095809590959B01AC014E
:1057D000BD01CF01089597FB092E05260ED057FD78
:1057E00004D0D7DF0AD0001C38F45095409530958E
:1057F00021953F4F4F4F5F4F0895F6F79095809555
:10580000709561957F4F8F4F9F4F08952F923F92D4
:105810004F925F926F927F928F929F92AF92BF92C0
:10582000CF92DF92EF92FF920F931F93CF93DF936C
:10583000CDB7DEB7CA1BDB0B0FB6F894DEBF0FBEC9
:10584000CDBF19942A88398848885F846E847D8406
:105850008C849B84AA84B984C884DF80EE80FD8018
:105860000C811B81AA81B981CE0FD11D0FB6F8948E
:10587000DEBF0FBECDBFED010895FB01DC0102C00C
:1058800001900D9241505040D8F70895DC0101C0BD
:105890006D9341505040E0F70895FB01DC01415009
:1058A000504048F001900D920020C9F701C01D92B0
:1058B00041505040E0F70895FA01CF93FF93EF93E2
:1058C0002230CCF02532BCF4C22F2C2F33274427B2
:1058D0005527FF93EF930E94C92BEF91FF91605DD5
:1058E0006A330CF0695D6193B901CA016050704080
:1058F0008040904051F710828F919F91CF910C94EE
:10590000972CFB019F01423074F0453264F4642F00
:1059100077270E94A72C805D8A330CF0895D8193E4
:10592000CB010097A1F71082C9010C94972CDC01E0
:10593000FC01672F71917723E1F7329704C07C91C6
:105940006D9370836291AE17BF07C8F30895AA1BC9
:10595000BB1B51E107C0AA1FBB1FA617B70710F05A
:10596000A61BB70B881F991F5A95A9F7809590958C
:0A597000BC01CD010895F894FFCFAB
:10597A005072696E7400536572766F5F506F730070
:10598A004D6F746F725F56656C00456E636F646528
:10599A00725F726561640050696E675F466C616729
:1059AA000044726976655F53746174650055736566
:1059BA0072496E74005374656572696E67004D6F43
:1059CA00746F7200524600436172436F6E74726F55
:1059DA006C007368617265090000000000850300AD
:1059EA00000000C6032F000D000000000038051B50
:1059FA0017416C6C20796F75722072656164696EEB
:105A0A006773206172652062656C6F6E6720746FC0
:105A1A0020757300412F4420636F6E73747275632F
:105A2A00746F72204F4B000000000043081B1700E0
:105A3A00000000F4081B17000000007A091B170079
:105A4A00000000E00A1B1700000000C00B1B1737FC
:105A5A001749444C4500FFFFFFFF00000000E8190A
:105A6A0000000000E8191B177478745F71090000C0
:105A7A000000000F1AC817C0179F17151A161AE543
:105A8A0017FAFF0000E117030A000000000F1AE8E6
:105A9A0019131A111A151A161A000000000F1ACF34
:105AAA001B3F1CF91B151A601C00000000000000B7
:105ABA0000000102020303030304040404040404AF
:105ACA00040505050505050505050505050505057D
