:100000000C9423020C9444020C9444020C94440279
:100010000C9444020C9444020C9444020C94440248
:100020000C9444020C9444020C9444020C94440238
:100030000C9444020C9444020C9444020C94440228
:100040000C9444020C9444020C9444020C94440218
:100050000C9444020C9444020C9444020C94440208
:100060000C9444020C940B180C9444020C9444021B
:100070000C9444020C9444020C9444020C944402E8
:100080000C9444020C9444020C9444020C944402D8
:100090000C9459180C9444020C9444020C9444029D
:1000A0000C9444020C9444020C9444020C944402B8
:1000B0000C9444020C9444020C9444020C94DA1AFA
:1000C0000C9444020C9444020C9444024D45343088
:1000D00035204C61622031205374617274696E67FF
:1000E0002050726F6772616D002C204F4352354172
:1000F0003A20002C20486561703A200053797374CF
:10010000656D2074696D653A200044656320203177
:100110002032303138004D45353037205465726D0E
:100120002050726F6A656374205374656572696EDE
:10013000672056302E3031002020683A20202020C1
:100140002048414C502100202043746C2D433A201C
:1001500052657365742074686520415652002020F2
:100160006E3A2020202020456E7465722061206E3A
:10017000756D626572202864656D6F2900202064AA
:100180003A2020202020537461636B2064756D70C9
:1001900020666F72207461736B73002020733A20A5
:1001A0002020202056657273696F6E20616E642076
:1001B000736574757020696E666F726D6174696FB6
:1001C0006E002020743A202020202053686F772072
:1001D0007468652074696D65207269676874206E43
:1001E0006F77002068656C70004D453530372054BE
:1001F00065726D2050726F6A656374205374656513
:1002000072696E672056302E303100496C6C65671C
:10021000616C207374617465212052657365747418
:10022000696E672041565200223E003C696E76613D
:100230006C696420636861722022004E756D62658E
:100240007220656E74657265643A2000223A205708
:1002500054463F00526573657474696E6720415659
:100260005200456E74657220646563696D616C202F
:100270006E756D65726963206469676974732C209B
:100280007468656E2052455455524E206F72204559
:10029000534300507265737320276827206F7220C4
:1002A000273F2720666F722068656C700054686570
:1002B00020412F4420636F6E766572746572203C16
:1002C0003C206F70657261746F72206E6F7420775E
:1002D0006F726B696E672E2041206E756D6265725C
:1002E0002069733A2000496C6C6567616C207374F7
:1002F0006174652120526573657474696E6720416D
:10030000565200496C6C6567616C2073746174654A
:100310002120526573657474696E672041565200DE
:100320004E6F207368617265642064617461206936
:1003300074656D7320746F207072696E74002D2D5A
:100340002D2D2020202020202020202020202D2D79
:100350002D2D202020202D2D2D2D2D2D2D2D2D2D01
:100360000053686172652F517565756520202020E6
:10037000205479706520202020467265652F546FC7
:1003800074616C004552524F52206372656174690A
:100390006E67207461736B20220022206372656196
:1003A0007465642C20737461636B206174203078F1
:1003B000005461736B2022005461736B3A20005427
:1003C00061736B3A2049444C450009092D002F0008
:1003D00049444C45090930092D0900092D2D2D2DC1
:1003E00000092D2D2D2D2D2D2D2D2D2D002D2D2DBB
:1003F0002D09092D2D2D2D092D2D2D2D2D000952C5
:10040000756E730009467265652F546F74616C00D8
:100410004E616D6509095072692E095374617465E6
:100420000009537461636B005461736B09092020E8
:10043000092000090009002F000900090020200000
:100440000E945710089511241FBECFEFD1E2DEBFE6
:10045000CDBF00E00CBF13E0A0E0B2E0EAEBF0E5B6
:1004600000E00BBF02C007900D92A23DB107D9F783
:100470001BE1A2EDB3E001C01D92A838B107E1F77E
:100480000E9446020C945B280C940000AF92BF922D
:10049000CF92DF92EF92FF920F931F9314BE88E1E9
:1004A0000FB6F89480936000109260000FBE80E158
:1004B00090E00E949615B82EA92E60E875E241E002
:1004C0000E94A7188B2D9A2D67E00E9405166BE0FD
:1004D0000E9405168C016CEC70E00E94C115C801E9
:1004E00066E00E94051688E190E00E949615D82EDD
:1004F000C92E60E270E040E052E02B2D3A2DEAE098
:10050000EE2EF12C012D112D0E94EC13D092D2036E
:10051000C092D30382E190E00E94961566E072E0FB
:1005200041E024E031E00B2D1A2D0E94980582E174
:1005300090E00E9496156EE072E044E028EE33E011
:100540000E94D10682E190E00E94961567E172E078
:1005500044E028EC30E00E9462070E943E0F81E0F8
:1005600090E01F910F91FF90EF90DF90CF90BF90A0
:10057000AF900895EF92FF920F931F93DF93CF9365
:1005800000D000D0CDB7DEB77C0119821A821B8261
:100590001C821E821D82FC018681978166E00E947A
:1005A00005166BE00E9405168C0166E171E00E9461
:1005B000C115C8016BE00E9405168C016AE071E06C
:1005C0000E94C115C80166E00E9405166BE00E94FA
:1005D00005168C016CEF70E00E94C115CE010196EA
:1005E0000E94E014BC01C8010E9466146BE00E94E6
:1005F00005168C0163EF70E00E94C1150E94880708
:10060000BC01C8010E9458168C016DE172E00E9485
:10061000C115C80148E357E160E070E00E949316FD
:100620006BE00E9405168C0169EE70E00E94C11516
:100630006091280170912901C8010E94581666E056
:100640000E94051666E00E940516F70186819781D3
:100650000E942B12F7018681978166E00E940516A1
:10066000F701868197810E94770F26960FB6F8943E
:10067000DEBF0FBECDBFCF91DF911F910F91FF90D5
:10068000EF900895EF92FF920F931F937C01FC016E
:10069000868197816BE00E9405168C0169EE71E0FE
:1006A0000E94C115C8016BE00E9405168C0163EE23
:1006B00071E00E94C115C80166E00E940516F701AD
:1006C000868197816BE00E9405168C0162EC71E0D7
:1006D0000E94C115C80166E00E940516F7018681D7
:1006E00097816BE00E9405168C016BE971E00E9416
:1006F000C115C80166E00E940516F7018681978141
:100700006BE00E9405168C016DE771E00E94C11537
:10071000C80166E00E940516F701868197816BE0AB
:100720000E9405168C016EE571E00E94C115C8019A
:1007300066E00E940516F701868197816BE00E94B2
:1007400005168C0167E471E00E94C115C80166E0DE
:100750000E940516F701868197816BE00E940516BD
:100760008C0168E371E00E94C115C80166E00E9437
:1007700005161F910F91FF90EF9008954F925F9291
:100780006F927F928F929F92AF92BF92CF92DF92A1
:10079000EF92FF920F931F93DF93CF9300D000D07F
:1007A000CDB7DEB76C0119821A821B821C821E82B1
:1007B0001D82DC0116968D919C9117976BE00E942B
:1007C00005168C0163E972E00E94C115C80166E05C
:1007D0000E9405167C2C6D2C8824992454012E012E
:1007E0000894411C511CF6018485882321F5D6010B
:1007F0001696ED91FC911797A081B18114962D91D9
:100800003C911597CF01F9011995882309F0CFC0C4
:10081000F60186859785A089B1890196A11DB11D34
:1008200086879787A08BB18B61E070E080E090E0D5
:100830000E94960DD8CF8130D9F0F601868197813C
:100840006BE00E9405168C016BE072E00E94C115FE
:10085000C80166E00E9405162BE088E190E00FB623
:10086000F894A895809360000FBE20936000FFCF9E
:10087000D6011696ED91FC911797A081B18114963F
:100880002D913C911597CF01F9011995882309F411
:1008900065C0F601A681B781ED91FC9111970680A4
:1008A000F781E02DCD011995E82E80538A3090F123
:1008B000FAE0EF1629F1BDE0EB1621F0EBE1EE16C0
:1008C00009F0BCC0D60116968D919C91179766E0F1
:1008D0000E9405166BE00E9405168C016BE372E026
:1008E0000E94C115C801B501A4010E94931666E0DB
:1008F0000E940516872D962D60E00E942E1088CF4D
:10090000D60116968D919C9117976FE172E00E9427
:10091000C1157ECFF601A681B781ED91FC911197AB
:100920000280F381E02DCD016E2D1995C501B40132
:100930002AE030E040E050E00E944A272E2D332785
:1009400027FD3095205330404901AA2497FCA094FC
:10095000BA2C860E971EA81EB91E5ACFE091D2035C
:10096000F091D303A081B18114962D913C911597FC
:10097000CF01F9011995882309F44ACFF6010681C0
:100980001781D801ED91FC91E280F380A091D20310
:10099000B091D303ED91FC9111970680F781E02D82
:1009A000CD011995682FC801F701199531CFD601EE
:1009B0001696ED91FC911797A081B18116962D9115
:1009C0003C911797CF01F9011995E82EB8E68B17DE
:1009D00009F496C0B8170CF46FC0EFE38E1709F452
:1009E0008FC0F4E68F1709F461C083E0E81609F4BC
:1009F00042C0D60116960D911C911797D801ED9122
:100A0000FC910280F381E02DC80162E21995D801C2
:100A1000ED91FC910280F381E02DC8016E2D1995B6
:100A2000C8016BE00E9405168C016CE472E00E9424
:100A3000C115C80166E00E940516EACEF60186815E
:100A400097816BE00E9405168C016BE272E00E94B8
:100A5000C115D801ED91FC910280F381E02DC80110
:100A60006E2D1995C8016BE00E94051668E272E0D0
:100A70000E94C115CDCEF601868197816BE00E9460
:100A800005168C0164E572E00E94C115C80166E09C
:100A90000E9405162BE088E190E00FB6F894A89527
:100AA000809360000FBE20936000FFCFF601868127
:100AB00097810E94D511ACCEA3E78A17A9F1B4E7BC
:100AC0008B1711F1EEE68E1709F093CFD60116962B
:100AD0008D919C9117976BE00E9405168C0162E640
:100AE00072E00E94C115C80166E00E940516872DBC
:100AF000962D61E00E942E1088249924540188CEFE
:100B0000C6010E94420384CED60116960D911C9117
:100B10001797C2010E94E014BC01C8010E9466142C
:100B200066E00E94051674CEC6010E94BA0270CE1D
:100B3000EF92FF920F931F937C010E94061185E2B2
:100B400092E0F701918380831F910F91FF90EF90C6
:100B50000895EF92FF920F931F937C010E9406115C
:100B600085E292E0F701918380831F910F91FF90BE
:100B7000EF90089580917C00887F80937C00809125
:100B80007C006770862B80937C0080917A00806463
:100B900080937A0080917A0086FDFCCF8091780066
:100BA000909179000895CF93DF93FC01C081D181AA
:100BB000209749F0CE0169E272E00E94C115CE0192
:100BC00066E00E9405168FEF9FEFDF91CF910895A9
:100BD000CF92DF92EF92FF920F931F93D82EC92EE0
:100BE0007B016BE00E9405168C016DEA72E00E94A9
:100BF000C115C70160E044E00E94D305BC01C801F3
:100C00000E94581666E00E9405168D2D9C2D1F919E
:100C10000F91FF90EF90DF90CF900895CF93DF93E7
:100C2000FC01EB017183608380E880937A008091FE
:100C30007C00806480937C006115710549F0CB01D4
:100C40006CE472E00E94C115CE0166E00E940516B8
:100C5000DF91CF910895CF93DF93FC01EB01718376
:100C6000608380E880937A0080917C008064809328
:100C70007C006115710549F0CB016CE472E00E94C3
:100C8000C115CE0166E00E940516DF91CF9108954F
:100C90006B350CF06AE5663A0CF466EA772767FD77
:100CA0007095872F972F0E942A242DE232EB4DE971
:100CB0005DE30E94542220E030E040EC51E40E94C9
:100CC00027220E947E20DC01CB010895DF92EF9263
:100CD000FF920F931F93CF93DF93EC0100E0FF246B
:100CE000F39410E088E1E82EDD24D3948C858823EA
:100CF00011F5259A80918000816880938000809111
:100D000081008D608093810010928900E0928800BC
:100D1000DC868E859F85A889B9890196A11DB11DA4
:100D20008E879F87A88BB98B61E070E080E090E0B0
:100D30000E94960DDBCF8130D1F08E819F816BE0D8
:100D40000E9405168C0166EE72E00E94C115C80172
:100D500066E00E9405162BE088E190E00FB6F8945B
:100D6000A895809360000FBE20936000FFCFCE0156
:100D7000602F0E944806809388000B3544F4063AA1
:100D800014F4FF24F394193121F01F5FC2CFFF2424
:100D9000FACFFF2019F00F5F11E0BBCF015011E037
:100DA000B8CFEF92FF920F931F937C0100E010E009
:100DB0000E94061183E692E0F701918380831F91E0
:100DC0000F91FF90EF900895EF92FF920F931F9372
:100DD0007C0100E010E00E94061183E692E0F7013A
:100DE000918380831F910F91FF90EF9008956B3551
:100DF0000CF06AE5663A0CF466EA772767FD7095B1
:100E0000872F972F0E942A242CE032E04BE25EE3EA
:100E10000E94542220E030E040EC51E40E9427225E
:100E20000E947E20DC01CB0108950F931F93CF9386
:100E3000DF93EC0108E111E08C85882301F5249A09
:100E40008091B00083688093B0008091B10087608A
:100E50008093B1000093B3001C878E859F85A8897D
:100E6000B9890196A11DB11D8E879F87A88BB98B6B
:100E700061E070E080E090E00E94960DDDCF81306F
:100E8000D1F08E819F816BE00E9405168C0163E09A
:100E900073E00E94C115C80166E00E9405162BE0B0
:100EA00088E190E00FB6F894A895809360000FBE9B
:100EB00020936000FFCFCE0160E00E94F706809390
:100EC000B300CBCFEF92FF920F931F937C0100E012
:100ED00010E00E9406118BE692E0F7019183808377
:100EE0001F910F91FF90EF900895EF92FF920F9353
:100EF0001F937C0100E010E00E9406118BE692E057
:100F0000F701918380831F910F91FF90EF900895D7
:100F100080916F029091700208950895CF93DF93AE
:100F2000009739F1EC0124970E9463084A815B81A4
:100F3000ADE0BBE12C9111963C911197BD01C90127
:100F4000DC0112968D919C9113978417950790F36D
:100F5000FB01B983A883D183C08380916F029091F4
:100F60007002840F951F9093700280936F020E940D
:100F7000980CDF91CF910895EF92FF920F931F93FA
:100F8000CF93DF93EC010E9463088091D403882300
:100F900009F586ED93E090930E1B80930D1B109244
:100FA000101B10920F1B87E397E19093141B809303
:100FB000131B1092121B1092111B9093D903809354
:100FC000D80381E19BE19093D7038093D60381E01E
:100FD0008093D403209739F0AE014C5F5F4F239686
:100FE000C653D74160F0C0E0D0E00E94980CCE011B
:100FF000DF91CF911F910F91FF90EF900895C091D5
:101000000D1BD0910E1BEDE0FBE107C0888199819B
:10101000BE01009739F0EC01FB012A813B812417C6
:101020003507A0F38BE1C131D807E9F2E080F18008
:101030008881998191838083C901841B950B8930B4
:10104000910510F18E01040F151FF801938382831F
:101050005B834A8342815381ADE0BBE12C911196C1
:101060003C911197BD01C901DC0112968D919C91B3
:1010700013978417950790F3F801B183A083FB01C0
:10108000118300832A813B81E701249680916F02BE
:1010900090917002821B930B9093700280936F0269
:1010A000A4CF0FB6F8940F92009729F0FC010F908F
:1010B0000FBE828D0895E091151BF091161B0F90C5
:1010C0000FBE828D089580911E1B8F5F80931E1B23
:1010D00008950FB6F8940F922091191B30911A1BA6
:1010E00040911B1B50911C1B0F900FBEB901CA01F0
:1010F00008952091191B30911A1B40911B1B509190
:101100001C1BB901CA0108958091221B0895009704
:1011100029F09C01235E3F4FC90108958091151B62
:101120009091161B9C01235E3F4FC9010895809149
:10113000201B9091211B089580911E1B8823E9F5A7
:101140001092181B05C08091171B81508093171BAC
:101150008091171B90E0FC01EE0FFF1F9C01220FF6
:10116000331F220F331F220F331FE20FF31FE80F2D
:10117000F91FEB5DF44E8081882329F39091171BB2
:101180008BE0989FD0011124AB5DB44E1196ED9188
:10119000FC9112970480F581E02D1296FC93EE935A
:1011A0001197CD010396E817F90759F080859185CD
:1011B0009093161B8093151B089581E08093181B54
:1011C00008958481958111968C93119712969C9322
:1011D0009C01F901EBCFFC0180911D1B8083809164
:1011E000191B90911A1BA0911B1BB0911C1B818392
:1011F0009283A383B4830895AF92BF92CF92DF927C
:10120000EF92FF920F931F93CF93DF93FC01EB01BB
:101210000FB6F8940F92A090191BB0901A1BC090B3
:101220001B1BD0901C1B90911D1B8081891709F4FA
:1012300043C0E180F28003811481AE14BF04C00674
:10124000D10660F5288139814A815B81D601C501CB
:101250008E199F09A00BB10B82179307A407B5073E
:10126000E8F42A193B094C095D092E0D3F1D401F6A
:10127000511F288339834A835B8380911D1B8083A0
:101280008091191B90911A1BA0911B1BB0911C1BE4
:1012900081839283A383B48380E001C081E00F90B7
:1012A0000FBEDF91CF911F910F91FF90EF90DF90D4
:1012B000CF90BF90AF900895E180F28003811481B8
:1012C000C1CF81E08093181B08950097B1F0FC0115
:1012D000A38DB48D8C91853AA9F420E030E040E0F4
:1012E00050E02F5F3F4F4F4F5F4FFD01E20FF31F65
:1012F0008081853AB1F3822F0895E091151BF0911A
:10130000161BE6CF80E008952091151B3091161B27
:10131000C9010895E091151BF091161B668577852C
:1013200080899189A091151BB091161BE091151B26
:10133000F091161BE28D24E030E040E050E02E1BDF
:101340003109410951091E962D933D934D935C93AC
:10135000519708958091151B9091161B892B39F098
:10136000E091151BF091161B80A58F5F80A720913F
:10137000151B3091161BC90108950F931F93CF932E
:10138000DF93EC01009749F028A5215028A79A8DFA
:101390008FA1981711F0222331F080E0DF91CF91D7
:1013A0001F910F9108958E010E5F1F4FC8010E947B
:1013B000BB192FA12A8F84E090E0A0E0B0E0821B4F
:1013C0009109A109B1098E879F87A88BB98B80915C
:1013D000171B821710F42093171B8BE0289FC00166
:1013E00011248B5D944EB8010E945B1981E0DF915E
:1013F000CF911F910F9108950F931F93CF93DF9378
:10140000EC01009781F13A8DE091151BF091161BCC
:10141000828D381740F58E859F85A889B989B7FDDB
:1014200011C0E091151BF091161B228D84E090E015
:10143000A0E0B0E0821B9109A109B1098E879F87C6
:10144000A88BB98B8BE0389FC00111248B5D944E23
:101450002C853D852817390759F0E091151BF0912F
:10146000161B828D8A8FDF91CF911F910F91089566
:101470008E010E5F1F4FC8010E94BB19E091151B22
:10148000F091161B928D9A8F8091171B891710F47B
:101490009093171B8BE0989FC00111248B5D944E95
:1014A000B8010E945B19DFCF0F931F93CF93DF9397
:1014B000FC0170684083518362837383C085D1854A
:1014C0000E94BB198E010E5F1F4FC8010E94BB19FD
:1014D0009A8D8091171B891710F49093171B8BE03E
:1014E000989FC00111248B5D944EB8010E945B1936
:1014F000E091151BF091161B9A8D828D891740F48F
:1015000081E08093181BDF91CF911F910F91089577
:1015100080E0DF91CF911F910F9108950F931F935A
:10152000CF93DF93DC011796ED91FC91189700851E
:101530001185E8012E96CE010E94BB1980911E1BD9
:10154000882331F5E8012296CE010E94BB19F801EB
:10155000928D8091171B891708F18BE0989FC0012D
:1015600011248B5D944EBE010E945B19E091151B06
:10157000F091161BD8015A969C91828D891788F498
:1015800081E08093181BDF91CF911F910F910895F7
:101590008BE69BE1BE010E945B19E8CF9093171B7D
:1015A000DCCF80E0DF91CF911F910F910895AF9232
:1015B000BF92CF92DF92EF92FF920F931F93CF9340
:1015C000DF9380911E1B882309F0B2C08091191B04
:1015D00090911A1BA0911B1BB0911C1B0196A11D81
:1015E000B11D8093191B90931A1BA0931B1BB093E2
:1015F0001C1BC090191BD0901A1BE0901B1BF09075
:101600001C1BC114D104E104F10449F52091671BAE
:101610003091681B8091691B90916A1B9093681BA5
:101620008093671B30936A1B2093691B80911D1B5D
:101630008F5F80931D1BE091671BF091681B808179
:10164000882309F0AAC08FEF9FEFAFEFBFEF809321
:10165000760290937702A0937802B09379028091FA
:10166000760290917702A0917802B0917902C81623
:10167000D906EA06FB0608F473C0BB24EBE0AE2EE5
:10168000E091671BF091681B8081882309F443C0B7
:10169000E091671BF091681B0780F085E02DC08505
:1016A000D1858A819B81AC81BD81C816D906EA06A5
:1016B000FB0608F489C08E010E5F1F4FC8010E940F
:1016C000BB19888D998D892B21F0CE010E960E9431
:1016D000BB199A8D8091171B891710F49093171BD3
:1016E0009A9DC00111248B5D944EB8010E945B1934
:1016F000E091151BF091161B9A8D828D981708F4B6
:10170000BFCFBB24B394E091671BF091681B80812D
:10171000882309F0BDCF8FEF9FEFAFEFBFEF80932E
:10172000760290937702A0937802B093790219C061
:1017300080911F1B8F5F80931F1BBB248091181B00
:10174000882311F0BB24B3948B2DDF91CF911F918F
:101750000F91FF90EF90DF90CF90BF90AF900895E2
:10176000BB24E091151BF091161B828D90E0FC01CB
:10177000EE0FFF1F9C01220F331F220F331F220F7A
:10178000331FE20FF31FE80FF91FEB5DF44E80816A
:101790008230A0F2BB24B394D1CFE091671BF091CB
:1017A000681B0780F085E02D0084F185E02D8281A3
:1017B0009381A481B5818093760290937702A09360
:1017C0007802B09379024BCF8093760290937702A0
:1017D000A0937802B0937902C4CFEF92FF920F9357
:1017E0001F937B018C01E091151BF091161B628306
:1017F0007383848395838091191B90911A1BA09108
:101800001B1BB0911C1BE816F9060A071B0730F1D9
:101810008091671B9091681B6091151B7091161B3E
:101820006E5F7F4F0E947A198091760290917702C5
:10183000A0917802B0917902E816F9060A071B0711
:1018400040F4E0927602F0927702009378021093CF
:1018500079021F910F91FF90EF9008958091691B7D
:1018600090916A1B6091151B7091161B6E5F7F4FE4
:101870000E947A191F910F91FF90EF900895EF92B7
:10188000FF920F931F9378018901E091151BF0914E
:10189000161B706846875787608B718B6091151B8C
:1018A0007091161B625F7F4F0E945B198091151B20
:1018B0009091161B02960E94BB196091191B7091A2
:1018C0001A1B80911B1B90911C1B6E0D7F1D801F8E
:1018D000911F0E94ED0B1F910F91FF90EF900895C3
:1018E000EF92FF920F931F937A018B016091151B6A
:1018F0007091161B625F7F4F0E947A198091151BB1
:101900009091161B02960E94BB196091191B709151
:101910001A1B80911B1B90911C1B6E0D7F1D801F3D
:10192000911F0E94ED0B1F910F91FF90EF90089572
:10193000EF92FF920F931F93CF93DF930FB6F8941C
:101940000F9280911E1B815080931E1B80911E1B45
:10195000882309F056C08091221B882309F451C0C6
:10196000FBE0FF2EEE24E39480916B1B882369F14A
:10197000E091721BF091731BC085D185CE010E964C
:101980000E94BB198E010E5F1F4FC8010E94BB1938
:101990009A8D8091171B891710F49093171B9F9DA8
:1019A000C00111248B5D944EB8010E945B19E09137
:1019B000151BF091161B9A8D828D9817A8F2E09254
:1019C000181B80916B1B882399F680911F1B88231D
:1019D000A1F080911F1B882381F011E00E94D70A9B
:1019E000882311F01093181B80911F1B8150809346
:1019F0001F1B80911F1B882389F78091181B813042
:101A000051F080E00F900FBEDF91CF911F910F91A9
:101A1000FF90EF9008950E94DD1A81E0F3CF80914E
:101A2000251B823018F00E94DD1AF9CFFFCFEF920C
:101A3000FF921F93CF93DF93643008F063E00FB6FB
:101A4000F8940F92009709F451C0EC012FA12617CA
:101A500069F1261798F18091151B9091161B10E0E3
:101A6000C817D907D1F13A8D2317D9F16FA38E8505
:101A70009F85A889B989B7FD0CC084E090E0A0E0FB
:101A8000B0E0861B9109A109B1098E879F87A88BB9
:101A9000B98B8BE0389FC00111248B5D944E2C854F
:101AA0003D852817390749F11130E9F00F900FBE35
:101AB000DF91CF911F91FF90EF9008958091151BBA
:101AC0009091161BC817D907B1F0E091151BF09142
:101AD000161B10E0828D681730F211E03A8D231743
:101AE00029F66A8FC3CF0E94DD1AE0CFC091151B83
:101AF000D091161BABCF10E0B6CFA2E0EA2EF12CAE
:101B0000EC0EFD1EC7010E94BB199A8D8091171B18
:101B1000891710F49093171B8BE0989FC001112434
:101B20008B5D944EB7010E945B19BECFAF92BF92FE
:101B3000CF92DF92EF92FF920F931F935B016C01A4
:101B4000611571058105910559F40E94DD1A1F91F7
:101B50000F91FF90EF90DF90CF90BF90AF900895DE
:101B600080911E1B8F5F80931E1BE090191BF090CD
:101B70001A1B00911B1B10911C1B8091151B90912F
:101B8000161B02960E94BB19EA0CFB1C0C1D1D1DA6
:101B9000C801B7010E94ED0B0E94980C8823B9F68A
:101BA000D4CFEF92FF920F931F93FC017A018B0128
:101BB00080911E1B8F5F80931E1B2091191B3091FB
:101BC0001A1B40911B1B50911C1B80819181A2818B
:101BD000B381E80EF91E0A1F1B1F281739074A0791
:101BE0005B0720F5E816F9060A071B0748F52E15CE
:101BF0003F054007510720F5E082F18202831383FD
:101C00008091151B9091161B02960E94BB19C8016A
:101C1000B7010E94ED0B0E94980C882311F40E94DA
:101C2000DD1A1F910F91FF90EF900895E816F906C5
:101C30000A071B0708F32E153F0540075107E0F27E
:101C4000E082F18202831383E6CFF8941092231B83
:101C50000E94741A08952F923F924F925F926F9252
:101C60007F928F929F92AF92BF92CF92DF92EF922C
:101C7000FF920F931F93CF93DF932C01362E272EC5
:101C80005A013901102F470189E290E00E94BC07F8
:101C9000EC01009709F4BCC0C114D10409F4ACC034
:101CA000DC8ECB8EC60165EA70E0A5010E94E627B6
:101CB000EB8CFC8C832D922D9C01F901DE0190E0D0
:101CC00080815D968C935D978081882329F09F5F4A
:101CD000319611969A30A1F71EA2012F143008F008
:101CE00089C00A8F0FA318A682E0C82ED12CCC0E73
:101CF000DD1EC6010E945719CE010E960E9457198B
:101D0000DB87CA8784E090E0A0E0B0E0801B910907
:101D1000A109B1098E879F87A88BB98BDF8BCE8BEA
:101D20000894A108B108C7018A0D9B1DB201A30147
:101D30000E94E619998388838114910419F0F401B3
:101D4000D183C0830FB6F8940F928091221B8F5FCE
:101D50008093221B8091151B9091161B892B09F4EF
:101D600059C08091231B882359F4E091151BF091F1
:101D7000161B828D181720F0D093161BC093151BCD
:101D80008091241B8F5F8093241B9A8D8091171B59
:101D9000891710F49093171B8BE0989FC0011124B2
:101DA0008B5D944EB6010E945B190F900FBE80911F
:101DB000231B882359F0E091151BF091161B828D8F
:101DC000811720F40E94DD1A81E001C081E0DF91DB
:101DD000CF911F910F91FF90EF90DF90CF90BF9028
:101DE000AF909F908F907F906F905F904F903F90BB
:101DF0002F90089503E075CFC5010E94BC076C01C8
:101E00009C8F8B8F009709F04DCFCE010E948E07DB
:101E10008FEFDDCFD093161BC093151B8091221B33
:101E2000813009F0ADCF85E29BE10E94431980E348
:101E30009BE10E9443198BE39BE10E94431986E4D6
:101E40009BE10E94431901E5E02E0BE1F02EC70152
:101E50000E944319BCE5AB2EBBE1BB2EC5010E941D
:101E600043198BE69BE10E944319F092681BE092B4
:101E7000671BB0926A1BA092691B82CFAF92BF9280
:101E8000CF92DF92EF92FF920F938FE09DE061E798
:101E900072E044E650E020E030E000E0E0E2EE2EC8
:101EA000EBE1FE2ECC24DD24AA24BB240E942B0EC1
:101EB000813041F00F91FF90EF90DF90CF90BF9075
:101EC000AF900895F8948093231B1092191B1092E1
:101ED0001A1B10921B1B10921C1B0E94351A0F918B
:101EE000FF90EF90DF90CF90BF90AF9008950F9349
:101EF0001F93CF93DF93EC018091761B9091771B1A
:101F0000892B61F1CE016BE00E9405168C0161E620
:101F100073E00E94C115C80166E00E940516CE015B
:101F20006BE00E9405168C016EE373E00E94C11500
:101F3000C80166E00E940516A091761BB091771B40
:101F4000ED91FC9111970190F081E02DCD01BE0142
:101F50001995DF91CF911F910F910895CE016BE0FC
:101F60000E9405168C0160E273E00E94C115C80151
:101F700066E00E940516DF91CF911F910F910895A1
:101F8000FF920F931F93CF93DF93EC018B018EE7AA
:101F900092E09983888361157105B1F0FB0101908E
:101FA0000020E9F73197FE2EF61A8CE08F15E0F04D
:101FB0008F2D90E001960E9493158C839D83B8012C
:101FC0004F2D50E00E94ED278091761B9091771B5A
:101FD0009F838E83D093771BC093761BDF91CF9125
:101FE0001F910F91FF9008958CE0F82EE1CFFF92A2
:101FF0000F931F93CF93DF93EC018B018EE792E059
:102000009983888361157105B1F0FB01019000206F
:10201000E9F73197FE2EF61A8CE08F15E0F08F2D40
:1020200090E001960E9493158C839D83B8014F2DFB
:1020300050E00E94ED278091761B9091771B9F8343
:102040008E83D093771BC093761BDF91CF911F9126
:102050000F91FF9008959CE0F92EE1CFFC01648779
:10206000658708950E9469080E94DC2420E030E022
:102070004AE754E40E944E230895CF93DF93FC0176
:10208000C681D781209739F0CE010E94C115CE01BB
:1020900066E00E9405162BE088E190E00FB6F89408
:1020A000A895809360000FBE20936000FFCF0F9330
:1020B0001F938C01DC01ED91FC910190F081E02DEA
:1020C0001995F801138212826FEF7FEF8FEF9FEF68
:1020D0000E94960DF9CF4F925F926F927F928F92EE
:1020E0009F92AF92BF92CF92DF92EF92FF920F93A7
:1020F0001F93CF93DF93EC012B01A42F49013801EB
:10210000FC0184E892E08193919380E292E0A9013E
:102110009E010A2F7F01CC24DD24AA24BB240E9427
:102120002B0E282F7F826E82998688868091781B5D
:102130009091791B9D838C83D093791BC093781BDE
:102140001C861D868091861B9091871B019690931B
:10215000871B8093861B9B878A871E861F86188A0B
:10216000198A61147104E1F0213059F1C3016BE067
:102170000E9405168C0164E873E00E94C115C80135
:10218000B2010E94C115D801ED91FC910280F3814A
:10219000E02DC80162E21995C80166E00E940516AB
:1021A000DF91CF911F910F91FF90EF90DF90CF9033
:1021B000BF90AF909F908F907F906F905F904F9067
:1021C0000895C3016BE00E9405168C0161EB73E07A
:1021D0000E94C115C801B2010E94C115C8016BE07F
:1021E0000E9405168C016AE973E00E94C115C801BE
:1021F00063E00E9405166A857B850E94581662E09E
:102200000E94051666E00E940516CACF4F925F92A3
:102210006F927F928F929F92AF92BF92CF92DF92F6
:10222000EF92FF920F931F93CF93DF93EC012B015B
:10223000A42F49013801FC0184E892E08193919335
:1022400080E292E0A9019E010A2F7F01CC24DD24C7
:10225000AA24BB240E942B0E282F7F826E8299868F
:1022600088868091781B9091791B9D838C83D09375
:10227000791BC093781B1C861D868091861B9091CC
:10228000871B01969093871B8093861B9B878A8769
:102290001E861F86188A198A61147104E1F02130A4
:1022A00059F1C3016BE00E9405168C0164E873E0EC
:1022B0000E94C115C801B2010E94C115D801ED915B
:1022C000FC910280F381E02DC80162E21995C801FA
:1022D00066E00E940516DF91CF911F910F91FF904C
:1022E000EF90DF90CF90BF90AF909F908F907F90B6
:1022F0006F905F904F900895C3016BE00E940516A8
:102300008C0161EB73E00E94C115C801B2010E940B
:10231000C115C8016BE00E9405168C016AE973E0E3
:102320000E94C115C80163E00E9405166A857B857D
:102330000E94581662E00E94051666E00E9405168B
:10234000CACFEF92FF920F931F93CF93DF93EC01CD
:102350007B01C7016BE00E9405168C0168EB73E0FE
:102360000E94C1158A819B810E948708BC01C80117
:102370000E94C115C80166E00E9405166A857B852A
:10238000888599859B01281B390BC901A7010E94EB
:10239000FA140C80DD81C02D2097D9F6DF91CF9102
:1023A0001F910F91FF90EF9008950F931F93CF937C
:1023B000DF93EC018091781B9091791B009719F0C5
:1023C000BE010E94A111CE016BE00E9405168C0196
:1023D0006FEB73E00E94C115C80166E00E9405160C
:1023E0006091861B7091871BCB01835690406F5F75
:1023F0007F4FAE010E94FA14DF91CF911F910F9190
:1024000008950F931F93182F092FDB01ED91FC9175
:102410000280F381E02DCB01612F702F1995812F60
:10242000902F1F910F9108950F931F93CF93DF93D8
:10243000EC018B01C801BE010E94011266E00E94FE
:1024400005160C80DD81C02D2097A1F7DF91CF917B
:102450001F910F9108950F931F93CF93DF93EC017A
:102460006BE00E9405168C0168E274E00E94C115C1
:10247000C8016BE00E9405168C0161E274E00E94C5
:10248000C115C80166E00E940516CE016BE00E94EE
:1024900005168C0160E174E00E94C115C8016BE073
:1024A0000E9405168C0164E074E00E94C115C80109
:1024B0006BE00E9405168C016EEF73E00E94C1155F
:1024C000C80166E00E940516CE016BE00E94051669
:1024D0008C016DEE73E00E94C115C8016BE00E9493
:1024E00005168C0161EE73E00E94C115C8016BE016
:1024F0000E9405168C016BED73E00E94C115C801A6
:1025000066E00E9405168091781B9091791B0097D8
:1025100019F0BE010E941412CE016BE00E94051654
:102520008C0160ED73E00E94C1150E9497080E9423
:102530006509682FC8010E94DB166BE00E94051632
:102540008C016EEC73E00E94C115C80164E670E076
:102550000E9458166BE00E9405168C016AEC73E02D
:102560000E94C115C80166E00E940516DF91CF9157
:102570001F910F910895EF92FF920F931F93CF93A6
:10258000DF937C01EB01FC01828193810E9487082B
:10259000BC01CE010E94C115E881F9810280F3815E
:1025A000E02DCE0169E01995F701828193810E94A7
:1025B0008708FC0101900020E9F73197E81BF90B2F
:1025C000389740F4E881F9810280F381E02DCE0153
:1025D00069E01995F701828193810E945108682F63
:1025E000CE010E94DB166BE00E9405168C016BE3A6
:1025F00074E00E94C115C801F70164850E94DB16D2
:102600006BE00E9405168C0169E374E00E94C1151D
:10261000F701828193810E946509682FC8010E9499
:10262000DB166BE00E9405168C0167E374E00E94E4
:10263000C115F70160857185C8010E9458166BE0CD
:102640000E9405168C0165E374E00E94C115C80163
:102650006BE00E9405168C0163E374E00E94C115D3
:10266000F7014685578560897189C8010E949316D4
:10267000DF91CF911F910F91FF90EF9008950F93ED
:10268000DF93CF930F92CDB7DEB7FC018685978598
:10269000BE016F5F7F4F2FEF3FEF4FEF5FEF00E027
:1026A0000E94311C813031F08FEF0F90CF91DF917C
:1026B0000F91089589810F90CF91DF910F91089527
:1026C000FC01868597850E943E1B811181E008955B
:1026D0000F93DF93CF930F92CDB7DEB7FC016983E1
:1026E000208931894289538986859785BE016F5F2C
:1026F0007F4F00E00E94BC1D0F90CF91DF910F91A2
:10270000089506970E9485130895EF92FF920F9304
:102710001F93CF93DF937C01EB01DC011A966D913F
:102720007C911B97CE010E94C115F701A285B3854C
:10273000FD0101900020E9F731970E2F0A1B0031AF
:1027400058F4E881F9810280F381E02DCE0160E246
:1027500019950F5F0031A8F3CE0168E872E00E947E
:10276000C115D7011E968D919C911F970E94461B03
:10277000682FCE010E94DB168C01DC01ED91FC91EB
:102780000280F381E02D6FE21995F7016689778960
:10279000C8010E945816DC01ED91FC910280F38182
:1027A000E02D69E01995CE0166E00E940516F7015B
:1027B000A485B585109749F0ED91FC911197019092
:1027C000F081E02DCD01BE011995DF91CF911F91D0
:1027D0000F91FF90EF9008956F927F928F929F924A
:1027E000AF92BF92CF92DF92EF92FF920F931F931F
:1027F0006C01762E672E5A0149010E949915C60177
:102800000696B5010E94F70F83E992E0F6019183E5
:102810008083429697838683958A848A872D61E098
:1028200040E00E94F51EF60197878687E08AF18ACC
:10283000028B138B768A678A1F910F91FF90EF901E
:10284000DF90CF90BF90AF909F908F907F906F90D0
:1028500008956F927F928F929F92AF92BF92CF9284
:10286000DF92EF92FF920F931F936C01762E672EEB
:102870005A0149010E949915C6010696B5010E94A8
:10288000F70F83E992E0F601918380834296978364
:102890008683958A848A872D61E040E00E94F51E38
:1028A000F60197878687E08AF18A028B138B768AF6
:1028B000678A1F910F91FF90EF90DF90CF90BF90AC
:1028C000AF909F908F907F906F900895AF92BF923E
:1028D000CF92DF92EF92FF920F931F93DF93CF93EC
:1028E000CDB7DEB767970FB6F894DEBF0FBECDBF8A
:1028F0007C018B01DB016D917D918D919C9128EE86
:1029000033E040E050E00E946927C701BA01A90105
:102910000E949316D701ED91FC910280F381E02D86
:10292000C7016EE21995C8010E94241F282F8E014D
:102930000A5F1F4F38E0A32EB12CAC0EBD1E80E104
:10294000C82ED12CCC0EDD1E822F2AE030E040E0D4
:1029500050E00E948B27288B398B4A8B5B8B6C8BCA
:102960007D8B8E8B9F8BD501F60188E001900D92B7
:102970008150E1F7688579852A859B858C85805D06
:10298000F8018083015010400C171D07E9F61F82E3
:10299000C701BE016F5F7F4F0E94C115C7016796D7
:1029A0000FB6F894DEBF0FBECDBFCF91DF911F9160
:1029B0000F91FF90EF90DF90CF90BF90AF90089570
:1029C0000F931F938C010FB6F8940F9280912401FE
:1029D00090912501F801958384830E946908F8018C
:1029E00060837183828393830F900FBEC8011F9110
:1029F0000F910895AF92BF92CF92DF92EF92FF9224
:102A00000F931F93CF93DF936C015B01EA01CA011F
:102A100063E00E940516CA14DB0408F052C0CE0120
:102A2000B6010E9458166BE00E9405166DE374E033
:102A30000E94C115760110E0F70161917F01CE017E
:102A40000E94DB16E881F9810280F381E02DCE013E
:102A500060E219951F5F143179F7E881F9810280EE
:102A6000F381E02DCE0160E21995760186010C5EBE
:102A70001F4F0AC0E881F9810280F381E02DCE0169
:102A80001995E016F106A1F0F70161917F01653A11
:102A900039F1862F80528F3568F3E881F981028001
:102AA000F381E02DCE016EE21995E016F10661F793
:102AB0006701CE0166E00E940516EA14FB0408F4E3
:102AC000AECFCE0162E00E940516DF91CF911F913B
:102AD0000F91FF90EF90DF90CF90BF90AF9008954F
:102AE000E881F9810280F381E02DCE0160E2199541
:102AF000C8CFFC0120E030E08081882311F421E080
:102B000030E0C9010895FC0181E0808308950895B3
:102B10000895009711F00E948E070895009711F014
:102B20000E948E0708950E94BC0708950E94BC076A
:102B30000895FC018DEA92E0918380838AE082838C
:102B400083E0858314820895FC018DEA92E09183ED
:102B500080838AE0828383E085831482089581E004
:102B6000089580E0089580E008950895FC01A08113
:102B7000B18112962D913C9113976CE0F901199552
:102B800008950F931F93CF93DF938C01EB01DC012A
:102B900014968C91882311F1F8011482FB01649141
:102BA000662371F02196D801ED91FC910280F381AA
:102BB000E02DC8011995FE0121966491662399F7CD
:102BC000DF91CF911F910F9108952196D801ED913A
:102BD000FC910280F381E02DC8011995688166237C
:102BE000A1F7DF91CF911F910F910895883008F0E0
:102BF00087E08093A70289E00895982F82508F3054
:102C000010F49093A8028AE00895CF93DF93EC012B
:102C10006630F1F1673090F0693061F16A30C8F4E4
:102C2000673009F1683031F4E881F9810084F18579
:102C3000E02D1995CE01DF91CF910895613029F1F2
:102C4000613070F06230D1F06330A1F780E18A83A7
:102C5000F1CF6A30B1F06B3069F781E08C83EACF55
:102C600082E08A83E7CFE881F9810284F385E02D51
:102C70001995E0CF8091A7028D83DCCF8AE08A830B
:102C8000D9CF8091A8028A83D5CF88E08A83D2CF1A
:102C9000E881F9810280F381E02D6DE01995E881EA
:102CA000F9810280F381E02DCE016AE01995C2CF4F
:102CB000EF92FF920F931F93DF93CF93CDB7DEB7C1
:102CC00061970FB6F894DEBF0FBECDBF7C01062F13
:102CD000672FFC014281403191F0483081F0423051
:102CE00071F0802F972F8E010F5F1F4FB80150E0BA
:102CF0000E942128C701B8010E94C11506C0C70162
:102D00000E94DB16602F0E94DB16C70161960FB68A
:102D1000F894DEBF0FBECDBFCF91DF911F910F9111
:102D2000FF90EF900895DF92EF92FF920F931F9321
:102D3000DF93CF93CDB7DEB7A1970FB6F894DEBF80
:102D40000FBECDBF7C01D42E152F062F372FFC01CF
:102D500022812031A1F0283091F0223081F0642FBF
:102D6000752F802F932F8E010F5F1F4FA80130E02A
:102D70000E94FC27C701B8010E94C1150DC0C70100
:102D8000632F0E94DB16602F0E94DB16612F0E94CA
:102D9000DB166D2D0E94DB16C701A1960FB6F894C5
:102DA000DEBF0FBECDBFCF91DF911F910F91FF907E
:102DB000EF90DF900895AF92BF92CF92DF92EF92A3
:102DC000FF920F931F93DF93CF93CDB7DEB7299771
:102DD0000FB6F894DEBF0FBECDBF6C01162FDC011D
:102DE00013968C911397882309F05FC0F6014281F6
:102DF000423089F1403109F060C062956F70D601B0
:102E0000ED91FC910280F381E02D6A3008F063C0FF
:102E1000605DC6011995612F6F70D601ED91FC912F
:102E20000280F381E02D6A3008F457C0695CC60166
:102E30001995C60129960FB6F894DEBF0FBECDBF17
:102E4000CF91DF911F910F91FF90EF90DF90CF9086
:102E5000BF90AF900895A62EBB2480E8EE24FF24F7
:102E600013C0D601ED91FC910280F381E02DC601E3
:102E700061E3199515950795802F0894E11CF11CC5
:102E8000B8E0EB16F104A9F2082F10E0C8018A217E
:102E90009B21892B31F7D601ED91FC910280F381C2
:102EA000E02DC60160E31995E5CFED91FC9102801C
:102EB000F381E02DC6011995BCCF862F90E08E01DD
:102EC0000F5F1F4FB80150E00E942128C601B801D2
:102ED0000E94C115AECF695C9CCF605DA8CFDC01BC
:102EE0001896ED91FC91199780811C962C911C9756
:102EF00030E090E082239323892B79F440E050E086
:102F000006C04F5F5F4F8EE44132580789F08081E1
:102F100090E082239323892BA1F380811E969C91BC
:102F20001E97892B80831696ED91FC9117976083ED
:102F30000895FC018785882301F520917C1B309141
:102F40007D1B80917E1B90917F1B28173907B1F163
:102F5000E0917A1BF0917B1BE20FF31FE081C90126
:102F6000019690937D1B80937C1B809720F010929C
:102F70007D1B10927C1B8E2F08952091821B309117
:102F8000831B8091841B9091851B28173907A9F01A
:102F9000E091801BF091811BE20FF31FE081C901DA
:102FA00001969093831B8093821B809720F310924D
:102FB000831B1092821B8E2F0895FFCFFFCFFC0141
:102FC0008785882379F040E02091821B3091831B14
:102FD0008091841B9091851B2817390709F041E0E7
:102FE000842F089540E020917C1B30917D1B8091BF
:102FF0007E1B90917F1B2817390789F7842F08952E
:10300000FC01A081B18112962D913C9113976CE047
:10301000F901199508951F920F920FB60F920BB6F2
:103020000F9211242F933F938F939F93EF93FF93CE
:103030008091C600E0917A1BF0917B1B20917E1B52
:1030400030917F1BE20FF31F808320917E1B309114
:103050007F1B2F5F3F4F30937F1B20937E1B2032BF
:10306000310530F010927F1B10927E1B20E030E083
:1030700080917C1B90917D1B2817390769F0FF9187
:10308000EF919F918F913F912F910F900BBE0F90D9
:103090000FBE0F901F901895C901019690937D1B4C
:1030A00080937C1B809758F310927D1B10927C1BA1
:1030B000E6CF1F920F920FB60F920BB60F9211240C
:1030C0002F933F938F939F93EF93FF938091CE0025
:1030D000E091801BF091811B2091841B3091851B16
:1030E000E20FF31F80832091841B3091851B2F5F9B
:1030F0003F4F3093851B2093841B2032310530F0E5
:103100001092851B1092841B20E030E08091821B7E
:103110009091831B2817390769F0FF91EF919F91D8
:103120008F913F912F910F900BBE0F900FBE0F907C
:103130001F901895C90101969093831B8093821B61
:10314000809758F31092831B1092821BE6CFDF9278
:10315000EF92FF920F931F938C017B01D42E0E945C
:103160009915C8010696B7014D2D0E94621F8DEB7F
:1031700092E0F80191838083D786DD20D9F0809199
:10318000C90080688093C90080E290E00E94931596
:103190009093811B8093801B1092831B1092821B43
:1031A0001092851B1092841B1F910F91FF90EF903E
:1031B000DF9008958091C10080688093C10080E213
:1031C00090E00E94931590937B1B80937A1B109242
:1031D0007D1B10927C1B10927F1B10927E1B1F91F7
:1031E0000F91FF90EF90DF900895DF92EF92FF92A2
:1031F0000F931F938C017B01D42E0E949915C80157
:103200000696B7014D2D0E94621F8DEB92E0F801EA
:1032100091838083D786DD20D9F08091C9008068B2
:103220008093C90080E290E00E9493159093811BE7
:103230008093801B1092831B1092821B1092851B1F
:103240001092841B1F910F91FF90EF90DF900895D3
:103250008091C10080688093C10080E290E00E946C
:10326000931590937B1B80937A1B10927D1B109279
:103270007C1B10927F1B10927E1B1F910F91FF9061
:10328000EF90DF900895FC019C012D5F3F4F32834A
:1032900021838FEF9FEFAFEFBFEF83839483A583ED
:1032A000B683308727833287218710820895FC01F7
:1032B000138612860895AC01FC01A181B281FB0145
:1032C000B583A48316968D919C91179797838683D7
:1032D0001696ED91FC9117977583648317967C93EE
:1032E0006E931697FB0153874287FA0180818F5FA7
:1032F000808308950F931F93CF93DF938C01DB019D
:103300002D913D914D915C912F3FBFEF3B07BFEF5A
:103310004B07BFEF5B0749F1EC01239601C0EF01BA
:10332000EC81FD8180819181A281B38128173907C9
:103330004A075B07A0F7DB011596FC93EE93149701
:10334000778366831796DC93CE9316977D836C8381
:103350001B961C930E931A97F80180818F5F8083D0
:10336000DF91CF911F910F910895FC01C185D28506
:10337000EC81FD81E0CFCF93DF93DC011A96CD91F4
:10338000DC911B9714964D915C91159716968D9133
:103390009C911797FA019783868316962D913C91FD
:1033A0001797F9015583448389819A818A179B076E
:1033B00051F01B961C921E921A9788818150888327
:1033C000DF91CF9108953A832983F3CFFC01909345
:1033D000871B8093861B91E1908322E2229383E3F3
:1033E0008293629372931292129280E88293129265
:1033F0001292129282E0829383E0829384E082931D
:1034000085E0829386E0829387E0829388E08293CE
:1034100089E0829380E18293929382E1829383E1B7
:10342000829384E1829385E1829386E1829387E1AE
:10343000829388E1829389E1829380E2829381E2A0
:103440008293229383E282934293529386E2829301
:1034500087E2829388E2829389E2829380E3829377
:1034600081E382933197CF01089587E0809329010A
:103470008FEC809328018AE080932101E3E7F0E05C
:10348000808182608083A091151BB091161BCD9125
:10349000CDBFDD91DEBFFF91EF91DF91CF91BF9165
:1034A000AF919F918F917F916F915F914F913F91DC
:1034B0002F911F910F91FF90EF90DF90CF90BF90D1
:1034C000AF909F908F907F906F905F904F903F90C4
:1034D0002F901F900F900CBE0F900BBE0F900FBE41
:1034E0000F90089581E0089508950F920FB6F89413
:1034F0000F920BB60F920CB60F921F9211242F92BF
:103500003F924F925F926F927F928F929F92AF9273
:10351000BF92CF92DF92EF92FF920F931F932F9360
:103520003F934F935F936F937F938F939F93AF934B
:10353000BF93CF93DF93EF93FF93A091151BB091AF
:10354000161B0DB60D920EB60D920E94D70A882357
:1035500011F00E949C08A091151BB091161BCD91F3
:10356000CDBFDD91DEBFFF91EF91DF91CF91BF9194
:10357000AF919F918F917F916F915F914F913F910B
:103580002F911F910F91FF90EF90DF90CF90BF9000
:10359000AF909F908F907F906F905F904F903F90F3
:1035A0002F901F900F900CBE0F900BBE0F900FBE70
:1035B0000F9008950E94751A18950F920FB6F894FF
:1035C0000F920BB60F920CB60F921F9211242F92EE
:1035D0003F924F925F926F927F928F929F92AF92A3
:1035E000BF92CF92DF92EF92FF920F931F932F9390
:1035F0003F934F935F936F937F938F939F93AF937B
:10360000BF93CF93DF93EF93FF93A091151BB091DE
:10361000161B0DB60D920EB60D920E949C08A0913D
:10362000151BB091161BCD91CDBFDD91DEBFFF9173
:10363000EF91DF91CF91BF91AF919F918F917F914A
:103640006F915F914F913F912F911F910F91FF903B
:10365000EF90DF90CF90BF90AF909F908F907F9032
:103660006F905F904F903F902F901F900F900CBEE7
:103670000F900BBE0F900FBE0F9008950FB6F894E9
:103680000F92FC01868D0F900FBE0895FC010FB6BE
:10369000F8940F92968D0F900FBE878D891B089519
:1036A000FC01868D0895FC01868D90E0882309F445
:1036B00091E0892F0895FC01968D20E0878D981761
:1036C00011F0822F089521E0822F0895CF93DF9388
:1036D000EC0188819981009711F00E948E07CE013C
:1036E0000E948E07DF91CF910895FC01562FA72FDE
:1036F00040A14423B1F086819781840F911D978367
:103700008683228133818217930720F08081918103
:103710009783868366817781852F9A2F50E00E9458
:10372000DD2708950F931F93CF93DF93EC018E8DC8
:10373000882341F00E811F81CE010E94751B1F83DB
:103740000E8381E0DF91CF911F910F9108950F9328
:103750001F93CF93DF938A01EC018E8D882329F488
:10376000DF91CF911F910F910895CE010E94751B9B
:103770008E8D81508E8F89A18F3F49F089A18F5FF7
:1037800089A381E0DF91CF911F910F9108958885E2
:10379000882311F481E0E4CFCE0108960E948E0ABE
:1037A0008823C1F301151105A9F381E0F801808395
:1037B000D7CF0F931F93CF93DF93EC010FB6F894FD
:1037C0000F928AA11816ECF48B898823D1F08E0110
:1037D0000D5E1F4F09C08AA181508AA38AA11816C5
:1037E00084F48B89882369F0C8010E948E0A88239B
:1037F00091F30E9461098AA181508AA38AA11816B7
:1038000084F38FEF8AA30F900FBE0FB6F8940F9238
:1038100089A11816ECF488858823D1F08E01085F01
:103820001F4F09C089A1815089A389A1181684F46A
:103830008885882369F0C8010E948E0A882391F345
:103840000E94610989A1815089A389A1181684F376
:103850008FEF89A30F900FBEDF91CF911F910F9132
:1038600008957F928F929F92AF92BF92CF92DF92F4
:10387000EF92FF920F931F93DF93CF93CDB7DEB7F5
:1038800029970FB6F894DEBF0FBECDBF4B012E8334
:103890003F8348875987702E8C0193E1C92ED12C24
:1038A000C00ED11E20E07E010894E11CF11C86E0D0
:1038B000A82EB12CAC0EBD1E0FB6F8940F92F801D5
:1038C000868D882309F060C08E819F81A885B98587
:1038D0000097A105B10509F475C0222309F43EC083
:1038E0000F900FBE0E9463080FB6F8940F92F80174
:1038F00081A18F3F89F1F80182A18F3F59F10F908B
:103900000FBEC701B5010E94FC08882309F071C0F1
:103910000FB6F8940F92F801868D0F900FBE882392
:1039200009F5F80180819181892B19F14E815F8120
:1039300068857985C6010E94700CC8010E94D91B58
:103940000E94980C882311F021E0B6CF0E94DD1A66
:1039500021E0B2CF12A2D3CF11A2CDCFC7010E94D6
:10396000EB08BECFC8010E94D91B0E94980C21E031
:10397000A3CF0FB6F8940F92F801828193810E9431
:10398000FC090F900FBED2CFE680F780C801B401CA
:103990000E94751B7720A1F5F801868D8150868FD6
:1039A00080819181892B09F43BC0F80180858823AF
:1039B00069F1C80108960E948E0A813039F50E948B
:1039C000DD1A24C00F900FBE80E029960FB6F89440
:1039D000DEBF0FBECDBFCF91DF911F910F91FF9042
:1039E000EF90DF90CF90BF90AF909F908F907F909F
:1039F0000895C8010E94D91B0E94980C80E0E5CF71
:103A0000F801F782E6828389882321F40F900FBEA4
:103A100081E0DBCFC6010E948E0A8823B9F3CFCFA5
:103A20000E94AA09F80193838283BFCF1F93CF938B
:103A3000DF93EC01142F48A1442371F4888199810C
:103A4000892B09F451C090E08E8D8F5F8E8F892F66
:103A5000DF91CF911F9108951123F1F48C819D8105
:103A600050E00E94DD2788A12C813D81280F311D67
:103A70003D832C838A819B812817390720F3888115
:103A800099819D838C8390E08E8D8F5F8E8F892F9F
:103A9000DF91CF911F9108958E819F8150E00E9408
:103AA000DD2788A190E044275527481B590B8E81BC
:103AB0009F81840F951F9F838E8328813981821770
:103AC000930730F48A819B81840F951F9F838E8397
:103AD000123009F0B8CF8E8D882309F4B4CF8E8DC3
:103AE00081508E8F90E0B0CF8A819B810E94BD096A
:103AF000982F1B821A82A8CF0F931F93CF93DF9327
:103B00008A01EC019E8D8F8D981740F0223031F0A4
:103B100080E0DF91CF911F910F910895CE01422F48
:103B20000E94161D882331F00115110519F081E05E
:103B3000F80180838AA18F3F49F08AA18F5F8AA311
:103B400081E0DF91CF911F910F9108958B89882398
:103B500031F481E0DF91CF911F910F910895CE0153
:103B600043960E948E0A8823A1F30115110589F35B
:103B700081E0F8018083CDCF6F927F929F92AF92C8
:103B8000BF92CF92DF92EF92FF920F931F93DF933A
:103B9000CF93CDB7DEB729970FB6F894DEBF0FBE2F
:103BA000CDBF3B012E833F8348875987902E8C01E0
:103BB00048E0C42ED12CC80ED91E20E07E01089406
:103BC000E11CF11C36E0A32EB12CAC0EBD1E0FB6CD
:103BD000F8940F92F801968D878D981708F456C0C7
:103BE000F2E09F1609F452C08E819F81A885B985A5
:103BF0000097A105B10509F46CC0222309F442C065
:103C00000F900FBE0E9463080FB6F8940F92F80150
:103C100081A18F3FA9F1F80182A18F3F79F10F9027
:103C20000FBEC701B5010E94FC08882309F055C0EA
:103C30000FB6F8940F92F801968D0F900FBEF80111
:103C4000878D9817A1F44E815F8168857985C601BB
:103C50000E94700CC8010E94D91B0E94980C8823F6
:103C600011F021E0B4CF0E94DD1A21E0B0CFC801ED
:103C70000E94D91B0E94980C21E0A9CF12A2CFCF9D
:103C800011A2C9CFC7010E94EB08BACFC801B30186
:103C9000492D0E94161D982FF8018389882321F54C
:103CA000992341F50F900FBE81E029960FB6F89445
:103CB000DEBF0FBECDBFCF91DF911F910F91FF905F
:103CC000EF90DF90CF90BF90AF909F907F906F90DC
:103CD00008950F900FBE80E0E8CFC8010E94D91B65
:103CE0000E94980C80E0E1CFC80143960E948E0AA2
:103CF0008130C1F60E94DD1AD5CF0F93CF93DF93A9
:103D000083E290E00E94BC07EC01009709F11B825E
:103D10001A82198218821D821C821F821E821E8EA8
:103D200081E08F8F18A28FEF89A38AA3CE01089616
:103D30000E944319CE0143960E944319CE0160E0D0
:103D400070E020E030E040E050E000E00E94BC1D68
:103D5000CE01DF91CF910F910895CF93DF93EC01C6
:103D60000FB6F8940F92E8A12F8DE29FC0011124A5
:103D700048815981840F951F9B838A831E8E5D83A2
:103D80004C8330E021503040F0E02E9FC0012F9F47
:103D9000900D3E9F900D1124480F591F5F834E8355
:103DA0008FEF89A38AA3662391F48885882331F451
:103DB0000F900FBE81E0DF91CF910895CE0108965C
:103DC0000E948E0A8130A1F70E94DD1AF1CFCE0148
:103DD00008960E944319CE0143960E9443190F9002
:103DE0000FBE81E0DF91CF9108950F931F93CF9382
:103DF000DF93182F062F882341F420E030E0C9011B
:103E0000DF91CF911F910F91089583E290E00E947E
:103E1000BC07EC01009789F3019FC00111240196B2
:103E20000E94BC0799838883009741F01F8F08A3E5
:103E3000CE0161E00E94AD1E9E01E1CFCE010E9445
:103E40008E0720E030E0DBCFCF92DF92EF92FF923F
:103E50000F931F936C01FC016081718182819381BA
:103E600028EE33E040E050E00E94692720E432E48D
:103E70004FE050E00E944A2728EE33E040E050E057
:103E80000E94692779018A01F6016481758180E0C9
:103E900090E020E432E44FE050E00E944A2720E81E
:103EA00034E84EE150E00E946927E20EF31E041F41
:103EB000151FB701C8011F910F91FF90EF90DF9080
:103EC000CF900895CF93DF93EC01442309F441C0D0
:103ED0008EEC90E09983888388EC90E09B838A83C2
:103EE00089EC90E09D838C8388E18093C90086E013
:103EF0008093CA001092CD009B0140E050E0220F59
:103F0000331F441F551F220F331F441F551F220FFD
:103F1000331F441F551F220F331F441F551F60E0DE
:103F200074E284EF90E00E9469272093CC00809196
:103F3000C80081608093C80080E28E8380E88F8310
:103F400080E48887E881F98180818081DF91CF9149
:103F5000089586EC90E09983888380EC90E09B83C1
:103F60008A8381EC90E09D838C8388E18093C100FB
:103F700086E08093C2001092C5009B0140E050E0B3
:103F8000220F331F441F551F220F331F441F551F7D
:103F9000220F331F441F551F220F331F441F551F6D
:103FA00060E074E284EF90E00E9469272093C400EF
:103FB0008091C00081608093C000BECFCF93DF931B
:103FC000EC01442309F441C08EEC90E0998388838E
:103FD00088EC90E09B838A8389EC90E09D838C83BE
:103FE00088E18093C90086E08093CA001092CD00DA
:103FF0009B0140E050E0220F331F441F551F220F4A
:10400000331F441F551F220F331F441F551F220FFC
:10401000331F441F551F60E074E284EF90E00E945C
:1040200069272093CC008091C80081608093C800EC
:1040300080E28E8380E88F8380E48887E881F9813D
:1040400080818081DF91CF91089586EC90E0998303
:10405000888380EC90E09B838A8381EC90E09D8351
:104060008C8388E18093C10086E08093C200109227
:10407000C5009B0140E050E0220F331F441F551F35
:10408000220F331F441F551F220F331F441F551F7C
:10409000220F331F441F551F60E074E284EF90E04D
:1040A0000E9469272093C4008091C00081608093A2
:1040B000C000BECFDC011296ED91FC9113972081D8
:1040C00040E030E016968C9190E028233923232B92
:1040D00009F041E0842F0895DC011296ED91FC91E6
:1040E0001397208140E030E018968C9190E02823CF
:1040F0003923232B09F441E0842F0895EF92FF9296
:104100000F931F937B018C0120E030E040E05FE4DF
:104110000E94FA2388238CF0C801B70120E030E028
:1041200040E05FE40E94F6210E9488249B01AC01DC
:10413000205030404040504806C0C801B7010E949E
:1041400088249B01AC01B901CA011F910F91FF9016
:10415000EF900895A0E0B0E0E0EBF0E20C94A62729
:10416000DC012B01FA019C91923008F439C1EB017A
:104170008881823008F433C1943069F4843009F0C6
:104180002FC111969C9111978981981709F428C124
:10419000A9ECB2E025C1843009F421C18230A9F430
:1041A000923009F01DC19A01AD0188E0EA01099041
:1041B000AE01E90109929E018150C1F7E2018981B6
:1041C00011969C918923818308C1923009F407C11B
:1041D00012962D903C901397EB018A819B81149647
:1041E000AD90BD90CD90DC901797EC80FD800E8156
:1041F0001F819101281B390BB90137FF04C06627C5
:104200007727621B730B603271050CF061C01216C8
:1042100013066CF537014801062E04C09694879466
:10422000779467940A94D2F721E030E040E050E0C0
:1042300004C0220F331F441F551F6A95D2F7215027
:104240003040404050402E213F2140235123211532
:1042500031054105510521F021E030E040E050E01A
:1042600079018A01E628F728082919293CC0232B5F
:10427000D1F1260E371E35014601062E04C0969454
:104280008794779467940A94D2F721E030E040E075
:1042900050E004C0220F331F441F551F6A95D2F708
:1042A00021503040404050402A213B214C215D218B
:1042B000211531054105510521F021E030E040E0B4
:1042C00050E059016A01A628B728C828D9280BC090
:1042D000821593052CF01C01AA24BB24650103C0A0
:1042E000EE24FF24870111969C91D20111968C91A6
:1042F000981709F445C0992339F0A80197012A19A4
:104300003B094C095D0906C0A60195012E193F091C
:10431000400B510B57FD08C0118233822282248347
:104320003583468357831DC081E081833382228297
:1043300088279927DC01821B930BA40BB50B848380
:104340009583A683B7830DC0220F331F441F551FCB
:104350002483358346835783828193810197938396
:1043600082832481358146815781DA01C901019711
:10437000A109B1098F5F9F4FAF4FBF4328F30BC017
:10438000918333822282EA0CFB1C0C1D1D1DE482EA
:10439000F5820683178383E08083248135814681FB
:1043A000578157FF1AC0C901AA2797FDA095BA2FB8
:1043B00081709070A070B07056954795379527958D
:1043C000822B932BA42BB52B84839583A683B78351
:1043D00082819381019693838283DF0101C0D201A0
:1043E000CD01CDB7DEB7E2E10C94C227A0E2B0E088
:1043F000ECEFF1E20C94B22769837A838B839C8380
:104400002D833E834F835887E9E0EE2EF12CEC0E8E
:10441000FD1ECE010196B7010E9479268E010F5E26
:104420001F4FCE010596B8010E9479268A8991E036
:1044300089278A8BC701B801AE01475E5F4F0E9492
:10444000AA200E94A425A096E6E00C94CE27A0E224
:10445000B0E0EDE2F2E20C94B22769837A838B83B9
:104460009C832D833E834F835887F9E0EF2EF12CF8
:10447000EC0EFD1ECE010196B7010E9479268E0139
:104480000F5E1F4FCE010596B8010E947926C70125
:10449000B801AE01475E5F4F0E94AA200E94A4258A
:1044A000A096E6E00C94CE27A0E2B0E0EAE5F2E2C6
:1044B0000C94A62769837A838B839C832D833E8308
:1044C0004F835887CE010196BE01675F7F4F0E94E0
:1044D0007926CE010596BE016F5E7F4F0E94792638
:1044E0009985923088F089898230C8F0943019F427
:1044F000823051F404C0843029F4923081F489EC84
:1045000092E0C6C0923049F420E09A858A899813D7
:1045100021E02A87CE010996BBC0823049F420E011
:104520009A858A89981321E02A8BCE014196B0C0E2
:104530002D843E844F8458886D887E888F88988C1F
:10454000EE24FF248701AA24BB24650140E050E04B
:1045500060E070E0E0E0F0E0C10181709070892BD4
:10456000E9F0E60CF71C081D191D9A01AB012A0D94
:104570003B1D4C1D5D1D80E090E0A0E0B0E0E61426
:10458000F7040805190520F481E090E0A0E0B0E010
:10459000BA01A901480F591F6A1F7B1FAA0CBB1C37
:1045A000CC1CDD1C97FE08C081E090E0A0E0B0E0EC
:1045B000A82AB92ACA2ADB2A3196E032F10549F045
:1045C000660C771C881C991C569447943794279442
:1045D000C3CFFA85EA892B893C898B859C85280F76
:1045E000391F2E5F3F4F17C0CA0181709070892B11
:1045F00061F016950795F794E79480E090E0A0E0CD
:10460000B0E8E82AF92A0A2B1B2B7695679557956F
:1046100047952F5F3F4F77FDE7CF0CC0440F551FE5
:10462000661F771F17FD4160EE0CFF1C001F111F56
:1046300021503040403090E0590790E0690790E405
:10464000790760F32B8F3C8FDB01CA018F77907065
:10465000A070B07080349105A105B10561F447FDEB
:104660000AC0E114F1040105110529F0405C5F4F17
:104670006F4F7F4F40781A8EFE1711F081E08A8FBE
:104680004D8F5E8F6F8F78A383E0898FCE0149961F
:104690000E94A425A096E2E10C94C227A8E1B0E014
:1046A000E4E5F3E20C94AE2769837A838B839C83E1
:1046B0002D833E834F835887B9E0EB2EF12CEC0E0F
:1046C000FD1ECE010196B7010E9479268E010F5E74
:1046D0001F4FCE010596B8010E9479262985223008
:1046E00008F47EC03989323010F4B8017CC08A8564
:1046F0009A8989278A87243011F0223031F42317D0
:1047000009F06EC069EC72E06EC0343039F41D8679
:104710001E861F86188A1C861B8604C0323021F430
:1047200084E08987B7015FC02B853C858B899C8994
:10473000281B390B3C872B87ED84FE840F85188955
:10474000AD88BE88CF88D88CEA14FB040C051D0503
:1047500040F4EE0CFF1C001F111F215030403C871D
:104760002B8720E030E040E050E080E090E0A0E0E7
:10477000B0E460E070E0EA14FB040C051D0540F0B5
:10478000282B392B4A2B5B2BEA18FB080C091D0937
:10479000B695A79597958795EE0CFF1C001F111FE6
:1047A0006F5F7F4F6F31710531F7DA01C9018F7784
:1047B0009070A070B07080349105A105B10561F4CE
:1047C00027FD0AC0E114F1040105110529F0205C60
:1047D0003F4F4F4F5F4F20782D873E874F87588B35
:1047E000BE01675F7F4FCB010E94A4256896EAE077
:1047F0000C94CA27A8E1B0E0E0E0F4E20C94B22700
:1048000069837A838B839C832D833E834F83588770
:1048100089E0E82EF12CEC0EFD1ECE010196B701C9
:104820000E9479268E010F5E1F4FCE010596B801BA
:104830000E9479268985823040F08989823028F06B
:10484000C701B8010E94F12601C08FEF6896E6E02B
:104850000C94CE27A8E0B0E0E0E3F4E20C94AF279C
:104860009B01AC0183E08983DA01C9018827B7FD88
:1048700083959927AA27BB27B82E21153105410515
:10488000510519F482E089833AC08823A9F02030C9
:1048900080E0380780E0480780E8580729F460E0A6
:1048A00070E080E09FEC30C0EE24FF248701E21A24
:1048B000F30A040B150B02C079018A018EE1C82EA0
:1048C000D12CDC82CB82ED82FE820F831887C80157
:1048D000B7010E94552501971816190684F4082E71
:1048E00004C0EE0CFF1C001F111F0A94D2F7ED82CA
:1048F000FE820F831887C81AD90ADC82CB82BA825B
:10490000CE0101960E94A4252896E9E00C94CB27BD
:10491000ACE0B0E0EEE8F4E20C94B62769837A8369
:104920008B839C83CE010196BE016B5F7F4F0E94FB
:1049300079268D81823061F1823050F1843021F40A
:104940008E81882351F12EC02F81388537FD20C0FC
:104950006E812F3131051CF06623F9F023C08EE102
:1049600090E0821B930B29853A854B855C8504C0BA
:1049700056954795379527958A95D2F76623B1F0D6
:1049800050954095309521953F4F4F4F5F4F0EC04A
:1049900020E030E040E050E009C02FEF3FEF4FEF64
:1049A0005FE704C020E030E040E050E8B901CA0110
:1049B0002C96E2E00C94D227A8E0B0E0E2EEF4E21C
:1049C0000C94AE277B018C01611571058105910561
:1049D00019F482E0898360C083E089838EE1C82E68
:1049E000D12CDC82CB82ED82FE820F831887C80136
:1049F000B7010E945525FC013197F7FF3BC02227E4
:104A000033272E1B3F0B57016801022E04C0D6949A
:104A1000C794B794A7940A94D2F740E050E060E0BE
:104A200070E081E090E0A0E0B0E004C0880F991F42
:104A3000AA1FBB1F2A95D2F70197A109B1098E21A0
:104A40009F21A023B1230097A105B10521F041E0EA
:104A500050E060E070E04A295B296C297D294D8394
:104A60005E836F8378878EE190E08E1B9F0B9C8323
:104A70008B8312C0309781F00E2E04C0EE0CFF1C09
:104A8000001F111F0A94D2F7ED82FE820F83188750
:104A9000CE1ADF0ADC82CB821A82CE0101960E94F6
:104AA000A4252896EAE00C94CA27EF92FF920F9370
:104AB0001F937B018C0180E0E81680E0F80681E01E
:104AC000080780E0180788F48FEFE816F104010565
:104AD000110531F028F088E090E0A0E0B0E017C0C8
:104AE00080E090E0A0E0B0E012C080E0E81680E056
:104AF000F80680E0080781E0180728F088E190E0D8
:104B0000A0E0B0E004C080E190E0A0E0B0E020E2EE
:104B100030E040E050E0281B390B4A0B5B0B04C02F
:104B200016950795F794E7948A95D2F7F701EF5217
:104B3000FD4F8081281B310941095109C9011F918D
:104B40000F91FF90EF900895DF92EF92FF920F93F5
:104B50001F93FC01E480F58006811781D18080815C
:104B6000823048F480E090E0A0E1B0E0E82AF92A41
:104B70000A2B1B2BA5C0843009F49FC0823021F47E
:104B8000EE24FF24870105C0E114F104010511059D
:104B900019F4E0E0F0E096C0628173819FEF623823
:104BA00079070CF05BC022E83FEF261B370B2A3158
:104BB00031052CF020E030E040E050E02AC0B801A0
:104BC000A701022E04C076956795579547950A94DC
:104BD000D2F781E090E0A0E0B0E004C0880F991F18
:104BE000AA1FBB1F2A95D2F70197A109B1098E21EF
:104BF0009F21A023B1230097A105B10521F081E0F9
:104C000090E0A0E0B0E09A01AB01282B392B4A2BB1
:104C10005B2BDA01C9018F779070A070B07080347F
:104C20009105A105B10539F427FF09C0205C3F4F6C
:104C30004F4F5F4F04C0215C3F4F4F4F5F4FE0E04D
:104C4000F0E02030A0E03A07A0E04A07A0E45A07CD
:104C500010F0E1E0F0E079018A0127C060387105C9
:104C600064F5FB01E158FF4FD801C7018F779070C1
:104C7000A070B07080349105A105B10539F4E7FE4C
:104C80000DC080E490E0A0E0B0E004C08FE390E0CD
:104C9000A0E0B0E0E80EF91E0A1F1B1F17FF05C0B9
:104CA00016950795F794E794319687E01695079542
:104CB000F794E7948A95D1F705C0EE24FF24870185
:104CC000EFEFF0E06E2F679566276795902F9F773F
:104CD000D794DD24D7948E2F8695492F462B582FB5
:104CE0005D29B701CA011F910F91FF90EF90DF90EE
:104CF0000895FC01DB01408151812281622F6F7791
:104D000070E0221F2227221F9381892F880F822B78
:104D1000282F30E0991F9927991F11969C9311977E
:104D200021153105A9F5411551056105710511F4EC
:104D300082E037C082E89FEF13969C938E93129780
:104D40009A01AB0167E0220F331F441F551F6A957C
:104D5000D1F783E08C930DC0220F331F441F551FE2
:104D600012968D919C911397019713969C938E9315
:104D70001297203080E0380780E0480780E4580729
:104D800058F314962D933D934D935C931797089584
:104D90002F3F310579F4411551056105710519F46D
:104DA00084E08C93089564FF03C081E08C9312C06B
:104DB0001C9210C02F57304013963C932E9312979D
:104DC00083E08C9387E0440F551F661F771F8A95F9
:104DD000D1F7706414964D935D936D937C93179700
:104DE00008951F93DC01FB019C91923008F447C0A9
:104DF0008081823008F443C0943051F411961C91A4
:104E0000843099F58181682F70E0611B71093FC082
:104E1000843021F0923031F48230B9F181818823DD
:104E200089F12DC011961C9111978230F1F081818A
:104E30001817D9F412962D913C9113978281938182
:104E40008217930794F028173907BCF014968D91B8
:104E50009D910D90BC91A02D248135814681578173
:104E6000281739074A075B0718F4112341F00AC0D5
:104E700082179307A407B50740F4112319F061E0E6
:104E800070E005C06FEF7FEF02C060E070E0CB0123
:104E90001F910895629FD001739FF001829FE00DE2
:104EA000F11D649FE00DF11D929FF00D839FF00DA9
:104EB000749FF00D659FF00D9927729FB00DE11D55
:104EC000F91F639FB00DE11DF91FBD01CF01112432
:104ED0000895A1E21A2EAA1BBB1BFD010DC0AA1F3B
:104EE000BB1FEE1FFF1FA217B307E407F50720F053
:104EF000A21BB30BE40BF50B661F771F881F991FCE
:104F00001A9469F760957095809590959B01AC0116
:104F1000BD01CF01089597FB092E05260ED057FD40
:104F200004D0D7DF0AD0001C38F450954095309556
:104F300021953F4F4F4F5F4F0895F6F7909580951D
:104F4000709561957F4F8F4F9F4F08952F923F929D
:104F50004F925F926F927F928F929F92AF92BF9289
:104F6000CF92DF92EF92FF920F931F93CF93DF9335
:104F7000CDB7DEB7CA1BDB0B0FB6F894DEBF0FBE92
:104F8000CDBF19942A88398848885F846E847D84CF
:104F90008C849B84AA84B984C884DF80EE80FD80E1
:104FA0000C811B81AA81B981CE0FD11D0FB6F89457
:104FB000DEBF0FBECDBFED010895FB01DC0102C0D5
:104FC00001900D9241505040D8F70895DC0101C086
:104FD0006D9341505040E0F70895FB01DC014150D2
:104FE000504048F001900D920020C9F701C01D9279
:104FF00041505040E0F70895FA01CF93FF93EF93AB
:105000002230CCF02532BCF4C22F2C2F332744277A
:105010005527FF93EF930E946927EF91FF91605D01
:105020006A330CF0695D6193B901CA016050704048
:105030008040904051F710828F919F91CF910C94B6
:105040003728FB019F01423074F0453264F4642F2D
:1050500077270E944728805D8A330CF0895D819311
:10506000CB010097A1F71082C9010C943728DC010D
:10507000FC01672F71917723E1F7329704C07C918F
:105080006D9370836291AE17BF07C8F30895AA1B92
:10509000BB1B51E107C0AA1FBB1FA617B70710F023
:1050A000A61BB70B881F991F5A95A9F78095909555
:0A50B000BC01CD010895F894FFCF74
:1050BA005072696E740055736572496E7400537448
:1050CA00656572696E67004D6F746F72002F000D0F
:1050DA000000000000BE03BB12416C6C20796F75A2
:1050EA00722072656164696E6773206172652062FD
:1050FA00656C6F6E6720746F20757300412F4420B2
:10510A00636F6E7374727563746F72204F4B000015
:10511A000000006606BB12000000001507BB12372C
:10512A001749444C4500FFFFFFFF000000008815A7
:10513A00000000008815BB127478745F71090000C2
:10514A00000000AF15681360133F13B515B6158537
:10515A0013FAFF00008113030A00000000AF15884C
:10516A0015B315B115B515B61500000000AF156FCA
:10517A0017DF179917B51500180000000000000086
:10518A0000000102020303030304040404040404E8
:10519A0004050505050505050505050505050505B6
:1051AA000506060606060606060606060606060696
:1051BA000606060606060606060606060606060685
:1051CA000607070707070707070707070707070766
:1051DA000707070707070707070707070707070755
:1051EA000707070707070707070707070707070745
:1051FA000707070707070707070707070707070735
:10520A000708080808080808080808080808080815
:10521A000808080808080808080808080808080804
:10522A0008080808080808080808080808080808F4
:10523A0008080808080808080808080808080808E4
:10524A0008080808080808080808080808080808D4
:10525A0008080808080808080808080808080808C4
:10526A0008080808080808080808080808080808B4
:10527A0008080808080808080808080808080808A4
:02528A0008001A
:00000001FF
