:100000000C9419020C943A020C943A020C943A02A1
:100010000C943A020C943A020C943A020C943A0270
:100020000C943A020C943A020C943A020C943A0260
:100030000C943A020C943A020C943A020C943A0250
:100040000C943A020C943A020C943A020C943A0240
:100050000C943A020C943A020C943A020C943A0230
:100060000C943A020C9418170C943A020C943A022D
:100070000C943A020C943A020C943A020C943A0210
:100080000C943A020C943A020C943A020C943A0200
:100090000C9466170C943A020C943A020C943A02AF
:1000A0000C943A020C943A020C943A020C943A02E0
:1000B0000C943A020C943A020C943A020C94E7190C
:1000C0000C943A020C943A020C943A024D453430A6
:1000D00035204C61622031205374617274696E67FF
:1000E0002050726F6772616D002C204F4352354172
:1000F0003A20002C20486561703A200053797374CF
:10010000656D2074696D653A20004E6F7620323837
:100110002032303138004D45343035204C6162207A
:100120003120556E6D6F6469666965642050726F29
:100130006772616D2056302E303120002020683AE1
:10014000202020202048414C502100202043746C66
:100150002D433A20526573657420746865204156BA
:10016000520020206E3A2020202020456E746572B7
:100170002061206E756D626572202864656D6F293F
:10018000002020643A2020202020537461636B20DB
:1001900064756D7020666F72207461736B730020DC
:1001A00020733A202020202056657273696F6E20DC
:1001B000616E6420736574757020696E666F726D10
:1001C0006174696F6E002020743A20202020205333
:1001D000686F77207468652074696D65207269673F
:1001E0006874206E6F77002068656C70004D453430
:1001F0003035204C6162203120556E6D6F64696628
:100200006965642050726F6772616D2056302E30C0
:10021000312000496C6C6567616C20737461746592
:100220002120526573657474696E672041565200CF
:10023000223E003C696E76616C696420636861727D
:100240002022004E756D62657220656E7465726560
:10025000643A2000223A205754463F0052657365A5
:100260007474696E672041565200456E7465722041
:10027000646563696D616C206E756D65726963207C
:100280006469676974732C207468656E20524554E4
:1002900055524E206F722045534300507265737360
:1002A00020276827206F7220273F2720666F722043
:1002B00068656C700054686520412F4420636F6E40
:1002C000766572746572203C3C206F706572617453
:1002D0006F72206E6F7420776F726B696E672E205D
:1002E00041206E756D6265722069733A2000496C19
:1002F0006C6567616C20737461746521205265734D
:10030000657474696E6720415652004E6F207368A1
:10031000617265642064617461206974656D732025
:10032000746F207072696E74002D2D2D2D20202089
:100330002020202020202020202D2D2D2D20202089
:10034000202D2D2D2D2D2D2D2D2D2D00536861723D
:10035000652F5175657565202020202054797065C2
:1003600020202020467265652F546F74616C004513
:1003700052524F52206372656174696E67207461D6
:10038000736B2022002220637265617465642C20E7
:10039000737461636B206174203078005461736BF7
:1003A0002022005461736B3A20005461736B3A2031
:1003B00049444C450009092D002F0049444C45098A
:1003C0000930092D0900092D2D2D2D00092D2D2D68
:1003D0002D2D2D2D2D2D2D002D2D2D2D09092D2DC2
:1003E0002D2D092D2D2D2D2D000952756E7300090F
:1003F000467265652F546F74616C004E616D6509BE
:10040000095072692E09537461746500095374614F
:10041000636B005461736B090920200920000900F7
:1004200009002F0009000900202000000E94640F2D
:10043000089511241FBECFEFD1E2DEBFCDBF00E093
:100440000CBF13E0A0E0B2E0EEEBF6E400E00BBF7F
:1004500002C007900D92A43CB107D9F71BE1A4ECB0
:10046000B3E001C01D92AA37B107E1F70E943C0238
:100470000C945D230C940000AF92BF92CF92DF9258
:10048000EF92FF920F931F93089A109A14BE88E17F
:100490000FB6F89480936000109260000FBE80E168
:1004A00090E00E94A314B82EA92E60E875E241E006
:1004B0000E94B4178B2D9A2D67E00E9412156BE0F5
:1004C0000E9412158C016CEC70E00E94CE14C801E1
:1004D00066E00E94121588E190E00E94A314D82ED5
:1004E000C92E60E270E040E052E02B2D3A2DEAE0A8
:1004F000EE2EF12C012D112D0E94F912D092C40381
:10050000C092C50382E190E00E94A31466E072E00D
:1005100041E024E031E00B2D1A2D0E94850582E197
:1005200090E00E94A3146EE072E044E028EC30E01A
:100530000E946F060E944B0E81E090E01F910F9188
:10054000FF90EF90DF90CF90BF90AF900895EF9223
:10055000FF920F931F93DF93CF9300D000D0CDB7BE
:10056000DEB77C0119821A821B821C821E821D82C8
:10057000FC018681978166E00E9412156BE00E9463
:1005800012158C0166E171E00E94CE14C8016BE087
:100590000E9412158C016AE071E00E94CE14C8011D
:1005A00066E00E9412156BE00E9412158C016CEF40
:1005B00070E00E94CE14CE0101960E94ED13BC01A2
:1005C000C8010E9473136BE00E9412158C0163EF47
:1005D00070E00E94CE140E949506BC01C8010E94E2
:1005E00065158C0167E172E00E94CE14C80148E3F2
:1005F00057E160E070E00E94A0156BE00E941215C8
:100600008C0169EE70E00E94CE1460912801709117
:100610002901C8010E94651566E00E94121566E076
:100620000E941215F701868197810E943811F70107
:100630008681978166E00E941215F7018681978175
:100640000E94840E26960FB6F894DEBF0FBECDBF73
:10065000CF91DF911F910F91FF90EF900895EF924E
:10066000FF920F931F937C01FC01868197816BE0C1
:100670000E9412158C016DEE71E00E94CE14C8012B
:100680006BE00E9412158C0167EE71E00E94CE149F
:10069000C80166E00E941215F701868197816BE020
:1006A0000E9412158C0166EC71E00E94CE14C80104
:1006B00066E00E941215F701868197816BE00E9427
:1006C00012158C016FE971E00E94CE14C80166E03A
:1006D0000E941215F701868197816BE00E94121526
:1006E0008C0161E871E00E94CE14C80166E00E94AE
:1006F0001215F701868197816BE00E9412158C011B
:1007000062E671E00E94CE14C80166E00E941215F4
:10071000F701868197816BE00E9412158C016BE4D2
:1007200071E00E94CE14C80166E00E941215F70124
:10073000868197816BE00E9412158C016CE371E059
:100740000E94CE14C80166E00E9412151F910F91FD
:10075000FF90EF9008954F925F926F927F928F92E9
:100760009F92AF92BF92CF92DF92EF92FF920F9340
:100770001F93DF93CF9300D000D0CDB7DEB76C01CD
:1007800019821A821B821C821E821D82DC0116962F
:100790008D919C9117976BE00E9412158C016BE96B
:1007A00072E00E94CE14C80166E00E9412157C2CF3
:1007B0006D2C8824992454012E010894411C511C4D
:1007C000F6018485882321F5D6011696ED91FC91DA
:1007D0001797A081B18114962D913C911597CF0167
:1007E000F9011995882309F0CFC0F6018685978510
:1007F000A089B1890196A11DB11D86879787A08B1D
:10080000B18B61E070E080E090E00E94A30CD8CF53
:100810008130D9F0F601868197816BE00E94121534
:100820008C0163E172E00E94CE14C80166E00E9470
:1008300012152BE088E190E00FB6F894A89580930C
:1008400060000FBE20936000FFCFD6011696ED9199
:10085000FC911797A081B18114962D913C91159729
:10086000CF01F9011995882309F465C0F601A68125
:10087000B781ED91FC9111970680F781E02DCD01B4
:100880001995E82E80538A3090F1FAE0EF1629F19D
:10089000BDE0EB1621F0EBE1EE1609F0BCC0D6018D
:1008A00016968D919C91179766E00E9412156BE049
:1008B0000E9412158C0163E472E00E94CE14C801FC
:1008C000B501A4010E94A01566E00E941215872DB3
:1008D000962D60E00E943B0F88CFD60116968D9131
:1008E0009C91179769E172E00E94CE147ECFF601C9
:1008F000A681B781ED91FC9111970280F381E02DE3
:10090000CD016E2D1995C501B4012AE030E040E01B
:1009100050E00E944C222E2D332727FD3095205386
:1009200030404901AA2497FCA094BA2C860E971E49
:10093000A81EB91E5ACFE091C403F091C503A0814F
:10094000B18114962D913C911597CF01F90119951C
:10095000882309F44ACFF60106811781D801ED9169
:10096000FC91E280F380A091C403B091C503ED91A6
:10097000FC9111970680F781E02DCD011995682F24
:10098000C801F701199531CFD6011696ED91FC916A
:100990001797A081B18116962D913C911797CF01A1
:1009A000F9011995E82EB8E68B1709F496C0B81727
:1009B0000CF46FC0EFE38E1709F48FC0F4E68F17C5
:1009C00009F461C083E0E81609F442C0D601169626
:1009D0000D911C911797D801ED91FC910280F38144
:1009E000E02DC80162E21995D801ED91FC910280D9
:1009F000F381E02DC8016E2D1995C8016BE00E94AE
:100A000012158C0164E572E00E94CE14C80166E004
:100A10000E941215EACEF601868197816BE00E9452
:100A200012158C0163E372E00E94CE14D801ED919F
:100A3000FC910280F381E02DC8016E2D1995C8014B
:100A40006BE00E94121560E372E00E94CE14CDCEDE
:100A5000F601868197816BE00E9412158C016CE58E
:100A600072E00E94CE14C80166E00E9412152BE0CD
:100A700088E190E00FB6F894A895809360000FBECF
:100A800020936000FFCFF601868197810E94E210DB
:100A9000ACCEA3E78A17A9F1B4E78B1711F1EEE604
:100AA0008E1709F093CFD60116968D919C911797CA
:100AB0006BE00E9412158C016AE672E00E94CE146F
:100AC000C80166E00E941215872D962D61E00E94F4
:100AD0003B0F88249924540188CEC6010E942F031D
:100AE00084CED60116960D911C911797C2010E94D3
:100AF000ED13BC01C8010E94731366E00E94121539
:100B000074CEC6010E94A70270CEEF92FF920F939F
:100B10001F937C010E9413108FE192E0F7019183F3
:100B200080831F910F91FF90EF900895EF92FF92B5
:100B30000F931F937C010E9413108FE192E0F70145
:100B4000918380831F910F91FF90EF900895809182
:100B50007C00887F80937C0080917C006770862B6E
:100B600080937C0080917A00806480937A008091E9
:100B70007A0086FDFCCF80917800909179000895ED
:100B8000CF93DF93FC01C081D181209749F0CE0142
:100B900063E272E00E94CE14CE0166E00E9412155C
:100BA0008FEF9FEFDF91CF910895CF92DF92EF9279
:100BB000FF920F931F93D82EC92E7B016BE00E94EA
:100BC00012158C0165EB72E00E94CE14C70160E043
:100BD00044E00E94C005BC01C8010E94651566E0A2
:100BE0000E9412158D2D9C2D1F910F91FF90EF905B
:100BF000DF90CF900895CF93DF93FC01EB017183D9
:100C0000608380E880937A0080917C008064809388
:100C10007C006115710549F0CB0166E472E00E9429
:100C2000CE14CE0166E00E941215DF91CF91089597
:100C3000CF93DF93FC01EB017183608380E88093A5
:100C40007A0080917C00806480937C00611571053E
:100C500049F0CB0166E472E00E94CE14CE0166E05A
:100C60000E941215DF91CF910895862F08950F935A
:100C70001F93CF93DF93EC0101E08C85882399F4D7
:100C80000C878E859F85A889B9890196A11DB11D04
:100C90008E879F87A88BB98B61E070E080E090E041
:100CA0000E94A30CEACF813061F38E819F816BE0BB
:100CB0000E9412158C016EEE72E00E94CE14C801E3
:100CC00066E00E9412152BE088E190E00FB6F894E0
:100CD000A895809360000FBE20936000FFCFEF9235
:100CE000FF920F931F937C0100E010E00E9413100D
:100CF0008DE592E0F701918380831F910F91FF9022
:100D0000EF900895EF92FF920F931F937C0100E004
:100D100010E00E9413108DE592E0F701918380832B
:100D20001F910F91FF90EF90089580916102909133
:100D3000620208950895CF93DF93009739F1EC0193
:100D400024970E9470074A815B81AFEFBAE12C9132
:100D500011963C911197BD01C901DC0112968D914C
:100D60009C9113978417950790F3FB01B983A8838F
:100D7000D183C0838091610290916202840F951F9C
:100D800090936202809361020E94A50BDF91CF9144
:100D90000895EF92FF920F931F93CF93DF93EC018F
:100DA0000E9470078091C603882309F588EC93E0C0
:100DB0009093001B8093FF1A1092021B1092011B4C
:100DC00087E397E19093061B8093051B1092041B09
:100DD0001092031B9093CB038093CA0383E09BE1A3
:100DE0009093C9038093C80381E08093C603209742
:100DF00039F0AE014C5F5F4F2396C653D74160F088
:100E0000C0E0D0E00E94A50BCE01DF91CF911F91F1
:100E10000F91FF90EF900895C091FF1AD091001BA1
:100E2000EFEFFAE107C088819981BE01009739F0A0
:100E3000EC01FB012A813B8124173507A0F38BE1EC
:100E4000C330D807E9F2E080F180888199819183ED
:100E50008083C901841B950B8930910510F18E01A7
:100E6000040F151FF801938382835B834A834281B9
:100E70005381AFEFBAE12C9111963C911197BD01CE
:100E8000C901DC0112968D919C91139784179507E7
:100E900090F3F801B183A083FB01118300832A81C1
:100EA0003B81E70124968091610290916202821B4E
:100EB000930B9093620280936102A4CF0FB6F894D3
:100EC0000F92009729F0FC010F900FBE828D0895BC
:100ED000E091071BF091081B0F900FBE828D0895C3
:100EE0008091101B8F5F8093101B08950FB6F894AC
:100EF0000F9220910B1B30910C1B40910D1B5091B8
:100F00000E1B0F900FBEB901CA01089520910B1B53
:100F100030910C1B40910D1B50910E1BB901CA0161
:100F200008958091141B0895009729F09C01235E79
:100F30003F4FC90108958091071B9091081B9C01A8
:100F4000235E3F4FC90108958091121B9091131B9E
:100F500008958091101B8823E9F510920A1B05C0A3
:100F60008091091B81508093091B8091091B90E09F
:100F7000FC01EE0FFF1F9C01220F331F220F331FB6
:100F8000220F331FE20FF31FE80FF91FE95EF44E43
:100F90008081882329F39091091B8BE0989FD001D1
:100FA0001124A95EB44E1196ED91FC911297048024
:100FB000F581E02D1296FC93EE931197CD010396E7
:100FC000E817F90759F0808591859093081B809365
:100FD000071B089581E080930A1B08958481958101
:100FE00011968C93119712969C939C01F901EBCF6B
:100FF000FC0180910F1B808380910B1B90910C1B37
:10100000A0910D1BB0910E1B81839283A383B483A7
:101010000895AF92BF92CF92DF92EF92FF920F931B
:101020001F93CF93DF93FC01EB010FB6F8940F925F
:10103000A0900B1BB0900C1BC0900D1BD0900E1BF2
:1010400090910F1B8081891709F443C0E180F280E1
:1010500003811481AE14BF04C006D10660F5288157
:1010600039814A815B81D601C5018E199F09A00B88
:10107000B10B82179307A407B507E8F42A193B09B7
:101080004C095D092E0D3F1D401F511F28833983D8
:101090004A835B8380910F1B808380910B1B90910F
:1010A0000C1BA0910D1BB0910E1B81839283A38317
:1010B000B48380E001C081E00F900FBEDF91CF913B
:1010C0001F910F91FF90EF90DF90CF90BF90AF9066
:1010D0000895E180F28003811481C1CF81E0809383
:1010E0000A1B08950097B1F0FC01A38DB48D8C917B
:1010F000853AA9F420E030E040E050E02F5F3F4F18
:101100004F4F5F4FFD01E20FF31F8081853AB1F32E
:10111000822F0895E091071BF091081BE6CF80E035
:1011200008952091071B3091081BC9010895E09193
:10113000071BF091081B6685778580899189A091AE
:10114000071BB091081BE091071BF091081BE28D73
:1011500024E030E040E050E02E1B31094109510904
:101160001E962D933D934D935C93519708958091D6
:10117000071B9091081B892B39F0E091071BF09118
:10118000081B80A58F5F80A72091071B3091081B4B
:10119000C90108950F931F93CF93DF93EC0100973C
:1011A00049F028A5215028A79A8D8FA1981711F0F2
:1011B000222331F080E0DF91CF911F910F910895AC
:1011C0008E010E5F1F4FC8010E94C8182FA12A8FE1
:1011D00084E090E0A0E0B0E0821B9109A109B10990
:1011E0008E879F87A88BB98B8091091B821710F47B
:1011F0002093091B8BE0289FC0011124895E944E27
:10120000B8010E94681881E0DF91CF911F910F9182
:1012100008950F931F93CF93DF93EC01009781F113
:101220003A8DE091071BF091081B828D381740F52D
:101230008E859F85A889B989B7FD11C0E091071BEC
:10124000F091081B228D84E090E0A0E0B0E0821BCA
:101250009109A109B1098E879F87A88BB98B8BE073
:10126000389FC0011124895E944E2C853D85281736
:10127000390759F0E091071BF091081B828D8A8F86
:10128000DF91CF911F910F9108958E010E5F1F4F37
:10129000C8010E94C818E091071BF091081B928DAD
:1012A0009A8F8091091B891710F49093091B8BE08A
:1012B000989FC0011124895E944EB8010E9468185D
:1012C000DFCF0F931F93CF93DF93FC0170684083B0
:1012D000518362837383C085D1850E94C8188E01B3
:1012E0000E5F1F4FC8010E94C8189A8D8091091B7C
:1012F000891710F49093091B8BE0989FC00111246B
:10130000895E944EB8010E946818E091071BF09125
:10131000081B9A8D828D891740F481E080930A1B07
:10132000DF91CF911F910F91089580E0DF91CF91D0
:101330001F910F9108950F931F93CF93DF93DC01BB
:101340001796ED91FC91189700851185E8012E966E
:10135000CE010E94C8188091101B882331F5E80146
:101360002296CE010E94C818F801928D8091091B27
:10137000891708F18BE0989FC0011124895E944E73
:10138000BE010E946818E091071BF091081BD8016C
:101390005A969C91828D891788F481E080930A1B6C
:1013A000DF91CF911F910F9108958DE59BE1BE01D3
:1013B0000E946818E8CF9093091BDCCF80E0DF9192
:1013C000CF911F910F910895AF92BF92CF92DF926C
:1013D000EF92FF920F931F93CF93DF938091101B97
:1013E000882309F0B2C080910B1B90910C1BA09137
:1013F0000D1BB0910E1B0196A11DB11D80930B1BFF
:1014000090930C1BA0930D1BB0930E1BC0900B1B55
:10141000D0900C1BE0900D1BF0900E1BC114D1045A
:10142000E104F10449F52091591B30915A1B809138
:101430005B1B90915C1B90935A1B8093591B3093BC
:101440005C1B20935B1B80910F1B8F5F80930F1B96
:10145000E091591BF0915A1B8081882309F0AAC0A2
:101460008FEF9FEFAFEFBFEF809368029093690219
:10147000A0936A02B0936B02809168029091690216
:10148000A0916A02B0916B02C816D906EA06FB0663
:1014900008F473C0BB24EBE0AE2EE091591BF09131
:1014A0005A1B8081882309F443C0E091591BF091B5
:1014B0005A1B0780F085E02DC085D1858A819B81EC
:1014C000AC81BD81C816D906EA06FB0608F489C0BE
:1014D0008E010E5F1F4FC8010E94C818888D998D1C
:1014E000892B21F0CE010E960E94C8189A8D80910A
:1014F000091B891710F49093091B9A9DC0011124B0
:10150000895E944EB8010E946818E091071BF09123
:10151000081B9A8D828D981708F4BFCFBB24B39413
:10152000E091591BF0915A1B8081882309F0BDCFAF
:101530008FEF9FEFAFEFBFEF809368029093690248
:10154000A0936A02B0936B0219C08091111B8F5F48
:101550008093111BBB2480910A1B882311F0BB24AC
:10156000B3948B2DDF91CF911F910F91FF90EF904E
:10157000DF90CF90BF90AF900895BB24E091071B00
:10158000F091081B828D90E0FC01EE0FFF1F9C0183
:10159000220F331F220F331F220F331FE20FF31FBF
:1015A000E80FF91FE95EF44E80818230A0F2BB247F
:1015B000B394D1CFE091591BF0915A1B0780F0856D
:1015C000E02D0084F185E02D82819381A481B58195
:1015D0008093680290936902A0936A02B0936B02B1
:1015E0004BCF8093680290936902A0936A02B093F4
:1015F0006B02C4CFEF92FF920F931F937B018C017C
:10160000E091071BF091081B6283738384839583A9
:1016100080910B1B90910C1BA0910D1BB0910E1B88
:10162000E816F9060A071B0730F18091591B9091C3
:101630005A1B6091071B7091081B6E5F7F4F0E94C1
:1016400087188091680290916902A0916A02B09116
:101650006B02E816F9060A071B0740F4E0926802DD
:10166000F092690200936A0210936B021F910F912E
:10167000FF90EF90089580915B1B90915C1B6091AF
:10168000071B7091081B6E5F7F4F0E9487181F9188
:101690000F91FF90EF900895EF92FF920F931F9399
:1016A00078018901E091071BF091081B706846875B
:1016B0005787608B718B6091071B7091081B625F6D
:1016C0007F4F0E9468188091071B9091081B02961B
:1016D0000E94C81860910B1B70910C1B80910D1B10
:1016E00090910E1B6E0D7F1D801F911F0E94FA0AA4
:1016F0001F910F91FF90EF900895EF92FF920F933B
:101700001F937A018B016091071B7091081B625F28
:101710007F4F0E9487188091071B9091081B0296AB
:101720000E94C81860910B1B70910C1B80910D1BBF
:1017300090910E1B6E0D7F1D801F911F0E94FA0A53
:101740001F910F91FF90EF900895EF92FF920F93EA
:101750001F93CF93DF930FB6F8940F928091101BD5
:1017600081508093101B8091101B882309F056C074
:101770008091141B882309F451C0FBE0FF2EEE2456
:10178000E39480915D1B882369F1E091641BF091E3
:10179000651BC085D185CE010E960E94C8188E01AA
:1017A0000E5F1F4FC8010E94C8189A8D8091091BB7
:1017B000891710F49093091B9F9DC0011124895E25
:1017C000944EB8010E946818E091071BF091081B25
:1017D0009A8D828D9817A8F2E0920A1B80915D1B6A
:1017E000882399F68091111B8823A1F08091111B09
:1017F000882381F011E00E94E409882311F01093FE
:101800000A1B8091111B81508093111B8091111B29
:10181000882389F780910A1B813051F080E00F9076
:101820000FBEDF91CF911F910F91FF90EF90089520
:101830000E94EA1981E0F3CF8091171B823018F0E3
:101840000E94EA19F9CFFFCFEF92FF921F93CF9337
:10185000DF93643008F063E00FB6F8940F920097BE
:1018600009F451C0EC012FA1261769F1261798F150
:101870008091071B9091081B10E0C817D907D1F180
:101880003A8D2317D9F16FA38E859F85A889B989D1
:10189000B7FD0CC084E090E0A0E0B0E0861B9109A9
:1018A000A109B1098E879F87A88BB98B8BE0389FE0
:1018B000C0011124895E944E2C853D852817390777
:1018C00049F11130E9F00F900FBEDF91CF911F91D8
:1018D000FF90EF9008958091071B9091081BC81707
:1018E000D907B1F0E091071BF091081B10E0828D41
:1018F000681730F211E03A8D231729F66A8FC3CFAB
:101900000E94EA19E0CFC091071BD091081BABCF12
:1019100010E0B6CFA2E0EA2EF12CEC0EFD1EC701BE
:101920000E94C8189A8D8091091B891710F4909312
:10193000091B8BE0989FC0011124895E944EB7016A
:101940000E946818BECFAF92BF92CF92DF92EF9203
:10195000FF920F931F935B016C0161157105810567
:10196000910559F40E94EA191F910F91FF90EF9091
:10197000DF90CF90BF90AF9008958091101B8F5F44
:101980008093101BE0900B1BF0900C1B00910D1B23
:1019900010910E1B8091071B9091081B02960E94CC
:1019A000C818EA0CFB1C0C1D1D1DC801B7010E94C4
:1019B000FA0A0E94A50B8823B9F6D4CFEF92FF92C2
:1019C0000F931F93FC017A018B018091101B8F5F95
:1019D0008093101B20910B1B30910C1B40910D1B11
:1019E00050910E1B80819181A281B381E80EF91E76
:1019F0000A1F1B1F281739074A075B0720F5E8163F
:101A0000F9060A071B0748F52E153F054007510741
:101A100020F5E082F182028313838091071B90916D
:101A2000081B02960E94C818C801B7010E94FA0A52
:101A30000E94A50B882311F40E94EA191F910F91AF
:101A4000FF90EF900895E816F9060A071B0708F3C0
:101A50002E153F0540075107E0F2E082F182028334
:101A60001383E6CFF8941092151B0E9481190895F4
:101A70002F923F924F925F926F927F928F929F929E
:101A8000AF92BF92CF92DF92EF92FF920F931F938C
:101A9000CF93DF932C01362E272E5A013901102FB8
:101AA000470189E290E00E94C906EC01009709F421
:101AB000BCC0C114D10409F4ACC0DC8ECB8EC6010D
:101AC00065EA70E0A5010E94E822EB8CFC8C832D76
:101AD000922D9C01F901DE0190E080815D968C934E
:101AE0005D978081882329F09F5F319611969A3007
:101AF000A1F71EA2012F143008F089C00A8F0FA38E
:101B000018A682E0C82ED12CCC0EDD1EC6010E9484
:101B10006418CE010E960E946418DB87CA8784E0A1
:101B200090E0A0E0B0E0801B9109A109B1098E8787
:101B30009F87A88BB98BDF8BCE8B0894A108B10847
:101B4000C7018A0D9B1DB201A3010E94F31899835E
:101B500088838114910419F0F401D183C0830FB6F6
:101B6000F8940F928091141B8F5F8093141B8091C7
:101B7000071B9091081B892B09F459C08091151BF4
:101B8000882359F4E091071BF091081B828D1817E8
:101B900020F0D093081BC093071B8091161B8F5F0A
:101BA0008093161B9A8D8091091B891710F49093CE
:101BB000091B8BE0989FC0011124895E944EB601E9
:101BC0000E9468180F900FBE8091151B882359F052
:101BD000E091071BF091081B828D811720F40E9471
:101BE000EA1981E001C081E0DF91CF911F910F914F
:101BF000FF90EF90DF90CF90BF90AF909F908F902D
:101C00007F906F905F904F903F902F90089503E0EA
:101C100075CFC5010E94C9066C019C8F8B8F009700
:101C200009F04DCFCE010E949B068FEFDDCFD09300
:101C3000081BC093071B8091141B813009F0ADCFA6
:101C400087E19BE10E94501882E29BE10E945018BC
:101C50008DE29BE10E94501888E39BE10E9450189E
:101C600003E4E02E0BE1F02EC7010E945018BEE401
:101C7000AB2EBBE1BB2EC5010E9450188DE59BE148
:101C80000E945018F0925A1BE092591BB0925C1BB4
:101C9000A0925B1B82CFAF92BF92CF92DF92EF9266
:101CA000FF920F938CE19CE063E672E044E650E023
:101CB00020E030E000E0E2E1EE2EEBE1FE2ECC246D
:101CC000DD24AA24BB240E94380D813041F00F91FD
:101CD000FF90EF90DF90CF90BF90AF900895F89471
:101CE0008093151B10920B1B10920C1B10920D1B56
:101CF00010920E1B0E9442190F91FF90EF90DF90FF
:101D0000CF90BF90AF9008950F931F93CF93DF9321
:101D1000EC018091681B9091691B892B61F1CE01C8
:101D20006BE00E9412158C016CE473E00E94CE14EB
:101D3000C80166E00E941215CE016BE00E941215E8
:101D40008C0169E273E00E94CE14C80166E00E9433
:101D50001215A091681BB091691BED91FC91119730
:101D60000190F081E02DCD01BE011995DF91CF9159
:101D70001F910F910895CE016BE00E9412158C0106
:101D80006BE073E00E94CE14C80166E00E94121559
:101D9000DF91CF911F910F910895FF920F931F93A1
:101DA000CF93DF93EC018B0180E792E099838883E6
:101DB00061157105B1F0FB0101900020E9F7319741
:101DC000FE2EF61A8CE08F15E0F08F2D90E0019634
:101DD0000E94A0148C839D83B8014F2D50E00E9477
:101DE000EF228091681B9091691B9F838E83D09313
:101DF000691BC093681BDF91CF911F910F91FF90DA
:101E000008958CE0F82EE1CFFF920F931F93CF93AC
:101E1000DF93EC018B0180E792E099838883611561
:101E20007105B1F0FB0101900020E9F73197FE2E1A
:101E3000F61A8CE08F15E0F08F2D90E001960E944D
:101E4000A0148C839D83B8014F2D50E00E94EF2297
:101E50008091681B9091691B9F838E83D093691B2F
:101E6000C093681BDF91CF911F910F91FF90089550
:101E70009CE0F92EE1CFFC016487658708950E94FC
:101E800076070E94372020E030E04AE754E40E94C1
:101E90008B1F0895CF93DF93FC01C681D7812097D4
:101EA00039F0CE010E94CE14CE0166E00E941215D8
:101EB0002BE088E190E00FB6F894A895809360003D
:101EC0000FBE20936000FFCF0F931F938C01DC01A6
:101ED000ED91FC910190F081E02D1995F8011382AC
:101EE00012826FEF7FEF8FEF9FEF0E94A30CF9CF6D
:101EF0004F925F926F927F928F929F92AF92BF921A
:101F0000CF92DF92EF92FF920F931F93CF93DF93C5
:101F1000EC012B01A42F49013801FC0186E792E076
:101F20008193919386E192E0A9019E010A2F7F019E
:101F3000CC24DD24AA24BB240E94380D282F7F82C4
:101F40006E829986888680916A1B90916B1B9D8317
:101F50008C83D0936B1BC0936A1B1C861D8680915B
:101F6000781B9091791B01969093791B8093781B35
:101F70009B878A871E861F86188A198A61147104B6
:101F8000E1F0213059F1C3016BE00E9412158C0180
:101F90006FE673E00E94CE14C801B2010E94CE1415
:101FA000D801ED91FC910280F381E02DC80162E23D
:101FB0001995C80166E00E941215DF91CF911F911B
:101FC0000F91FF90EF90DF90CF90BF90AF909F90D8
:101FD0008F907F906F905F904F900895C3016BE05A
:101FE0000E9412158C016CE973E00E94CE14C801A6
:101FF000B2010E94CE14C8016BE00E9412158C0140
:1020000065E873E00E94CE14C80163E00E941215D7
:102010006A857B850E94651562E00E94121566E064
:102020000E941215CACF4F925F926F927F928F9249
:102030009F92AF92BF92CF92DF92EF92FF920F9357
:102040001F93CF93DF93EC012B01A42F490138019B
:10205000FC0186E792E08193919386E192E0A901E9
:102060009E010A2F7F01CC24DD24AA24BB240E94D8
:10207000380D282F7F826E829986888680916A1B10
:1020800090916B1B9D838C83D0936B1BC0936A1BB9
:102090001C861D868091781B9091791B01969093E8
:1020A000791B8093781B9B878A871E861F86188AD8
:1020B000198A61147104E1F0213059F1C3016BE018
:1020C0000E9412158C016FE673E00E94CE14C801C5
:1020D000B2010E94CE14D801ED91FC910280F381EF
:1020E000E02DC80162E21995C80166E00E94121550
:1020F000DF91CF911F910F91FF90EF90DF90CF90E4
:10210000BF90AF909F908F907F906F905F904F9017
:102110000895C3016BE00E9412158C016CE973E015
:102120000E94CE14C801B2010E94CE14C8016BE017
:102130000E9412158C0165E873E00E94CE14C8015C
:1021400063E00E9412156A857B850E94651562E036
:102150000E94121566E00E941215CACFEF92FF92FC
:102160000F931F93CF93DF93EC017B01C7016BE0CB
:102170000E9412158C0163EA73E00E94CE148A81DA
:102180009B810E949407BC01C8010E94CE14C80123
:1021900066E00E9412156A857B85888599859B017A
:1021A000281B390BC901A7010E9407140C80DD818F
:1021B000C02D2097D9F6DF91CF911F910F91FF90FD
:1021C000EF9008950F931F93CF93DF93EC018091CD
:1021D0006A1B90916B1B009719F0BE010E94AE1014
:1021E000CE016BE00E9412158C016AEA73E00E9436
:1021F000CE14C80166E00E9412156091781B7091A0
:10220000791BCB01835690406F5F7F4FAE010E94D8
:102210000714DF91CF911F910F9108950F931F9392
:10222000182F092FDB01ED91FC910280F381E02D45
:10223000CB01612F702F1995812F902F1F910F9136
:1022400008950F931F93CF93DF93EC018B01C80187
:10225000BE010E940E1166E00E9412150C80DD8105
:10226000C02D2097A1F7DF91CF911F910F91089575
:102270000F931F93CF93DF93EC016BE00E94121535
:102280008C0163E174E00E94CE14C8016BE00E94EF
:1022900012158C016CE074E00E94CE14C80166E057
:1022A0000E941215CE016BE00E9412158C016BEF9B
:1022B00073E00E94CE14C8016BE00E9412158C01DD
:1022C0006FEE73E00E94CE14C8016BE00E941215FD
:1022D0008C0169EE73E00E94CE14C80166E00E9492
:1022E0001215CE016BE00E9412158C0168ED73E0AF
:1022F0000E94CE14C8016BE00E9412158C016CEC98
:1023000073E00E94CE14C8016BE00E9412158C018C
:1023100066EC73E00E94CE14C80166E00E941215BC
:1023200080916A1B90916B1B009719F0BE010E946F
:102330002111CE016BE00E9412158C016BEB73E052
:102340000E94CE140E94A4070E947208682FC80140
:102350000E94E8156BE00E9412158C0169EB73E096
:102360000E94CE14C80164E670E00E9465156BE01F
:102370000E9412158C0165EB73E00E94CE14C80117
:1023800066E00E941215DF91CF911F910F91089581
:10239000EF92FF920F931F93CF93DF937C01EB019A
:1023A000FC01828193810E949407BC01CE010E94AE
:1023B000CE14E881F9810280F381E02DCE0169E03D
:1023C0001995F701828193810E949407FC01019085
:1023D0000020E9F73197E81BF90B389740F4E881C2
:1023E000F9810280F381E02DCE0169E01995F701B2
:1023F000828193810E945E07682FCE010E94E815BA
:102400006BE00E9412158C0166E274E00E94CE140B
:10241000C801F70164850E94E8156BE00E9412155F
:102420008C0164E274E00E94CE14F70182819381F2
:102430000E947208682FC8010E94E8156BE00E9494
:1024400012158C0162E274E00E94CE14F7016085DF
:102450007185C8010E9465156BE00E9412158C0100
:1024600060E274E00E94CE14C8016BE00E94121575
:102470008C016EE174E00E94CE14F7014685578509
:1024800060897189C8010E94A015DF91CF911F91C9
:102490000F91FF90EF9008950F93DF93CF930F92DA
:1024A000CDB7DEB7FC0186859785BE016F5F7F4F94
:1024B0002FEF3FEF4FEF5FEF00E00E943E1B8130B8
:1024C00031F08FEF0F90CF91DF910F9108958981B7
:1024D0000F90CF91DF910F910895FC01868597852C
:1024E0000E944B1A811181E008950F93DF93CF93DF
:1024F0000F92CDB7DEB7FC0169832089318942890B
:10250000538986859785BE016F5F7F4F00E00E94EB
:10251000C91C0F90CF91DF910F91089506970E94EB
:1025200092120895EF92FF920F931F93CF93DF9330
:102530007C01EB01DC011A966D917C911B97CE0119
:102540000E94CE14F701A285B385FD010190002001
:10255000E9F731970E2F0A1B003158F4E881F98111
:102560000280F381E02DCE0160E219950F5F00310A
:10257000A8F3CE016AE772E00E94CE14D7011E963E
:102580008D919C911F970E94531A682FCE010E9433
:10259000E8158C01DC01ED91FC910280F381E02DC6
:1025A0006FE21995F70166897789C8010E94651560
:1025B000DC01ED91FC910280F381E02D69E0199539
:1025C000CE0166E00E941215F701A485B58510972B
:1025D00049F0ED91FC9111970190F081E02DCD0132
:1025E000BE011995DF91CF911F910F91FF90EF9050
:1025F00008956F927F928F929F92AF92BF92CF92E7
:10260000DF92EF92FF920F931F936C01762E672E4D
:102610005A0149010E94A614C6010696B5010E94FE
:10262000040F85E892E0F6019183808342969783B8
:102630008683958A848A872D61E040E00E94021E8D
:10264000F60197878687E08AF18A028B138B768A58
:10265000678A1F910F91FF90EF90DF90CF90BF900E
:10266000AF909F908F907F906F9008956F927F9220
:102670008F929F92AF92BF92CF92DF92EF92FF9292
:102680000F931F936C01762E672E5A0149010E9409
:10269000A614C6010696B5010E94040F85E892E0D3
:1026A000F60191838083429697838683958A848AF4
:1026B000872D61E040E00E94021EF6019787868721
:1026C000E08AF18A028B138B768A678A1F910F91B9
:1026D000FF90EF90DF90CF90BF90AF909F908F9042
:1026E0007F906F900895AF92BF92CF92DF92EF925A
:1026F000FF920F931F93DF93CF93CDB7DEB767970A
:102700000FB6F894DEBF0FBECDBF7C018B01DB019D
:102710006D917D918D919C9128EE33E040E050E0E9
:102720000E946B22C701BA01A9010E94A015D7011E
:10273000ED91FC910280F381E02DC7016EE21995C5
:10274000C8010E94311E282F8E010A5F1F4F38E0FA
:10275000A32EB12CAC0EBD1E80E1C82ED12CCC0E08
:10276000DD1E822F2AE030E040E050E00E948D2202
:10277000288B398B4A8B5B8B6C8B7D8B8E8B9F8BE5
:10278000D501F60188E001900D928150E1F768854E
:1027900079852A859B858C85805DF8018083015031
:1027A00010400C171D07E9F61F82C701BE016F5FBD
:1027B0007F4F0E94CE14C70167960FB6F894DEBF14
:1027C0000FBECDBFCF91DF911F910F91FF90EF9082
:1027D000DF90CF90BF90AF9008950F931F938C011F
:1027E0000FB6F8940F928091240190912501F80181
:1027F000958384830E947607F801608371838283C6
:1028000093830F900FBEC8011F910F910895AF924F
:10281000BF92CF92DF92EF92FF920F931F93CF93CD
:10282000DF936C015B01EA01CA0163E00E941215AB
:10283000CA14DB0408F052C0CE01B6010E9465152F
:102840006BE00E94121568E274E00E94CE147601DB
:1028500010E0F70161917F01CE010E94E815E88147
:10286000F9810280F381E02DCE0160E219951F5FAE
:10287000143179F7E881F9810280F381E02DCE01EE
:1028800060E21995760186010C5E1F4F0AC0E8814F
:10289000F9810280F381E02DCE011995E016F10651
:1028A000A1F0F70161917F01653A39F1862F8052DD
:1028B0008F3568F3E881F9810280F381E02DCE0144
:1028C0006EE21995E016F10661F76701CE0166E048
:1028D0000E941215EA14FB0408F4AECFCE0162E0A8
:1028E0000E941215DF91CF911F910F91FF90EF90F1
:1028F000DF90CF90BF90AF900895E881F98102807A
:10290000F381E02DCE0160E21995C8CFFC0120E0F3
:1029100030E08081882311F421E030E0C90108957E
:10292000FC0181E08083089508950895009711F0D7
:102930000E949B060895009711F00E949B0608953F
:102940000E94C90608950E94C9060895FC018FE9F6
:1029500092E0918380838AE0828383E0858314827E
:102960000895FC018FE992E0918380838AE082835D
:1029700083E085831482089581E0089580E00895BE
:1029800080E008950895FC01A081B18112962D91F7
:102990003C9113976CE0F901199508950F931F93DB
:1029A000CF93DF938C01EB01DC0114968C9188238B
:1029B00011F1F8011482FB016491662371F02196F4
:1029C000D801ED91FC910280F381E02DC8011995A9
:1029D000FE0121966491662399F7DF91CF911F91B3
:1029E0000F9108952196D801ED91FC910280F38119
:1029F000E02DC801199568816623A1F7DF91CF9179
:102A00001F910F910895883008F087E08093990214
:102A100089E00895982F82508F3010F490939A0295
:102A20008AE00895CF93DF93EC016630F1F16730CF
:102A300090F0693061F16A30C8F4673009F16830AC
:102A400031F4E881F9810084F185E02D1995CE01FA
:102A5000DF91CF910895613029F1613070F06230DB
:102A6000D1F06330A1F780E18A83F1CF6A30B1F011
:102A70006B3069F781E08C83EACF82E08A83E7CF0D
:102A8000E881F9810284F385E02D1995E0CF8091EA
:102A900099028D83DCCF8AE08A83D9CF80919A0214
:102AA0008A83D5CF88E08A83D2CFE881F9810280FA
:102AB000F381E02D6DE01995E881F9810280F381C1
:102AC000E02DCE016AE01995C2CFEF92FF920F93ED
:102AD0001F93DF93CF93CDB7DEB761970FB6F8940E
:102AE000DEBF0FBECDBF7C01062F672FFC014281E8
:102AF000403191F0483081F0423071F0802F972FB3
:102B00008E010F5F1F4FB80150E00E942323C701C1
:102B1000B8010E94CE1406C0C7010E94E815602FBC
:102B20000E94E815C70161960FB6F894DEBF0FBE8C
:102B3000CDBFCF91DF911F910F91FF90EF9008953E
:102B4000DF92EF92FF920F931F93DF93CF93CDB756
:102B5000DEB7A1970FB6F894DEBF0FBECDBF7C01E4
:102B6000D42E152F062F372FFC0122812031A1F002
:102B7000283091F0223081F0642F752F802F932F11
:102B80008E010F5F1F4FA80130E00E94FE22C70197
:102B9000B8010E94CE140DC0C701632F0E94E81532
:102BA000602F0E94E815612F0E94E8156D2D0E948C
:102BB000E815C701A1960FB6F894DEBF0FBECDBFD2
:102BC000CF91DF911F910F91FF90EF90DF900895CB
:102BD000AF92BF92CF92DF92EF92FF920F931F932B
:102BE000DF93CF93CDB7DEB729970FB6F894DEBF4A
:102BF0000FBECDBF6C01162FDC0113968C9113977D
:102C0000882309F05FC0F6014281423089F14031EA
:102C100009F060C062956F70D601ED91FC91028061
:102C2000F381E02D6A3008F063C0605DC60119953C
:102C3000612F6F70D601ED91FC910280F381E02D40
:102C40006A3008F457C0695CC6011995C601299617
:102C50000FB6F894DEBF0FBECDBFCF91DF911F91AD
:102C60000F91FF90EF90DF90CF90BF90AF900895BD
:102C7000A62EBB2480E8EE24FF2413C0D601ED91DC
:102C8000FC910280F381E02DC60161E31995159551
:102C90000795802F0894E11CF11CB8E0EB16F104B5
:102CA000A9F2082F10E0C8018A219B21892B31F756
:102CB000D601ED91FC910280F381E02DC60160E325
:102CC0001995E5CFED91FC910280F381E02DC601CD
:102CD0001995BCCF862F90E08E010F5F1F4FB80172
:102CE00050E00E942323C601B8010E94CE14AECF4B
:102CF000695C9CCF605DA8CFDC011896ED91FC91DA
:102D0000199780811C962C911C9730E090E08223CB
:102D10009323892B79F440E050E006C04F5F5F4F6A
:102D20008EE44132580789F0808190E0822393231A
:102D3000892BA1F380811E969C911E97892B8083FD
:102D40001696ED91FC91179760830895FC01878595
:102D5000882301F520916E1B30916F1B8091701BB1
:102D60009091711B28173907B1F1E0916C1BF0911C
:102D70006D1BE20FF31FE081C901019690936F1B59
:102D800080936E1B809720F010926F1B10926E1B29
:102D90008E2F08952091741B3091751B8091761BA6
:102DA0009091771B28173907A9F0E091721BF091D9
:102DB000731BE20FF31FE081C90101969093751B0D
:102DC0008093741B809720F31092751B1092741BD4
:102DD0008E2F0895FFCFFFCFFC018785882379F0E0
:102DE00040E02091741B3091751B8091761B90916F
:102DF000771B2817390709F041E0842F089540E038
:102E000020916E1B30916F1B8091701B9091711BF4
:102E10002817390789F7842F0895FC01A081B18113
:102E200012962D913C9113976CE0F9011995089534
:102E30001F920F920FB60F920BB60F9211242F9381
:102E40003F938F939F93EF93FF938091C600E09100
:102E50006C1BF0916D1B2091701B3091711BE20F68
:102E6000F31F80832091701B3091711B2F5F3F4FA8
:102E70003093711B2093701B2032310530F010927B
:102E8000711B1092701B20E030E080916E1B9091BE
:102E90006F1B2817390769F0FF91EF919F918F9170
:102EA0003F912F910F900BBE0F900FBE0F901F9070
:102EB0001895C901019690936F1B80936E1B8097A4
:102EC00058F310926F1B10926E1BE6CF1F920F9259
:102ED0000FB60F920BB60F9211242F933F938F933F
:102EE0009F93EF93FF938091CE00E091721BF0913E
:102EF000731B2091761B3091771BE20FF31F8083A9
:102F00002091761B3091771B2F5F3F4F3093771BBB
:102F10002093761B2032310530F01092771B1092EF
:102F2000761B20E030E08091741B9091751B281770
:102F3000390769F0FF91EF919F918F913F912F9108
:102F40000F900BBE0F900FBE0F901F901895C901E8
:102F500001969093751B8093741B809758F3109281
:102F6000751B1092741BE6CFDF92EF92FF920F93C6
:102F70001F938C017B01D42E0E94A614C8010696D3
:102F8000B7014D2D0E946F1E8FEA92E0F8019183E8
:102F90008083D786DD20D9F08091C9008068809336
:102FA000C90080E290E00E94A0149093731B80936C
:102FB000721B1092751B1092741B1092771B10924B
:102FC000761B1F910F91FF90EF90DF9008958091F5
:102FD000C10080688093C10080E290E00E94A0144C
:102FE00090936D1B80936C1B10926F1B10926E1B45
:102FF0001092711B1092701B1F910F91FF90EF9018
:10300000DF900895DF92EF92FF920F931F938C0150
:103010007B01D42E0E94A614C8010696B7014D2D3F
:103020000E946F1E8FEA92E0F80191838083D78619
:10303000DD20D9F08091C90080688093C90080E2CA
:1030400090E00E94A0149093731B8093721B1092C7
:10305000751B1092741B1092771B1092761B1F9198
:103060000F91FF90EF90DF9008958091C1008068EC
:103070008093C10080E290E00E94A01490936D1BA9
:1030800080936C1B10926F1B10926E1B1092711B21
:103090001092701B1F910F91FF90EF90DF90089599
:1030A000FC019C012D5F3F4F328321838FEF9FEF07
:1030B000AFEFBFEF83839483A583B68330872783E5
:1030C0003287218710820895FC01138612860895A5
:1030D000AC01FC01A181B281FB01B583A4831696EA
:1030E0008D919C911797978386831696ED91FC910D
:1030F00017977583648317967C936E931697FB01DD
:1031000053874287FA0180818F5F808308950F93F0
:103110001F93CF93DF938C01DB012D913D914D9156
:103120005C912F3FBFEF3B07BFEF4B07BFEF5B0744
:1031300049F1EC01239601C0EF01EC81FD81808112
:103140009181A281B381281739074A075B07A0F74D
:10315000DB011596FC93EE9314977783668317969D
:10316000DC93CE9316977D836C831B961C930E93F2
:103170001A97F80180818F5F8083DF91CF911F9133
:103180000F910895FC01C185D285EC81FD81E0CFCE
:10319000CF93DF93DC011A96CD91DC911B971496A7
:1031A0004D915C91159716968D919C911797FA0108
:1031B0009783868316962D913C911797F901558335
:1031C000448389819A818A179B0751F01B961C9230
:1031D0001E921A97888181508883DF91CF9108953C
:1031E0003A832983F3CFFC019093791B8093781B5A
:1031F00091E1908322E2229383E38293629372931C
:103200001292129280E8829312921292129282E0AB
:10321000829383E0829384E0829385E0829386E0C8
:10322000829387E0829388E0829389E0829380E1B1
:103230008293929382E1829383E1829384E18293E9
:1032400085E1829386E1829387E1829388E182938C
:1032500089E1829380E2829381E28293229383E2E6
:1032600082934293529386E2829387E2829388E22A
:10327000829389E2829380E3829381E38293319700
:10328000CF01089587E0809329018FEC8093280176
:103290008AE080932101E3E7F0E08081826080830F
:1032A000A091071BB091081BCD91CDBFDD91DEBF72
:1032B000FF91EF91DF91CF91BF91AF919F918F914E
:1032C0007F916F915F914F913F912F911F910F913E
:1032D000FF90EF90DF90CF90BF90AF909F908F9036
:1032E0007F906F905F904F903F902F901F900F9026
:1032F0000CBE0F900BBE0F900FBE0F90089581E093
:10330000089508950F920FB6F8940F920BB60F928E
:103310000CB60F921F9211242F923F924F925F9200
:103320006F927F928F929F92AF92BF92CF92DF92D5
:10333000EF92FF920F931F932F933F934F935F93BF
:103340006F937F938F939F93AF93BF93CF93DF93AD
:10335000EF93FF93A091071BB091081B0DB60D9240
:103360000EB60D920E94E409882311F00E94A9076D
:10337000A091071BB091081BCD91CDBFDD91DEBFA1
:10338000FF91EF91DF91CF91BF91AF919F918F917D
:103390007F916F915F914F913F912F911F910F916D
:1033A000FF90EF90DF90CF90BF90AF909F908F9065
:1033B0007F906F905F904F903F902F901F900F9055
:1033C0000CBE0F900BBE0F900FBE0F9008950E9481
:1033D000821918950F920FB6F8940F920BB60F92B0
:1033E0000CB60F921F9211242F923F924F925F9230
:1033F0006F927F928F929F92AF92BF92CF92DF9205
:10340000EF92FF920F931F932F933F934F935F93EE
:103410006F937F938F939F93AF93BF93CF93DF93DC
:10342000EF93FF93A091071BB091081B0DB60D926F
:103430000EB60D920E94A907A091071BB091081B20
:10344000CD91CDBFDD91DEBFFF91EF91DF91CF91A7
:10345000BF91AF919F918F917F916F915F914F91AC
:103460003F912F911F910F91FF90EF90DF90CF90A0
:10347000BF90AF909F908F907F906F905F904F9094
:103480003F902F901F900F900CBE0F900BBE0F908F
:103490000FBE0F9008950FB6F8940F92FC01868D21
:1034A0000F900FBE0895FC010FB6F8940F92968D01
:1034B0000F900FBE878D891B0895FC01868D08959E
:1034C000FC01868D90E0882309F491E0892F08950E
:1034D000FC01968D20E0878D981711F0822F0895BA
:1034E00021E0822F0895CF93DF93EC0188819981A9
:1034F000009711F00E949B06CE010E949B06DF916F
:10350000CF910895FC01562FA72F40A14423B1F07D
:1035100086819781840F911D9783868322813381D1
:103520008217930720F0808191819783868366813B
:103530007781852F9A2F50E00E94DF2208950F9304
:103540001F93CF93DF93EC018E8D882341F00E8182
:103550001F81CE010E94821A1F830E8381E0DF91BA
:10356000CF911F910F9108950F931F93CF93DF93E6
:103570008A01EC018E8D882329F4DF91CF911F9170
:103580000F910895CE010E94821A8E8D81508E8FE8
:1035900089A18F3F49F089A18F5F89A381E0DF91E5
:1035A000CF911F910F9108958885882311F481E0B0
:1035B000E4CFCE0108960E949B098823C1F3011530
:1035C0001105A9F381E0F8018083D7CF0F931F93F2
:1035D000CF93DF93EC010FB6F8940F928AA11816DF
:1035E000ECF48B898823D1F08E010D5E1F4F09C04A
:1035F0008AA181508AA38AA1181684F48B89882312
:1036000069F0C8010E949B09882391F30E946E080B
:103610008AA181508AA38AA1181684F38FEF8AA306
:103620000F900FBE0FB6F8940F9289A11816ECF404
:1036300088858823D1F08E01085F1F4F09C089A1BA
:10364000815089A389A1181684F48885882369F09C
:10365000C8010E949B09882391F30E946E0889A1EA
:10366000815089A389A1181684F38FEF89A30F9045
:103670000FBEDF91CF911F910F9108957F928F928E
:103680009F92AF92BF92CF92DF92EF92FF920F93F1
:103690001F93DF93CF93CDB7DEB729970FB6F8947A
:1036A000DEBF0FBECDBF4B012E833F8348875987B6
:1036B000702E8C0193E1C92ED12CC00ED11E20E0BA
:1036C0007E010894E11CF11C86E0A82EB12CAC0E02
:1036D000BD1E0FB6F8940F92F801868D882309F06D
:1036E00060C08E819F81A885B9850097A105B1052D
:1036F00009F475C0222309F43EC00F900FBE0E944A
:1037000070070FB6F8940F92F80181A18F3F89F1ED
:10371000F80182A18F3F59F10F900FBEC701B5018B
:103720000E940908882309F071C00FB6F8940F921F
:10373000F801868D0F900FBE882309F5F80180816E
:103740009181892B19F14E815F8168857985C60148
:103750000E947D0BC8010E94E61A0E94A50B8823D7
:1037600011F021E0B6CF0E94EA1921E0B2CF12A2F7
:10377000D3CF11A2CDCFC7010E94F807BECFC80199
:103780000E94E61A0E94A50B21E0A3CF0FB6F89481
:103790000F92F801828193810E9409090F900FBE58
:1037A000D2CFE680F780C801B4010E94821A772048
:1037B000A1F5F801868D8150868F80819181892BBA
:1037C00009F43BC0F8018085882369F1C801089697
:1037D0000E949B09813039F50E94EA1924C00F909C
:1037E0000FBE80E029960FB6F894DEBF0FBECDBFA6
:1037F000CF91DF911F910F91FF90EF90DF90CF90CD
:10380000BF90AF909F908F907F900895C8010E94C5
:10381000E61A0E94A50B80E0E5CFF801F782E68268
:103820008389882321F40F900FBE81E0DBCFC6018E
:103830000E949B098823B9F3CFCF0E94B708F801F3
:1038400093838283BFCF1F93CF93DF93EC01142F19
:1038500048A1442371F488819981892B09F451C0CE
:1038600090E08E8D8F5F8E8F892FDF91CF911F918A
:1038700008951123F1F48C819D8150E00E94DF2294
:1038800088A12C813D81280F311D3D832C838A81A5
:103890009B812817390720F3888199819D838C8328
:1038A00090E08E8D8F5F8E8F892FDF91CF911F914A
:1038B00008958E819F8150E00E94DF2288A190E0D0
:1038C00044275527481B590B8E819F81840F951FD4
:1038D0009F838E83288139818217930730F48A81F0
:1038E0009B81840F951F9F838E83123009F0B8CF80
:1038F0008E8D882309F4B4CF8E8D81508E8F90E009
:10390000B0CF8A819B810E94CA08982F1B821A829D
:10391000A8CF0F931F93CF93DF938A01EC019E8D65
:103920008F8D981740F0223031F080E0DF91CF91F9
:103930001F910F910895CE01422F0E94231C8823CE
:1039400031F00115110519F081E0F80180838AA199
:103950008F3F49F08AA18F5F8AA381E0DF91CF91E9
:103960001F910F9108958B89882331F481E0DF91B5
:10397000CF911F910F910895CE0143960E949B090C
:103980008823A1F30115110589F381E0F8018083F3
:10399000CDCF6F927F929F92AF92BF92CF92DF92E4
:1039A000EF92FF920F931F93DF93CF93CDB7DEB7C4
:1039B00029970FB6F894DEBF0FBECDBF3B012E8313
:1039C0003F8348875987902E8C0148E0C42ED12C24
:1039D000C80ED91E20E07E010894E11CF11C36E0DF
:1039E000A32EB12CAC0EBD1E0FB6F8940F92F801A9
:1039F000968D878D981708F456C0F2E09F1609F44B
:103A000052C08E819F81A885B9850097A105B10517
:103A100009F46CC0222309F442C00F900FBE0E942B
:103A200070070FB6F8940F92F80181A18F3FA9F1AA
:103A3000F80182A18F3F79F10F900FBEC701B50148
:103A40000E940908882309F055C00FB6F8940F9218
:103A5000F801968D0F900FBEF801878D9817A1F48D
:103A60004E815F8168857985C6010E947D0BC80102
:103A70000E94E61A0E94A50B882311F021E0B4CF22
:103A80000E94EA1921E0B0CFC8010E94E61A0E9404
:103A9000A50B21E0A9CF12A2CFCF11A2C9CFC70198
:103AA0000E94F807BACFC801B301492D0E94231C18
:103AB000982FF8018389882321F5992341F50F90E8
:103AC0000FBE81E029960FB6F894DEBF0FBECDBFC2
:103AD000CF91DF911F910F91FF90EF90DF90CF90EA
:103AE000BF90AF909F907F906F9008950F900FBE02
:103AF00080E0E8CFC8010E94E61A0E94A50B80E092
:103B0000E1CFC80143960E949B098130C1F60E9413
:103B1000EA19D5CF0F93CF93DF9383E290E00E9411
:103B2000C906EC01009709F11B821A8219821882DA
:103B30001D821C821F821E821E8E81E08F8F18A222
:103B40008FEF89A38AA3CE0108960E945018CE0158
:103B500043960E945018CE0160E070E020E030E013
:103B600040E050E000E00E94C91CCE01DF91CF91FF
:103B70000F910895CF93DF93EC010FB6F8940F9255
:103B8000E8A12F8DE29FC001112448815981840F43
:103B9000951F9B838A831E8E5D834C8330E021506A
:103BA0003040F0E02E9FC0012F9F900D3E9F900D62
:103BB0001124480F591F5F834E838FEF89A38AA377
:103BC000662391F48885882331F40F900FBE81E03D
:103BD000DF91CF910895CE0108960E949B09813014
:103BE000A1F70E94EA19F1CFCE0108960E94501861
:103BF000CE0143960E9450180F900FBE81E0DF91D6
:103C0000CF9108950F931F93CF93DF93182F062F13
:103C1000882341F420E030E0C901DF91CF911F916A
:103C20000F91089583E290E00E94C906EC0100978D
:103C300089F3019FC001112401960E94C90699834E
:103C40008883009741F01F8F08A3CE0161E00E9496
:103C5000BA1D9E01E1CFCE010E949B0620E030E01C
:103C6000DBCFCF92DF92EF92FF920F931F936C0105
:103C7000FC01608171818281938128EE33E040E014
:103C800050E00E946B2220E432E44FE050E00E94BA
:103C90004C2228EE33E040E050E00E946B22790194
:103CA0008A01F6016481758180E090E020E432E4CD
:103CB0004FE050E00E944C2220E834E84EE150E012
:103CC0000E946B22E20EF31E041F151FB701C801EC
:103CD0001F910F91FF90EF90DF90CF900895CF93B9
:103CE000DF93EC01442309F441C08EEC90E099830A
:103CF000888388EC90E09B838A8389EC90E09D83A5
:103D00008C8388E18093C90086E08093CA0010927A
:103D1000CD009B0140E050E0220F331F441F551F90
:103D2000220F331F441F551F220F331F441F551FDF
:103D3000220F331F441F551F60E074E284EF90E0B0
:103D40000E946B222093CC008091C80081608093F8
:103D5000C80080E28E8380E88F8380E48887E881D2
:103D6000F98180818081DF91CF91089586EC90E088
:103D70009983888380EC90E09B838A8381EC90E038
:103D80009D838C8388E18093C10086E08093C2008C
:103D90001092C5009B0140E050E0220F331F441FEA
:103DA000551F220F331F441F551F220F331F441F5F
:103DB000551F220F331F441F551F60E074E284EF2C
:103DC00090E00E946B222093C4008091C00081602B
:103DD0008093C000BECFCF93DF93EC01442309F45E
:103DE00041C08EEC90E09983888388EC90E09B83BF
:103DF0008A8389EC90E09D838C8388E18093C9005D
:103E000086E08093CA001092CD009B0140E050E014
:103E1000220F331F441F551F220F331F441F551FEE
:103E2000220F331F441F551F220F331F441F551FDE
:103E300060E074E284EF90E00E946B222093CC005B
:103E40008091C80081608093C80080E28E8380E802
:103E50008F8380E48887E881F98180818081DF9188
:103E6000CF91089586EC90E09983888380EC90E070
:103E70009B838A8381EC90E09D838C8388E180938F
:103E8000C10086E08093C2001092C5009B0140E013
:103E900050E0220F331F441F551F220F331F441FB2
:103EA000551F220F331F441F551F220F331F441F5E
:103EB000551F60E074E284EF90E00E946B22209333
:103EC000C4008091C00081608093C000BECFDC013F
:103ED0001296ED91FC911397208140E030E0169608
:103EE0008C9190E028233923232B09F041E0842F83
:103EF0000895DC011296ED91FC911397208140E02A
:103F000030E018968C9190E028233923232B09F474
:103F100041E0842F0895A8E1B0E0E1E9FFE10C94CD
:103F2000B02269837A838B839C832D833E834F8366
:103F30005887B9E0EB2EF12CEC0EFD1ECE01019658
:103F4000B7010E94D4218E010F5E1F4FCE0105964E
:103F5000B8010E94D4212985223008F47EC0398915
:103F6000323010F4B8017CC08A859A8989278A8703
:103F7000243011F0223031F4231709F06EC06BEBBE
:103F800072E06EC0343039F41D861E861F86188A92
:103F90001C861B8604C0323021F484E08987B70177
:103FA0005FC02B853C858B899C89281B390B3C87FE
:103FB0002B87ED84FE840F851889AD88BE88CF8855
:103FC000D88CEA14FB040C051D0540F4EE0CFF1C14
:103FD000001F111F215030403C872B8720E030E02C
:103FE00040E050E080E090E0A0E0B0E460E070E00D
:103FF000EA14FB040C051D0540F0282B392B4A2B35
:104000005B2BEA18FB080C091D09B695A795979537
:104010008795EE0CFF1C001F111F6F5F7F4F6F31E4
:10402000710531F7DA01C9018F779070A070B07017
:1040300080349105A105B10561F427FD0AC0E114A2
:10404000F1040105110529F0205C3F4F4F4F5F4FF0
:1040500020782D873E874F87588BBE01675F7F4F43
:10406000CB010E94FF206896EAE00C94CC22A8E0E5
:10407000B0E0EDE3F0E20C94B0227B018C0161151D
:1040800071058105910519F482E0898360C083E0A0
:1040900089838EE1C82ED12CDC82CB82ED82FE8218
:1040A0000F831887C801B7010E94B020FC01319727
:1040B000F7FF3BC0222733272E1B3F0B5701680118
:1040C000022E04C0D694C794B794A7940A94D2F74A
:1040D00040E050E060E070E081E090E0A0E0B0E01F
:1040E00004C0880F991FAA1FBB1F2A95D2F70197FA
:1040F000A109B1098E219F21A023B1230097A10519
:10410000B10521F041E050E060E070E04A295B2910
:104110006C297D294D835E836F8378878EE190E0E3
:104120008E1B9F0B9C838B8312C0309781F00E2EC9
:1041300004C0EE0CFF1C001F111F0A94D2F7ED8281
:10414000FE820F831887CE1ADF0ADC82CB821A82A6
:10415000CE0101960E94FF202896EAE00C94CC2222
:10416000EF92FF920F931F937B018C0180E0E81682
:1041700080E0F80681E0080780E0180788F48FEFF8
:10418000E816F1040105110531F028F088E090E00F
:10419000A0E0B0E017C080E090E0A0E0B0E012C086
:1041A00080E0E81680E0F80680E0080781E0180764
:1041B00028F088E190E0A0E0B0E004C080E190E069
:1041C000A0E0B0E020E230E040E050E0281B390BF6
:1041D0004A0B5B0B04C016950795F794E7948A95F4
:1041E000D2F7F701ED53FD4F8081281B31094109BA
:1041F0005109C9011F910F91FF90EF900895DF922F
:10420000EF92FF920F931F93FC01E480F5800681EB
:104210001781D1808081823048F480E090E0A0E175
:10422000B0E0E82AF92A0A2B1B2BA5C0843009F438
:104230009FC0823021F4EE24FF24870105C0E114E1
:10424000F1040105110519F4E0E0F0E096C0628187
:1042500073819FEF623879070CF05BC022E83FEF73
:10426000261B370B2A3131052CF020E030E040E0EE
:1042700050E02AC0B801A701022E04C076956795C8
:10428000579547950A94D2F781E090E0A0E0B0E01E
:1042900004C0880F991FAA1FBB1F2A95D2F7019748
:1042A000A109B1098E219F21A023B1230097A10567
:1042B000B10521F081E090E0A0E0B0E09A01AB010F
:1042C000282B392B4A2B5B2BDA01C9018F77907091
:1042D000A070B07080349105A105B10539F427FFB5
:1042E00009C0205C3F4F4F4F5F4F04C0215C3F4FE0
:1042F0004F4F5F4FE0E0F0E02030A0E03A07A0E051
:104300004A07A0E45A0710F0E1E0F0E079018A01E1
:1043100027C06038710564F5FB01E158FF4FD801F3
:10432000C7018F779070A070B07080349105A1059F
:10433000B10539F4E7FE0DC080E490E0A0E0B0E004
:1043400004C08FE390E0A0E0B0E0E80EF91E0A1F81
:104350001B1F17FF05C016950795F794E794319634
:1043600087E016950795F794E7948A95D1F705C0ED
:10437000EE24FF248701EFEFF0E06E2F67956627AC
:104380006795902F9F77D794DD24D7948E2F8695AD
:10439000492F462B582F5D29B701CA011F910F9154
:1043A000FF90EF90DF900895FC01DB014081518187
:1043B0002281622F6F7770E0221F2227221F9381B4
:1043C000892F880F822B282F30E0991F9927991F5A
:1043D00011969C93119721153105A9F541155105A9
:1043E0006105710511F482E037C082E89FEF1396F2
:1043F0009C938E9312979A01AB0167E0220F331FB3
:10440000441F551F6A95D1F783E08C930DC0220F8E
:10441000331F441F551F12968D919C91139701973E
:1044200013969C938E931297203080E0380780E09B
:10443000480780E4580758F314962D933D934D9305
:104440005C93179708952F3F310579F44115510575
:104450006105710519F484E08C93089564FF03C02D
:1044600081E08C9312C01C9210C02F5730401396DD
:104470003C932E93129783E08C9387E0440F551F53
:10448000661F771F8A95D1F7706414964D935D93DC
:104490006D937C9317970895629FD001739FF001ED
:1044A000829FE00DF11D649FE00DF11D929FF00DC4
:1044B000839FF00D749FF00D659FF00D9927729FFB
:1044C000B00DE11DF91F639FB00DE11DF91FBD0186
:1044D000CF0111240895A1E21A2EAA1BBB1BFD01D6
:1044E0000DC0AA1FBB1FEE1FFF1FA217B307E407D3
:1044F000F50720F0A21BB30BE40BF50B661F771F2B
:10450000881F991F1A9469F760957095809590950A
:104510009B01AC01BD01CF01089597FB092E052633
:104520000ED057FD04D0D7DF0AD0001C38F45095C8
:104530004095309521953F4F4F4F5F4F0895F6F7C7
:1045400090958095709561957F4F8F4F9F4F0895FF
:104550002F923F924F925F926F927F928F929F9293
:10456000AF92BF92CF92DF92EF92FF920F931F9381
:10457000CF93DF93CDB7DEB7CA1BDB0B0FB6F89432
:10458000DEBF0FBECDBF19942A88398848885F8462
:104590006E847D848C849B84AA84B984C884DF80E3
:1045A000EE80FD800C811B81AA81B981CE0FD11DC7
:1045B0000FB6F894DEBF0FBECDBFED010895FB012D
:1045C000DC0102C001900D9241505040D8F708958F
:1045D000DC0101C06D9341505040E0F70895FB01AC
:1045E000DC014150504048F001900D920020C9F785
:1045F00001C01D9241505040E0F70895FA01CF9359
:10460000FF93EF932230CCF02532BCF4C22F2C2F35
:10461000332744275527FF93EF930E946B22EF9196
:10462000FF91605D6A330CF0695D6193B901CA0165
:10463000605070408040904051F710828F919F9160
:10464000CF910C943923FB019F01423074F0453225
:1046500064F4642F77270E944923805D8A330CF02D
:10466000895D8193CB010097A1F71082C9010C9459
:104670003923DC01FC01672F71917723E1F7329731
:1046800004C07C916D9370836291AE17BF07C8F32D
:104690000895AA1BBB1B51E107C0AA1FBB1FA61789
:1046A000B70710F0A61BB70B881F991F5A95A9F7DB
:0E46B00080959095BC01CD010895F894FFCF40
:1046BE005072696E740055736572496E740053744E
:1046CE00656572696E67002F000D0000000000AB7B
:1046DE0003C811416C6C20796F757220726561642C
:1046EE00696E6773206172652062656C6F6E6720FC
:1046FE00746F20757300412F4420636F6E73747254
:10470E007563746F72204F4B00000000003706C8AF
:10471E0011371749444C4500FFFFFFFF0000000012
:10472E009514000000009514C8117478745F710917
:10473E000000000000BC1475126D124C12C214C39E
:10474E00149212FAFF00008E12030A00000000BC41
:10475E00149514C014BE14C214C31400000000BC7F
:10476E00147C16EC16A616C2140D170000000000DD
:10477E000000000001020203030303040404040406
:10478E0004040405050505050505050505050505CE
:10479E0005050506060606060606060606060606AE
:1047AE00060606060606060606060606060606069B
:1047BE00060606070707070707070707070707077E
:1047CE00070707070707070707070707070707076B
:1047DE00070707070707070707070707070707075B
:1047EE00070707070707070707070707070707074B
:1047FE00070707080808080808080808080808082E
:10480E00080808080808080808080808080808081A
:10481E00080808080808080808080808080808080A
:10482E0008080808080808080808080808080808FA
:10483E0008080808080808080808080808080808EA
:10484E0008080808080808080808080808080808DA
:10485E0008080808080808080808080808080808CA
:10486E0008080808080808080808080808080808BA
:04487E00080808001E
:00000001FF
